{
	"keccak.sol": {
		"hash": {
			"abi": [
				{
					"inputs": [
						{
							"internalType": "string",
							"name": "a",
							"type": "string"
						}
					],
					"name": "calcularHash",
					"outputs": [
						{
							"internalType": "bytes32",
							"name": "",
							"type": "bytes32"
						}
					],
					"stateMutability": "pure",
					"type": "function"
				}
			],
			"devdoc": {
				"kind": "dev",
				"methods": {},
				"version": 1
			},
			"evm": {
				"assembly": "    /* \"keccak.sol\":71:214  contract hash{\r... */\n  mstore(0x40, 0x80)\n  callvalue\n  dup1\n  iszero\n  tag_1\n  jumpi\n  0x00\n  dup1\n  revert\ntag_1:\n  pop\n  dataSize(sub_0)\n  dup1\n  dataOffset(sub_0)\n  0x00\n  codecopy\n  0x00\n  return\nstop\n\nsub_0: assembly {\n        /* \"keccak.sol\":71:214  contract hash{\r... */\n      mstore(0x40, 0x80)\n      callvalue\n      dup1\n      iszero\n      tag_1\n      jumpi\n      0x00\n      dup1\n      revert\n    tag_1:\n      pop\n      jumpi(tag_2, lt(calldatasize, 0x04))\n      shr(0xe0, calldataload(0x00))\n      dup1\n      0x3d76e909\n      eq\n      tag_3\n      jumpi\n    tag_2:\n      0x00\n      dup1\n      revert\n        /* \"keccak.sol\":87:210  function calcularHash(string memory a) public pure returns(bytes32){\r... */\n    tag_3:\n      tag_4\n      0x04\n      dup1\n      calldatasize\n      sub\n      dup2\n      add\n      swap1\n      tag_5\n      swap2\n      swap1\n      tag_6\n      jump\t// in\n    tag_5:\n      tag_7\n      jump\t// in\n    tag_4:\n      mload(0x40)\n      tag_8\n      swap2\n      swap1\n      tag_9\n      jump\t// in\n    tag_8:\n      mload(0x40)\n      dup1\n      swap2\n      sub\n      swap1\n      return\n    tag_7:\n        /* \"keccak.sol\":146:153  bytes32 */\n      0x00\n        /* \"keccak.sol\":195:196  a */\n      dup2\n        /* \"keccak.sol\":178:197  abi.encodePacked(a) */\n      add(0x20, mload(0x40))\n      tag_11\n      swap2\n      swap1\n      tag_12\n      jump\t// in\n    tag_11:\n      mload(0x40)\n      0x20\n      dup2\n      dup4\n      sub\n      sub\n      dup2\n      mstore\n      swap1\n      0x40\n      mstore\n        /* \"keccak.sol\":168:198  keccak256(abi.encodePacked(a)) */\n      dup1\n      mload\n      swap1\n      0x20\n      add\n      keccak256\n        /* \"keccak.sol\":161:198  return keccak256(abi.encodePacked(a)) */\n      swap1\n      pop\n        /* \"keccak.sol\":87:210  function calcularHash(string memory a) public pure returns(bytes32){\r... */\n      swap2\n      swap1\n      pop\n      jump\t// out\n        /* \"--CODEGEN--\":6:448   */\n    tag_14:\n      0x00\n        /* \"--CODEGEN--\":108:111   */\n      dup3\n        /* \"--CODEGEN--\":101:105   */\n      0x1f\n        /* \"--CODEGEN--\":93:99   */\n      dup4\n        /* \"--CODEGEN--\":89:106   */\n      add\n        /* \"--CODEGEN--\":85:112   */\n      slt\n        /* \"--CODEGEN--\":75:77   */\n      tag_16\n      jumpi\n        /* \"--CODEGEN--\":126:127   */\n      0x00\n        /* \"--CODEGEN--\":123:124   */\n      dup1\n        /* \"--CODEGEN--\":116:128   */\n      revert\n        /* \"--CODEGEN--\":75:77   */\n    tag_16:\n        /* \"--CODEGEN--\":163:169   */\n      dup2\n        /* \"--CODEGEN--\":150:170   */\n      calldataload\n        /* \"--CODEGEN--\":185:250   */\n      tag_17\n        /* \"--CODEGEN--\":200:249   */\n      tag_18\n        /* \"--CODEGEN--\":242:248   */\n      dup3\n        /* \"--CODEGEN--\":200:249   */\n      tag_19\n      jump\t// in\n    tag_18:\n        /* \"--CODEGEN--\":185:250   */\n      tag_20\n      jump\t// in\n    tag_17:\n        /* \"--CODEGEN--\":176:250   */\n      swap2\n      pop\n        /* \"--CODEGEN--\":270:276   */\n      dup1\n        /* \"--CODEGEN--\":263:268   */\n      dup3\n        /* \"--CODEGEN--\":256:277   */\n      mstore\n        /* \"--CODEGEN--\":306:310   */\n      0x20\n        /* \"--CODEGEN--\":298:304   */\n      dup4\n        /* \"--CODEGEN--\":294:311   */\n      add\n        /* \"--CODEGEN--\":339:343   */\n      0x20\n        /* \"--CODEGEN--\":332:337   */\n      dup4\n        /* \"--CODEGEN--\":328:344   */\n      add\n        /* \"--CODEGEN--\":374:377   */\n      dup6\n        /* \"--CODEGEN--\":365:371   */\n      dup4\n        /* \"--CODEGEN--\":360:363   */\n      dup4\n        /* \"--CODEGEN--\":356:372   */\n      add\n        /* \"--CODEGEN--\":353:378   */\n      gt\n        /* \"--CODEGEN--\":350:352   */\n      iszero\n      tag_21\n      jumpi\n        /* \"--CODEGEN--\":391:392   */\n      0x00\n        /* \"--CODEGEN--\":388:389   */\n      dup1\n        /* \"--CODEGEN--\":381:393   */\n      revert\n        /* \"--CODEGEN--\":350:352   */\n    tag_21:\n        /* \"--CODEGEN--\":401:442   */\n      tag_22\n        /* \"--CODEGEN--\":435:441   */\n      dup4\n        /* \"--CODEGEN--\":430:433   */\n      dup3\n        /* \"--CODEGEN--\":425:428   */\n      dup5\n        /* \"--CODEGEN--\":401:442   */\n      tag_23\n      jump\t// in\n    tag_22:\n        /* \"--CODEGEN--\":68:448   */\n      pop\n      pop\n      pop\n      swap3\n      swap2\n      pop\n      pop\n      jump\t// out\n        /* \"--CODEGEN--\":456:803   */\n    tag_6:\n      0x00\n        /* \"--CODEGEN--\":570:572   */\n      0x20\n        /* \"--CODEGEN--\":558:567   */\n      dup3\n        /* \"--CODEGEN--\":549:556   */\n      dup5\n        /* \"--CODEGEN--\":545:568   */\n      sub\n        /* \"--CODEGEN--\":541:573   */\n      slt\n        /* \"--CODEGEN--\":538:540   */\n      iszero\n      tag_25\n      jumpi\n        /* \"--CODEGEN--\":586:587   */\n      0x00\n        /* \"--CODEGEN--\":583:584   */\n      dup1\n        /* \"--CODEGEN--\":576:588   */\n      revert\n        /* \"--CODEGEN--\":538:540   */\n    tag_25:\n        /* \"--CODEGEN--\":649:650   */\n      0x00\n        /* \"--CODEGEN--\":638:647   */\n      dup3\n        /* \"--CODEGEN--\":634:651   */\n      add\n        /* \"--CODEGEN--\":621:652   */\n      calldataload\n        /* \"--CODEGEN--\":672:690   */\n      0xffffffffffffffff\n        /* \"--CODEGEN--\":664:670   */\n      dup2\n        /* \"--CODEGEN--\":661:691   */\n      gt\n        /* \"--CODEGEN--\":658:660   */\n      iszero\n      tag_26\n      jumpi\n        /* \"--CODEGEN--\":704:705   */\n      0x00\n        /* \"--CODEGEN--\":701:702   */\n      dup1\n        /* \"--CODEGEN--\":694:706   */\n      revert\n        /* \"--CODEGEN--\":658:660   */\n    tag_26:\n        /* \"--CODEGEN--\":724:787   */\n      tag_27\n        /* \"--CODEGEN--\":779:786   */\n      dup5\n        /* \"--CODEGEN--\":770:776   */\n      dup3\n        /* \"--CODEGEN--\":759:768   */\n      dup6\n        /* \"--CODEGEN--\":755:777   */\n      add\n        /* \"--CODEGEN--\":724:787   */\n      tag_14\n      jump\t// in\n    tag_27:\n        /* \"--CODEGEN--\":714:787   */\n      swap2\n      pop\n        /* \"--CODEGEN--\":600:793   */\n      pop\n        /* \"--CODEGEN--\":532:803   */\n      swap3\n      swap2\n      pop\n      pop\n      jump\t// out\n        /* \"--CODEGEN--\":810:923   */\n    tag_28:\n        /* \"--CODEGEN--\":893:917   */\n      tag_30\n        /* \"--CODEGEN--\":911:916   */\n      dup2\n        /* \"--CODEGEN--\":893:917   */\n      tag_31\n      jump\t// in\n    tag_30:\n        /* \"--CODEGEN--\":888:891   */\n      dup3\n        /* \"--CODEGEN--\":881:918   */\n      mstore\n        /* \"--CODEGEN--\":875:923   */\n      pop\n      pop\n      jump\t// out\n        /* \"--CODEGEN--\":930:1290   */\n    tag_32:\n      0x00\n        /* \"--CODEGEN--\":1060:1099   */\n      tag_34\n        /* \"--CODEGEN--\":1093:1098   */\n      dup3\n        /* \"--CODEGEN--\":1060:1099   */\n      tag_35\n      jump\t// in\n    tag_34:\n        /* \"--CODEGEN--\":1111:1200   */\n      tag_36\n        /* \"--CODEGEN--\":1193:1199   */\n      dup2\n        /* \"--CODEGEN--\":1188:1191   */\n      dup6\n        /* \"--CODEGEN--\":1111:1200   */\n      tag_37\n      jump\t// in\n    tag_36:\n        /* \"--CODEGEN--\":1104:1200   */\n      swap4\n      pop\n        /* \"--CODEGEN--\":1205:1257   */\n      tag_38\n        /* \"--CODEGEN--\":1250:1256   */\n      dup2\n        /* \"--CODEGEN--\":1245:1248   */\n      dup6\n        /* \"--CODEGEN--\":1238:1242   */\n      0x20\n        /* \"--CODEGEN--\":1231:1236   */\n      dup7\n        /* \"--CODEGEN--\":1227:1243   */\n      add\n        /* \"--CODEGEN--\":1205:1257   */\n      tag_39\n      jump\t// in\n    tag_38:\n        /* \"--CODEGEN--\":1278:1284   */\n      dup1\n        /* \"--CODEGEN--\":1273:1276   */\n      dup5\n        /* \"--CODEGEN--\":1269:1285   */\n      add\n        /* \"--CODEGEN--\":1262:1285   */\n      swap2\n      pop\n        /* \"--CODEGEN--\":1040:1290   */\n      pop\n      swap3\n      swap2\n      pop\n      pop\n      jump\t// out\n        /* \"--CODEGEN--\":1297:1572   */\n    tag_12:\n      0x00\n        /* \"--CODEGEN--\":1452:1547   */\n      tag_41\n        /* \"--CODEGEN--\":1543:1546   */\n      dup3\n        /* \"--CODEGEN--\":1534:1540   */\n      dup5\n        /* \"--CODEGEN--\":1452:1547   */\n      tag_32\n      jump\t// in\n    tag_41:\n        /* \"--CODEGEN--\":1445:1547   */\n      swap2\n      pop\n        /* \"--CODEGEN--\":1564:1567   */\n      dup2\n        /* \"--CODEGEN--\":1557:1567   */\n      swap1\n      pop\n        /* \"--CODEGEN--\":1433:1572   */\n      swap3\n      swap2\n      pop\n      pop\n      jump\t// out\n        /* \"--CODEGEN--\":1579:1801   */\n    tag_9:\n      0x00\n        /* \"--CODEGEN--\":1706:1708   */\n      0x20\n        /* \"--CODEGEN--\":1695:1704   */\n      dup3\n        /* \"--CODEGEN--\":1691:1709   */\n      add\n        /* \"--CODEGEN--\":1683:1709   */\n      swap1\n      pop\n        /* \"--CODEGEN--\":1720:1791   */\n      tag_43\n        /* \"--CODEGEN--\":1788:1789   */\n      0x00\n        /* \"--CODEGEN--\":1777:1786   */\n      dup4\n        /* \"--CODEGEN--\":1773:1790   */\n      add\n        /* \"--CODEGEN--\":1764:1770   */\n      dup5\n        /* \"--CODEGEN--\":1720:1791   */\n      tag_28\n      jump\t// in\n    tag_43:\n        /* \"--CODEGEN--\":1677:1801   */\n      swap3\n      swap2\n      pop\n      pop\n      jump\t// out\n        /* \"--CODEGEN--\":1808:2064   */\n    tag_20:\n      0x00\n        /* \"--CODEGEN--\":1870:1872   */\n      0x40\n        /* \"--CODEGEN--\":1864:1873   */\n      mload\n        /* \"--CODEGEN--\":1854:1873   */\n      swap1\n      pop\n        /* \"--CODEGEN--\":1908:1912   */\n      dup2\n        /* \"--CODEGEN--\":1900:1906   */\n      dup2\n        /* \"--CODEGEN--\":1896:1913   */\n      add\n        /* \"--CODEGEN--\":2007:2013   */\n      dup2\n        /* \"--CODEGEN--\":1995:2005   */\n      dup2\n        /* \"--CODEGEN--\":1992:2014   */\n      lt\n        /* \"--CODEGEN--\":1971:1989   */\n      0xffffffffffffffff\n        /* \"--CODEGEN--\":1959:1969   */\n      dup3\n        /* \"--CODEGEN--\":1956:1990   */\n      gt\n        /* \"--CODEGEN--\":1953:2015   */\n      or\n        /* \"--CODEGEN--\":1950:1952   */\n      iszero\n      tag_45\n      jumpi\n        /* \"--CODEGEN--\":2028:2029   */\n      0x00\n        /* \"--CODEGEN--\":2025:2026   */\n      dup1\n        /* \"--CODEGEN--\":2018:2030   */\n      revert\n        /* \"--CODEGEN--\":1950:1952   */\n    tag_45:\n        /* \"--CODEGEN--\":2048:2058   */\n      dup1\n        /* \"--CODEGEN--\":2044:2046   */\n      0x40\n        /* \"--CODEGEN--\":2037:2059   */\n      mstore\n        /* \"--CODEGEN--\":1848:2064   */\n      pop\n      swap2\n      swap1\n      pop\n      jump\t// out\n        /* \"--CODEGEN--\":2071:2393   */\n    tag_19:\n      0x00\n        /* \"--CODEGEN--\":2215:2233   */\n      0xffffffffffffffff\n        /* \"--CODEGEN--\":2207:2213   */\n      dup3\n        /* \"--CODEGEN--\":2204:2234   */\n      gt\n        /* \"--CODEGEN--\":2201:2203   */\n      iszero\n      tag_47\n      jumpi\n        /* \"--CODEGEN--\":2247:2248   */\n      0x00\n        /* \"--CODEGEN--\":2244:2245   */\n      dup1\n        /* \"--CODEGEN--\":2237:2249   */\n      revert\n        /* \"--CODEGEN--\":2201:2203   */\n    tag_47:\n        /* \"--CODEGEN--\":2314:2318   */\n      0x1f\n        /* \"--CODEGEN--\":2310:2319   */\n      not\n        /* \"--CODEGEN--\":2303:2307   */\n      0x1f\n        /* \"--CODEGEN--\":2295:2301   */\n      dup4\n        /* \"--CODEGEN--\":2291:2308   */\n      add\n        /* \"--CODEGEN--\":2287:2320   */\n      and\n        /* \"--CODEGEN--\":2279:2320   */\n      swap1\n      pop\n        /* \"--CODEGEN--\":2378:2382   */\n      0x20\n        /* \"--CODEGEN--\":2372:2376   */\n      dup2\n        /* \"--CODEGEN--\":2368:2383   */\n      add\n        /* \"--CODEGEN--\":2360:2383   */\n      swap1\n      pop\n        /* \"--CODEGEN--\":2138:2393   */\n      swap2\n      swap1\n      pop\n      jump\t// out\n        /* \"--CODEGEN--\":2400:2522   */\n    tag_35:\n      0x00\n        /* \"--CODEGEN--\":2494:2499   */\n      dup2\n        /* \"--CODEGEN--\":2488:2500   */\n      mload\n        /* \"--CODEGEN--\":2478:2500   */\n      swap1\n      pop\n        /* \"--CODEGEN--\":2459:2522   */\n      swap2\n      swap1\n      pop\n      jump\t// out\n        /* \"--CODEGEN--\":2530:2675   */\n    tag_37:\n      0x00\n        /* \"--CODEGEN--\":2666:2669   */\n      dup2\n        /* \"--CODEGEN--\":2651:2669   */\n      swap1\n      pop\n        /* \"--CODEGEN--\":2644:2675   */\n      swap3\n      swap2\n      pop\n      pop\n      jump\t// out\n        /* \"--CODEGEN--\":2683:2755   */\n    tag_31:\n      0x00\n        /* \"--CODEGEN--\":2745:2750   */\n      dup2\n        /* \"--CODEGEN--\":2734:2750   */\n      swap1\n      pop\n        /* \"--CODEGEN--\":2728:2755   */\n      swap2\n      swap1\n      pop\n      jump\t// out\n        /* \"--CODEGEN--\":2763:2908   */\n    tag_23:\n        /* \"--CODEGEN--\":2844:2850   */\n      dup3\n        /* \"--CODEGEN--\":2839:2842   */\n      dup2\n        /* \"--CODEGEN--\":2834:2837   */\n      dup4\n        /* \"--CODEGEN--\":2821:2851   */\n      calldatacopy\n        /* \"--CODEGEN--\":2900:2901   */\n      0x00\n        /* \"--CODEGEN--\":2891:2897   */\n      dup4\n        /* \"--CODEGEN--\":2886:2889   */\n      dup4\n        /* \"--CODEGEN--\":2882:2898   */\n      add\n        /* \"--CODEGEN--\":2875:2902   */\n      mstore\n        /* \"--CODEGEN--\":2814:2908   */\n      pop\n      pop\n      pop\n      jump\t// out\n        /* \"--CODEGEN--\":2917:3185   */\n    tag_39:\n        /* \"--CODEGEN--\":2982:2983   */\n      0x00\n        /* \"--CODEGEN--\":2989:3090   */\n    tag_53:\n        /* \"--CODEGEN--\":3003:3009   */\n      dup4\n        /* \"--CODEGEN--\":3000:3001   */\n      dup2\n        /* \"--CODEGEN--\":2997:3010   */\n      lt\n        /* \"--CODEGEN--\":2989:3090   */\n      iszero\n      tag_55\n      jumpi\n        /* \"--CODEGEN--\":3079:3080   */\n      dup1\n        /* \"--CODEGEN--\":3074:3077   */\n      dup3\n        /* \"--CODEGEN--\":3070:3081   */\n      add\n        /* \"--CODEGEN--\":3064:3082   */\n      mload\n        /* \"--CODEGEN--\":3060:3061   */\n      dup2\n        /* \"--CODEGEN--\":3055:3058   */\n      dup5\n        /* \"--CODEGEN--\":3051:3062   */\n      add\n        /* \"--CODEGEN--\":3044:3083   */\n      mstore\n        /* \"--CODEGEN--\":3025:3027   */\n      0x20\n        /* \"--CODEGEN--\":3022:3023   */\n      dup2\n        /* \"--CODEGEN--\":3018:3028   */\n      add\n        /* \"--CODEGEN--\":3013:3028   */\n      swap1\n      pop\n        /* \"--CODEGEN--\":2989:3090   */\n      jump(tag_53)\n    tag_55:\n        /* \"--CODEGEN--\":3105:3111   */\n      dup4\n        /* \"--CODEGEN--\":3102:3103   */\n      dup2\n        /* \"--CODEGEN--\":3099:3112   */\n      gt\n        /* \"--CODEGEN--\":3096:3098   */\n      iszero\n      tag_56\n      jumpi\n        /* \"--CODEGEN--\":3170:3171   */\n      0x00\n        /* \"--CODEGEN--\":3161:3167   */\n      dup5\n        /* \"--CODEGEN--\":3156:3159   */\n      dup5\n        /* \"--CODEGEN--\":3152:3168   */\n      add\n        /* \"--CODEGEN--\":3145:3172   */\n      mstore\n        /* \"--CODEGEN--\":3096:3098   */\n    tag_56:\n        /* \"--CODEGEN--\":2966:3185   */\n      pop\n      pop\n      pop\n      pop\n      jump\t// out\n\n    auxdata: 0xa2646970667358221220e4757baa065fe1f2d295206da9947f9148a3d86c59bceb5e567fc6512f76863264736f6c634300060c0033\n}\n",
				"bytecode": {
					"linkReferences": {},
					"object": "608060405234801561001057600080fd5b50610288806100206000396000f3fe608060405234801561001057600080fd5b506004361061002b5760003560e01c80633d76e90914610030575b600080fd5b61004a600480360381019061004591906100e4565b610060565b604051610057919061017c565b60405180910390f35b6000816040516020016100739190610165565b604051602081830303815290604052805190602001209050919050565b600082601f8301126100a157600080fd5b81356100b46100af826101c4565b610197565b915080825260208301602083018583830111156100d057600080fd5b6100db838284610210565b50505092915050565b6000602082840312156100f657600080fd5b600082013567ffffffffffffffff81111561011057600080fd5b61011c84828501610090565b91505092915050565b61012e81610206565b82525050565b600061013f826101f0565b61014981856101fb565b935061015981856020860161021f565b80840191505092915050565b60006101718284610134565b915081905092915050565b60006020820190506101916000830184610125565b92915050565b6000604051905081810181811067ffffffffffffffff821117156101ba57600080fd5b8060405250919050565b600067ffffffffffffffff8211156101db57600080fd5b601f19601f8301169050602081019050919050565b600081519050919050565b600081905092915050565b6000819050919050565b82818337600083830152505050565b60005b8381101561023d578082015181840152602081019050610222565b8381111561024c576000848401525b5050505056fea2646970667358221220e4757baa065fe1f2d295206da9947f9148a3d86c59bceb5e567fc6512f76863264736f6c634300060c0033",
					"opcodes": "PUSH1 0x80 PUSH1 0x40 MSTORE CALLVALUE DUP1 ISZERO PUSH2 0x10 JUMPI PUSH1 0x0 DUP1 REVERT JUMPDEST POP PUSH2 0x288 DUP1 PUSH2 0x20 PUSH1 0x0 CODECOPY PUSH1 0x0 RETURN INVALID PUSH1 0x80 PUSH1 0x40 MSTORE CALLVALUE DUP1 ISZERO PUSH2 0x10 JUMPI PUSH1 0x0 DUP1 REVERT JUMPDEST POP PUSH1 0x4 CALLDATASIZE LT PUSH2 0x2B JUMPI PUSH1 0x0 CALLDATALOAD PUSH1 0xE0 SHR DUP1 PUSH4 0x3D76E909 EQ PUSH2 0x30 JUMPI JUMPDEST PUSH1 0x0 DUP1 REVERT JUMPDEST PUSH2 0x4A PUSH1 0x4 DUP1 CALLDATASIZE SUB DUP2 ADD SWAP1 PUSH2 0x45 SWAP2 SWAP1 PUSH2 0xE4 JUMP JUMPDEST PUSH2 0x60 JUMP JUMPDEST PUSH1 0x40 MLOAD PUSH2 0x57 SWAP2 SWAP1 PUSH2 0x17C JUMP JUMPDEST PUSH1 0x40 MLOAD DUP1 SWAP2 SUB SWAP1 RETURN JUMPDEST PUSH1 0x0 DUP2 PUSH1 0x40 MLOAD PUSH1 0x20 ADD PUSH2 0x73 SWAP2 SWAP1 PUSH2 0x165 JUMP JUMPDEST PUSH1 0x40 MLOAD PUSH1 0x20 DUP2 DUP4 SUB SUB DUP2 MSTORE SWAP1 PUSH1 0x40 MSTORE DUP1 MLOAD SWAP1 PUSH1 0x20 ADD KECCAK256 SWAP1 POP SWAP2 SWAP1 POP JUMP JUMPDEST PUSH1 0x0 DUP3 PUSH1 0x1F DUP4 ADD SLT PUSH2 0xA1 JUMPI PUSH1 0x0 DUP1 REVERT JUMPDEST DUP2 CALLDATALOAD PUSH2 0xB4 PUSH2 0xAF DUP3 PUSH2 0x1C4 JUMP JUMPDEST PUSH2 0x197 JUMP JUMPDEST SWAP2 POP DUP1 DUP3 MSTORE PUSH1 0x20 DUP4 ADD PUSH1 0x20 DUP4 ADD DUP6 DUP4 DUP4 ADD GT ISZERO PUSH2 0xD0 JUMPI PUSH1 0x0 DUP1 REVERT JUMPDEST PUSH2 0xDB DUP4 DUP3 DUP5 PUSH2 0x210 JUMP JUMPDEST POP POP POP SWAP3 SWAP2 POP POP JUMP JUMPDEST PUSH1 0x0 PUSH1 0x20 DUP3 DUP5 SUB SLT ISZERO PUSH2 0xF6 JUMPI PUSH1 0x0 DUP1 REVERT JUMPDEST PUSH1 0x0 DUP3 ADD CALLDATALOAD PUSH8 0xFFFFFFFFFFFFFFFF DUP2 GT ISZERO PUSH2 0x110 JUMPI PUSH1 0x0 DUP1 REVERT JUMPDEST PUSH2 0x11C DUP5 DUP3 DUP6 ADD PUSH2 0x90 JUMP JUMPDEST SWAP2 POP POP SWAP3 SWAP2 POP POP JUMP JUMPDEST PUSH2 0x12E DUP2 PUSH2 0x206 JUMP JUMPDEST DUP3 MSTORE POP POP JUMP JUMPDEST PUSH1 0x0 PUSH2 0x13F DUP3 PUSH2 0x1F0 JUMP JUMPDEST PUSH2 0x149 DUP2 DUP6 PUSH2 0x1FB JUMP JUMPDEST SWAP4 POP PUSH2 0x159 DUP2 DUP6 PUSH1 0x20 DUP7 ADD PUSH2 0x21F JUMP JUMPDEST DUP1 DUP5 ADD SWAP2 POP POP SWAP3 SWAP2 POP POP JUMP JUMPDEST PUSH1 0x0 PUSH2 0x171 DUP3 DUP5 PUSH2 0x134 JUMP JUMPDEST SWAP2 POP DUP2 SWAP1 POP SWAP3 SWAP2 POP POP JUMP JUMPDEST PUSH1 0x0 PUSH1 0x20 DUP3 ADD SWAP1 POP PUSH2 0x191 PUSH1 0x0 DUP4 ADD DUP5 PUSH2 0x125 JUMP JUMPDEST SWAP3 SWAP2 POP POP JUMP JUMPDEST PUSH1 0x0 PUSH1 0x40 MLOAD SWAP1 POP DUP2 DUP2 ADD DUP2 DUP2 LT PUSH8 0xFFFFFFFFFFFFFFFF DUP3 GT OR ISZERO PUSH2 0x1BA JUMPI PUSH1 0x0 DUP1 REVERT JUMPDEST DUP1 PUSH1 0x40 MSTORE POP SWAP2 SWAP1 POP JUMP JUMPDEST PUSH1 0x0 PUSH8 0xFFFFFFFFFFFFFFFF DUP3 GT ISZERO PUSH2 0x1DB JUMPI PUSH1 0x0 DUP1 REVERT JUMPDEST PUSH1 0x1F NOT PUSH1 0x1F DUP4 ADD AND SWAP1 POP PUSH1 0x20 DUP2 ADD SWAP1 POP SWAP2 SWAP1 POP JUMP JUMPDEST PUSH1 0x0 DUP2 MLOAD SWAP1 POP SWAP2 SWAP1 POP JUMP JUMPDEST PUSH1 0x0 DUP2 SWAP1 POP SWAP3 SWAP2 POP POP JUMP JUMPDEST PUSH1 0x0 DUP2 SWAP1 POP SWAP2 SWAP1 POP JUMP JUMPDEST DUP3 DUP2 DUP4 CALLDATACOPY PUSH1 0x0 DUP4 DUP4 ADD MSTORE POP POP POP JUMP JUMPDEST PUSH1 0x0 JUMPDEST DUP4 DUP2 LT ISZERO PUSH2 0x23D JUMPI DUP1 DUP3 ADD MLOAD DUP2 DUP5 ADD MSTORE PUSH1 0x20 DUP2 ADD SWAP1 POP PUSH2 0x222 JUMP JUMPDEST DUP4 DUP2 GT ISZERO PUSH2 0x24C JUMPI PUSH1 0x0 DUP5 DUP5 ADD MSTORE JUMPDEST POP POP POP POP JUMP INVALID LOG2 PUSH5 0x6970667358 0x22 SLT KECCAK256 0xE4 PUSH22 0x7BAA065FE1F2D295206DA9947F9148A3D86C59BCEB5E JUMP PUSH32 0xC6512F76863264736F6C634300060C0033000000000000000000000000000000 "
				},
				"gasEstimates": {
					"creation": {
						"codeDepositCost": "129600",
						"executionCost": "177",
						"totalCost": "129777"
					},
					"external": {
						"calcularHash(string)": "infinite"
					}
				},
				"methodIdentifiers": {
					"calcularHash(string)": "3d76e909"
				}
			},
			"storageLayout": {
				"storage": [],
				"types": null
			},
			"userdoc": {
				"kind": "user",
				"methods": {},
				"version": 1
			}
		}
	}
}