{
	"Pruebas y Primeros pasos/funciones.sol": {
		"funciones": {
			"abi": [
				{
					"inputs": [
						{
							"internalType": "string",
							"name": "_ingredientes",
							"type": "string"
						}
					],
					"name": "Hamburguesas",
					"outputs": [],
					"stateMutability": "nonpayable",
					"type": "function"
				},
				{
					"inputs": [
						{
							"internalType": "uint256",
							"name": "",
							"type": "uint256"
						}
					],
					"name": "direcciones",
					"outputs": [
						{
							"internalType": "uint256",
							"name": "",
							"type": "uint256"
						}
					],
					"stateMutability": "view",
					"type": "function"
				},
				{
					"inputs": [],
					"name": "hamburguesa",
					"outputs": [
						{
							"internalType": "string",
							"name": "nombre",
							"type": "string"
						},
						{
							"internalType": "string",
							"name": "ingredientes",
							"type": "string"
						}
					],
					"stateMutability": "view",
					"type": "function"
				},
				{
					"inputs": [],
					"name": "hash",
					"outputs": [
						{
							"internalType": "bytes32",
							"name": "",
							"type": "bytes32"
						}
					],
					"stateMutability": "view",
					"type": "function"
				},
				{
					"inputs": [],
					"name": "hash_Id_alumno",
					"outputs": [
						{
							"internalType": "bytes32",
							"name": "",
							"type": "bytes32"
						}
					],
					"stateMutability": "view",
					"type": "function"
				},
				{
					"inputs": [
						{
							"internalType": "uint256",
							"name": "",
							"type": "uint256"
						}
					],
					"name": "lista",
					"outputs": [
						{
							"internalType": "string",
							"name": "nombre",
							"type": "string"
						},
						{
							"internalType": "address",
							"name": "direccion",
							"type": "address"
						},
						{
							"internalType": "uint256",
							"name": "edad",
							"type": "uint256"
						}
					],
					"stateMutability": "view",
					"type": "function"
				},
				{
					"inputs": [],
					"name": "nuevaDireccion",
					"outputs": [],
					"stateMutability": "nonpayable",
					"type": "function"
				},
				{
					"inputs": [
						{
							"internalType": "string",
							"name": "_nombre",
							"type": "string"
						},
						{
							"internalType": "uint256",
							"name": "_edad",
							"type": "uint256"
						}
					],
					"name": "nuevoAlumno",
					"outputs": [],
					"stateMutability": "nonpayable",
					"type": "function"
				}
			],
			"devdoc": {
				"kind": "dev",
				"methods": {},
				"version": 1
			},
			"evm": {
				"assembly": "    /* \"Pruebas y Primeros pasos/funciones.sol\":128:1623  contract funciones{... */\n  mstore(0x40, 0x80)\n  callvalue\n  dup1\n  iszero\n  tag_1\n  jumpi\n  0x00\n  dup1\n  revert\ntag_1:\n  pop\n  dataSize(sub_0)\n  dup1\n  dataOffset(sub_0)\n  0x00\n  codecopy\n  0x00\n  return\nstop\n\nsub_0: assembly {\n        /* \"Pruebas y Primeros pasos/funciones.sol\":128:1623  contract funciones{... */\n      mstore(0x40, 0x80)\n      callvalue\n      dup1\n      iszero\n      tag_1\n      jumpi\n      0x00\n      dup1\n      revert\n    tag_1:\n      pop\n      jumpi(tag_2, lt(calldatasize, 0x04))\n      shr(0xe0, calldataload(0x00))\n      dup1\n      0x5a37fba9\n      gt\n      tag_11\n      jumpi\n      dup1\n      0x5a37fba9\n      eq\n      tag_7\n      jumpi\n      dup1\n      0x631b84bd\n      eq\n      tag_8\n      jumpi\n      dup1\n      0x65293a0d\n      eq\n      tag_9\n      jumpi\n      dup1\n      0xc74efaef\n      eq\n      tag_10\n      jumpi\n      jump(tag_2)\n    tag_11:\n      dup1\n      0x09bd5a60\n      eq\n      tag_3\n      jumpi\n      dup1\n      0x0cc76c14\n      eq\n      tag_4\n      jumpi\n      dup1\n      0x42d73314\n      eq\n      tag_5\n      jumpi\n      dup1\n      0x547cbcad\n      eq\n      tag_6\n      jumpi\n    tag_2:\n      0x00\n      dup1\n      revert\n        /* \"Pruebas y Primeros pasos/funciones.sol\":435:454  bytes32 public hash */\n    tag_3:\n      tag_12\n      tag_13\n      jump\t// in\n    tag_12:\n      mload(0x40)\n      tag_14\n      swap2\n      swap1\n      tag_15\n      jump\t// in\n    tag_14:\n      mload(0x40)\n      dup1\n      swap2\n      sub\n      swap1\n      return\n        /* \"Pruebas y Primeros pasos/funciones.sol\":1315:1336  alumno[] public lista */\n    tag_4:\n      tag_16\n      0x04\n      dup1\n      calldatasize\n      sub\n      dup2\n      add\n      swap1\n      tag_17\n      swap2\n      swap1\n      tag_18\n      jump\t// in\n    tag_17:\n      tag_19\n      jump\t// in\n    tag_16:\n      mload(0x40)\n      tag_20\n      swap4\n      swap3\n      swap2\n      swap1\n      tag_21\n      jump\t// in\n    tag_20:\n      mload(0x40)\n      dup1\n      swap2\n      sub\n      swap1\n      return\n        /* \"Pruebas y Primeros pasos/funciones.sol\":292:360  function nuevaDireccion() public{... */\n    tag_5:\n      tag_22\n      tag_23\n      jump\t// in\n    tag_22:\n      stop\n        /* \"Pruebas y Primeros pasos/funciones.sol\":256:281  uint[] public direcciones */\n    tag_6:\n      tag_24\n      0x04\n      dup1\n      calldatasize\n      sub\n      dup2\n      add\n      swap1\n      tag_25\n      swap2\n      swap1\n      tag_18\n      jump\t// in\n    tag_25:\n      tag_26\n      jump\t// in\n    tag_24:\n      mload(0x40)\n      tag_27\n      swap2\n      swap1\n      tag_28\n      jump\t// in\n    tag_27:\n      mload(0x40)\n      dup1\n      swap2\n      sub\n      swap1\n      return\n        /* \"Pruebas y Primeros pasos/funciones.sol\":1388:1606  function nuevoAlumno(string memory _nombre, uint _edad) public{... */\n    tag_7:\n      tag_29\n      0x04\n      dup1\n      calldatasize\n      sub\n      dup2\n      add\n      swap1\n      tag_30\n      swap2\n      swap1\n      tag_31\n      jump\t// in\n    tag_30:\n      tag_32\n      jump\t// in\n    tag_29:\n      stop\n        /* \"Pruebas y Primeros pasos/funciones.sol\":702:826  function Hamburguesas(string memory _ingredientes) public{... */\n    tag_8:\n      tag_33\n      0x04\n      dup1\n      calldatasize\n      sub\n      dup2\n      add\n      swap1\n      tag_34\n      swap2\n      swap1\n      tag_35\n      jump\t// in\n    tag_34:\n      tag_36\n      jump\t// in\n    tag_33:\n      stop\n        /* \"Pruebas y Primeros pasos/funciones.sol\":985:1014  bytes32 public hash_Id_alumno */\n    tag_9:\n      tag_37\n      tag_38\n      jump\t// in\n    tag_37:\n      mload(0x40)\n      tag_39\n      swap2\n      swap1\n      tag_15\n      jump\t// in\n    tag_39:\n      mload(0x40)\n      dup1\n      swap2\n      sub\n      swap1\n      return\n        /* \"Pruebas y Primeros pasos/funciones.sol\":666:691  comida public hamburguesa */\n    tag_10:\n      tag_40\n      tag_41\n      jump\t// in\n    tag_40:\n      mload(0x40)\n      tag_42\n      swap3\n      swap2\n      swap1\n      tag_43\n      jump\t// in\n    tag_42:\n      mload(0x40)\n      dup1\n      swap2\n      sub\n      swap1\n      return\n        /* \"Pruebas y Primeros pasos/funciones.sol\":435:454  bytes32 public hash */\n    tag_13:\n      sload(0x01)\n      dup2\n      jump\t// out\n        /* \"Pruebas y Primeros pasos/funciones.sol\":1315:1336  alumno[] public lista */\n    tag_19:\n      0x05\n      dup2\n      dup2\n      sload\n      dup2\n      lt\n      tag_44\n      jumpi\n      invalid\n    tag_44:\n      swap1\n      0x00\n      mstore\n      keccak256(0x00, 0x20)\n      swap1\n      0x03\n      mul\n      add\n      0x00\n      swap2\n      pop\n      swap1\n      pop\n      dup1\n      0x00\n      add\n      dup1\n      sload\n      0x01\n      dup2\n      0x01\n      and\n      iszero\n      0x0100\n      mul\n      sub\n      and\n      0x02\n      swap1\n      div\n      dup1\n      0x1f\n      add\n      0x20\n      dup1\n      swap2\n      div\n      mul\n      0x20\n      add\n      mload(0x40)\n      swap1\n      dup2\n      add\n      0x40\n      mstore\n      dup1\n      swap3\n      swap2\n      swap1\n      dup2\n      dup2\n      mstore\n      0x20\n      add\n      dup3\n      dup1\n      sload\n      0x01\n      dup2\n      0x01\n      and\n      iszero\n      0x0100\n      mul\n      sub\n      and\n      0x02\n      swap1\n      div\n      dup1\n      iszero\n      tag_46\n      jumpi\n      dup1\n      0x1f\n      lt\n      tag_47\n      jumpi\n      0x0100\n      dup1\n      dup4\n      sload\n      div\n      mul\n      dup4\n      mstore\n      swap2\n      0x20\n      add\n      swap2\n      jump(tag_46)\n    tag_47:\n      dup3\n      add\n      swap2\n      swap1\n      0x00\n      mstore\n      keccak256(0x00, 0x20)\n      swap1\n    tag_48:\n      dup2\n      sload\n      dup2\n      mstore\n      swap1\n      0x01\n      add\n      swap1\n      0x20\n      add\n      dup1\n      dup4\n      gt\n      tag_48\n      jumpi\n      dup3\n      swap1\n      sub\n      0x1f\n      and\n      dup3\n      add\n      swap2\n    tag_46:\n      pop\n      pop\n      pop\n      pop\n      pop\n      swap1\n      dup1\n      0x01\n      add\n      0x00\n      swap1\n      sload\n      swap1\n      0x0100\n      exp\n      swap1\n      div\n      0xffffffffffffffffffffffffffffffffffffffff\n      and\n      swap1\n      dup1\n      0x02\n      add\n      sload\n      swap1\n      pop\n      dup4\n      jump\t// out\n        /* \"Pruebas y Primeros pasos/funciones.sol\":292:360  function nuevaDireccion() public{... */\n    tag_23:\n        /* \"Pruebas y Primeros pasos/funciones.sol\":334:345  direcciones */\n      0x00\n        /* \"Pruebas y Primeros pasos/funciones.sol\":351:352  1 */\n      0x01\n        /* \"Pruebas y Primeros pasos/funciones.sol\":334:353  direcciones.push(1) */\n      swap1\n      dup1\n      0x01\n      dup2\n      sload\n      add\n      dup1\n      dup3\n      sstore\n      dup1\n      swap2\n      pop\n      pop\n      0x01\n      swap1\n      sub\n      swap1\n      0x00\n      mstore\n      keccak256(0x00, 0x20)\n      add\n      0x00\n      swap1\n      swap2\n      swap1\n      swap2\n      swap1\n      swap2\n      pop\n      sstore\n        /* \"Pruebas y Primeros pasos/funciones.sol\":292:360  function nuevaDireccion() public{... */\n      jump\t// out\n        /* \"Pruebas y Primeros pasos/funciones.sol\":256:281  uint[] public direcciones */\n    tag_26:\n      0x00\n      dup2\n      dup2\n      sload\n      dup2\n      lt\n      tag_51\n      jumpi\n      invalid\n    tag_51:\n      swap1\n      0x00\n      mstore\n      keccak256(0x00, 0x20)\n      add\n      0x00\n      swap2\n      pop\n      swap1\n      pop\n      sload\n      dup2\n      jump\t// out\n        /* \"Pruebas y Primeros pasos/funciones.sol\":1388:1606  function nuevoAlumno(string memory _nombre, uint _edad) public{... */\n    tag_32:\n        /* \"Pruebas y Primeros pasos/funciones.sol\":1460:1465  lista */\n      0x05\n        /* \"Pruebas y Primeros pasos/funciones.sol\":1471:1505  alumno(_nombre, msg.sender, _edad) */\n      mload(0x40)\n      dup1\n      0x60\n      add\n      0x40\n      mstore\n      dup1\n        /* \"Pruebas y Primeros pasos/funciones.sol\":1478:1485  _nombre */\n      dup5\n        /* \"Pruebas y Primeros pasos/funciones.sol\":1471:1505  alumno(_nombre, msg.sender, _edad) */\n      dup2\n      mstore\n      0x20\n      add\n        /* \"Pruebas y Primeros pasos/funciones.sol\":1487:1497  msg.sender */\n      caller\n        /* \"Pruebas y Primeros pasos/funciones.sol\":1471:1505  alumno(_nombre, msg.sender, _edad) */\n      0xffffffffffffffffffffffffffffffffffffffff\n      and\n      dup2\n      mstore\n      0x20\n      add\n        /* \"Pruebas y Primeros pasos/funciones.sol\":1499:1504  _edad */\n      dup4\n        /* \"Pruebas y Primeros pasos/funciones.sol\":1471:1505  alumno(_nombre, msg.sender, _edad) */\n      dup2\n      mstore\n      pop\n        /* \"Pruebas y Primeros pasos/funciones.sol\":1460:1506  lista.push(alumno(_nombre, msg.sender, _edad)) */\n      swap1\n      dup1\n      0x01\n      dup2\n      sload\n      add\n      dup1\n      dup3\n      sstore\n      dup1\n      swap2\n      pop\n      pop\n      0x01\n      swap1\n      sub\n      swap1\n      0x00\n      mstore\n      keccak256(0x00, 0x20)\n      swap1\n      0x03\n      mul\n      add\n      0x00\n      swap1\n      swap2\n      swap1\n      swap2\n      swap1\n      swap2\n      pop\n      0x00\n      dup3\n      add\n      mload\n      dup2\n      0x00\n      add\n      swap1\n      dup1\n      mload\n      swap1\n      0x20\n      add\n      swap1\n      tag_55\n      swap3\n      swap2\n      swap1\n      tag_56\n      jump\t// in\n    tag_55:\n      pop\n      0x20\n      dup3\n      add\n      mload\n      dup2\n      0x01\n      add\n      exp(0x0100, 0x00)\n      dup2\n      sload\n      dup2\n      0xffffffffffffffffffffffffffffffffffffffff\n      mul\n      not\n      and\n      swap1\n      dup4\n      0xffffffffffffffffffffffffffffffffffffffff\n      and\n      mul\n      or\n      swap1\n      sstore\n      pop\n      0x40\n      dup3\n      add\n      mload\n      dup2\n      0x02\n      add\n      sstore\n      pop\n      pop\n        /* \"Pruebas y Primeros pasos/funciones.sol\":1516:1556  hashIdAlumno(_nombre, msg.sender, _edad) */\n      tag_57\n        /* \"Pruebas y Primeros pasos/funciones.sol\":1529:1536  _nombre */\n      dup3\n        /* \"Pruebas y Primeros pasos/funciones.sol\":1538:1548  msg.sender */\n      caller\n        /* \"Pruebas y Primeros pasos/funciones.sol\":1550:1555  _edad */\n      dup4\n        /* \"Pruebas y Primeros pasos/funciones.sol\":1516:1528  hashIdAlumno */\n      tag_58\n        /* \"Pruebas y Primeros pasos/funciones.sol\":1516:1556  hashIdAlumno(_nombre, msg.sender, _edad) */\n      jump\t// in\n    tag_57:\n        /* \"Pruebas y Primeros pasos/funciones.sol\":1585:1599  hash_Id_alumno */\n      sload(0x04)\n        /* \"Pruebas y Primeros pasos/funciones.sol\":1566:1573  alumnos */\n      0x06\n        /* \"Pruebas y Primeros pasos/funciones.sol\":1574:1581  _nombre */\n      dup4\n        /* \"Pruebas y Primeros pasos/funciones.sol\":1566:1582  alumnos[_nombre] */\n      mload(0x40)\n      tag_59\n      swap2\n      swap1\n      tag_60\n      jump\t// in\n    tag_59:\n      swap1\n      dup2\n      mstore\n      0x20\n      add\n      mload(0x40)\n      dup1\n      swap2\n      sub\n      swap1\n      keccak256\n        /* \"Pruebas y Primeros pasos/funciones.sol\":1566:1599  alumnos[_nombre] = hash_Id_alumno */\n      dup2\n      swap1\n      sstore\n      pop\n        /* \"Pruebas y Primeros pasos/funciones.sol\":1388:1606  function nuevoAlumno(string memory _nombre, uint _edad) public{... */\n      pop\n      pop\n      jump\t// out\n        /* \"Pruebas y Primeros pasos/funciones.sol\":702:826  function Hamburguesas(string memory _ingredientes) public{... */\n    tag_36:\n        /* \"Pruebas y Primeros pasos/funciones.sol\":783:819  comida(\"hamburguesa\", _ingredientes) */\n      mload(0x40)\n      dup1\n      0x40\n      add\n      0x40\n      mstore\n      dup1\n      mload(0x40)\n      dup1\n      0x40\n      add\n      0x40\n      mstore\n      dup1\n      0x0b\n      dup2\n      mstore\n      0x20\n      add\n      0x68616d6275726775657361000000000000000000000000000000000000000000\n      dup2\n      mstore\n      pop\n      dup2\n      mstore\n      0x20\n      add\n        /* \"Pruebas y Primeros pasos/funciones.sol\":805:818  _ingredientes */\n      dup3\n        /* \"Pruebas y Primeros pasos/funciones.sol\":783:819  comida(\"hamburguesa\", _ingredientes) */\n      dup2\n      mstore\n      pop\n        /* \"Pruebas y Primeros pasos/funciones.sol\":769:780  hamburguesa */\n      0x02\n        /* \"Pruebas y Primeros pasos/funciones.sol\":769:819  hamburguesa = comida(\"hamburguesa\", _ingredientes) */\n      0x00\n      dup3\n      add\n      mload\n      dup2\n      0x00\n      add\n      swap1\n      dup1\n      mload\n      swap1\n      0x20\n      add\n      swap1\n      tag_62\n      swap3\n      swap2\n      swap1\n      tag_56\n      jump\t// in\n    tag_62:\n      pop\n      0x20\n      dup3\n      add\n      mload\n      dup2\n      0x01\n      add\n      swap1\n      dup1\n      mload\n      swap1\n      0x20\n      add\n      swap1\n      tag_63\n      swap3\n      swap2\n      swap1\n      tag_56\n      jump\t// in\n    tag_63:\n      pop\n      swap1\n      pop\n      pop\n        /* \"Pruebas y Primeros pasos/funciones.sol\":702:826  function Hamburguesas(string memory _ingredientes) public{... */\n      pop\n      jump\t// out\n        /* \"Pruebas y Primeros pasos/funciones.sol\":985:1014  bytes32 public hash_Id_alumno */\n    tag_38:\n      sload(0x04)\n      dup2\n      jump\t// out\n        /* \"Pruebas y Primeros pasos/funciones.sol\":666:691  comida public hamburguesa */\n    tag_41:\n      0x02\n      dup1\n      0x00\n      add\n      dup1\n      sload\n      0x01\n      dup2\n      0x01\n      and\n      iszero\n      0x0100\n      mul\n      sub\n      and\n      0x02\n      swap1\n      div\n      dup1\n      0x1f\n      add\n      0x20\n      dup1\n      swap2\n      div\n      mul\n      0x20\n      add\n      mload(0x40)\n      swap1\n      dup2\n      add\n      0x40\n      mstore\n      dup1\n      swap3\n      swap2\n      swap1\n      dup2\n      dup2\n      mstore\n      0x20\n      add\n      dup3\n      dup1\n      sload\n      0x01\n      dup2\n      0x01\n      and\n      iszero\n      0x0100\n      mul\n      sub\n      and\n      0x02\n      swap1\n      div\n      dup1\n      iszero\n      tag_64\n      jumpi\n      dup1\n      0x1f\n      lt\n      tag_65\n      jumpi\n      0x0100\n      dup1\n      dup4\n      sload\n      div\n      mul\n      dup4\n      mstore\n      swap2\n      0x20\n      add\n      swap2\n      jump(tag_64)\n    tag_65:\n      dup3\n      add\n      swap2\n      swap1\n      0x00\n      mstore\n      keccak256(0x00, 0x20)\n      swap1\n    tag_66:\n      dup2\n      sload\n      dup2\n      mstore\n      swap1\n      0x01\n      add\n      swap1\n      0x20\n      add\n      dup1\n      dup4\n      gt\n      tag_66\n      jumpi\n      dup3\n      swap1\n      sub\n      0x1f\n      and\n      dup3\n      add\n      swap2\n    tag_64:\n      pop\n      pop\n      pop\n      pop\n      pop\n      swap1\n      dup1\n      0x01\n      add\n      dup1\n      sload\n      0x01\n      dup2\n      0x01\n      and\n      iszero\n      0x0100\n      mul\n      sub\n      and\n      0x02\n      swap1\n      div\n      dup1\n      0x1f\n      add\n      0x20\n      dup1\n      swap2\n      div\n      mul\n      0x20\n      add\n      mload(0x40)\n      swap1\n      dup2\n      add\n      0x40\n      mstore\n      dup1\n      swap3\n      swap2\n      swap1\n      dup2\n      dup2\n      mstore\n      0x20\n      add\n      dup3\n      dup1\n      sload\n      0x01\n      dup2\n      0x01\n      and\n      iszero\n      0x0100\n      mul\n      sub\n      and\n      0x02\n      swap1\n      div\n      dup1\n      iszero\n      tag_67\n      jumpi\n      dup1\n      0x1f\n      lt\n      tag_68\n      jumpi\n      0x0100\n      dup1\n      dup4\n      sload\n      div\n      mul\n      dup4\n      mstore\n      swap2\n      0x20\n      add\n      swap2\n      jump(tag_67)\n    tag_68:\n      dup3\n      add\n      swap2\n      swap1\n      0x00\n      mstore\n      keccak256(0x00, 0x20)\n      swap1\n    tag_69:\n      dup2\n      sload\n      dup2\n      mstore\n      swap1\n      0x01\n      add\n      swap1\n      0x20\n      add\n      dup1\n      dup4\n      gt\n      tag_69\n      jumpi\n      dup3\n      swap1\n      sub\n      0x1f\n      and\n      dup3\n      add\n      swap2\n    tag_67:\n      pop\n      pop\n      pop\n      pop\n      pop\n      swap1\n      pop\n      dup3\n      jump\t// out\n        /* \"Pruebas y Primeros pasos/funciones.sol\":1061:1234  function hashIdAlumno(string memory _nombre, address _direccion, uint _edad) private{... */\n    tag_58:\n        /* \"Pruebas y Primeros pasos/funciones.sol\":1199:1206  _nombre */\n      dup3\n        /* \"Pruebas y Primeros pasos/funciones.sol\":1208:1218  _direccion */\n      dup3\n        /* \"Pruebas y Primeros pasos/funciones.sol\":1220:1225  _edad */\n      dup3\n        /* \"Pruebas y Primeros pasos/funciones.sol\":1182:1226  abi.encodePacked(_nombre, _direccion, _edad) */\n      add(0x20, mload(0x40))\n      tag_71\n      swap4\n      swap3\n      swap2\n      swap1\n      tag_72\n      jump\t// in\n    tag_71:\n      mload(0x40)\n      0x20\n      dup2\n      dup4\n      sub\n      sub\n      dup2\n      mstore\n      swap1\n      0x40\n      mstore\n        /* \"Pruebas y Primeros pasos/funciones.sol\":1172:1227  keccak256(abi.encodePacked(_nombre, _direccion, _edad)) */\n      dup1\n      mload\n      swap1\n      0x20\n      add\n      keccak256\n        /* \"Pruebas y Primeros pasos/funciones.sol\":1155:1169  hash_Id_alumno */\n      0x04\n        /* \"Pruebas y Primeros pasos/funciones.sol\":1155:1227  hash_Id_alumno = keccak256(abi.encodePacked(_nombre, _direccion, _edad)) */\n      dup2\n      swap1\n      sstore\n      pop\n        /* \"Pruebas y Primeros pasos/funciones.sol\":1061:1234  function hashIdAlumno(string memory _nombre, address _direccion, uint _edad) private{... */\n      pop\n      pop\n      pop\n      jump\t// out\n    tag_56:\n      dup3\n      dup1\n      sload\n      0x01\n      dup2\n      0x01\n      and\n      iszero\n      0x0100\n      mul\n      sub\n      and\n      0x02\n      swap1\n      div\n      swap1\n      0x00\n      mstore\n      keccak256(0x00, 0x20)\n      swap1\n      0x1f\n      add\n      0x20\n      swap1\n      div\n      dup2\n      add\n      swap3\n      dup3\n      0x1f\n      lt\n      tag_74\n      jumpi\n      dup1\n      mload\n      not(0xff)\n      and\n      dup4\n      dup1\n      add\n      or\n      dup6\n      sstore\n      jump(tag_73)\n    tag_74:\n      dup3\n      dup1\n      add\n      0x01\n      add\n      dup6\n      sstore\n      dup3\n      iszero\n      tag_73\n      jumpi\n      swap2\n      dup3\n      add\n    tag_75:\n      dup3\n      dup2\n      gt\n      iszero\n      tag_76\n      jumpi\n      dup3\n      mload\n      dup3\n      sstore\n      swap2\n      0x20\n      add\n      swap2\n      swap1\n      0x01\n      add\n      swap1\n      jump(tag_75)\n    tag_76:\n    tag_73:\n      pop\n      swap1\n      pop\n      tag_77\n      swap2\n      swap1\n      tag_78\n      jump\t// in\n    tag_77:\n      pop\n      swap1\n      jump\t// out\n    tag_78:\n    tag_79:\n      dup1\n      dup3\n      gt\n      iszero\n      tag_80\n      jumpi\n      0x00\n      dup2\n      0x00\n      swap1\n      sstore\n      pop\n      0x01\n      add\n      jump(tag_79)\n    tag_80:\n      pop\n      swap1\n      jump\t// out\n        /* \"--CODEGEN--\":6:448   */\n    tag_82:\n      0x00\n        /* \"--CODEGEN--\":108:111   */\n      dup3\n        /* \"--CODEGEN--\":101:105   */\n      0x1f\n        /* \"--CODEGEN--\":93:99   */\n      dup4\n        /* \"--CODEGEN--\":89:106   */\n      add\n        /* \"--CODEGEN--\":85:112   */\n      slt\n        /* \"--CODEGEN--\":75:77   */\n      tag_84\n      jumpi\n        /* \"--CODEGEN--\":126:127   */\n      0x00\n        /* \"--CODEGEN--\":123:124   */\n      dup1\n        /* \"--CODEGEN--\":116:128   */\n      revert\n        /* \"--CODEGEN--\":75:77   */\n    tag_84:\n        /* \"--CODEGEN--\":163:169   */\n      dup2\n        /* \"--CODEGEN--\":150:170   */\n      calldataload\n        /* \"--CODEGEN--\":185:250   */\n      tag_85\n        /* \"--CODEGEN--\":200:249   */\n      tag_86\n        /* \"--CODEGEN--\":242:248   */\n      dup3\n        /* \"--CODEGEN--\":200:249   */\n      tag_87\n      jump\t// in\n    tag_86:\n        /* \"--CODEGEN--\":185:250   */\n      tag_88\n      jump\t// in\n    tag_85:\n        /* \"--CODEGEN--\":176:250   */\n      swap2\n      pop\n        /* \"--CODEGEN--\":270:276   */\n      dup1\n        /* \"--CODEGEN--\":263:268   */\n      dup3\n        /* \"--CODEGEN--\":256:277   */\n      mstore\n        /* \"--CODEGEN--\":306:310   */\n      0x20\n        /* \"--CODEGEN--\":298:304   */\n      dup4\n        /* \"--CODEGEN--\":294:311   */\n      add\n        /* \"--CODEGEN--\":339:343   */\n      0x20\n        /* \"--CODEGEN--\":332:337   */\n      dup4\n        /* \"--CODEGEN--\":328:344   */\n      add\n        /* \"--CODEGEN--\":374:377   */\n      dup6\n        /* \"--CODEGEN--\":365:371   */\n      dup4\n        /* \"--CODEGEN--\":360:363   */\n      dup4\n        /* \"--CODEGEN--\":356:372   */\n      add\n        /* \"--CODEGEN--\":353:378   */\n      gt\n        /* \"--CODEGEN--\":350:352   */\n      iszero\n      tag_89\n      jumpi\n        /* \"--CODEGEN--\":391:392   */\n      0x00\n        /* \"--CODEGEN--\":388:389   */\n      dup1\n        /* \"--CODEGEN--\":381:393   */\n      revert\n        /* \"--CODEGEN--\":350:352   */\n    tag_89:\n        /* \"--CODEGEN--\":401:442   */\n      tag_90\n        /* \"--CODEGEN--\":435:441   */\n      dup4\n        /* \"--CODEGEN--\":430:433   */\n      dup3\n        /* \"--CODEGEN--\":425:428   */\n      dup5\n        /* \"--CODEGEN--\":401:442   */\n      tag_91\n      jump\t// in\n    tag_90:\n        /* \"--CODEGEN--\":68:448   */\n      pop\n      pop\n      pop\n      swap3\n      swap2\n      pop\n      pop\n      jump\t// out\n        /* \"--CODEGEN--\":456:586   */\n    tag_92:\n      0x00\n        /* \"--CODEGEN--\":536:542   */\n      dup2\n        /* \"--CODEGEN--\":523:543   */\n      calldataload\n        /* \"--CODEGEN--\":514:543   */\n      swap1\n      pop\n        /* \"--CODEGEN--\":548:581   */\n      tag_94\n        /* \"--CODEGEN--\":575:580   */\n      dup2\n        /* \"--CODEGEN--\":548:581   */\n      tag_95\n      jump\t// in\n    tag_94:\n        /* \"--CODEGEN--\":508:586   */\n      swap3\n      swap2\n      pop\n      pop\n      jump\t// out\n        /* \"--CODEGEN--\":593:940   */\n    tag_35:\n      0x00\n        /* \"--CODEGEN--\":707:709   */\n      0x20\n        /* \"--CODEGEN--\":695:704   */\n      dup3\n        /* \"--CODEGEN--\":686:693   */\n      dup5\n        /* \"--CODEGEN--\":682:705   */\n      sub\n        /* \"--CODEGEN--\":678:710   */\n      slt\n        /* \"--CODEGEN--\":675:677   */\n      iszero\n      tag_97\n      jumpi\n        /* \"--CODEGEN--\":723:724   */\n      0x00\n        /* \"--CODEGEN--\":720:721   */\n      dup1\n        /* \"--CODEGEN--\":713:725   */\n      revert\n        /* \"--CODEGEN--\":675:677   */\n    tag_97:\n        /* \"--CODEGEN--\":786:787   */\n      0x00\n        /* \"--CODEGEN--\":775:784   */\n      dup3\n        /* \"--CODEGEN--\":771:788   */\n      add\n        /* \"--CODEGEN--\":758:789   */\n      calldataload\n        /* \"--CODEGEN--\":809:827   */\n      0xffffffffffffffff\n        /* \"--CODEGEN--\":801:807   */\n      dup2\n        /* \"--CODEGEN--\":798:828   */\n      gt\n        /* \"--CODEGEN--\":795:797   */\n      iszero\n      tag_98\n      jumpi\n        /* \"--CODEGEN--\":841:842   */\n      0x00\n        /* \"--CODEGEN--\":838:839   */\n      dup1\n        /* \"--CODEGEN--\":831:843   */\n      revert\n        /* \"--CODEGEN--\":795:797   */\n    tag_98:\n        /* \"--CODEGEN--\":861:924   */\n      tag_99\n        /* \"--CODEGEN--\":916:923   */\n      dup5\n        /* \"--CODEGEN--\":907:913   */\n      dup3\n        /* \"--CODEGEN--\":896:905   */\n      dup6\n        /* \"--CODEGEN--\":892:914   */\n      add\n        /* \"--CODEGEN--\":861:924   */\n      tag_82\n      jump\t// in\n    tag_99:\n        /* \"--CODEGEN--\":851:924   */\n      swap2\n      pop\n        /* \"--CODEGEN--\":737:930   */\n      pop\n        /* \"--CODEGEN--\":669:940   */\n      swap3\n      swap2\n      pop\n      pop\n      jump\t// out\n        /* \"--CODEGEN--\":947:1419   */\n    tag_31:\n      0x00\n      dup1\n        /* \"--CODEGEN--\":1078:1080   */\n      0x40\n        /* \"--CODEGEN--\":1066:1075   */\n      dup4\n        /* \"--CODEGEN--\":1057:1064   */\n      dup6\n        /* \"--CODEGEN--\":1053:1076   */\n      sub\n        /* \"--CODEGEN--\":1049:1081   */\n      slt\n        /* \"--CODEGEN--\":1046:1048   */\n      iszero\n      tag_101\n      jumpi\n        /* \"--CODEGEN--\":1094:1095   */\n      0x00\n        /* \"--CODEGEN--\":1091:1092   */\n      dup1\n        /* \"--CODEGEN--\":1084:1096   */\n      revert\n        /* \"--CODEGEN--\":1046:1048   */\n    tag_101:\n        /* \"--CODEGEN--\":1157:1158   */\n      0x00\n        /* \"--CODEGEN--\":1146:1155   */\n      dup4\n        /* \"--CODEGEN--\":1142:1159   */\n      add\n        /* \"--CODEGEN--\":1129:1160   */\n      calldataload\n        /* \"--CODEGEN--\":1180:1198   */\n      0xffffffffffffffff\n        /* \"--CODEGEN--\":1172:1178   */\n      dup2\n        /* \"--CODEGEN--\":1169:1199   */\n      gt\n        /* \"--CODEGEN--\":1166:1168   */\n      iszero\n      tag_102\n      jumpi\n        /* \"--CODEGEN--\":1212:1213   */\n      0x00\n        /* \"--CODEGEN--\":1209:1210   */\n      dup1\n        /* \"--CODEGEN--\":1202:1214   */\n      revert\n        /* \"--CODEGEN--\":1166:1168   */\n    tag_102:\n        /* \"--CODEGEN--\":1232:1295   */\n      tag_103\n        /* \"--CODEGEN--\":1287:1294   */\n      dup6\n        /* \"--CODEGEN--\":1278:1284   */\n      dup3\n        /* \"--CODEGEN--\":1267:1276   */\n      dup7\n        /* \"--CODEGEN--\":1263:1285   */\n      add\n        /* \"--CODEGEN--\":1232:1295   */\n      tag_82\n      jump\t// in\n    tag_103:\n        /* \"--CODEGEN--\":1222:1295   */\n      swap3\n      pop\n        /* \"--CODEGEN--\":1108:1301   */\n      pop\n        /* \"--CODEGEN--\":1332:1334   */\n      0x20\n        /* \"--CODEGEN--\":1350:1403   */\n      tag_104\n        /* \"--CODEGEN--\":1395:1402   */\n      dup6\n        /* \"--CODEGEN--\":1386:1392   */\n      dup3\n        /* \"--CODEGEN--\":1375:1384   */\n      dup7\n        /* \"--CODEGEN--\":1371:1393   */\n      add\n        /* \"--CODEGEN--\":1350:1403   */\n      tag_92\n      jump\t// in\n    tag_104:\n        /* \"--CODEGEN--\":1340:1403   */\n      swap2\n      pop\n        /* \"--CODEGEN--\":1311:1409   */\n      pop\n        /* \"--CODEGEN--\":1040:1419   */\n      swap3\n      pop\n      swap3\n      swap1\n      pop\n      jump\t// out\n        /* \"--CODEGEN--\":1426:1667   */\n    tag_18:\n      0x00\n        /* \"--CODEGEN--\":1530:1532   */\n      0x20\n        /* \"--CODEGEN--\":1518:1527   */\n      dup3\n        /* \"--CODEGEN--\":1509:1516   */\n      dup5\n        /* \"--CODEGEN--\":1505:1528   */\n      sub\n        /* \"--CODEGEN--\":1501:1533   */\n      slt\n        /* \"--CODEGEN--\":1498:1500   */\n      iszero\n      tag_106\n      jumpi\n        /* \"--CODEGEN--\":1546:1547   */\n      0x00\n        /* \"--CODEGEN--\":1543:1544   */\n      dup1\n        /* \"--CODEGEN--\":1536:1548   */\n      revert\n        /* \"--CODEGEN--\":1498:1500   */\n    tag_106:\n        /* \"--CODEGEN--\":1581:1582   */\n      0x00\n        /* \"--CODEGEN--\":1598:1651   */\n      tag_107\n        /* \"--CODEGEN--\":1643:1650   */\n      dup5\n        /* \"--CODEGEN--\":1634:1640   */\n      dup3\n        /* \"--CODEGEN--\":1623:1632   */\n      dup6\n        /* \"--CODEGEN--\":1619:1641   */\n      add\n        /* \"--CODEGEN--\":1598:1651   */\n      tag_92\n      jump\t// in\n    tag_107:\n        /* \"--CODEGEN--\":1588:1651   */\n      swap2\n      pop\n        /* \"--CODEGEN--\":1560:1657   */\n      pop\n        /* \"--CODEGEN--\":1492:1667   */\n      swap3\n      swap2\n      pop\n      pop\n      jump\t// out\n        /* \"--CODEGEN--\":1674:1787   */\n    tag_108:\n        /* \"--CODEGEN--\":1757:1781   */\n      tag_110\n        /* \"--CODEGEN--\":1775:1780   */\n      dup2\n        /* \"--CODEGEN--\":1757:1781   */\n      tag_111\n      jump\t// in\n    tag_110:\n        /* \"--CODEGEN--\":1752:1755   */\n      dup3\n        /* \"--CODEGEN--\":1745:1782   */\n      mstore\n        /* \"--CODEGEN--\":1739:1787   */\n      pop\n      pop\n      jump\t// out\n        /* \"--CODEGEN--\":1794:1946   */\n    tag_112:\n        /* \"--CODEGEN--\":1895:1940   */\n      tag_114\n        /* \"--CODEGEN--\":1915:1939   */\n      tag_115\n        /* \"--CODEGEN--\":1933:1938   */\n      dup3\n        /* \"--CODEGEN--\":1915:1939   */\n      tag_111\n      jump\t// in\n    tag_115:\n        /* \"--CODEGEN--\":1895:1940   */\n      tag_116\n      jump\t// in\n    tag_114:\n        /* \"--CODEGEN--\":1890:1893   */\n      dup3\n        /* \"--CODEGEN--\":1883:1941   */\n      mstore\n        /* \"--CODEGEN--\":1877:1946   */\n      pop\n      pop\n      jump\t// out\n        /* \"--CODEGEN--\":1953:2066   */\n    tag_117:\n        /* \"--CODEGEN--\":2036:2060   */\n      tag_119\n        /* \"--CODEGEN--\":2054:2059   */\n      dup2\n        /* \"--CODEGEN--\":2036:2060   */\n      tag_120\n      jump\t// in\n    tag_119:\n        /* \"--CODEGEN--\":2031:2034   */\n      dup3\n        /* \"--CODEGEN--\":2024:2061   */\n      mstore\n        /* \"--CODEGEN--\":2018:2066   */\n      pop\n      pop\n      jump\t// out\n        /* \"--CODEGEN--\":2073:2420   */\n    tag_121:\n      0x00\n        /* \"--CODEGEN--\":2185:2224   */\n      tag_123\n        /* \"--CODEGEN--\":2218:2223   */\n      dup3\n        /* \"--CODEGEN--\":2185:2224   */\n      tag_124\n      jump\t// in\n    tag_123:\n        /* \"--CODEGEN--\":2236:2307   */\n      tag_125\n        /* \"--CODEGEN--\":2300:2306   */\n      dup2\n        /* \"--CODEGEN--\":2295:2298   */\n      dup6\n        /* \"--CODEGEN--\":2236:2307   */\n      tag_126\n      jump\t// in\n    tag_125:\n        /* \"--CODEGEN--\":2229:2307   */\n      swap4\n      pop\n        /* \"--CODEGEN--\":2312:2364   */\n      tag_127\n        /* \"--CODEGEN--\":2357:2363   */\n      dup2\n        /* \"--CODEGEN--\":2352:2355   */\n      dup6\n        /* \"--CODEGEN--\":2345:2349   */\n      0x20\n        /* \"--CODEGEN--\":2338:2343   */\n      dup7\n        /* \"--CODEGEN--\":2334:2350   */\n      add\n        /* \"--CODEGEN--\":2312:2364   */\n      tag_128\n      jump\t// in\n    tag_127:\n        /* \"--CODEGEN--\":2385:2414   */\n      tag_129\n        /* \"--CODEGEN--\":2407:2413   */\n      dup2\n        /* \"--CODEGEN--\":2385:2414   */\n      tag_130\n      jump\t// in\n    tag_129:\n        /* \"--CODEGEN--\":2380:2383   */\n      dup5\n        /* \"--CODEGEN--\":2376:2415   */\n      add\n        /* \"--CODEGEN--\":2369:2415   */\n      swap2\n      pop\n        /* \"--CODEGEN--\":2165:2420   */\n      pop\n      swap3\n      swap2\n      pop\n      pop\n      jump\t// out\n        /* \"--CODEGEN--\":2427:2787   */\n    tag_131:\n      0x00\n        /* \"--CODEGEN--\":2557:2596   */\n      tag_133\n        /* \"--CODEGEN--\":2590:2595   */\n      dup3\n        /* \"--CODEGEN--\":2557:2596   */\n      tag_124\n      jump\t// in\n    tag_133:\n        /* \"--CODEGEN--\":2608:2697   */\n      tag_134\n        /* \"--CODEGEN--\":2690:2696   */\n      dup2\n        /* \"--CODEGEN--\":2685:2688   */\n      dup6\n        /* \"--CODEGEN--\":2608:2697   */\n      tag_135\n      jump\t// in\n    tag_134:\n        /* \"--CODEGEN--\":2601:2697   */\n      swap4\n      pop\n        /* \"--CODEGEN--\":2702:2754   */\n      tag_136\n        /* \"--CODEGEN--\":2747:2753   */\n      dup2\n        /* \"--CODEGEN--\":2742:2745   */\n      dup6\n        /* \"--CODEGEN--\":2735:2739   */\n      0x20\n        /* \"--CODEGEN--\":2728:2733   */\n      dup7\n        /* \"--CODEGEN--\":2724:2740   */\n      add\n        /* \"--CODEGEN--\":2702:2754   */\n      tag_128\n      jump\t// in\n    tag_136:\n        /* \"--CODEGEN--\":2775:2781   */\n      dup1\n        /* \"--CODEGEN--\":2770:2773   */\n      dup5\n        /* \"--CODEGEN--\":2766:2782   */\n      add\n        /* \"--CODEGEN--\":2759:2782   */\n      swap2\n      pop\n        /* \"--CODEGEN--\":2537:2787   */\n      pop\n      swap3\n      swap2\n      pop\n      pop\n      jump\t// out\n        /* \"--CODEGEN--\":2794:2907   */\n    tag_137:\n        /* \"--CODEGEN--\":2877:2901   */\n      tag_139\n        /* \"--CODEGEN--\":2895:2900   */\n      dup2\n        /* \"--CODEGEN--\":2877:2901   */\n      tag_140\n      jump\t// in\n    tag_139:\n        /* \"--CODEGEN--\":2872:2875   */\n      dup3\n        /* \"--CODEGEN--\":2865:2902   */\n      mstore\n        /* \"--CODEGEN--\":2859:2907   */\n      pop\n      pop\n      jump\t// out\n        /* \"--CODEGEN--\":2914:3066   */\n    tag_141:\n        /* \"--CODEGEN--\":3015:3060   */\n      tag_143\n        /* \"--CODEGEN--\":3035:3059   */\n      tag_144\n        /* \"--CODEGEN--\":3053:3058   */\n      dup3\n        /* \"--CODEGEN--\":3035:3059   */\n      tag_140\n      jump\t// in\n    tag_144:\n        /* \"--CODEGEN--\":3015:3060   */\n      tag_145\n      jump\t// in\n    tag_143:\n        /* \"--CODEGEN--\":3010:3013   */\n      dup3\n        /* \"--CODEGEN--\":3003:3061   */\n      mstore\n        /* \"--CODEGEN--\":2997:3066   */\n      pop\n      pop\n      jump\t// out\n        /* \"--CODEGEN--\":3073:3348   */\n    tag_60:\n      0x00\n        /* \"--CODEGEN--\":3228:3323   */\n      tag_147\n        /* \"--CODEGEN--\":3319:3322   */\n      dup3\n        /* \"--CODEGEN--\":3310:3316   */\n      dup5\n        /* \"--CODEGEN--\":3228:3323   */\n      tag_131\n      jump\t// in\n    tag_147:\n        /* \"--CODEGEN--\":3221:3323   */\n      swap2\n      pop\n        /* \"--CODEGEN--\":3340:3343   */\n      dup2\n        /* \"--CODEGEN--\":3333:3343   */\n      swap1\n      pop\n        /* \"--CODEGEN--\":3209:3348   */\n      swap3\n      swap2\n      pop\n      pop\n      jump\t// out\n        /* \"--CODEGEN--\":3355:3908   */\n    tag_72:\n      0x00\n        /* \"--CODEGEN--\":3566:3661   */\n      tag_149\n        /* \"--CODEGEN--\":3657:3660   */\n      dup3\n        /* \"--CODEGEN--\":3648:3654   */\n      dup7\n        /* \"--CODEGEN--\":3566:3661   */\n      tag_131\n      jump\t// in\n    tag_149:\n        /* \"--CODEGEN--\":3559:3661   */\n      swap2\n      pop\n        /* \"--CODEGEN--\":3672:3747   */\n      tag_150\n        /* \"--CODEGEN--\":3743:3746   */\n      dup3\n        /* \"--CODEGEN--\":3734:3740   */\n      dup6\n        /* \"--CODEGEN--\":3672:3747   */\n      tag_112\n      jump\t// in\n    tag_150:\n        /* \"--CODEGEN--\":3769:3771   */\n      0x14\n        /* \"--CODEGEN--\":3764:3767   */\n      dup3\n        /* \"--CODEGEN--\":3760:3772   */\n      add\n        /* \"--CODEGEN--\":3753:3772   */\n      swap2\n      pop\n        /* \"--CODEGEN--\":3783:3858   */\n      tag_151\n        /* \"--CODEGEN--\":3854:3857   */\n      dup3\n        /* \"--CODEGEN--\":3845:3851   */\n      dup5\n        /* \"--CODEGEN--\":3783:3858   */\n      tag_141\n      jump\t// in\n    tag_151:\n        /* \"--CODEGEN--\":3880:3882   */\n      0x20\n        /* \"--CODEGEN--\":3875:3878   */\n      dup3\n        /* \"--CODEGEN--\":3871:3883   */\n      add\n        /* \"--CODEGEN--\":3864:3883   */\n      swap2\n      pop\n        /* \"--CODEGEN--\":3900:3903   */\n      dup2\n        /* \"--CODEGEN--\":3893:3903   */\n      swap1\n      pop\n        /* \"--CODEGEN--\":3547:3908   */\n      swap5\n      swap4\n      pop\n      pop\n      pop\n      pop\n      jump\t// out\n        /* \"--CODEGEN--\":3915:4137   */\n    tag_15:\n      0x00\n        /* \"--CODEGEN--\":4042:4044   */\n      0x20\n        /* \"--CODEGEN--\":4031:4040   */\n      dup3\n        /* \"--CODEGEN--\":4027:4045   */\n      add\n        /* \"--CODEGEN--\":4019:4045   */\n      swap1\n      pop\n        /* \"--CODEGEN--\":4056:4127   */\n      tag_153\n        /* \"--CODEGEN--\":4124:4125   */\n      0x00\n        /* \"--CODEGEN--\":4113:4122   */\n      dup4\n        /* \"--CODEGEN--\":4109:4126   */\n      add\n        /* \"--CODEGEN--\":4100:4106   */\n      dup5\n        /* \"--CODEGEN--\":4056:4127   */\n      tag_117\n      jump\t// in\n    tag_153:\n        /* \"--CODEGEN--\":4013:4137   */\n      swap3\n      swap2\n      pop\n      pop\n      jump\t// out\n        /* \"--CODEGEN--\":4144:4676   */\n    tag_21:\n      0x00\n        /* \"--CODEGEN--\":4347:4349   */\n      0x60\n        /* \"--CODEGEN--\":4336:4345   */\n      dup3\n        /* \"--CODEGEN--\":4332:4350   */\n      add\n        /* \"--CODEGEN--\":4324:4350   */\n      swap1\n      pop\n        /* \"--CODEGEN--\":4397:4406   */\n      dup2\n        /* \"--CODEGEN--\":4391:4395   */\n      dup2\n        /* \"--CODEGEN--\":4387:4407   */\n      sub\n        /* \"--CODEGEN--\":4383:4384   */\n      0x00\n        /* \"--CODEGEN--\":4372:4381   */\n      dup4\n        /* \"--CODEGEN--\":4368:4385   */\n      add\n        /* \"--CODEGEN--\":4361:4408   */\n      mstore\n        /* \"--CODEGEN--\":4422:4500   */\n      tag_155\n        /* \"--CODEGEN--\":4495:4499   */\n      dup2\n        /* \"--CODEGEN--\":4486:4492   */\n      dup7\n        /* \"--CODEGEN--\":4422:4500   */\n      tag_121\n      jump\t// in\n    tag_155:\n        /* \"--CODEGEN--\":4414:4500   */\n      swap1\n      pop\n        /* \"--CODEGEN--\":4511:4583   */\n      tag_156\n        /* \"--CODEGEN--\":4579:4581   */\n      0x20\n        /* \"--CODEGEN--\":4568:4577   */\n      dup4\n        /* \"--CODEGEN--\":4564:4582   */\n      add\n        /* \"--CODEGEN--\":4555:4561   */\n      dup6\n        /* \"--CODEGEN--\":4511:4583   */\n      tag_108\n      jump\t// in\n    tag_156:\n        /* \"--CODEGEN--\":4594:4666   */\n      tag_157\n        /* \"--CODEGEN--\":4662:4664   */\n      0x40\n        /* \"--CODEGEN--\":4651:4660   */\n      dup4\n        /* \"--CODEGEN--\":4647:4665   */\n      add\n        /* \"--CODEGEN--\":4638:4644   */\n      dup5\n        /* \"--CODEGEN--\":4594:4666   */\n      tag_137\n      jump\t// in\n    tag_157:\n        /* \"--CODEGEN--\":4318:4676   */\n      swap5\n      swap4\n      pop\n      pop\n      pop\n      pop\n      jump\t// out\n        /* \"--CODEGEN--\":4683:5192   */\n    tag_43:\n      0x00\n        /* \"--CODEGEN--\":4878:4880   */\n      0x40\n        /* \"--CODEGEN--\":4867:4876   */\n      dup3\n        /* \"--CODEGEN--\":4863:4881   */\n      add\n        /* \"--CODEGEN--\":4855:4881   */\n      swap1\n      pop\n        /* \"--CODEGEN--\":4928:4937   */\n      dup2\n        /* \"--CODEGEN--\":4922:4926   */\n      dup2\n        /* \"--CODEGEN--\":4918:4938   */\n      sub\n        /* \"--CODEGEN--\":4914:4915   */\n      0x00\n        /* \"--CODEGEN--\":4903:4912   */\n      dup4\n        /* \"--CODEGEN--\":4899:4916   */\n      add\n        /* \"--CODEGEN--\":4892:4939   */\n      mstore\n        /* \"--CODEGEN--\":4953:5031   */\n      tag_159\n        /* \"--CODEGEN--\":5026:5030   */\n      dup2\n        /* \"--CODEGEN--\":5017:5023   */\n      dup6\n        /* \"--CODEGEN--\":4953:5031   */\n      tag_121\n      jump\t// in\n    tag_159:\n        /* \"--CODEGEN--\":4945:5031   */\n      swap1\n      pop\n        /* \"--CODEGEN--\":5079:5088   */\n      dup2\n        /* \"--CODEGEN--\":5073:5077   */\n      dup2\n        /* \"--CODEGEN--\":5069:5089   */\n      sub\n        /* \"--CODEGEN--\":5064:5066   */\n      0x20\n        /* \"--CODEGEN--\":5053:5062   */\n      dup4\n        /* \"--CODEGEN--\":5049:5067   */\n      add\n        /* \"--CODEGEN--\":5042:5090   */\n      mstore\n        /* \"--CODEGEN--\":5104:5182   */\n      tag_160\n        /* \"--CODEGEN--\":5177:5181   */\n      dup2\n        /* \"--CODEGEN--\":5168:5174   */\n      dup5\n        /* \"--CODEGEN--\":5104:5182   */\n      tag_121\n      jump\t// in\n    tag_160:\n        /* \"--CODEGEN--\":5096:5182   */\n      swap1\n      pop\n        /* \"--CODEGEN--\":4849:5192   */\n      swap4\n      swap3\n      pop\n      pop\n      pop\n      jump\t// out\n        /* \"--CODEGEN--\":5199:5421   */\n    tag_28:\n      0x00\n        /* \"--CODEGEN--\":5326:5328   */\n      0x20\n        /* \"--CODEGEN--\":5315:5324   */\n      dup3\n        /* \"--CODEGEN--\":5311:5329   */\n      add\n        /* \"--CODEGEN--\":5303:5329   */\n      swap1\n      pop\n        /* \"--CODEGEN--\":5340:5411   */\n      tag_162\n        /* \"--CODEGEN--\":5408:5409   */\n      0x00\n        /* \"--CODEGEN--\":5397:5406   */\n      dup4\n        /* \"--CODEGEN--\":5393:5410   */\n      add\n        /* \"--CODEGEN--\":5384:5390   */\n      dup5\n        /* \"--CODEGEN--\":5340:5411   */\n      tag_137\n      jump\t// in\n    tag_162:\n        /* \"--CODEGEN--\":5297:5421   */\n      swap3\n      swap2\n      pop\n      pop\n      jump\t// out\n        /* \"--CODEGEN--\":5428:5684   */\n    tag_88:\n      0x00\n        /* \"--CODEGEN--\":5490:5492   */\n      0x40\n        /* \"--CODEGEN--\":5484:5493   */\n      mload\n        /* \"--CODEGEN--\":5474:5493   */\n      swap1\n      pop\n        /* \"--CODEGEN--\":5528:5532   */\n      dup2\n        /* \"--CODEGEN--\":5520:5526   */\n      dup2\n        /* \"--CODEGEN--\":5516:5533   */\n      add\n        /* \"--CODEGEN--\":5627:5633   */\n      dup2\n        /* \"--CODEGEN--\":5615:5625   */\n      dup2\n        /* \"--CODEGEN--\":5612:5634   */\n      lt\n        /* \"--CODEGEN--\":5591:5609   */\n      0xffffffffffffffff\n        /* \"--CODEGEN--\":5579:5589   */\n      dup3\n        /* \"--CODEGEN--\":5576:5610   */\n      gt\n        /* \"--CODEGEN--\":5573:5635   */\n      or\n        /* \"--CODEGEN--\":5570:5572   */\n      iszero\n      tag_164\n      jumpi\n        /* \"--CODEGEN--\":5648:5649   */\n      0x00\n        /* \"--CODEGEN--\":5645:5646   */\n      dup1\n        /* \"--CODEGEN--\":5638:5650   */\n      revert\n        /* \"--CODEGEN--\":5570:5572   */\n    tag_164:\n        /* \"--CODEGEN--\":5668:5678   */\n      dup1\n        /* \"--CODEGEN--\":5664:5666   */\n      0x40\n        /* \"--CODEGEN--\":5657:5679   */\n      mstore\n        /* \"--CODEGEN--\":5468:5684   */\n      pop\n      swap2\n      swap1\n      pop\n      jump\t// out\n        /* \"--CODEGEN--\":5691:6013   */\n    tag_87:\n      0x00\n        /* \"--CODEGEN--\":5835:5853   */\n      0xffffffffffffffff\n        /* \"--CODEGEN--\":5827:5833   */\n      dup3\n        /* \"--CODEGEN--\":5824:5854   */\n      gt\n        /* \"--CODEGEN--\":5821:5823   */\n      iszero\n      tag_166\n      jumpi\n        /* \"--CODEGEN--\":5867:5868   */\n      0x00\n        /* \"--CODEGEN--\":5864:5865   */\n      dup1\n        /* \"--CODEGEN--\":5857:5869   */\n      revert\n        /* \"--CODEGEN--\":5821:5823   */\n    tag_166:\n        /* \"--CODEGEN--\":5934:5938   */\n      0x1f\n        /* \"--CODEGEN--\":5930:5939   */\n      not\n        /* \"--CODEGEN--\":5923:5927   */\n      0x1f\n        /* \"--CODEGEN--\":5915:5921   */\n      dup4\n        /* \"--CODEGEN--\":5911:5928   */\n      add\n        /* \"--CODEGEN--\":5907:5940   */\n      and\n        /* \"--CODEGEN--\":5899:5940   */\n      swap1\n      pop\n        /* \"--CODEGEN--\":5998:6002   */\n      0x20\n        /* \"--CODEGEN--\":5992:5996   */\n      dup2\n        /* \"--CODEGEN--\":5988:6003   */\n      add\n        /* \"--CODEGEN--\":5980:6003   */\n      swap1\n      pop\n        /* \"--CODEGEN--\":5758:6013   */\n      swap2\n      swap1\n      pop\n      jump\t// out\n        /* \"--CODEGEN--\":6020:6142   */\n    tag_124:\n      0x00\n        /* \"--CODEGEN--\":6114:6119   */\n      dup2\n        /* \"--CODEGEN--\":6108:6120   */\n      mload\n        /* \"--CODEGEN--\":6098:6120   */\n      swap1\n      pop\n        /* \"--CODEGEN--\":6079:6142   */\n      swap2\n      swap1\n      pop\n      jump\t// out\n        /* \"--CODEGEN--\":6150:6313   */\n    tag_126:\n      0x00\n        /* \"--CODEGEN--\":6265:6271   */\n      dup3\n        /* \"--CODEGEN--\":6260:6263   */\n      dup3\n        /* \"--CODEGEN--\":6253:6272   */\n      mstore\n        /* \"--CODEGEN--\":6302:6306   */\n      0x20\n        /* \"--CODEGEN--\":6297:6300   */\n      dup3\n        /* \"--CODEGEN--\":6293:6307   */\n      add\n        /* \"--CODEGEN--\":6278:6307   */\n      swap1\n      pop\n        /* \"--CODEGEN--\":6246:6313   */\n      swap3\n      swap2\n      pop\n      pop\n      jump\t// out\n        /* \"--CODEGEN--\":6322:6467   */\n    tag_135:\n      0x00\n        /* \"--CODEGEN--\":6458:6461   */\n      dup2\n        /* \"--CODEGEN--\":6443:6461   */\n      swap1\n      pop\n        /* \"--CODEGEN--\":6436:6467   */\n      swap3\n      swap2\n      pop\n      pop\n      jump\t// out\n        /* \"--CODEGEN--\":6475:6566   */\n    tag_111:\n      0x00\n        /* \"--CODEGEN--\":6537:6561   */\n      tag_171\n        /* \"--CODEGEN--\":6555:6560   */\n      dup3\n        /* \"--CODEGEN--\":6537:6561   */\n      tag_172\n      jump\t// in\n    tag_171:\n        /* \"--CODEGEN--\":6526:6561   */\n      swap1\n      pop\n        /* \"--CODEGEN--\":6520:6566   */\n      swap2\n      swap1\n      pop\n      jump\t// out\n        /* \"--CODEGEN--\":6573:6645   */\n    tag_120:\n      0x00\n        /* \"--CODEGEN--\":6635:6640   */\n      dup2\n        /* \"--CODEGEN--\":6624:6640   */\n      swap1\n      pop\n        /* \"--CODEGEN--\":6618:6645   */\n      swap2\n      swap1\n      pop\n      jump\t// out\n        /* \"--CODEGEN--\":6652:6773   */\n    tag_172:\n      0x00\n        /* \"--CODEGEN--\":6725:6767   */\n      0xffffffffffffffffffffffffffffffffffffffff\n        /* \"--CODEGEN--\":6718:6723   */\n      dup3\n        /* \"--CODEGEN--\":6714:6768   */\n      and\n        /* \"--CODEGEN--\":6703:6768   */\n      swap1\n      pop\n        /* \"--CODEGEN--\":6697:6773   */\n      swap2\n      swap1\n      pop\n      jump\t// out\n        /* \"--CODEGEN--\":6780:6852   */\n    tag_140:\n      0x00\n        /* \"--CODEGEN--\":6842:6847   */\n      dup2\n        /* \"--CODEGEN--\":6831:6847   */\n      swap1\n      pop\n        /* \"--CODEGEN--\":6825:6852   */\n      swap2\n      swap1\n      pop\n      jump\t// out\n        /* \"--CODEGEN--\":6860:7005   */\n    tag_91:\n        /* \"--CODEGEN--\":6941:6947   */\n      dup3\n        /* \"--CODEGEN--\":6936:6939   */\n      dup2\n        /* \"--CODEGEN--\":6931:6934   */\n      dup4\n        /* \"--CODEGEN--\":6918:6948   */\n      calldatacopy\n        /* \"--CODEGEN--\":6997:6998   */\n      0x00\n        /* \"--CODEGEN--\":6988:6994   */\n      dup4\n        /* \"--CODEGEN--\":6983:6986   */\n      dup4\n        /* \"--CODEGEN--\":6979:6995   */\n      add\n        /* \"--CODEGEN--\":6972:6999   */\n      mstore\n        /* \"--CODEGEN--\":6911:7005   */\n      pop\n      pop\n      pop\n      jump\t// out\n        /* \"--CODEGEN--\":7014:7282   */\n    tag_128:\n        /* \"--CODEGEN--\":7079:7080   */\n      0x00\n        /* \"--CODEGEN--\":7086:7187   */\n    tag_178:\n        /* \"--CODEGEN--\":7100:7106   */\n      dup4\n        /* \"--CODEGEN--\":7097:7098   */\n      dup2\n        /* \"--CODEGEN--\":7094:7107   */\n      lt\n        /* \"--CODEGEN--\":7086:7187   */\n      iszero\n      tag_180\n      jumpi\n        /* \"--CODEGEN--\":7176:7177   */\n      dup1\n        /* \"--CODEGEN--\":7171:7174   */\n      dup3\n        /* \"--CODEGEN--\":7167:7178   */\n      add\n        /* \"--CODEGEN--\":7161:7179   */\n      mload\n        /* \"--CODEGEN--\":7157:7158   */\n      dup2\n        /* \"--CODEGEN--\":7152:7155   */\n      dup5\n        /* \"--CODEGEN--\":7148:7159   */\n      add\n        /* \"--CODEGEN--\":7141:7180   */\n      mstore\n        /* \"--CODEGEN--\":7122:7124   */\n      0x20\n        /* \"--CODEGEN--\":7119:7120   */\n      dup2\n        /* \"--CODEGEN--\":7115:7125   */\n      add\n        /* \"--CODEGEN--\":7110:7125   */\n      swap1\n      pop\n        /* \"--CODEGEN--\":7086:7187   */\n      jump(tag_178)\n    tag_180:\n        /* \"--CODEGEN--\":7202:7208   */\n      dup4\n        /* \"--CODEGEN--\":7199:7200   */\n      dup2\n        /* \"--CODEGEN--\":7196:7209   */\n      gt\n        /* \"--CODEGEN--\":7193:7195   */\n      iszero\n      tag_181\n      jumpi\n        /* \"--CODEGEN--\":7267:7268   */\n      0x00\n        /* \"--CODEGEN--\":7258:7264   */\n      dup5\n        /* \"--CODEGEN--\":7253:7256   */\n      dup5\n        /* \"--CODEGEN--\":7249:7265   */\n      add\n        /* \"--CODEGEN--\":7242:7269   */\n      mstore\n        /* \"--CODEGEN--\":7193:7195   */\n    tag_181:\n        /* \"--CODEGEN--\":7063:7282   */\n      pop\n      pop\n      pop\n      pop\n      jump\t// out\n        /* \"--CODEGEN--\":7290:7385   */\n    tag_116:\n      0x00\n        /* \"--CODEGEN--\":7354:7380   */\n      tag_183\n        /* \"--CODEGEN--\":7374:7379   */\n      dup3\n        /* \"--CODEGEN--\":7354:7380   */\n      tag_184\n      jump\t// in\n    tag_183:\n        /* \"--CODEGEN--\":7343:7380   */\n      swap1\n      pop\n        /* \"--CODEGEN--\":7337:7385   */\n      swap2\n      swap1\n      pop\n      jump\t// out\n        /* \"--CODEGEN--\":7392:7481   */\n    tag_184:\n      0x00\n        /* \"--CODEGEN--\":7456:7476   */\n      tag_186\n        /* \"--CODEGEN--\":7470:7475   */\n      dup3\n        /* \"--CODEGEN--\":7456:7476   */\n      tag_187\n      jump\t// in\n    tag_186:\n        /* \"--CODEGEN--\":7445:7476   */\n      swap1\n      pop\n        /* \"--CODEGEN--\":7439:7481   */\n      swap2\n      swap1\n      pop\n      jump\t// out\n        /* \"--CODEGEN--\":7488:7562   */\n    tag_145:\n      0x00\n        /* \"--CODEGEN--\":7552:7557   */\n      dup2\n        /* \"--CODEGEN--\":7541:7557   */\n      swap1\n      pop\n        /* \"--CODEGEN--\":7535:7562   */\n      swap2\n      swap1\n      pop\n      jump\t// out\n        /* \"--CODEGEN--\":7569:7666   */\n    tag_130:\n      0x00\n        /* \"--CODEGEN--\":7657:7659   */\n      0x1f\n        /* \"--CODEGEN--\":7653:7660   */\n      not\n        /* \"--CODEGEN--\":7648:7650   */\n      0x1f\n        /* \"--CODEGEN--\":7641:7646   */\n      dup4\n        /* \"--CODEGEN--\":7637:7651   */\n      add\n        /* \"--CODEGEN--\":7633:7661   */\n      and\n        /* \"--CODEGEN--\":7623:7661   */\n      swap1\n      pop\n        /* \"--CODEGEN--\":7617:7666   */\n      swap2\n      swap1\n      pop\n      jump\t// out\n        /* \"--CODEGEN--\":7674:7768   */\n    tag_187:\n      0x00\n        /* \"--CODEGEN--\":7752:7757   */\n      dup2\n        /* \"--CODEGEN--\":7748:7750   */\n      0x60\n        /* \"--CODEGEN--\":7744:7758   */\n      shl\n        /* \"--CODEGEN--\":7722:7758   */\n      swap1\n      pop\n        /* \"--CODEGEN--\":7716:7768   */\n      swap2\n      swap1\n      pop\n      jump\t// out\n        /* \"--CODEGEN--\":7776:7893   */\n    tag_95:\n        /* \"--CODEGEN--\":7845:7869   */\n      tag_192\n        /* \"--CODEGEN--\":7863:7868   */\n      dup2\n        /* \"--CODEGEN--\":7845:7869   */\n      tag_140\n      jump\t// in\n    tag_192:\n        /* \"--CODEGEN--\":7838:7843   */\n      dup2\n        /* \"--CODEGEN--\":7835:7870   */\n      eq\n        /* \"--CODEGEN--\":7825:7827   */\n      tag_193\n      jumpi\n        /* \"--CODEGEN--\":7884:7885   */\n      0x00\n        /* \"--CODEGEN--\":7881:7882   */\n      dup1\n        /* \"--CODEGEN--\":7874:7886   */\n      revert\n        /* \"--CODEGEN--\":7825:7827   */\n    tag_193:\n        /* \"--CODEGEN--\":7819:7893   */\n      pop\n      jump\t// out\n\n    auxdata: 0xa264697066735822122018b202d9ed78ecbb498af2fecf3d4ae6920769460c39fabfe90711c5d8b6264764736f6c634300060c0033\n}\n",
				"bytecode": {
					"linkReferences": {},
					"object": "608060405234801561001057600080fd5b50610afd806100206000396000f3fe608060405234801561001057600080fd5b50600436106100885760003560e01c80635a37fba91161005b5780635a37fba914610117578063631b84bd1461013357806365293a0d1461014f578063c74efaef1461016d57610088565b806309bd5a601461008d5780630cc76c14146100ab57806342d73314146100dd578063547cbcad146100e7575b600080fd5b61009561018c565b6040516100a291906108b1565b60405180910390f35b6100c560048036038101906100c09190610773565b610192565b6040516100d4939291906108cc565b60405180910390f35b6100e5610281565b005b61010160048036038101906100fc9190610773565b6102ad565b60405161010e9190610941565b60405180910390f35b610131600480360381019061012c919061071f565b6102ce565b005b61014d600480360381019061014891906106de565b6103ce565b005b61015761045a565b60405161016491906108b1565b60405180910390f35b610175610460565b60405161018392919061090a565b60405180910390f35b60015481565b6005818154811061019f57fe5b9060005260206000209060030201600091509050806000018054600181600116156101000203166002900480601f01602080910402602001604051908101604052809291908181526020018280546001816001161561010002031660029004801561024b5780601f106102205761010080835404028352916020019161024b565b820191906000526020600020905b81548152906001019060200180831161022e57829003601f168201915b5050505050908060010160009054906101000a900473ffffffffffffffffffffffffffffffffffffffff16908060020154905083565b600060019080600181540180825580915050600190039060005260206000200160009091909190915055565b600081815481106102ba57fe5b906000526020600020016000915090505481565b600560405180606001604052808481526020013373ffffffffffffffffffffffffffffffffffffffff16815260200183815250908060018154018082558091505060019003906000526020600020906003020160009091909190915060008201518160000190805190602001906103469291906105d8565b5060208201518160010160006101000a81548173ffffffffffffffffffffffffffffffffffffffff021916908373ffffffffffffffffffffffffffffffffffffffff1602179055506040820151816002015550506103a58233836105a2565b6004546006836040516103b89190610861565b9081526020016040518091039020819055505050565b60405180604001604052806040518060400160405280600b81526020017f68616d6275726775657361000000000000000000000000000000000000000000815250815260200182815250600260008201518160000190805190602001906104369291906105d8565b5060208201518160010190805190602001906104539291906105d8565b5090505050565b60045481565b6002806000018054600181600116156101000203166002900480601f0160208091040260200160405190810160405280929190818152602001828054600181600116156101000203166002900480156104fa5780601f106104cf576101008083540402835291602001916104fa565b820191906000526020600020905b8154815290600101906020018083116104dd57829003601f168201915b505050505090806001018054600181600116156101000203166002900480601f0160208091040260200160405190810160405280929190818152602001828054600181600116156101000203166002900480156105985780601f1061056d57610100808354040283529160200191610598565b820191906000526020600020905b81548152906001019060200180831161057b57829003601f168201915b5050505050905082565b8282826040516020016105b793929190610878565b60405160208183030381529060405280519060200120600481905550505050565b828054600181600116156101000203166002900490600052602060002090601f016020900481019282601f1061061957805160ff1916838001178555610647565b82800160010185558215610647579182015b8281111561064657825182559160200191906001019061062b565b5b5090506106549190610658565b5090565b5b80821115610671576000816000905550600101610659565b5090565b600082601f83011261068657600080fd5b813561069961069482610989565b61095c565b915080825260208301602083018583830111156106b557600080fd5b6106c0838284610a22565b50505092915050565b6000813590506106d881610ab0565b92915050565b6000602082840312156106f057600080fd5b600082013567ffffffffffffffff81111561070a57600080fd5b61071684828501610675565b91505092915050565b6000806040838503121561073257600080fd5b600083013567ffffffffffffffff81111561074c57600080fd5b61075885828601610675565b9250506020610769858286016106c9565b9150509250929050565b60006020828403121561078557600080fd5b6000610793848285016106c9565b91505092915050565b6107a5816109dc565b82525050565b6107bc6107b7826109dc565b610a64565b82525050565b6107cb816109ee565b82525050565b60006107dc826109b5565b6107e681856109c0565b93506107f6818560208601610a31565b6107ff81610a92565b840191505092915050565b6000610815826109b5565b61081f81856109d1565b935061082f818560208601610a31565b80840191505092915050565b61084481610a18565b82525050565b61085b61085682610a18565b610a88565b82525050565b600061086d828461080a565b915081905092915050565b6000610884828661080a565b915061089082856107ab565b6014820191506108a0828461084a565b602082019150819050949350505050565b60006020820190506108c660008301846107c2565b92915050565b600060608201905081810360008301526108e681866107d1565b90506108f5602083018561079c565b610902604083018461083b565b949350505050565b6000604082019050818103600083015261092481856107d1565b9050818103602083015261093881846107d1565b90509392505050565b6000602082019050610956600083018461083b565b92915050565b6000604051905081810181811067ffffffffffffffff8211171561097f57600080fd5b8060405250919050565b600067ffffffffffffffff8211156109a057600080fd5b601f19601f8301169050602081019050919050565b600081519050919050565b600082825260208201905092915050565b600081905092915050565b60006109e7826109f8565b9050919050565b6000819050919050565b600073ffffffffffffffffffffffffffffffffffffffff82169050919050565b6000819050919050565b82818337600083830152505050565b60005b83811015610a4f578082015181840152602081019050610a34565b83811115610a5e576000848401525b50505050565b6000610a6f82610a76565b9050919050565b6000610a8182610aa3565b9050919050565b6000819050919050565b6000601f19601f8301169050919050565b60008160601b9050919050565b610ab981610a18565b8114610ac457600080fd5b5056fea264697066735822122018b202d9ed78ecbb498af2fecf3d4ae6920769460c39fabfe90711c5d8b6264764736f6c634300060c0033",
					"opcodes": "PUSH1 0x80 PUSH1 0x40 MSTORE CALLVALUE DUP1 ISZERO PUSH2 0x10 JUMPI PUSH1 0x0 DUP1 REVERT JUMPDEST POP PUSH2 0xAFD DUP1 PUSH2 0x20 PUSH1 0x0 CODECOPY PUSH1 0x0 RETURN INVALID PUSH1 0x80 PUSH1 0x40 MSTORE CALLVALUE DUP1 ISZERO PUSH2 0x10 JUMPI PUSH1 0x0 DUP1 REVERT JUMPDEST POP PUSH1 0x4 CALLDATASIZE LT PUSH2 0x88 JUMPI PUSH1 0x0 CALLDATALOAD PUSH1 0xE0 SHR DUP1 PUSH4 0x5A37FBA9 GT PUSH2 0x5B JUMPI DUP1 PUSH4 0x5A37FBA9 EQ PUSH2 0x117 JUMPI DUP1 PUSH4 0x631B84BD EQ PUSH2 0x133 JUMPI DUP1 PUSH4 0x65293A0D EQ PUSH2 0x14F JUMPI DUP1 PUSH4 0xC74EFAEF EQ PUSH2 0x16D JUMPI PUSH2 0x88 JUMP JUMPDEST DUP1 PUSH4 0x9BD5A60 EQ PUSH2 0x8D JUMPI DUP1 PUSH4 0xCC76C14 EQ PUSH2 0xAB JUMPI DUP1 PUSH4 0x42D73314 EQ PUSH2 0xDD JUMPI DUP1 PUSH4 0x547CBCAD EQ PUSH2 0xE7 JUMPI JUMPDEST PUSH1 0x0 DUP1 REVERT JUMPDEST PUSH2 0x95 PUSH2 0x18C JUMP JUMPDEST PUSH1 0x40 MLOAD PUSH2 0xA2 SWAP2 SWAP1 PUSH2 0x8B1 JUMP JUMPDEST PUSH1 0x40 MLOAD DUP1 SWAP2 SUB SWAP1 RETURN JUMPDEST PUSH2 0xC5 PUSH1 0x4 DUP1 CALLDATASIZE SUB DUP2 ADD SWAP1 PUSH2 0xC0 SWAP2 SWAP1 PUSH2 0x773 JUMP JUMPDEST PUSH2 0x192 JUMP JUMPDEST PUSH1 0x40 MLOAD PUSH2 0xD4 SWAP4 SWAP3 SWAP2 SWAP1 PUSH2 0x8CC JUMP JUMPDEST PUSH1 0x40 MLOAD DUP1 SWAP2 SUB SWAP1 RETURN JUMPDEST PUSH2 0xE5 PUSH2 0x281 JUMP JUMPDEST STOP JUMPDEST PUSH2 0x101 PUSH1 0x4 DUP1 CALLDATASIZE SUB DUP2 ADD SWAP1 PUSH2 0xFC SWAP2 SWAP1 PUSH2 0x773 JUMP JUMPDEST PUSH2 0x2AD JUMP JUMPDEST PUSH1 0x40 MLOAD PUSH2 0x10E SWAP2 SWAP1 PUSH2 0x941 JUMP JUMPDEST PUSH1 0x40 MLOAD DUP1 SWAP2 SUB SWAP1 RETURN JUMPDEST PUSH2 0x131 PUSH1 0x4 DUP1 CALLDATASIZE SUB DUP2 ADD SWAP1 PUSH2 0x12C SWAP2 SWAP1 PUSH2 0x71F JUMP JUMPDEST PUSH2 0x2CE JUMP JUMPDEST STOP JUMPDEST PUSH2 0x14D PUSH1 0x4 DUP1 CALLDATASIZE SUB DUP2 ADD SWAP1 PUSH2 0x148 SWAP2 SWAP1 PUSH2 0x6DE JUMP JUMPDEST PUSH2 0x3CE JUMP JUMPDEST STOP JUMPDEST PUSH2 0x157 PUSH2 0x45A JUMP JUMPDEST PUSH1 0x40 MLOAD PUSH2 0x164 SWAP2 SWAP1 PUSH2 0x8B1 JUMP JUMPDEST PUSH1 0x40 MLOAD DUP1 SWAP2 SUB SWAP1 RETURN JUMPDEST PUSH2 0x175 PUSH2 0x460 JUMP JUMPDEST PUSH1 0x40 MLOAD PUSH2 0x183 SWAP3 SWAP2 SWAP1 PUSH2 0x90A JUMP JUMPDEST PUSH1 0x40 MLOAD DUP1 SWAP2 SUB SWAP1 RETURN JUMPDEST PUSH1 0x1 SLOAD DUP2 JUMP JUMPDEST PUSH1 0x5 DUP2 DUP2 SLOAD DUP2 LT PUSH2 0x19F JUMPI INVALID JUMPDEST SWAP1 PUSH1 0x0 MSTORE PUSH1 0x20 PUSH1 0x0 KECCAK256 SWAP1 PUSH1 0x3 MUL ADD PUSH1 0x0 SWAP2 POP SWAP1 POP DUP1 PUSH1 0x0 ADD DUP1 SLOAD PUSH1 0x1 DUP2 PUSH1 0x1 AND ISZERO PUSH2 0x100 MUL SUB AND PUSH1 0x2 SWAP1 DIV DUP1 PUSH1 0x1F ADD PUSH1 0x20 DUP1 SWAP2 DIV MUL PUSH1 0x20 ADD PUSH1 0x40 MLOAD SWAP1 DUP2 ADD PUSH1 0x40 MSTORE DUP1 SWAP3 SWAP2 SWAP1 DUP2 DUP2 MSTORE PUSH1 0x20 ADD DUP3 DUP1 SLOAD PUSH1 0x1 DUP2 PUSH1 0x1 AND ISZERO PUSH2 0x100 MUL SUB AND PUSH1 0x2 SWAP1 DIV DUP1 ISZERO PUSH2 0x24B JUMPI DUP1 PUSH1 0x1F LT PUSH2 0x220 JUMPI PUSH2 0x100 DUP1 DUP4 SLOAD DIV MUL DUP4 MSTORE SWAP2 PUSH1 0x20 ADD SWAP2 PUSH2 0x24B JUMP JUMPDEST DUP3 ADD SWAP2 SWAP1 PUSH1 0x0 MSTORE PUSH1 0x20 PUSH1 0x0 KECCAK256 SWAP1 JUMPDEST DUP2 SLOAD DUP2 MSTORE SWAP1 PUSH1 0x1 ADD SWAP1 PUSH1 0x20 ADD DUP1 DUP4 GT PUSH2 0x22E JUMPI DUP3 SWAP1 SUB PUSH1 0x1F AND DUP3 ADD SWAP2 JUMPDEST POP POP POP POP POP SWAP1 DUP1 PUSH1 0x1 ADD PUSH1 0x0 SWAP1 SLOAD SWAP1 PUSH2 0x100 EXP SWAP1 DIV PUSH20 0xFFFFFFFFFFFFFFFFFFFFFFFFFFFFFFFFFFFFFFFF AND SWAP1 DUP1 PUSH1 0x2 ADD SLOAD SWAP1 POP DUP4 JUMP JUMPDEST PUSH1 0x0 PUSH1 0x1 SWAP1 DUP1 PUSH1 0x1 DUP2 SLOAD ADD DUP1 DUP3 SSTORE DUP1 SWAP2 POP POP PUSH1 0x1 SWAP1 SUB SWAP1 PUSH1 0x0 MSTORE PUSH1 0x20 PUSH1 0x0 KECCAK256 ADD PUSH1 0x0 SWAP1 SWAP2 SWAP1 SWAP2 SWAP1 SWAP2 POP SSTORE JUMP JUMPDEST PUSH1 0x0 DUP2 DUP2 SLOAD DUP2 LT PUSH2 0x2BA JUMPI INVALID JUMPDEST SWAP1 PUSH1 0x0 MSTORE PUSH1 0x20 PUSH1 0x0 KECCAK256 ADD PUSH1 0x0 SWAP2 POP SWAP1 POP SLOAD DUP2 JUMP JUMPDEST PUSH1 0x5 PUSH1 0x40 MLOAD DUP1 PUSH1 0x60 ADD PUSH1 0x40 MSTORE DUP1 DUP5 DUP2 MSTORE PUSH1 0x20 ADD CALLER PUSH20 0xFFFFFFFFFFFFFFFFFFFFFFFFFFFFFFFFFFFFFFFF AND DUP2 MSTORE PUSH1 0x20 ADD DUP4 DUP2 MSTORE POP SWAP1 DUP1 PUSH1 0x1 DUP2 SLOAD ADD DUP1 DUP3 SSTORE DUP1 SWAP2 POP POP PUSH1 0x1 SWAP1 SUB SWAP1 PUSH1 0x0 MSTORE PUSH1 0x20 PUSH1 0x0 KECCAK256 SWAP1 PUSH1 0x3 MUL ADD PUSH1 0x0 SWAP1 SWAP2 SWAP1 SWAP2 SWAP1 SWAP2 POP PUSH1 0x0 DUP3 ADD MLOAD DUP2 PUSH1 0x0 ADD SWAP1 DUP1 MLOAD SWAP1 PUSH1 0x20 ADD SWAP1 PUSH2 0x346 SWAP3 SWAP2 SWAP1 PUSH2 0x5D8 JUMP JUMPDEST POP PUSH1 0x20 DUP3 ADD MLOAD DUP2 PUSH1 0x1 ADD PUSH1 0x0 PUSH2 0x100 EXP DUP2 SLOAD DUP2 PUSH20 0xFFFFFFFFFFFFFFFFFFFFFFFFFFFFFFFFFFFFFFFF MUL NOT AND SWAP1 DUP4 PUSH20 0xFFFFFFFFFFFFFFFFFFFFFFFFFFFFFFFFFFFFFFFF AND MUL OR SWAP1 SSTORE POP PUSH1 0x40 DUP3 ADD MLOAD DUP2 PUSH1 0x2 ADD SSTORE POP POP PUSH2 0x3A5 DUP3 CALLER DUP4 PUSH2 0x5A2 JUMP JUMPDEST PUSH1 0x4 SLOAD PUSH1 0x6 DUP4 PUSH1 0x40 MLOAD PUSH2 0x3B8 SWAP2 SWAP1 PUSH2 0x861 JUMP JUMPDEST SWAP1 DUP2 MSTORE PUSH1 0x20 ADD PUSH1 0x40 MLOAD DUP1 SWAP2 SUB SWAP1 KECCAK256 DUP2 SWAP1 SSTORE POP POP POP JUMP JUMPDEST PUSH1 0x40 MLOAD DUP1 PUSH1 0x40 ADD PUSH1 0x40 MSTORE DUP1 PUSH1 0x40 MLOAD DUP1 PUSH1 0x40 ADD PUSH1 0x40 MSTORE DUP1 PUSH1 0xB DUP2 MSTORE PUSH1 0x20 ADD PUSH32 0x68616D6275726775657361000000000000000000000000000000000000000000 DUP2 MSTORE POP DUP2 MSTORE PUSH1 0x20 ADD DUP3 DUP2 MSTORE POP PUSH1 0x2 PUSH1 0x0 DUP3 ADD MLOAD DUP2 PUSH1 0x0 ADD SWAP1 DUP1 MLOAD SWAP1 PUSH1 0x20 ADD SWAP1 PUSH2 0x436 SWAP3 SWAP2 SWAP1 PUSH2 0x5D8 JUMP JUMPDEST POP PUSH1 0x20 DUP3 ADD MLOAD DUP2 PUSH1 0x1 ADD SWAP1 DUP1 MLOAD SWAP1 PUSH1 0x20 ADD SWAP1 PUSH2 0x453 SWAP3 SWAP2 SWAP1 PUSH2 0x5D8 JUMP JUMPDEST POP SWAP1 POP POP POP JUMP JUMPDEST PUSH1 0x4 SLOAD DUP2 JUMP JUMPDEST PUSH1 0x2 DUP1 PUSH1 0x0 ADD DUP1 SLOAD PUSH1 0x1 DUP2 PUSH1 0x1 AND ISZERO PUSH2 0x100 MUL SUB AND PUSH1 0x2 SWAP1 DIV DUP1 PUSH1 0x1F ADD PUSH1 0x20 DUP1 SWAP2 DIV MUL PUSH1 0x20 ADD PUSH1 0x40 MLOAD SWAP1 DUP2 ADD PUSH1 0x40 MSTORE DUP1 SWAP3 SWAP2 SWAP1 DUP2 DUP2 MSTORE PUSH1 0x20 ADD DUP3 DUP1 SLOAD PUSH1 0x1 DUP2 PUSH1 0x1 AND ISZERO PUSH2 0x100 MUL SUB AND PUSH1 0x2 SWAP1 DIV DUP1 ISZERO PUSH2 0x4FA JUMPI DUP1 PUSH1 0x1F LT PUSH2 0x4CF JUMPI PUSH2 0x100 DUP1 DUP4 SLOAD DIV MUL DUP4 MSTORE SWAP2 PUSH1 0x20 ADD SWAP2 PUSH2 0x4FA JUMP JUMPDEST DUP3 ADD SWAP2 SWAP1 PUSH1 0x0 MSTORE PUSH1 0x20 PUSH1 0x0 KECCAK256 SWAP1 JUMPDEST DUP2 SLOAD DUP2 MSTORE SWAP1 PUSH1 0x1 ADD SWAP1 PUSH1 0x20 ADD DUP1 DUP4 GT PUSH2 0x4DD JUMPI DUP3 SWAP1 SUB PUSH1 0x1F AND DUP3 ADD SWAP2 JUMPDEST POP POP POP POP POP SWAP1 DUP1 PUSH1 0x1 ADD DUP1 SLOAD PUSH1 0x1 DUP2 PUSH1 0x1 AND ISZERO PUSH2 0x100 MUL SUB AND PUSH1 0x2 SWAP1 DIV DUP1 PUSH1 0x1F ADD PUSH1 0x20 DUP1 SWAP2 DIV MUL PUSH1 0x20 ADD PUSH1 0x40 MLOAD SWAP1 DUP2 ADD PUSH1 0x40 MSTORE DUP1 SWAP3 SWAP2 SWAP1 DUP2 DUP2 MSTORE PUSH1 0x20 ADD DUP3 DUP1 SLOAD PUSH1 0x1 DUP2 PUSH1 0x1 AND ISZERO PUSH2 0x100 MUL SUB AND PUSH1 0x2 SWAP1 DIV DUP1 ISZERO PUSH2 0x598 JUMPI DUP1 PUSH1 0x1F LT PUSH2 0x56D JUMPI PUSH2 0x100 DUP1 DUP4 SLOAD DIV MUL DUP4 MSTORE SWAP2 PUSH1 0x20 ADD SWAP2 PUSH2 0x598 JUMP JUMPDEST DUP3 ADD SWAP2 SWAP1 PUSH1 0x0 MSTORE PUSH1 0x20 PUSH1 0x0 KECCAK256 SWAP1 JUMPDEST DUP2 SLOAD DUP2 MSTORE SWAP1 PUSH1 0x1 ADD SWAP1 PUSH1 0x20 ADD DUP1 DUP4 GT PUSH2 0x57B JUMPI DUP3 SWAP1 SUB PUSH1 0x1F AND DUP3 ADD SWAP2 JUMPDEST POP POP POP POP POP SWAP1 POP DUP3 JUMP JUMPDEST DUP3 DUP3 DUP3 PUSH1 0x40 MLOAD PUSH1 0x20 ADD PUSH2 0x5B7 SWAP4 SWAP3 SWAP2 SWAP1 PUSH2 0x878 JUMP JUMPDEST PUSH1 0x40 MLOAD PUSH1 0x20 DUP2 DUP4 SUB SUB DUP2 MSTORE SWAP1 PUSH1 0x40 MSTORE DUP1 MLOAD SWAP1 PUSH1 0x20 ADD KECCAK256 PUSH1 0x4 DUP2 SWAP1 SSTORE POP POP POP POP JUMP JUMPDEST DUP3 DUP1 SLOAD PUSH1 0x1 DUP2 PUSH1 0x1 AND ISZERO PUSH2 0x100 MUL SUB AND PUSH1 0x2 SWAP1 DIV SWAP1 PUSH1 0x0 MSTORE PUSH1 0x20 PUSH1 0x0 KECCAK256 SWAP1 PUSH1 0x1F ADD PUSH1 0x20 SWAP1 DIV DUP2 ADD SWAP3 DUP3 PUSH1 0x1F LT PUSH2 0x619 JUMPI DUP1 MLOAD PUSH1 0xFF NOT AND DUP4 DUP1 ADD OR DUP6 SSTORE PUSH2 0x647 JUMP JUMPDEST DUP3 DUP1 ADD PUSH1 0x1 ADD DUP6 SSTORE DUP3 ISZERO PUSH2 0x647 JUMPI SWAP2 DUP3 ADD JUMPDEST DUP3 DUP2 GT ISZERO PUSH2 0x646 JUMPI DUP3 MLOAD DUP3 SSTORE SWAP2 PUSH1 0x20 ADD SWAP2 SWAP1 PUSH1 0x1 ADD SWAP1 PUSH2 0x62B JUMP JUMPDEST JUMPDEST POP SWAP1 POP PUSH2 0x654 SWAP2 SWAP1 PUSH2 0x658 JUMP JUMPDEST POP SWAP1 JUMP JUMPDEST JUMPDEST DUP1 DUP3 GT ISZERO PUSH2 0x671 JUMPI PUSH1 0x0 DUP2 PUSH1 0x0 SWAP1 SSTORE POP PUSH1 0x1 ADD PUSH2 0x659 JUMP JUMPDEST POP SWAP1 JUMP JUMPDEST PUSH1 0x0 DUP3 PUSH1 0x1F DUP4 ADD SLT PUSH2 0x686 JUMPI PUSH1 0x0 DUP1 REVERT JUMPDEST DUP2 CALLDATALOAD PUSH2 0x699 PUSH2 0x694 DUP3 PUSH2 0x989 JUMP JUMPDEST PUSH2 0x95C JUMP JUMPDEST SWAP2 POP DUP1 DUP3 MSTORE PUSH1 0x20 DUP4 ADD PUSH1 0x20 DUP4 ADD DUP6 DUP4 DUP4 ADD GT ISZERO PUSH2 0x6B5 JUMPI PUSH1 0x0 DUP1 REVERT JUMPDEST PUSH2 0x6C0 DUP4 DUP3 DUP5 PUSH2 0xA22 JUMP JUMPDEST POP POP POP SWAP3 SWAP2 POP POP JUMP JUMPDEST PUSH1 0x0 DUP2 CALLDATALOAD SWAP1 POP PUSH2 0x6D8 DUP2 PUSH2 0xAB0 JUMP JUMPDEST SWAP3 SWAP2 POP POP JUMP JUMPDEST PUSH1 0x0 PUSH1 0x20 DUP3 DUP5 SUB SLT ISZERO PUSH2 0x6F0 JUMPI PUSH1 0x0 DUP1 REVERT JUMPDEST PUSH1 0x0 DUP3 ADD CALLDATALOAD PUSH8 0xFFFFFFFFFFFFFFFF DUP2 GT ISZERO PUSH2 0x70A JUMPI PUSH1 0x0 DUP1 REVERT JUMPDEST PUSH2 0x716 DUP5 DUP3 DUP6 ADD PUSH2 0x675 JUMP JUMPDEST SWAP2 POP POP SWAP3 SWAP2 POP POP JUMP JUMPDEST PUSH1 0x0 DUP1 PUSH1 0x40 DUP4 DUP6 SUB SLT ISZERO PUSH2 0x732 JUMPI PUSH1 0x0 DUP1 REVERT JUMPDEST PUSH1 0x0 DUP4 ADD CALLDATALOAD PUSH8 0xFFFFFFFFFFFFFFFF DUP2 GT ISZERO PUSH2 0x74C JUMPI PUSH1 0x0 DUP1 REVERT JUMPDEST PUSH2 0x758 DUP6 DUP3 DUP7 ADD PUSH2 0x675 JUMP JUMPDEST SWAP3 POP POP PUSH1 0x20 PUSH2 0x769 DUP6 DUP3 DUP7 ADD PUSH2 0x6C9 JUMP JUMPDEST SWAP2 POP POP SWAP3 POP SWAP3 SWAP1 POP JUMP JUMPDEST PUSH1 0x0 PUSH1 0x20 DUP3 DUP5 SUB SLT ISZERO PUSH2 0x785 JUMPI PUSH1 0x0 DUP1 REVERT JUMPDEST PUSH1 0x0 PUSH2 0x793 DUP5 DUP3 DUP6 ADD PUSH2 0x6C9 JUMP JUMPDEST SWAP2 POP POP SWAP3 SWAP2 POP POP JUMP JUMPDEST PUSH2 0x7A5 DUP2 PUSH2 0x9DC JUMP JUMPDEST DUP3 MSTORE POP POP JUMP JUMPDEST PUSH2 0x7BC PUSH2 0x7B7 DUP3 PUSH2 0x9DC JUMP JUMPDEST PUSH2 0xA64 JUMP JUMPDEST DUP3 MSTORE POP POP JUMP JUMPDEST PUSH2 0x7CB DUP2 PUSH2 0x9EE JUMP JUMPDEST DUP3 MSTORE POP POP JUMP JUMPDEST PUSH1 0x0 PUSH2 0x7DC DUP3 PUSH2 0x9B5 JUMP JUMPDEST PUSH2 0x7E6 DUP2 DUP6 PUSH2 0x9C0 JUMP JUMPDEST SWAP4 POP PUSH2 0x7F6 DUP2 DUP6 PUSH1 0x20 DUP7 ADD PUSH2 0xA31 JUMP JUMPDEST PUSH2 0x7FF DUP2 PUSH2 0xA92 JUMP JUMPDEST DUP5 ADD SWAP2 POP POP SWAP3 SWAP2 POP POP JUMP JUMPDEST PUSH1 0x0 PUSH2 0x815 DUP3 PUSH2 0x9B5 JUMP JUMPDEST PUSH2 0x81F DUP2 DUP6 PUSH2 0x9D1 JUMP JUMPDEST SWAP4 POP PUSH2 0x82F DUP2 DUP6 PUSH1 0x20 DUP7 ADD PUSH2 0xA31 JUMP JUMPDEST DUP1 DUP5 ADD SWAP2 POP POP SWAP3 SWAP2 POP POP JUMP JUMPDEST PUSH2 0x844 DUP2 PUSH2 0xA18 JUMP JUMPDEST DUP3 MSTORE POP POP JUMP JUMPDEST PUSH2 0x85B PUSH2 0x856 DUP3 PUSH2 0xA18 JUMP JUMPDEST PUSH2 0xA88 JUMP JUMPDEST DUP3 MSTORE POP POP JUMP JUMPDEST PUSH1 0x0 PUSH2 0x86D DUP3 DUP5 PUSH2 0x80A JUMP JUMPDEST SWAP2 POP DUP2 SWAP1 POP SWAP3 SWAP2 POP POP JUMP JUMPDEST PUSH1 0x0 PUSH2 0x884 DUP3 DUP7 PUSH2 0x80A JUMP JUMPDEST SWAP2 POP PUSH2 0x890 DUP3 DUP6 PUSH2 0x7AB JUMP JUMPDEST PUSH1 0x14 DUP3 ADD SWAP2 POP PUSH2 0x8A0 DUP3 DUP5 PUSH2 0x84A JUMP JUMPDEST PUSH1 0x20 DUP3 ADD SWAP2 POP DUP2 SWAP1 POP SWAP5 SWAP4 POP POP POP POP JUMP JUMPDEST PUSH1 0x0 PUSH1 0x20 DUP3 ADD SWAP1 POP PUSH2 0x8C6 PUSH1 0x0 DUP4 ADD DUP5 PUSH2 0x7C2 JUMP JUMPDEST SWAP3 SWAP2 POP POP JUMP JUMPDEST PUSH1 0x0 PUSH1 0x60 DUP3 ADD SWAP1 POP DUP2 DUP2 SUB PUSH1 0x0 DUP4 ADD MSTORE PUSH2 0x8E6 DUP2 DUP7 PUSH2 0x7D1 JUMP JUMPDEST SWAP1 POP PUSH2 0x8F5 PUSH1 0x20 DUP4 ADD DUP6 PUSH2 0x79C JUMP JUMPDEST PUSH2 0x902 PUSH1 0x40 DUP4 ADD DUP5 PUSH2 0x83B JUMP JUMPDEST SWAP5 SWAP4 POP POP POP POP JUMP JUMPDEST PUSH1 0x0 PUSH1 0x40 DUP3 ADD SWAP1 POP DUP2 DUP2 SUB PUSH1 0x0 DUP4 ADD MSTORE PUSH2 0x924 DUP2 DUP6 PUSH2 0x7D1 JUMP JUMPDEST SWAP1 POP DUP2 DUP2 SUB PUSH1 0x20 DUP4 ADD MSTORE PUSH2 0x938 DUP2 DUP5 PUSH2 0x7D1 JUMP JUMPDEST SWAP1 POP SWAP4 SWAP3 POP POP POP JUMP JUMPDEST PUSH1 0x0 PUSH1 0x20 DUP3 ADD SWAP1 POP PUSH2 0x956 PUSH1 0x0 DUP4 ADD DUP5 PUSH2 0x83B JUMP JUMPDEST SWAP3 SWAP2 POP POP JUMP JUMPDEST PUSH1 0x0 PUSH1 0x40 MLOAD SWAP1 POP DUP2 DUP2 ADD DUP2 DUP2 LT PUSH8 0xFFFFFFFFFFFFFFFF DUP3 GT OR ISZERO PUSH2 0x97F JUMPI PUSH1 0x0 DUP1 REVERT JUMPDEST DUP1 PUSH1 0x40 MSTORE POP SWAP2 SWAP1 POP JUMP JUMPDEST PUSH1 0x0 PUSH8 0xFFFFFFFFFFFFFFFF DUP3 GT ISZERO PUSH2 0x9A0 JUMPI PUSH1 0x0 DUP1 REVERT JUMPDEST PUSH1 0x1F NOT PUSH1 0x1F DUP4 ADD AND SWAP1 POP PUSH1 0x20 DUP2 ADD SWAP1 POP SWAP2 SWAP1 POP JUMP JUMPDEST PUSH1 0x0 DUP2 MLOAD SWAP1 POP SWAP2 SWAP1 POP JUMP JUMPDEST PUSH1 0x0 DUP3 DUP3 MSTORE PUSH1 0x20 DUP3 ADD SWAP1 POP SWAP3 SWAP2 POP POP JUMP JUMPDEST PUSH1 0x0 DUP2 SWAP1 POP SWAP3 SWAP2 POP POP JUMP JUMPDEST PUSH1 0x0 PUSH2 0x9E7 DUP3 PUSH2 0x9F8 JUMP JUMPDEST SWAP1 POP SWAP2 SWAP1 POP JUMP JUMPDEST PUSH1 0x0 DUP2 SWAP1 POP SWAP2 SWAP1 POP JUMP JUMPDEST PUSH1 0x0 PUSH20 0xFFFFFFFFFFFFFFFFFFFFFFFFFFFFFFFFFFFFFFFF DUP3 AND SWAP1 POP SWAP2 SWAP1 POP JUMP JUMPDEST PUSH1 0x0 DUP2 SWAP1 POP SWAP2 SWAP1 POP JUMP JUMPDEST DUP3 DUP2 DUP4 CALLDATACOPY PUSH1 0x0 DUP4 DUP4 ADD MSTORE POP POP POP JUMP JUMPDEST PUSH1 0x0 JUMPDEST DUP4 DUP2 LT ISZERO PUSH2 0xA4F JUMPI DUP1 DUP3 ADD MLOAD DUP2 DUP5 ADD MSTORE PUSH1 0x20 DUP2 ADD SWAP1 POP PUSH2 0xA34 JUMP JUMPDEST DUP4 DUP2 GT ISZERO PUSH2 0xA5E JUMPI PUSH1 0x0 DUP5 DUP5 ADD MSTORE JUMPDEST POP POP POP POP JUMP JUMPDEST PUSH1 0x0 PUSH2 0xA6F DUP3 PUSH2 0xA76 JUMP JUMPDEST SWAP1 POP SWAP2 SWAP1 POP JUMP JUMPDEST PUSH1 0x0 PUSH2 0xA81 DUP3 PUSH2 0xAA3 JUMP JUMPDEST SWAP1 POP SWAP2 SWAP1 POP JUMP JUMPDEST PUSH1 0x0 DUP2 SWAP1 POP SWAP2 SWAP1 POP JUMP JUMPDEST PUSH1 0x0 PUSH1 0x1F NOT PUSH1 0x1F DUP4 ADD AND SWAP1 POP SWAP2 SWAP1 POP JUMP JUMPDEST PUSH1 0x0 DUP2 PUSH1 0x60 SHL SWAP1 POP SWAP2 SWAP1 POP JUMP JUMPDEST PUSH2 0xAB9 DUP2 PUSH2 0xA18 JUMP JUMPDEST DUP2 EQ PUSH2 0xAC4 JUMPI PUSH1 0x0 DUP1 REVERT JUMPDEST POP JUMP INVALID LOG2 PUSH5 0x6970667358 0x22 SLT KECCAK256 XOR 0xB2 MUL 0xD9 0xED PUSH25 0xECBB498AF2FECF3D4AE6920769460C39FABFE90711C5D8B626 SELFBALANCE PUSH5 0x736F6C6343 STOP MOD 0xC STOP CALLER "
				},
				"gasEstimates": {
					"creation": {
						"codeDepositCost": "562600",
						"executionCost": "594",
						"totalCost": "563194"
					},
					"external": {
						"Hamburguesas(string)": "infinite",
						"direcciones(uint256)": "infinite",
						"hamburguesa()": "infinite",
						"hash()": "1130",
						"hash_Id_alumno()": "1173",
						"lista(uint256)": "infinite",
						"nuevaDireccion()": "41112",
						"nuevoAlumno(string,uint256)": "infinite"
					},
					"internal": {
						"hashIdAlumno(string memory,address,uint256)": "infinite"
					}
				},
				"methodIdentifiers": {
					"Hamburguesas(string)": "631b84bd",
					"direcciones(uint256)": "547cbcad",
					"hamburguesa()": "c74efaef",
					"hash()": "09bd5a60",
					"hash_Id_alumno()": "65293a0d",
					"lista(uint256)": "0cc76c14",
					"nuevaDireccion()": "42d73314",
					"nuevoAlumno(string,uint256)": "5a37fba9"
				}
			},
			"storageLayout": {
				"storage": [
					{
						"astId": 5,
						"contract": "Pruebas y Primeros pasos/funciones.sol:funciones",
						"label": "direcciones",
						"offset": 0,
						"slot": "0",
						"type": "t_array(t_uint256)dyn_storage"
					},
					{
						"astId": 17,
						"contract": "Pruebas y Primeros pasos/funciones.sol:funciones",
						"label": "hash",
						"offset": 0,
						"slot": "1",
						"type": "t_bytes32"
					},
					{
						"astId": 24,
						"contract": "Pruebas y Primeros pasos/funciones.sol:funciones",
						"label": "hamburguesa",
						"offset": 0,
						"slot": "2",
						"type": "t_struct(comida)22_storage"
					},
					{
						"astId": 46,
						"contract": "Pruebas y Primeros pasos/funciones.sol:funciones",
						"label": "hash_Id_alumno",
						"offset": 0,
						"slot": "4",
						"type": "t_bytes32"
					},
					{
						"astId": 70,
						"contract": "Pruebas y Primeros pasos/funciones.sol:funciones",
						"label": "lista",
						"offset": 0,
						"slot": "5",
						"type": "t_array(t_struct(alumno)44_storage)dyn_storage"
					},
					{
						"astId": 74,
						"contract": "Pruebas y Primeros pasos/funciones.sol:funciones",
						"label": "alumnos",
						"offset": 0,
						"slot": "6",
						"type": "t_mapping(t_string_memory_ptr,t_bytes32)"
					}
				],
				"types": {
					"t_address": {
						"encoding": "inplace",
						"label": "address",
						"numberOfBytes": "20"
					},
					"t_array(t_struct(alumno)44_storage)dyn_storage": {
						"base": "t_struct(alumno)44_storage",
						"encoding": "dynamic_array",
						"label": "struct funciones.alumno[]",
						"numberOfBytes": "32"
					},
					"t_array(t_uint256)dyn_storage": {
						"base": "t_uint256",
						"encoding": "dynamic_array",
						"label": "uint256[]",
						"numberOfBytes": "32"
					},
					"t_bytes32": {
						"encoding": "inplace",
						"label": "bytes32",
						"numberOfBytes": "32"
					},
					"t_mapping(t_string_memory_ptr,t_bytes32)": {
						"encoding": "mapping",
						"key": "t_string_memory_ptr",
						"label": "mapping(string => bytes32)",
						"numberOfBytes": "32",
						"value": "t_bytes32"
					},
					"t_string_memory_ptr": {
						"encoding": "bytes",
						"label": "string",
						"numberOfBytes": "32"
					},
					"t_string_storage": {
						"encoding": "bytes",
						"label": "string",
						"numberOfBytes": "32"
					},
					"t_struct(alumno)44_storage": {
						"encoding": "inplace",
						"label": "struct funciones.alumno",
						"members": [
							{
								"astId": 39,
								"contract": "Pruebas y Primeros pasos/funciones.sol:funciones",
								"label": "nombre",
								"offset": 0,
								"slot": "0",
								"type": "t_string_storage"
							},
							{
								"astId": 41,
								"contract": "Pruebas y Primeros pasos/funciones.sol:funciones",
								"label": "direccion",
								"offset": 0,
								"slot": "1",
								"type": "t_address"
							},
							{
								"astId": 43,
								"contract": "Pruebas y Primeros pasos/funciones.sol:funciones",
								"label": "edad",
								"offset": 0,
								"slot": "2",
								"type": "t_uint256"
							}
						],
						"numberOfBytes": "96"
					},
					"t_struct(comida)22_storage": {
						"encoding": "inplace",
						"label": "struct funciones.comida",
						"members": [
							{
								"astId": 19,
								"contract": "Pruebas y Primeros pasos/funciones.sol:funciones",
								"label": "nombre",
								"offset": 0,
								"slot": "0",
								"type": "t_string_storage"
							},
							{
								"astId": 21,
								"contract": "Pruebas y Primeros pasos/funciones.sol:funciones",
								"label": "ingredientes",
								"offset": 0,
								"slot": "1",
								"type": "t_string_storage"
							}
						],
						"numberOfBytes": "64"
					},
					"t_uint256": {
						"encoding": "inplace",
						"label": "uint256",
						"numberOfBytes": "32"
					}
				}
			},
			"userdoc": {
				"kind": "user",
				"methods": {},
				"version": 1
			}
		}
	}
}