{
	"Pruebas y Primeros pasos/Copy_Restaurante.sol": {
		"Restaurante": {
			"abi": [
				{
					"inputs": [],
					"name": "AlgunaMesaDisponible",
					"outputs": [
						{
							"internalType": "bool",
							"name": "",
							"type": "bool"
						}
					],
					"stateMutability": "view",
					"type": "function"
				},
				{
					"inputs": [
						{
							"internalType": "uint256",
							"name": "",
							"type": "uint256"
						}
					],
					"name": "mesa",
					"outputs": [
						{
							"internalType": "uint256",
							"name": "numeroMesa",
							"type": "uint256"
						},
						{
							"internalType": "string",
							"name": "nombreCliente",
							"type": "string"
						},
						{
							"internalType": "uint256",
							"name": "totalClientes",
							"type": "uint256"
						}
					],
					"stateMutability": "view",
					"type": "function"
				}
			],
			"devdoc": {
				"kind": "dev",
				"methods": {},
				"version": 1
			},
			"evm": {
				"assembly": "    /* \"Pruebas y Primeros pasos/Copy_Restaurante.sol\":67:812  contract Restaurante{... */\n  mstore(0x40, 0x80)\n    /* \"Pruebas y Primeros pasos/Copy_Restaurante.sol\":334:362  uint[4] numeroMesa=[1,2,3,4] */\n  mload(0x40)\n  dup1\n  0x80\n  add\n  0x40\n  mstore\n  dup1\n    /* \"Pruebas y Primeros pasos/Copy_Restaurante.sol\":354:355  1 */\n  0x01\n    /* \"Pruebas y Primeros pasos/Copy_Restaurante.sol\":334:362  uint[4] numeroMesa=[1,2,3,4] */\n  0xff\n  and\n  dup2\n  mstore\n  0x20\n  add\n    /* \"Pruebas y Primeros pasos/Copy_Restaurante.sol\":356:357  2 */\n  0x02\n    /* \"Pruebas y Primeros pasos/Copy_Restaurante.sol\":334:362  uint[4] numeroMesa=[1,2,3,4] */\n  0xff\n  and\n  dup2\n  mstore\n  0x20\n  add\n    /* \"Pruebas y Primeros pasos/Copy_Restaurante.sol\":358:359  3 */\n  0x03\n    /* \"Pruebas y Primeros pasos/Copy_Restaurante.sol\":334:362  uint[4] numeroMesa=[1,2,3,4] */\n  0xff\n  and\n  dup2\n  mstore\n  0x20\n  add\n    /* \"Pruebas y Primeros pasos/Copy_Restaurante.sol\":360:361  4 */\n  0x04\n    /* \"Pruebas y Primeros pasos/Copy_Restaurante.sol\":334:362  uint[4] numeroMesa=[1,2,3,4] */\n  0xff\n  and\n  dup2\n  mstore\n  pop\n  0x00\n  swap1\n  0x04\n  tag_1\n  swap3\n  swap2\n  swap1\n  tag_2\n  jump\t// in\ntag_1:\n  pop\n    /* \"Pruebas y Primeros pasos/Copy_Restaurante.sol\":423:428  false */\n  0x00\n    /* \"Pruebas y Primeros pasos/Copy_Restaurante.sol\":407:428  bool disponible=false */\n  0x05\n  exp(0x0100, 0x00)\n  dup2\n  sload\n  dup2\n  0xff\n  mul\n  not\n  and\n  swap1\n  dup4\n  iszero\n  iszero\n  mul\n  or\n  swap1\n  sstore\n  pop\n    /* \"Pruebas y Primeros pasos/Copy_Restaurante.sol\":67:812  contract Restaurante{... */\n  callvalue\n  dup1\n  iszero\n  tag_3\n  jumpi\n  0x00\n  dup1\n  revert\ntag_3:\n  pop\n  jump(tag_4)\ntag_2:\n  dup3\n  0x04\n  dup2\n  add\n  swap3\n  dup3\n  iszero\n  tag_5\n  jumpi\n  swap2\n  0x20\n  mul\n  dup3\n  add\ntag_6:\n  dup3\n  dup2\n  gt\n  iszero\n  tag_7\n  jumpi\n  dup3\n  mload\n  dup3\n  swap1\n  0xff\n  and\n  swap1\n  sstore\n  swap2\n  0x20\n  add\n  swap2\n  swap1\n  0x01\n  add\n  swap1\n  jump(tag_6)\ntag_7:\ntag_5:\n  pop\n  swap1\n  pop\n  tag_8\n  swap2\n  swap1\n  tag_9\n  jump\t// in\ntag_8:\n  pop\n  swap1\n  jump\t// out\ntag_9:\ntag_10:\n  dup1\n  dup3\n  gt\n  iszero\n  tag_11\n  jumpi\n  0x00\n  dup2\n  0x00\n  swap1\n  sstore\n  pop\n  0x01\n  add\n  jump(tag_10)\ntag_11:\n  pop\n  swap1\n  jump\t// out\ntag_4:\n  dataSize(sub_0)\n  dup1\n  dataOffset(sub_0)\n  0x00\n  codecopy\n  0x00\n  return\nstop\n\nsub_0: assembly {\n        /* \"Pruebas y Primeros pasos/Copy_Restaurante.sol\":67:812  contract Restaurante{... */\n      mstore(0x40, 0x80)\n      callvalue\n      dup1\n      iszero\n      tag_1\n      jumpi\n      0x00\n      dup1\n      revert\n    tag_1:\n      pop\n      jumpi(tag_2, lt(calldatasize, 0x04))\n      shr(0xe0, calldataload(0x00))\n      dup1\n      0x5baea0a7\n      eq\n      tag_3\n      jumpi\n      dup1\n      0xcd6307bb\n      eq\n      tag_4\n      jumpi\n    tag_2:\n      0x00\n      dup1\n      revert\n        /* \"Pruebas y Primeros pasos/Copy_Restaurante.sol\":370:404  mapping(uint => mesas) public mesa */\n    tag_3:\n      tag_5\n      0x04\n      dup1\n      calldatasize\n      sub\n      dup2\n      add\n      swap1\n      tag_6\n      swap2\n      swap1\n      tag_7\n      jump\t// in\n    tag_6:\n      tag_8\n      jump\t// in\n    tag_5:\n      mload(0x40)\n      tag_9\n      swap4\n      swap3\n      swap2\n      swap1\n      tag_10\n      jump\t// in\n    tag_9:\n      mload(0x40)\n      dup1\n      swap2\n      sub\n      swap1\n      return\n        /* \"Pruebas y Primeros pasos/Copy_Restaurante.sol\":536:809  function  AlgunaMesaDisponible () public view returns(bool){... */\n    tag_4:\n      tag_11\n      tag_12\n      jump\t// in\n    tag_11:\n      mload(0x40)\n      tag_13\n      swap2\n      swap1\n      tag_14\n      jump\t// in\n    tag_13:\n      mload(0x40)\n      dup1\n      swap2\n      sub\n      swap1\n      return\n        /* \"Pruebas y Primeros pasos/Copy_Restaurante.sol\":370:404  mapping(uint => mesas) public mesa */\n    tag_8:\n      mstore(0x20, 0x04)\n      dup1\n      0x00\n      mstore\n      keccak256(0x00, 0x40)\n      0x00\n      swap2\n      pop\n      swap1\n      pop\n      dup1\n      0x00\n      add\n      sload\n      swap1\n      dup1\n      0x01\n      add\n      dup1\n      sload\n      tag_15\n      swap1\n      tag_16\n      jump\t// in\n    tag_15:\n      dup1\n      0x1f\n      add\n      0x20\n      dup1\n      swap2\n      div\n      mul\n      0x20\n      add\n      mload(0x40)\n      swap1\n      dup2\n      add\n      0x40\n      mstore\n      dup1\n      swap3\n      swap2\n      swap1\n      dup2\n      dup2\n      mstore\n      0x20\n      add\n      dup3\n      dup1\n      sload\n      tag_17\n      swap1\n      tag_16\n      jump\t// in\n    tag_17:\n      dup1\n      iszero\n      tag_18\n      jumpi\n      dup1\n      0x1f\n      lt\n      tag_19\n      jumpi\n      0x0100\n      dup1\n      dup4\n      sload\n      div\n      mul\n      dup4\n      mstore\n      swap2\n      0x20\n      add\n      swap2\n      jump(tag_18)\n    tag_19:\n      dup3\n      add\n      swap2\n      swap1\n      0x00\n      mstore\n      keccak256(0x00, 0x20)\n      swap1\n    tag_20:\n      dup2\n      sload\n      dup2\n      mstore\n      swap1\n      0x01\n      add\n      swap1\n      0x20\n      add\n      dup1\n      dup4\n      gt\n      tag_20\n      jumpi\n      dup3\n      swap1\n      sub\n      0x1f\n      and\n      dup3\n      add\n      swap2\n    tag_18:\n      pop\n      pop\n      pop\n      pop\n      pop\n      swap1\n      dup1\n      0x02\n      add\n      sload\n      swap1\n      pop\n      dup4\n      jump\t// out\n        /* \"Pruebas y Primeros pasos/Copy_Restaurante.sol\":536:809  function  AlgunaMesaDisponible () public view returns(bool){... */\n    tag_12:\n        /* \"Pruebas y Primeros pasos/Copy_Restaurante.sol\":590:594  bool */\n      0x00\n        /* \"Pruebas y Primeros pasos/Copy_Restaurante.sol\":791:801  disponible */\n      0x05\n      0x00\n      swap1\n      sload\n      swap1\n      0x0100\n      exp\n      swap1\n      div\n      0xff\n      and\n        /* \"Pruebas y Primeros pasos/Copy_Restaurante.sol\":784:801  return disponible */\n      swap1\n      pop\n        /* \"Pruebas y Primeros pasos/Copy_Restaurante.sol\":536:809  function  AlgunaMesaDisponible () public view returns(bool){... */\n      swap1\n      jump\t// out\n        /* \"#utility.yul\":88:205   */\n    tag_23:\n        /* \"#utility.yul\":197:198   */\n      0x00\n        /* \"#utility.yul\":194:195   */\n      dup1\n        /* \"#utility.yul\":187:199   */\n      revert\n        /* \"#utility.yul\":334:411   */\n    tag_25:\n        /* \"#utility.yul\":371:378   */\n      0x00\n        /* \"#utility.yul\":400:405   */\n      dup2\n        /* \"#utility.yul\":389:405   */\n      swap1\n      pop\n        /* \"#utility.yul\":334:411   */\n      swap2\n      swap1\n      pop\n      jump\t// out\n        /* \"#utility.yul\":417:539   */\n    tag_26:\n        /* \"#utility.yul\":490:514   */\n      tag_43\n        /* \"#utility.yul\":508:513   */\n      dup2\n        /* \"#utility.yul\":490:514   */\n      tag_25\n      jump\t// in\n    tag_43:\n        /* \"#utility.yul\":483:488   */\n      dup2\n        /* \"#utility.yul\":480:515   */\n      eq\n        /* \"#utility.yul\":470:533   */\n      tag_44\n      jumpi\n        /* \"#utility.yul\":529:530   */\n      0x00\n        /* \"#utility.yul\":526:527   */\n      dup1\n        /* \"#utility.yul\":519:531   */\n      revert\n        /* \"#utility.yul\":470:533   */\n    tag_44:\n        /* \"#utility.yul\":417:539   */\n      pop\n      jump\t// out\n        /* \"#utility.yul\":545:684   */\n    tag_27:\n        /* \"#utility.yul\":591:596   */\n      0x00\n        /* \"#utility.yul\":629:635   */\n      dup2\n        /* \"#utility.yul\":616:636   */\n      calldataload\n        /* \"#utility.yul\":607:636   */\n      swap1\n      pop\n        /* \"#utility.yul\":645:678   */\n      tag_46\n        /* \"#utility.yul\":672:677   */\n      dup2\n        /* \"#utility.yul\":645:678   */\n      tag_26\n      jump\t// in\n    tag_46:\n        /* \"#utility.yul\":545:684   */\n      swap3\n      swap2\n      pop\n      pop\n      jump\t// out\n        /* \"#utility.yul\":690:1019   */\n    tag_7:\n        /* \"#utility.yul\":749:755   */\n      0x00\n        /* \"#utility.yul\":798:800   */\n      0x20\n        /* \"#utility.yul\":786:795   */\n      dup3\n        /* \"#utility.yul\":777:784   */\n      dup5\n        /* \"#utility.yul\":773:796   */\n      sub\n        /* \"#utility.yul\":769:801   */\n      slt\n        /* \"#utility.yul\":766:885   */\n      iszero\n      tag_48\n      jumpi\n        /* \"#utility.yul\":804:883   */\n      tag_49\n      tag_23\n      jump\t// in\n    tag_49:\n        /* \"#utility.yul\":766:885   */\n    tag_48:\n        /* \"#utility.yul\":924:925   */\n      0x00\n        /* \"#utility.yul\":949:1002   */\n      tag_50\n        /* \"#utility.yul\":994:1001   */\n      dup5\n        /* \"#utility.yul\":985:991   */\n      dup3\n        /* \"#utility.yul\":974:983   */\n      dup6\n        /* \"#utility.yul\":970:992   */\n      add\n        /* \"#utility.yul\":949:1002   */\n      tag_27\n      jump\t// in\n    tag_50:\n        /* \"#utility.yul\":939:1002   */\n      swap2\n      pop\n        /* \"#utility.yul\":895:1012   */\n      pop\n        /* \"#utility.yul\":690:1019   */\n      swap3\n      swap2\n      pop\n      pop\n      jump\t// out\n        /* \"#utility.yul\":1025:1143   */\n    tag_28:\n        /* \"#utility.yul\":1112:1136   */\n      tag_52\n        /* \"#utility.yul\":1130:1135   */\n      dup2\n        /* \"#utility.yul\":1112:1136   */\n      tag_25\n      jump\t// in\n    tag_52:\n        /* \"#utility.yul\":1107:1110   */\n      dup3\n        /* \"#utility.yul\":1100:1137   */\n      mstore\n        /* \"#utility.yul\":1025:1143   */\n      pop\n      pop\n      jump\t// out\n        /* \"#utility.yul\":1149:1248   */\n    tag_29:\n        /* \"#utility.yul\":1201:1207   */\n      0x00\n        /* \"#utility.yul\":1235:1240   */\n      dup2\n        /* \"#utility.yul\":1229:1241   */\n      mload\n        /* \"#utility.yul\":1219:1241   */\n      swap1\n      pop\n        /* \"#utility.yul\":1149:1248   */\n      swap2\n      swap1\n      pop\n      jump\t// out\n        /* \"#utility.yul\":1254:1423   */\n    tag_30:\n        /* \"#utility.yul\":1338:1349   */\n      0x00\n        /* \"#utility.yul\":1372:1378   */\n      dup3\n        /* \"#utility.yul\":1367:1370   */\n      dup3\n        /* \"#utility.yul\":1360:1379   */\n      mstore\n        /* \"#utility.yul\":1412:1416   */\n      0x20\n        /* \"#utility.yul\":1407:1410   */\n      dup3\n        /* \"#utility.yul\":1403:1417   */\n      add\n        /* \"#utility.yul\":1388:1417   */\n      swap1\n      pop\n        /* \"#utility.yul\":1254:1423   */\n      swap3\n      swap2\n      pop\n      pop\n      jump\t// out\n        /* \"#utility.yul\":1429:1675   */\n    tag_31:\n        /* \"#utility.yul\":1510:1511   */\n      0x00\n        /* \"#utility.yul\":1520:1633   */\n    tag_56:\n        /* \"#utility.yul\":1534:1540   */\n      dup4\n        /* \"#utility.yul\":1531:1532   */\n      dup2\n        /* \"#utility.yul\":1528:1541   */\n      lt\n        /* \"#utility.yul\":1520:1633   */\n      iszero\n      tag_58\n      jumpi\n        /* \"#utility.yul\":1619:1620   */\n      dup1\n        /* \"#utility.yul\":1614:1617   */\n      dup3\n        /* \"#utility.yul\":1610:1621   */\n      add\n        /* \"#utility.yul\":1604:1622   */\n      mload\n        /* \"#utility.yul\":1600:1601   */\n      dup2\n        /* \"#utility.yul\":1595:1598   */\n      dup5\n        /* \"#utility.yul\":1591:1602   */\n      add\n        /* \"#utility.yul\":1584:1623   */\n      mstore\n        /* \"#utility.yul\":1556:1558   */\n      0x20\n        /* \"#utility.yul\":1553:1554   */\n      dup2\n        /* \"#utility.yul\":1549:1559   */\n      add\n        /* \"#utility.yul\":1544:1559   */\n      swap1\n      pop\n        /* \"#utility.yul\":1520:1633   */\n      jump(tag_56)\n    tag_58:\n        /* \"#utility.yul\":1667:1668   */\n      0x00\n        /* \"#utility.yul\":1658:1664   */\n      dup5\n        /* \"#utility.yul\":1653:1656   */\n      dup5\n        /* \"#utility.yul\":1649:1665   */\n      add\n        /* \"#utility.yul\":1642:1669   */\n      mstore\n        /* \"#utility.yul\":1491:1675   */\n      pop\n        /* \"#utility.yul\":1429:1675   */\n      pop\n      pop\n      pop\n      jump\t// out\n        /* \"#utility.yul\":1681:1783   */\n    tag_32:\n        /* \"#utility.yul\":1722:1728   */\n      0x00\n        /* \"#utility.yul\":1773:1775   */\n      0x1f\n        /* \"#utility.yul\":1769:1776   */\n      not\n        /* \"#utility.yul\":1764:1766   */\n      0x1f\n        /* \"#utility.yul\":1757:1762   */\n      dup4\n        /* \"#utility.yul\":1753:1767   */\n      add\n        /* \"#utility.yul\":1749:1777   */\n      and\n        /* \"#utility.yul\":1739:1777   */\n      swap1\n      pop\n        /* \"#utility.yul\":1681:1783   */\n      swap2\n      swap1\n      pop\n      jump\t// out\n        /* \"#utility.yul\":1789:2166   */\n    tag_33:\n        /* \"#utility.yul\":1877:1880   */\n      0x00\n        /* \"#utility.yul\":1905:1944   */\n      tag_61\n        /* \"#utility.yul\":1938:1943   */\n      dup3\n        /* \"#utility.yul\":1905:1944   */\n      tag_29\n      jump\t// in\n    tag_61:\n        /* \"#utility.yul\":1960:2031   */\n      tag_62\n        /* \"#utility.yul\":2024:2030   */\n      dup2\n        /* \"#utility.yul\":2019:2022   */\n      dup6\n        /* \"#utility.yul\":1960:2031   */\n      tag_30\n      jump\t// in\n    tag_62:\n        /* \"#utility.yul\":1953:2031   */\n      swap4\n      pop\n        /* \"#utility.yul\":2040:2105   */\n      tag_63\n        /* \"#utility.yul\":2098:2104   */\n      dup2\n        /* \"#utility.yul\":2093:2096   */\n      dup6\n        /* \"#utility.yul\":2086:2090   */\n      0x20\n        /* \"#utility.yul\":2079:2084   */\n      dup7\n        /* \"#utility.yul\":2075:2091   */\n      add\n        /* \"#utility.yul\":2040:2105   */\n      tag_31\n      jump\t// in\n    tag_63:\n        /* \"#utility.yul\":2130:2159   */\n      tag_64\n        /* \"#utility.yul\":2152:2158   */\n      dup2\n        /* \"#utility.yul\":2130:2159   */\n      tag_32\n      jump\t// in\n    tag_64:\n        /* \"#utility.yul\":2125:2128   */\n      dup5\n        /* \"#utility.yul\":2121:2160   */\n      add\n        /* \"#utility.yul\":2114:2160   */\n      swap2\n      pop\n        /* \"#utility.yul\":1881:2166   */\n      pop\n        /* \"#utility.yul\":1789:2166   */\n      swap3\n      swap2\n      pop\n      pop\n      jump\t// out\n        /* \"#utility.yul\":2172:2705   */\n    tag_10:\n        /* \"#utility.yul\":2341:2345   */\n      0x00\n        /* \"#utility.yul\":2379:2381   */\n      0x60\n        /* \"#utility.yul\":2368:2377   */\n      dup3\n        /* \"#utility.yul\":2364:2382   */\n      add\n        /* \"#utility.yul\":2356:2382   */\n      swap1\n      pop\n        /* \"#utility.yul\":2392:2463   */\n      tag_66\n        /* \"#utility.yul\":2460:2461   */\n      0x00\n        /* \"#utility.yul\":2449:2458   */\n      dup4\n        /* \"#utility.yul\":2445:2462   */\n      add\n        /* \"#utility.yul\":2436:2442   */\n      dup7\n        /* \"#utility.yul\":2392:2463   */\n      tag_28\n      jump\t// in\n    tag_66:\n        /* \"#utility.yul\":2510:2519   */\n      dup2\n        /* \"#utility.yul\":2504:2508   */\n      dup2\n        /* \"#utility.yul\":2500:2520   */\n      sub\n        /* \"#utility.yul\":2495:2497   */\n      0x20\n        /* \"#utility.yul\":2484:2493   */\n      dup4\n        /* \"#utility.yul\":2480:2498   */\n      add\n        /* \"#utility.yul\":2473:2521   */\n      mstore\n        /* \"#utility.yul\":2538:2616   */\n      tag_67\n        /* \"#utility.yul\":2611:2615   */\n      dup2\n        /* \"#utility.yul\":2602:2608   */\n      dup6\n        /* \"#utility.yul\":2538:2616   */\n      tag_33\n      jump\t// in\n    tag_67:\n        /* \"#utility.yul\":2530:2616   */\n      swap1\n      pop\n        /* \"#utility.yul\":2626:2698   */\n      tag_68\n        /* \"#utility.yul\":2694:2696   */\n      0x40\n        /* \"#utility.yul\":2683:2692   */\n      dup4\n        /* \"#utility.yul\":2679:2697   */\n      add\n        /* \"#utility.yul\":2670:2676   */\n      dup5\n        /* \"#utility.yul\":2626:2698   */\n      tag_28\n      jump\t// in\n    tag_68:\n        /* \"#utility.yul\":2172:2705   */\n      swap5\n      swap4\n      pop\n      pop\n      pop\n      pop\n      jump\t// out\n        /* \"#utility.yul\":2711:2801   */\n    tag_34:\n        /* \"#utility.yul\":2745:2752   */\n      0x00\n        /* \"#utility.yul\":2788:2793   */\n      dup2\n        /* \"#utility.yul\":2781:2794   */\n      iszero\n        /* \"#utility.yul\":2774:2795   */\n      iszero\n        /* \"#utility.yul\":2763:2795   */\n      swap1\n      pop\n        /* \"#utility.yul\":2711:2801   */\n      swap2\n      swap1\n      pop\n      jump\t// out\n        /* \"#utility.yul\":2807:2916   */\n    tag_35:\n        /* \"#utility.yul\":2888:2909   */\n      tag_71\n        /* \"#utility.yul\":2903:2908   */\n      dup2\n        /* \"#utility.yul\":2888:2909   */\n      tag_34\n      jump\t// in\n    tag_71:\n        /* \"#utility.yul\":2883:2886   */\n      dup3\n        /* \"#utility.yul\":2876:2910   */\n      mstore\n        /* \"#utility.yul\":2807:2916   */\n      pop\n      pop\n      jump\t// out\n        /* \"#utility.yul\":2922:3132   */\n    tag_14:\n        /* \"#utility.yul\":3009:3013   */\n      0x00\n        /* \"#utility.yul\":3047:3049   */\n      0x20\n        /* \"#utility.yul\":3036:3045   */\n      dup3\n        /* \"#utility.yul\":3032:3050   */\n      add\n        /* \"#utility.yul\":3024:3050   */\n      swap1\n      pop\n        /* \"#utility.yul\":3060:3125   */\n      tag_73\n        /* \"#utility.yul\":3122:3123   */\n      0x00\n        /* \"#utility.yul\":3111:3120   */\n      dup4\n        /* \"#utility.yul\":3107:3124   */\n      add\n        /* \"#utility.yul\":3098:3104   */\n      dup5\n        /* \"#utility.yul\":3060:3125   */\n      tag_35\n      jump\t// in\n    tag_73:\n        /* \"#utility.yul\":2922:3132   */\n      swap3\n      swap2\n      pop\n      pop\n      jump\t// out\n        /* \"#utility.yul\":3138:3318   */\n    tag_36:\n        /* \"#utility.yul\":3186:3263   */\n      0x4e487b7100000000000000000000000000000000000000000000000000000000\n        /* \"#utility.yul\":3183:3184   */\n      0x00\n        /* \"#utility.yul\":3176:3264   */\n      mstore\n        /* \"#utility.yul\":3283:3287   */\n      0x22\n        /* \"#utility.yul\":3280:3281   */\n      0x04\n        /* \"#utility.yul\":3273:3288   */\n      mstore\n        /* \"#utility.yul\":3307:3311   */\n      0x24\n        /* \"#utility.yul\":3304:3305   */\n      0x00\n        /* \"#utility.yul\":3297:3312   */\n      revert\n        /* \"#utility.yul\":3324:3644   */\n    tag_16:\n        /* \"#utility.yul\":3368:3374   */\n      0x00\n        /* \"#utility.yul\":3405:3406   */\n      0x02\n        /* \"#utility.yul\":3399:3403   */\n      dup3\n        /* \"#utility.yul\":3395:3407   */\n      div\n        /* \"#utility.yul\":3385:3407   */\n      swap1\n      pop\n        /* \"#utility.yul\":3452:3453   */\n      0x01\n        /* \"#utility.yul\":3446:3450   */\n      dup3\n        /* \"#utility.yul\":3442:3454   */\n      and\n        /* \"#utility.yul\":3473:3491   */\n      dup1\n        /* \"#utility.yul\":3463:3544   */\n      tag_76\n      jumpi\n        /* \"#utility.yul\":3529:3533   */\n      0x7f\n        /* \"#utility.yul\":3521:3527   */\n      dup3\n        /* \"#utility.yul\":3517:3534   */\n      and\n        /* \"#utility.yul\":3507:3534   */\n      swap2\n      pop\n        /* \"#utility.yul\":3463:3544   */\n    tag_76:\n        /* \"#utility.yul\":3591:3593   */\n      0x20\n        /* \"#utility.yul\":3583:3589   */\n      dup3\n        /* \"#utility.yul\":3580:3594   */\n      lt\n        /* \"#utility.yul\":3560:3578   */\n      dup2\n        /* \"#utility.yul\":3557:3595   */\n      sub\n        /* \"#utility.yul\":3554:3638   */\n      tag_77\n      jumpi\n        /* \"#utility.yul\":3610:3628   */\n      tag_78\n      tag_36\n      jump\t// in\n    tag_78:\n        /* \"#utility.yul\":3554:3638   */\n    tag_77:\n        /* \"#utility.yul\":3375:3644   */\n      pop\n        /* \"#utility.yul\":3324:3644   */\n      swap2\n      swap1\n      pop\n      jump\t// out\n\n    auxdata: 0xa2646970667358221220b9a94d86c8514780b7beb9adfdaa0ee51e0038e59ba9f82e2a118c232e647e2b64736f6c63430008110033\n}\n",
				"bytecode": {
					"linkReferences": {},
					"object": "60806040526040518060800160405280600160ff168152602001600260ff168152602001600360ff168152602001600460ff168152506000906004610045929190610073565b506000600560006101000a81548160ff02191690831515021790555034801561006d57600080fd5b506100d5565b82600481019282156100a7579160200282015b828111156100a6578251829060ff16905591602001919060010190610086565b5b5090506100b491906100b8565b5090565b5b808211156100d15760008160009055506001016100b9565b5090565b610365806100e46000396000f3fe608060405234801561001057600080fd5b50600436106100365760003560e01c80635baea0a71461003b578063cd6307bb1461006d575b600080fd5b6100556004803603810190610050919061018f565b61008b565b6040516100649392919061025b565b60405180910390f35b61007561013d565b60405161008291906102b4565b60405180910390f35b60046020528060005260406000206000915090508060000154908060010180546100b4906102fe565b80601f01602080910402602001604051908101604052809291908181526020018280546100e0906102fe565b801561012d5780601f106101025761010080835404028352916020019161012d565b820191906000526020600020905b81548152906001019060200180831161011057829003601f168201915b5050505050908060020154905083565b6000600560009054906101000a900460ff16905090565b600080fd5b6000819050919050565b61016c81610159565b811461017757600080fd5b50565b60008135905061018981610163565b92915050565b6000602082840312156101a5576101a4610154565b5b60006101b38482850161017a565b91505092915050565b6101c581610159565b82525050565b600081519050919050565b600082825260208201905092915050565b60005b838110156102055780820151818401526020810190506101ea565b60008484015250505050565b6000601f19601f8301169050919050565b600061022d826101cb565b61023781856101d6565b93506102478185602086016101e7565b61025081610211565b840191505092915050565b600060608201905061027060008301866101bc565b81810360208301526102828185610222565b905061029160408301846101bc565b949350505050565b60008115159050919050565b6102ae81610299565b82525050565b60006020820190506102c960008301846102a5565b92915050565b7f4e487b7100000000000000000000000000000000000000000000000000000000600052602260045260246000fd5b6000600282049050600182168061031657607f821691505b602082108103610329576103286102cf565b5b5091905056fea2646970667358221220b9a94d86c8514780b7beb9adfdaa0ee51e0038e59ba9f82e2a118c232e647e2b64736f6c63430008110033",
					"opcodes": "PUSH1 0x80 PUSH1 0x40 MSTORE PUSH1 0x40 MLOAD DUP1 PUSH1 0x80 ADD PUSH1 0x40 MSTORE DUP1 PUSH1 0x1 PUSH1 0xFF AND DUP2 MSTORE PUSH1 0x20 ADD PUSH1 0x2 PUSH1 0xFF AND DUP2 MSTORE PUSH1 0x20 ADD PUSH1 0x3 PUSH1 0xFF AND DUP2 MSTORE PUSH1 0x20 ADD PUSH1 0x4 PUSH1 0xFF AND DUP2 MSTORE POP PUSH1 0x0 SWAP1 PUSH1 0x4 PUSH2 0x45 SWAP3 SWAP2 SWAP1 PUSH2 0x73 JUMP JUMPDEST POP PUSH1 0x0 PUSH1 0x5 PUSH1 0x0 PUSH2 0x100 EXP DUP2 SLOAD DUP2 PUSH1 0xFF MUL NOT AND SWAP1 DUP4 ISZERO ISZERO MUL OR SWAP1 SSTORE POP CALLVALUE DUP1 ISZERO PUSH2 0x6D JUMPI PUSH1 0x0 DUP1 REVERT JUMPDEST POP PUSH2 0xD5 JUMP JUMPDEST DUP3 PUSH1 0x4 DUP2 ADD SWAP3 DUP3 ISZERO PUSH2 0xA7 JUMPI SWAP2 PUSH1 0x20 MUL DUP3 ADD JUMPDEST DUP3 DUP2 GT ISZERO PUSH2 0xA6 JUMPI DUP3 MLOAD DUP3 SWAP1 PUSH1 0xFF AND SWAP1 SSTORE SWAP2 PUSH1 0x20 ADD SWAP2 SWAP1 PUSH1 0x1 ADD SWAP1 PUSH2 0x86 JUMP JUMPDEST JUMPDEST POP SWAP1 POP PUSH2 0xB4 SWAP2 SWAP1 PUSH2 0xB8 JUMP JUMPDEST POP SWAP1 JUMP JUMPDEST JUMPDEST DUP1 DUP3 GT ISZERO PUSH2 0xD1 JUMPI PUSH1 0x0 DUP2 PUSH1 0x0 SWAP1 SSTORE POP PUSH1 0x1 ADD PUSH2 0xB9 JUMP JUMPDEST POP SWAP1 JUMP JUMPDEST PUSH2 0x365 DUP1 PUSH2 0xE4 PUSH1 0x0 CODECOPY PUSH1 0x0 RETURN INVALID PUSH1 0x80 PUSH1 0x40 MSTORE CALLVALUE DUP1 ISZERO PUSH2 0x10 JUMPI PUSH1 0x0 DUP1 REVERT JUMPDEST POP PUSH1 0x4 CALLDATASIZE LT PUSH2 0x36 JUMPI PUSH1 0x0 CALLDATALOAD PUSH1 0xE0 SHR DUP1 PUSH4 0x5BAEA0A7 EQ PUSH2 0x3B JUMPI DUP1 PUSH4 0xCD6307BB EQ PUSH2 0x6D JUMPI JUMPDEST PUSH1 0x0 DUP1 REVERT JUMPDEST PUSH2 0x55 PUSH1 0x4 DUP1 CALLDATASIZE SUB DUP2 ADD SWAP1 PUSH2 0x50 SWAP2 SWAP1 PUSH2 0x18F JUMP JUMPDEST PUSH2 0x8B JUMP JUMPDEST PUSH1 0x40 MLOAD PUSH2 0x64 SWAP4 SWAP3 SWAP2 SWAP1 PUSH2 0x25B JUMP JUMPDEST PUSH1 0x40 MLOAD DUP1 SWAP2 SUB SWAP1 RETURN JUMPDEST PUSH2 0x75 PUSH2 0x13D JUMP JUMPDEST PUSH1 0x40 MLOAD PUSH2 0x82 SWAP2 SWAP1 PUSH2 0x2B4 JUMP JUMPDEST PUSH1 0x40 MLOAD DUP1 SWAP2 SUB SWAP1 RETURN JUMPDEST PUSH1 0x4 PUSH1 0x20 MSTORE DUP1 PUSH1 0x0 MSTORE PUSH1 0x40 PUSH1 0x0 KECCAK256 PUSH1 0x0 SWAP2 POP SWAP1 POP DUP1 PUSH1 0x0 ADD SLOAD SWAP1 DUP1 PUSH1 0x1 ADD DUP1 SLOAD PUSH2 0xB4 SWAP1 PUSH2 0x2FE JUMP JUMPDEST DUP1 PUSH1 0x1F ADD PUSH1 0x20 DUP1 SWAP2 DIV MUL PUSH1 0x20 ADD PUSH1 0x40 MLOAD SWAP1 DUP2 ADD PUSH1 0x40 MSTORE DUP1 SWAP3 SWAP2 SWAP1 DUP2 DUP2 MSTORE PUSH1 0x20 ADD DUP3 DUP1 SLOAD PUSH2 0xE0 SWAP1 PUSH2 0x2FE JUMP JUMPDEST DUP1 ISZERO PUSH2 0x12D JUMPI DUP1 PUSH1 0x1F LT PUSH2 0x102 JUMPI PUSH2 0x100 DUP1 DUP4 SLOAD DIV MUL DUP4 MSTORE SWAP2 PUSH1 0x20 ADD SWAP2 PUSH2 0x12D JUMP JUMPDEST DUP3 ADD SWAP2 SWAP1 PUSH1 0x0 MSTORE PUSH1 0x20 PUSH1 0x0 KECCAK256 SWAP1 JUMPDEST DUP2 SLOAD DUP2 MSTORE SWAP1 PUSH1 0x1 ADD SWAP1 PUSH1 0x20 ADD DUP1 DUP4 GT PUSH2 0x110 JUMPI DUP3 SWAP1 SUB PUSH1 0x1F AND DUP3 ADD SWAP2 JUMPDEST POP POP POP POP POP SWAP1 DUP1 PUSH1 0x2 ADD SLOAD SWAP1 POP DUP4 JUMP JUMPDEST PUSH1 0x0 PUSH1 0x5 PUSH1 0x0 SWAP1 SLOAD SWAP1 PUSH2 0x100 EXP SWAP1 DIV PUSH1 0xFF AND SWAP1 POP SWAP1 JUMP JUMPDEST PUSH1 0x0 DUP1 REVERT JUMPDEST PUSH1 0x0 DUP2 SWAP1 POP SWAP2 SWAP1 POP JUMP JUMPDEST PUSH2 0x16C DUP2 PUSH2 0x159 JUMP JUMPDEST DUP2 EQ PUSH2 0x177 JUMPI PUSH1 0x0 DUP1 REVERT JUMPDEST POP JUMP JUMPDEST PUSH1 0x0 DUP2 CALLDATALOAD SWAP1 POP PUSH2 0x189 DUP2 PUSH2 0x163 JUMP JUMPDEST SWAP3 SWAP2 POP POP JUMP JUMPDEST PUSH1 0x0 PUSH1 0x20 DUP3 DUP5 SUB SLT ISZERO PUSH2 0x1A5 JUMPI PUSH2 0x1A4 PUSH2 0x154 JUMP JUMPDEST JUMPDEST PUSH1 0x0 PUSH2 0x1B3 DUP5 DUP3 DUP6 ADD PUSH2 0x17A JUMP JUMPDEST SWAP2 POP POP SWAP3 SWAP2 POP POP JUMP JUMPDEST PUSH2 0x1C5 DUP2 PUSH2 0x159 JUMP JUMPDEST DUP3 MSTORE POP POP JUMP JUMPDEST PUSH1 0x0 DUP2 MLOAD SWAP1 POP SWAP2 SWAP1 POP JUMP JUMPDEST PUSH1 0x0 DUP3 DUP3 MSTORE PUSH1 0x20 DUP3 ADD SWAP1 POP SWAP3 SWAP2 POP POP JUMP JUMPDEST PUSH1 0x0 JUMPDEST DUP4 DUP2 LT ISZERO PUSH2 0x205 JUMPI DUP1 DUP3 ADD MLOAD DUP2 DUP5 ADD MSTORE PUSH1 0x20 DUP2 ADD SWAP1 POP PUSH2 0x1EA JUMP JUMPDEST PUSH1 0x0 DUP5 DUP5 ADD MSTORE POP POP POP POP JUMP JUMPDEST PUSH1 0x0 PUSH1 0x1F NOT PUSH1 0x1F DUP4 ADD AND SWAP1 POP SWAP2 SWAP1 POP JUMP JUMPDEST PUSH1 0x0 PUSH2 0x22D DUP3 PUSH2 0x1CB JUMP JUMPDEST PUSH2 0x237 DUP2 DUP6 PUSH2 0x1D6 JUMP JUMPDEST SWAP4 POP PUSH2 0x247 DUP2 DUP6 PUSH1 0x20 DUP7 ADD PUSH2 0x1E7 JUMP JUMPDEST PUSH2 0x250 DUP2 PUSH2 0x211 JUMP JUMPDEST DUP5 ADD SWAP2 POP POP SWAP3 SWAP2 POP POP JUMP JUMPDEST PUSH1 0x0 PUSH1 0x60 DUP3 ADD SWAP1 POP PUSH2 0x270 PUSH1 0x0 DUP4 ADD DUP7 PUSH2 0x1BC JUMP JUMPDEST DUP2 DUP2 SUB PUSH1 0x20 DUP4 ADD MSTORE PUSH2 0x282 DUP2 DUP6 PUSH2 0x222 JUMP JUMPDEST SWAP1 POP PUSH2 0x291 PUSH1 0x40 DUP4 ADD DUP5 PUSH2 0x1BC JUMP JUMPDEST SWAP5 SWAP4 POP POP POP POP JUMP JUMPDEST PUSH1 0x0 DUP2 ISZERO ISZERO SWAP1 POP SWAP2 SWAP1 POP JUMP JUMPDEST PUSH2 0x2AE DUP2 PUSH2 0x299 JUMP JUMPDEST DUP3 MSTORE POP POP JUMP JUMPDEST PUSH1 0x0 PUSH1 0x20 DUP3 ADD SWAP1 POP PUSH2 0x2C9 PUSH1 0x0 DUP4 ADD DUP5 PUSH2 0x2A5 JUMP JUMPDEST SWAP3 SWAP2 POP POP JUMP JUMPDEST PUSH32 0x4E487B7100000000000000000000000000000000000000000000000000000000 PUSH1 0x0 MSTORE PUSH1 0x22 PUSH1 0x4 MSTORE PUSH1 0x24 PUSH1 0x0 REVERT JUMPDEST PUSH1 0x0 PUSH1 0x2 DUP3 DIV SWAP1 POP PUSH1 0x1 DUP3 AND DUP1 PUSH2 0x316 JUMPI PUSH1 0x7F DUP3 AND SWAP2 POP JUMPDEST PUSH1 0x20 DUP3 LT DUP2 SUB PUSH2 0x329 JUMPI PUSH2 0x328 PUSH2 0x2CF JUMP JUMPDEST JUMPDEST POP SWAP2 SWAP1 POP JUMP INVALID LOG2 PUSH5 0x6970667358 0x22 SLT KECCAK256 0xB9 0xA9 0x4D DUP7 0xC8 MLOAD SELFBALANCE DUP1 0xB7 0xBE 0xB9 0xAD REVERT 0xAA 0xE 0xE5 0x1E STOP CODESIZE 0xE5 SWAP12 0xA9 0xF8 0x2E 0x2A GT DUP13 0x23 0x2E PUSH5 0x7E2B64736F PUSH13 0x63430008110033000000000000 "
				},
				"gasEstimates": {
					"creation": {
						"codeDepositCost": "173800",
						"executionCost": "infinite",
						"totalCost": "infinite"
					},
					"external": {
						"AlgunaMesaDisponible()": "2479",
						"mesa(uint256)": "infinite"
					}
				},
				"methodIdentifiers": {
					"AlgunaMesaDisponible()": "cd6307bb",
					"mesa(uint256)": "5baea0a7"
				}
			},
			"storageLayout": {
				"storage": [
					{
						"astId": 17,
						"contract": "Pruebas y Primeros pasos/Copy_Restaurante.sol:Restaurante",
						"label": "numeroMesa",
						"offset": 0,
						"slot": "0",
						"type": "t_array(t_uint256)4_storage"
					},
					{
						"astId": 22,
						"contract": "Pruebas y Primeros pasos/Copy_Restaurante.sol:Restaurante",
						"label": "mesa",
						"offset": 0,
						"slot": "4",
						"type": "t_mapping(t_uint256,t_struct(mesas)8_storage)"
					},
					{
						"astId": 25,
						"contract": "Pruebas y Primeros pasos/Copy_Restaurante.sol:Restaurante",
						"label": "disponible",
						"offset": 0,
						"slot": "5",
						"type": "t_bool"
					}
				],
				"types": {
					"t_array(t_uint256)4_storage": {
						"base": "t_uint256",
						"encoding": "inplace",
						"label": "uint256[4]",
						"numberOfBytes": "128"
					},
					"t_bool": {
						"encoding": "inplace",
						"label": "bool",
						"numberOfBytes": "1"
					},
					"t_mapping(t_uint256,t_struct(mesas)8_storage)": {
						"encoding": "mapping",
						"key": "t_uint256",
						"label": "mapping(uint256 => struct Restaurante.mesas)",
						"numberOfBytes": "32",
						"value": "t_struct(mesas)8_storage"
					},
					"t_string_storage": {
						"encoding": "bytes",
						"label": "string",
						"numberOfBytes": "32"
					},
					"t_struct(mesas)8_storage": {
						"encoding": "inplace",
						"label": "struct Restaurante.mesas",
						"members": [
							{
								"astId": 3,
								"contract": "Pruebas y Primeros pasos/Copy_Restaurante.sol:Restaurante",
								"label": "numeroMesa",
								"offset": 0,
								"slot": "0",
								"type": "t_uint256"
							},
							{
								"astId": 5,
								"contract": "Pruebas y Primeros pasos/Copy_Restaurante.sol:Restaurante",
								"label": "nombreCliente",
								"offset": 0,
								"slot": "1",
								"type": "t_string_storage"
							},
							{
								"astId": 7,
								"contract": "Pruebas y Primeros pasos/Copy_Restaurante.sol:Restaurante",
								"label": "totalClientes",
								"offset": 0,
								"slot": "2",
								"type": "t_uint256"
							}
						],
						"numberOfBytes": "96"
					},
					"t_uint256": {
						"encoding": "inplace",
						"label": "uint256",
						"numberOfBytes": "32"
					}
				}
			},
			"userdoc": {
				"kind": "user",
				"methods": {},
				"version": 1
			}
		}
	}
}