{
	"Pruebas y Primeros pasos/factory.sol": {
		"SmartContract1": {
			"abi": [
				{
					"inputs": [],
					"name": "Factory",
					"outputs": [],
					"stateMutability": "nonpayable",
					"type": "function"
				},
				{
					"inputs": [
						{
							"internalType": "address",
							"name": "",
							"type": "address"
						}
					],
					"name": "MiContratoPersonal",
					"outputs": [
						{
							"internalType": "address",
							"name": "",
							"type": "address"
						}
					],
					"stateMutability": "view",
					"type": "function"
				}
			],
			"devdoc": {
				"kind": "dev",
				"methods": {},
				"version": 1
			},
			"evm": {
				"assembly": "    /* \"Pruebas y Primeros pasos/factory.sol\":98:445  contract SmartContract1 {... */\n  mstore(0x40, 0x80)\n  callvalue\n  dup1\n  iszero\n  tag_1\n  jumpi\n  0x00\n  dup1\n  revert\ntag_1:\n  pop\n  dataSize(sub_0)\n  dup1\n  dataOffset(sub_0)\n  0x00\n  codecopy\n  0x00\n  return\nstop\n\nsub_0: assembly {\n        /* \"Pruebas y Primeros pasos/factory.sol\":98:445  contract SmartContract1 {... */\n      mstore(0x40, 0x80)\n      callvalue\n      dup1\n      iszero\n      tag_1\n      jumpi\n      0x00\n      dup1\n      revert\n    tag_1:\n      pop\n      jumpi(tag_2, lt(calldatasize, 0x04))\n      shr(0xe0, calldataload(0x00))\n      dup1\n      0x1b03b2c9\n      eq\n      tag_3\n      jumpi\n      dup1\n      0xc83dd231\n      eq\n      tag_4\n      jumpi\n    tag_2:\n      0x00\n      dup1\n      revert\n        /* \"Pruebas y Primeros pasos/factory.sol\":185:239  mapping (address => address) public MiContratoPersonal */\n    tag_3:\n      tag_5\n      0x04\n      dup1\n      calldatasize\n      sub\n      dup2\n      add\n      swap1\n      tag_6\n      swap2\n      swap1\n      tag_7\n      jump\t// in\n    tag_6:\n      tag_8\n      jump\t// in\n    tag_5:\n      mload(0x40)\n      tag_9\n      swap2\n      swap1\n      tag_10\n      jump\t// in\n    tag_9:\n      mload(0x40)\n      dup1\n      swap2\n      sub\n      swap1\n      return\n        /* \"Pruebas y Primeros pasos/factory.sol\":250:443  function Factory() public {... */\n    tag_4:\n      tag_11\n      tag_12\n      jump\t// in\n    tag_11:\n      stop\n        /* \"Pruebas y Primeros pasos/factory.sol\":185:239  mapping (address => address) public MiContratoPersonal */\n    tag_8:\n      mstore(0x20, 0x00)\n      dup1\n      0x00\n      mstore\n      keccak256(0x00, 0x40)\n      0x00\n      swap2\n      pop\n      sload\n      swap1\n      0x0100\n      exp\n      swap1\n      div\n      0xffffffffffffffffffffffffffffffffffffffff\n      and\n      dup2\n      jump\t// out\n        /* \"Pruebas y Primeros pasos/factory.sol\":250:443  function Factory() public {... */\n    tag_12:\n        /* \"Pruebas y Primeros pasos/factory.sol\":286:318  address direccion_nuevo_contrato */\n      0x00\n        /* \"Pruebas y Primeros pasos/factory.sol\":349:359  msg.sender */\n      caller\n        /* \"Pruebas y Primeros pasos/factory.sol\":361:363  14 */\n      0x0e\n        /* \"Pruebas y Primeros pasos/factory.sol\":365:366  5 */\n      0x05\n        /* \"Pruebas y Primeros pasos/factory.sol\":330:367  new SmartContract2(msg.sender, 14, 5) */\n      mload(0x40)\n      tag_14\n      swap1\n      tag_15\n      jump\t// in\n    tag_14:\n      tag_16\n      swap4\n      swap3\n      swap2\n      swap1\n      tag_17\n      jump\t// in\n    tag_16:\n      mload(0x40)\n      dup1\n      swap2\n      sub\n      swap1\n      0x00\n      create\n      dup1\n      iszero\n      dup1\n      iszero\n      tag_18\n      jumpi\n      returndatasize\n      0x00\n      dup1\n      returndatacopy\n      revert(0x00, returndatasize)\n    tag_18:\n      pop\n        /* \"Pruebas y Primeros pasos/factory.sol\":286:368  address direccion_nuevo_contrato = address (new SmartContract2(msg.sender, 14, 5)) */\n      swap1\n      pop\n        /* \"Pruebas y Primeros pasos/factory.sol\":412:436  direccion_nuevo_contrato */\n      dup1\n        /* \"Pruebas y Primeros pasos/factory.sol\":379:397  MiContratoPersonal */\n      0x00\n        /* \"Pruebas y Primeros pasos/factory.sol\":379:409  MiContratoPersonal[msg.sender] */\n      dup1\n        /* \"Pruebas y Primeros pasos/factory.sol\":398:408  msg.sender */\n      caller\n        /* \"Pruebas y Primeros pasos/factory.sol\":379:409  MiContratoPersonal[msg.sender] */\n      0xffffffffffffffffffffffffffffffffffffffff\n      and\n      0xffffffffffffffffffffffffffffffffffffffff\n      and\n      dup2\n      mstore\n      0x20\n      add\n      swap1\n      dup2\n      mstore\n      0x20\n      add\n      0x00\n      keccak256\n      0x00\n        /* \"Pruebas y Primeros pasos/factory.sol\":379:436  MiContratoPersonal[msg.sender] = direccion_nuevo_contrato */\n      0x0100\n      exp\n      dup2\n      sload\n      dup2\n      0xffffffffffffffffffffffffffffffffffffffff\n      mul\n      not\n      and\n      swap1\n      dup4\n      0xffffffffffffffffffffffffffffffffffffffff\n      and\n      mul\n      or\n      swap1\n      sstore\n      pop\n        /* \"Pruebas y Primeros pasos/factory.sol\":276:443  {... */\n      pop\n        /* \"Pruebas y Primeros pasos/factory.sol\":250:443  function Factory() public {... */\n      jump\t// out\n    tag_15:\n      dataSize(sub_0)\n      dup1\n      dataOffset(sub_0)\n      dup4\n      codecopy\n      add\n      swap1\n      jump\t// out\n        /* \"#utility.yul\":7:146   */\n    tag_20:\n        /* \"#utility.yul\":53:58   */\n      0x00\n        /* \"#utility.yul\":91:97   */\n      dup2\n        /* \"#utility.yul\":78:98   */\n      calldataload\n        /* \"#utility.yul\":69:98   */\n      swap1\n      pop\n        /* \"#utility.yul\":107:140   */\n      tag_22\n        /* \"#utility.yul\":134:139   */\n      dup2\n        /* \"#utility.yul\":107:140   */\n      tag_23\n      jump\t// in\n    tag_22:\n        /* \"#utility.yul\":7:146   */\n      swap3\n      swap2\n      pop\n      pop\n      jump\t// out\n        /* \"#utility.yul\":152:481   */\n    tag_7:\n        /* \"#utility.yul\":211:217   */\n      0x00\n        /* \"#utility.yul\":260:262   */\n      0x20\n        /* \"#utility.yul\":248:257   */\n      dup3\n        /* \"#utility.yul\":239:246   */\n      dup5\n        /* \"#utility.yul\":235:258   */\n      sub\n        /* \"#utility.yul\":231:263   */\n      slt\n        /* \"#utility.yul\":228:347   */\n      iszero\n      tag_25\n      jumpi\n        /* \"#utility.yul\":266:345   */\n      tag_26\n      tag_27\n      jump\t// in\n    tag_26:\n        /* \"#utility.yul\":228:347   */\n    tag_25:\n        /* \"#utility.yul\":386:387   */\n      0x00\n        /* \"#utility.yul\":411:464   */\n      tag_28\n        /* \"#utility.yul\":456:463   */\n      dup5\n        /* \"#utility.yul\":447:453   */\n      dup3\n        /* \"#utility.yul\":436:445   */\n      dup6\n        /* \"#utility.yul\":432:454   */\n      add\n        /* \"#utility.yul\":411:464   */\n      tag_20\n      jump\t// in\n    tag_28:\n        /* \"#utility.yul\":401:464   */\n      swap2\n      pop\n        /* \"#utility.yul\":357:474   */\n      pop\n        /* \"#utility.yul\":152:481   */\n      swap3\n      swap2\n      pop\n      pop\n      jump\t// out\n        /* \"#utility.yul\":487:605   */\n    tag_29:\n        /* \"#utility.yul\":574:598   */\n      tag_31\n        /* \"#utility.yul\":592:597   */\n      dup2\n        /* \"#utility.yul\":574:598   */\n      tag_32\n      jump\t// in\n    tag_31:\n        /* \"#utility.yul\":569:572   */\n      dup3\n        /* \"#utility.yul\":562:599   */\n      mstore\n        /* \"#utility.yul\":487:605   */\n      pop\n      pop\n      jump\t// out\n        /* \"#utility.yul\":611:760   */\n    tag_33:\n        /* \"#utility.yul\":707:753   */\n      tag_35\n        /* \"#utility.yul\":747:752   */\n      dup2\n        /* \"#utility.yul\":707:753   */\n      tag_36\n      jump\t// in\n    tag_35:\n        /* \"#utility.yul\":702:705   */\n      dup3\n        /* \"#utility.yul\":695:754   */\n      mstore\n        /* \"#utility.yul\":611:760   */\n      pop\n      pop\n      jump\t// out\n        /* \"#utility.yul\":766:913   */\n    tag_37:\n        /* \"#utility.yul\":861:906   */\n      tag_39\n        /* \"#utility.yul\":900:905   */\n      dup2\n        /* \"#utility.yul\":861:906   */\n      tag_40\n      jump\t// in\n    tag_39:\n        /* \"#utility.yul\":856:859   */\n      dup3\n        /* \"#utility.yul\":849:907   */\n      mstore\n        /* \"#utility.yul\":766:913   */\n      pop\n      pop\n      jump\t// out\n        /* \"#utility.yul\":919:1141   */\n    tag_10:\n        /* \"#utility.yul\":1012:1016   */\n      0x00\n        /* \"#utility.yul\":1050:1052   */\n      0x20\n        /* \"#utility.yul\":1039:1048   */\n      dup3\n        /* \"#utility.yul\":1035:1053   */\n      add\n        /* \"#utility.yul\":1027:1053   */\n      swap1\n      pop\n        /* \"#utility.yul\":1063:1134   */\n      tag_42\n        /* \"#utility.yul\":1131:1132   */\n      0x00\n        /* \"#utility.yul\":1120:1129   */\n      dup4\n        /* \"#utility.yul\":1116:1133   */\n      add\n        /* \"#utility.yul\":1107:1113   */\n      dup5\n        /* \"#utility.yul\":1063:1134   */\n      tag_29\n      jump\t// in\n    tag_42:\n        /* \"#utility.yul\":919:1141   */\n      swap3\n      swap2\n      pop\n      pop\n      jump\t// out\n        /* \"#utility.yul\":1147:1623   */\n    tag_17:\n        /* \"#utility.yul\":1313:1317   */\n      0x00\n        /* \"#utility.yul\":1351:1353   */\n      0x60\n        /* \"#utility.yul\":1340:1349   */\n      dup3\n        /* \"#utility.yul\":1336:1354   */\n      add\n        /* \"#utility.yul\":1328:1354   */\n      swap1\n      pop\n        /* \"#utility.yul\":1364:1435   */\n      tag_44\n        /* \"#utility.yul\":1432:1433   */\n      0x00\n        /* \"#utility.yul\":1421:1430   */\n      dup4\n        /* \"#utility.yul\":1417:1434   */\n      add\n        /* \"#utility.yul\":1408:1414   */\n      dup7\n        /* \"#utility.yul\":1364:1435   */\n      tag_29\n      jump\t// in\n    tag_44:\n        /* \"#utility.yul\":1445:1526   */\n      tag_45\n        /* \"#utility.yul\":1522:1524   */\n      0x20\n        /* \"#utility.yul\":1511:1520   */\n      dup4\n        /* \"#utility.yul\":1507:1525   */\n      add\n        /* \"#utility.yul\":1498:1504   */\n      dup6\n        /* \"#utility.yul\":1445:1526   */\n      tag_33\n      jump\t// in\n    tag_45:\n        /* \"#utility.yul\":1536:1616   */\n      tag_46\n        /* \"#utility.yul\":1612:1614   */\n      0x40\n        /* \"#utility.yul\":1601:1610   */\n      dup4\n        /* \"#utility.yul\":1597:1615   */\n      add\n        /* \"#utility.yul\":1588:1594   */\n      dup5\n        /* \"#utility.yul\":1536:1616   */\n      tag_37\n      jump\t// in\n    tag_46:\n        /* \"#utility.yul\":1147:1623   */\n      swap5\n      swap4\n      pop\n      pop\n      pop\n      pop\n      jump\t// out\n        /* \"#utility.yul\":1710:1806   */\n    tag_32:\n        /* \"#utility.yul\":1747:1754   */\n      0x00\n        /* \"#utility.yul\":1776:1800   */\n      tag_50\n        /* \"#utility.yul\":1794:1799   */\n      dup3\n        /* \"#utility.yul\":1776:1800   */\n      tag_51\n      jump\t// in\n    tag_50:\n        /* \"#utility.yul\":1765:1800   */\n      swap1\n      pop\n        /* \"#utility.yul\":1710:1806   */\n      swap2\n      swap1\n      pop\n      jump\t// out\n        /* \"#utility.yul\":1812:1938   */\n    tag_51:\n        /* \"#utility.yul\":1849:1856   */\n      0x00\n        /* \"#utility.yul\":1889:1931   */\n      0xffffffffffffffffffffffffffffffffffffffff\n        /* \"#utility.yul\":1882:1887   */\n      dup3\n        /* \"#utility.yul\":1878:1932   */\n      and\n        /* \"#utility.yul\":1867:1932   */\n      swap1\n      pop\n        /* \"#utility.yul\":1812:1938   */\n      swap2\n      swap1\n      pop\n      jump\t// out\n        /* \"#utility.yul\":1944:2021   */\n    tag_53:\n        /* \"#utility.yul\":1981:1988   */\n      0x00\n        /* \"#utility.yul\":2010:2015   */\n      dup2\n        /* \"#utility.yul\":1999:2015   */\n      swap1\n      pop\n        /* \"#utility.yul\":1944:2021   */\n      swap2\n      swap1\n      pop\n      jump\t// out\n        /* \"#utility.yul\":2027:2149   */\n    tag_36:\n        /* \"#utility.yul\":2086:2095   */\n      0x00\n        /* \"#utility.yul\":2119:2143   */\n      tag_56\n        /* \"#utility.yul\":2137:2142   */\n      dup3\n        /* \"#utility.yul\":2119:2143   */\n      tag_53\n      jump\t// in\n    tag_56:\n        /* \"#utility.yul\":2106:2143   */\n      swap1\n      pop\n        /* \"#utility.yul\":2027:2149   */\n      swap2\n      swap1\n      pop\n      jump\t// out\n        /* \"#utility.yul\":2155:2276   */\n    tag_40:\n        /* \"#utility.yul\":2213:2222   */\n      0x00\n        /* \"#utility.yul\":2246:2270   */\n      tag_58\n        /* \"#utility.yul\":2264:2269   */\n      dup3\n        /* \"#utility.yul\":2246:2270   */\n      tag_53\n      jump\t// in\n    tag_58:\n        /* \"#utility.yul\":2233:2270   */\n      swap1\n      pop\n        /* \"#utility.yul\":2155:2276   */\n      swap2\n      swap1\n      pop\n      jump\t// out\n        /* \"#utility.yul\":2405:2522   */\n    tag_27:\n        /* \"#utility.yul\":2514:2515   */\n      0x00\n        /* \"#utility.yul\":2511:2512   */\n      dup1\n        /* \"#utility.yul\":2504:2516   */\n      revert\n        /* \"#utility.yul\":2528:2650   */\n    tag_23:\n        /* \"#utility.yul\":2601:2625   */\n      tag_63\n        /* \"#utility.yul\":2619:2624   */\n      dup2\n        /* \"#utility.yul\":2601:2625   */\n      tag_32\n      jump\t// in\n    tag_63:\n        /* \"#utility.yul\":2594:2599   */\n      dup2\n        /* \"#utility.yul\":2591:2626   */\n      eq\n        /* \"#utility.yul\":2581:2644   */\n      tag_64\n      jumpi\n        /* \"#utility.yul\":2640:2641   */\n      0x00\n        /* \"#utility.yul\":2637:2638   */\n      dup1\n        /* \"#utility.yul\":2630:2642   */\n      revert\n        /* \"#utility.yul\":2581:2644   */\n    tag_64:\n        /* \"#utility.yul\":2528:2650   */\n      pop\n      jump\t// out\n    stop\n\n    sub_0: assembly {\n            /* \"Pruebas y Primeros pasos/factory.sol\":447:803  contract SmartContract2 {... */\n          mstore(0x40, 0x80)\n            /* \"Pruebas y Primeros pasos/factory.sol\":537:664  constructor (address _direccion, uint a, uint b) public {... */\n          callvalue\n          dup1\n          iszero\n          tag_1\n          jumpi\n          0x00\n          dup1\n          revert\n        tag_1:\n          pop\n          mload(0x40)\n          sub(codesize, bytecodeSize)\n          dup1\n          bytecodeSize\n          dup4\n          codecopy\n          dup2\n          dup2\n          add\n          0x40\n          mstore\n          dup2\n          add\n          swap1\n          tag_2\n          swap2\n          swap1\n          tag_3\n          jump\t// in\n        tag_2:\n            /* \"Pruebas y Primeros pasos/factory.sol\":612:622  _direccion */\n          dup3\n            /* \"Pruebas y Primeros pasos/factory.sol\":603:609  owneer */\n          0x00\n          dup1\n            /* \"Pruebas y Primeros pasos/factory.sol\":603:622  owneer = _direccion */\n          0x0100\n          exp\n          dup2\n          sload\n          dup2\n          0xffffffffffffffffffffffffffffffffffffffff\n          mul\n          not\n          and\n          swap1\n          dup4\n          0xffffffffffffffffffffffffffffffffffffffff\n          and\n          mul\n          or\n          swap1\n          sstore\n          pop\n            /* \"Pruebas y Primeros pasos/factory.sol\":636:637  a */\n          dup2\n            /* \"Pruebas y Primeros pasos/factory.sol\":632:635  c_a */\n          0x01\n            /* \"Pruebas y Primeros pasos/factory.sol\":632:637  c_a=a */\n          dup2\n          swap1\n          sstore\n          pop\n            /* \"Pruebas y Primeros pasos/factory.sol\":655:656  b */\n          dup1\n            /* \"Pruebas y Primeros pasos/factory.sol\":647:650  c_b */\n          0x02\n            /* \"Pruebas y Primeros pasos/factory.sol\":647:657  c_b=int(b) */\n          dup2\n          swap1\n          sstore\n          pop\n            /* \"Pruebas y Primeros pasos/factory.sol\":537:664  constructor (address _direccion, uint a, uint b) public {... */\n          pop\n          pop\n          pop\n            /* \"Pruebas y Primeros pasos/factory.sol\":447:803  contract SmartContract2 {... */\n          jump(tag_6)\n            /* \"#utility.yul\":7:150   */\n        tag_8:\n            /* \"#utility.yul\":64:69   */\n          0x00\n            /* \"#utility.yul\":95:101   */\n          dup2\n            /* \"#utility.yul\":89:102   */\n          mload\n            /* \"#utility.yul\":80:102   */\n          swap1\n          pop\n            /* \"#utility.yul\":111:144   */\n          tag_10\n            /* \"#utility.yul\":138:143   */\n          dup2\n            /* \"#utility.yul\":111:144   */\n          tag_11\n          jump\t// in\n        tag_10:\n            /* \"#utility.yul\":7:150   */\n          swap3\n          swap2\n          pop\n          pop\n          jump\t// out\n            /* \"#utility.yul\":156:299   */\n        tag_12:\n            /* \"#utility.yul\":213:218   */\n          0x00\n            /* \"#utility.yul\":244:250   */\n          dup2\n            /* \"#utility.yul\":238:251   */\n          mload\n            /* \"#utility.yul\":229:251   */\n          swap1\n          pop\n            /* \"#utility.yul\":260:293   */\n          tag_14\n            /* \"#utility.yul\":287:292   */\n          dup2\n            /* \"#utility.yul\":260:293   */\n          tag_15\n          jump\t// in\n        tag_14:\n            /* \"#utility.yul\":156:299   */\n          swap3\n          swap2\n          pop\n          pop\n          jump\t// out\n            /* \"#utility.yul\":305:968   */\n        tag_3:\n            /* \"#utility.yul\":393:399   */\n          0x00\n            /* \"#utility.yul\":401:407   */\n          dup1\n            /* \"#utility.yul\":409:415   */\n          0x00\n            /* \"#utility.yul\":458:460   */\n          0x60\n            /* \"#utility.yul\":446:455   */\n          dup5\n            /* \"#utility.yul\":437:444   */\n          dup7\n            /* \"#utility.yul\":433:456   */\n          sub\n            /* \"#utility.yul\":429:461   */\n          slt\n            /* \"#utility.yul\":426:545   */\n          iszero\n          tag_17\n          jumpi\n            /* \"#utility.yul\":464:543   */\n          tag_18\n          tag_19\n          jump\t// in\n        tag_18:\n            /* \"#utility.yul\":426:545   */\n        tag_17:\n            /* \"#utility.yul\":584:585   */\n          0x00\n            /* \"#utility.yul\":609:673   */\n          tag_20\n            /* \"#utility.yul\":665:672   */\n          dup7\n            /* \"#utility.yul\":656:662   */\n          dup3\n            /* \"#utility.yul\":645:654   */\n          dup8\n            /* \"#utility.yul\":641:663   */\n          add\n            /* \"#utility.yul\":609:673   */\n          tag_8\n          jump\t// in\n        tag_20:\n            /* \"#utility.yul\":599:673   */\n          swap4\n          pop\n            /* \"#utility.yul\":555:683   */\n          pop\n            /* \"#utility.yul\":722:724   */\n          0x20\n            /* \"#utility.yul\":748:812   */\n          tag_21\n            /* \"#utility.yul\":804:811   */\n          dup7\n            /* \"#utility.yul\":795:801   */\n          dup3\n            /* \"#utility.yul\":784:793   */\n          dup8\n            /* \"#utility.yul\":780:802   */\n          add\n            /* \"#utility.yul\":748:812   */\n          tag_12\n          jump\t// in\n        tag_21:\n            /* \"#utility.yul\":738:812   */\n          swap3\n          pop\n            /* \"#utility.yul\":693:822   */\n          pop\n            /* \"#utility.yul\":861:863   */\n          0x40\n            /* \"#utility.yul\":887:951   */\n          tag_22\n            /* \"#utility.yul\":943:950   */\n          dup7\n            /* \"#utility.yul\":934:940   */\n          dup3\n            /* \"#utility.yul\":923:932   */\n          dup8\n            /* \"#utility.yul\":919:941   */\n          add\n            /* \"#utility.yul\":887:951   */\n          tag_12\n          jump\t// in\n        tag_22:\n            /* \"#utility.yul\":877:951   */\n          swap2\n          pop\n            /* \"#utility.yul\":832:961   */\n          pop\n            /* \"#utility.yul\":305:968   */\n          swap3\n          pop\n          swap3\n          pop\n          swap3\n          jump\t// out\n            /* \"#utility.yul\":1055:1151   */\n        tag_25:\n            /* \"#utility.yul\":1092:1099   */\n          0x00\n            /* \"#utility.yul\":1121:1145   */\n          tag_27\n            /* \"#utility.yul\":1139:1144   */\n          dup3\n            /* \"#utility.yul\":1121:1145   */\n          tag_28\n          jump\t// in\n        tag_27:\n            /* \"#utility.yul\":1110:1145   */\n          swap1\n          pop\n            /* \"#utility.yul\":1055:1151   */\n          swap2\n          swap1\n          pop\n          jump\t// out\n            /* \"#utility.yul\":1157:1283   */\n        tag_28:\n            /* \"#utility.yul\":1194:1201   */\n          0x00\n            /* \"#utility.yul\":1234:1276   */\n          0xffffffffffffffffffffffffffffffffffffffff\n            /* \"#utility.yul\":1227:1232   */\n          dup3\n            /* \"#utility.yul\":1223:1277   */\n          and\n            /* \"#utility.yul\":1212:1277   */\n          swap1\n          pop\n            /* \"#utility.yul\":1157:1283   */\n          swap2\n          swap1\n          pop\n          jump\t// out\n            /* \"#utility.yul\":1289:1366   */\n        tag_30:\n            /* \"#utility.yul\":1326:1333   */\n          0x00\n            /* \"#utility.yul\":1355:1360   */\n          dup2\n            /* \"#utility.yul\":1344:1360   */\n          swap1\n          pop\n            /* \"#utility.yul\":1289:1366   */\n          swap2\n          swap1\n          pop\n          jump\t// out\n            /* \"#utility.yul\":1495:1612   */\n        tag_19:\n            /* \"#utility.yul\":1604:1605   */\n          0x00\n            /* \"#utility.yul\":1601:1602   */\n          dup1\n            /* \"#utility.yul\":1594:1606   */\n          revert\n            /* \"#utility.yul\":1618:1740   */\n        tag_11:\n            /* \"#utility.yul\":1691:1715   */\n          tag_36\n            /* \"#utility.yul\":1709:1714   */\n          dup2\n            /* \"#utility.yul\":1691:1715   */\n          tag_25\n          jump\t// in\n        tag_36:\n            /* \"#utility.yul\":1684:1689   */\n          dup2\n            /* \"#utility.yul\":1681:1716   */\n          eq\n            /* \"#utility.yul\":1671:1734   */\n          tag_37\n          jumpi\n            /* \"#utility.yul\":1730:1731   */\n          0x00\n            /* \"#utility.yul\":1727:1728   */\n          dup1\n            /* \"#utility.yul\":1720:1732   */\n          revert\n            /* \"#utility.yul\":1671:1734   */\n        tag_37:\n            /* \"#utility.yul\":1618:1740   */\n          pop\n          jump\t// out\n            /* \"#utility.yul\":1746:1868   */\n        tag_15:\n            /* \"#utility.yul\":1819:1843   */\n          tag_39\n            /* \"#utility.yul\":1837:1842   */\n          dup2\n            /* \"#utility.yul\":1819:1843   */\n          tag_30\n          jump\t// in\n        tag_39:\n            /* \"#utility.yul\":1812:1817   */\n          dup2\n            /* \"#utility.yul\":1809:1844   */\n          eq\n            /* \"#utility.yul\":1799:1862   */\n          tag_40\n          jumpi\n            /* \"#utility.yul\":1858:1859   */\n          0x00\n            /* \"#utility.yul\":1855:1856   */\n          dup1\n            /* \"#utility.yul\":1848:1860   */\n          revert\n            /* \"#utility.yul\":1799:1862   */\n        tag_40:\n            /* \"#utility.yul\":1746:1868   */\n          pop\n          jump\t// out\n            /* \"Pruebas y Primeros pasos/factory.sol\":447:803  contract SmartContract2 {... */\n        tag_6:\n          dataSize(sub_0)\n          dup1\n          dataOffset(sub_0)\n          0x00\n          codecopy\n          0x00\n          return\n        stop\n\n        sub_0: assembly {\n                /* \"Pruebas y Primeros pasos/factory.sol\":447:803  contract SmartContract2 {... */\n              mstore(0x40, 0x80)\n              callvalue\n              dup1\n              iszero\n              tag_1\n              jumpi\n              0x00\n              dup1\n              revert\n            tag_1:\n              pop\n              jumpi(tag_2, lt(calldatasize, 0x04))\n              shr(0xe0, calldataload(0x00))\n              dup1\n              0x1d69ed17\n              eq\n              tag_3\n              jumpi\n              dup1\n              0x7e7d8ec6\n              eq\n              tag_4\n              jumpi\n            tag_2:\n              0x00\n              dup1\n              revert\n                /* \"Pruebas y Primeros pasos/factory.sol\":482:503  address public owneer */\n            tag_3:\n              tag_5\n              tag_6\n              jump\t// in\n            tag_5:\n              mload(0x40)\n              tag_7\n              swap2\n              swap1\n              tag_8\n              jump\t// in\n            tag_7:\n              mload(0x40)\n              dup1\n              swap2\n              sub\n              swap1\n              return\n                /* \"Pruebas y Primeros pasos/factory.sol\":689:796  function suma() public returns(int){... */\n            tag_4:\n              tag_9\n              tag_10\n              jump\t// in\n            tag_9:\n              mload(0x40)\n              tag_11\n              swap2\n              swap1\n              tag_12\n              jump\t// in\n            tag_11:\n              mload(0x40)\n              dup1\n              swap2\n              sub\n              swap1\n              return\n                /* \"Pruebas y Primeros pasos/factory.sol\":482:503  address public owneer */\n            tag_6:\n              0x00\n              dup1\n              sload\n              swap1\n              0x0100\n              exp\n              swap1\n              div\n              0xffffffffffffffffffffffffffffffffffffffff\n              and\n              dup2\n              jump\t// out\n                /* \"Pruebas y Primeros pasos/factory.sol\":689:796  function suma() public returns(int){... */\n            tag_10:\n                /* \"Pruebas y Primeros pasos/factory.sol\":720:723  int */\n              0x00\n                /* \"Pruebas y Primeros pasos/factory.sol\":759:762  c_b */\n              sload(0x02)\n                /* \"Pruebas y Primeros pasos/factory.sol\":750:753  c_a */\n              sload(0x01)\n                /* \"Pruebas y Primeros pasos/factory.sol\":746:763  int(c_a)-int(c_b) */\n              tag_14\n              swap2\n              swap1\n              tag_15\n              jump\t// in\n            tag_14:\n                /* \"Pruebas y Primeros pasos/factory.sol\":734:743  resultado */\n              0x03\n                /* \"Pruebas y Primeros pasos/factory.sol\":734:763  resultado = int(c_a)-int(c_b) */\n              dup2\n              swap1\n              sstore\n              pop\n                /* \"Pruebas y Primeros pasos/factory.sol\":780:789  resultado */\n              sload(0x03)\n                /* \"Pruebas y Primeros pasos/factory.sol\":773:789  return resultado */\n              swap1\n              pop\n                /* \"Pruebas y Primeros pasos/factory.sol\":689:796  function suma() public returns(int){... */\n              swap1\n              jump\t// out\n                /* \"#utility.yul\":7:125   */\n            tag_17:\n                /* \"#utility.yul\":94:118   */\n              tag_19\n                /* \"#utility.yul\":112:117   */\n              dup2\n                /* \"#utility.yul\":94:118   */\n              tag_20\n              jump\t// in\n            tag_19:\n                /* \"#utility.yul\":89:92   */\n              dup3\n                /* \"#utility.yul\":82:119   */\n              mstore\n                /* \"#utility.yul\":7:125   */\n              pop\n              pop\n              jump\t// out\n                /* \"#utility.yul\":131:246   */\n            tag_21:\n                /* \"#utility.yul\":216:239   */\n              tag_23\n                /* \"#utility.yul\":233:238   */\n              dup2\n                /* \"#utility.yul\":216:239   */\n              tag_24\n              jump\t// in\n            tag_23:\n                /* \"#utility.yul\":211:214   */\n              dup3\n                /* \"#utility.yul\":204:240   */\n              mstore\n                /* \"#utility.yul\":131:246   */\n              pop\n              pop\n              jump\t// out\n                /* \"#utility.yul\":252:474   */\n            tag_8:\n                /* \"#utility.yul\":345:349   */\n              0x00\n                /* \"#utility.yul\":383:385   */\n              0x20\n                /* \"#utility.yul\":372:381   */\n              dup3\n                /* \"#utility.yul\":368:386   */\n              add\n                /* \"#utility.yul\":360:386   */\n              swap1\n              pop\n                /* \"#utility.yul\":396:467   */\n              tag_26\n                /* \"#utility.yul\":464:465   */\n              0x00\n                /* \"#utility.yul\":453:462   */\n              dup4\n                /* \"#utility.yul\":449:466   */\n              add\n                /* \"#utility.yul\":440:446   */\n              dup5\n                /* \"#utility.yul\":396:467   */\n              tag_17\n              jump\t// in\n            tag_26:\n                /* \"#utility.yul\":252:474   */\n              swap3\n              swap2\n              pop\n              pop\n              jump\t// out\n                /* \"#utility.yul\":480:698   */\n            tag_12:\n                /* \"#utility.yul\":571:575   */\n              0x00\n                /* \"#utility.yul\":609:611   */\n              0x20\n                /* \"#utility.yul\":598:607   */\n              dup3\n                /* \"#utility.yul\":594:612   */\n              add\n                /* \"#utility.yul\":586:612   */\n              swap1\n              pop\n                /* \"#utility.yul\":622:691   */\n              tag_28\n                /* \"#utility.yul\":688:689   */\n              0x00\n                /* \"#utility.yul\":677:686   */\n              dup4\n                /* \"#utility.yul\":673:690   */\n              add\n                /* \"#utility.yul\":664:670   */\n              dup5\n                /* \"#utility.yul\":622:691   */\n              tag_21\n              jump\t// in\n            tag_28:\n                /* \"#utility.yul\":480:698   */\n              swap3\n              swap2\n              pop\n              pop\n              jump\t// out\n                /* \"#utility.yul\":704:1231   */\n            tag_15:\n                /* \"#utility.yul\":743:747   */\n              0x00\n                /* \"#utility.yul\":763:782   */\n              tag_30\n                /* \"#utility.yul\":780:781   */\n              dup3\n                /* \"#utility.yul\":763:782   */\n              tag_24\n              jump\t// in\n            tag_30:\n                /* \"#utility.yul\":758:782   */\n              swap2\n              pop\n                /* \"#utility.yul\":796:815   */\n              tag_31\n                /* \"#utility.yul\":813:814   */\n              dup4\n                /* \"#utility.yul\":796:815   */\n              tag_24\n              jump\t// in\n            tag_31:\n                /* \"#utility.yul\":791:815   */\n              swap3\n              pop\n                /* \"#utility.yul\":985:986   */\n              dup3\n                /* \"#utility.yul\":917:983   */\n              0x8000000000000000000000000000000000000000000000000000000000000000\n                /* \"#utility.yul\":913:987   */\n              add\n                /* \"#utility.yul\":910:911   */\n              dup3\n                /* \"#utility.yul\":906:988   */\n              slt\n                /* \"#utility.yul\":901:902   */\n              0x00\n                /* \"#utility.yul\":898:899   */\n              dup5\n                /* \"#utility.yul\":894:903   */\n              slt\n                /* \"#utility.yul\":887:904   */\n              iszero\n                /* \"#utility.yul\":883:989   */\n              and\n                /* \"#utility.yul\":880:1012   */\n              iszero\n              tag_32\n              jumpi\n                /* \"#utility.yul\":992:1010   */\n              tag_33\n              tag_34\n              jump\t// in\n            tag_33:\n                /* \"#utility.yul\":880:1012   */\n            tag_32:\n                /* \"#utility.yul\":1171:1172   */\n              dup3\n                /* \"#utility.yul\":1103:1169   */\n              0x7fffffffffffffffffffffffffffffffffffffffffffffffffffffffffffffff\n                /* \"#utility.yul\":1099:1173   */\n              add\n                /* \"#utility.yul\":1096:1097   */\n              dup3\n                /* \"#utility.yul\":1092:1174   */\n              sgt\n                /* \"#utility.yul\":1088:1089   */\n              0x00\n                /* \"#utility.yul\":1085:1086   */\n              dup5\n                /* \"#utility.yul\":1081:1090   */\n              slt\n                /* \"#utility.yul\":1077:1175   */\n              and\n                /* \"#utility.yul\":1074:1198   */\n              iszero\n              tag_35\n              jumpi\n                /* \"#utility.yul\":1178:1196   */\n              tag_36\n              tag_34\n              jump\t// in\n            tag_36:\n                /* \"#utility.yul\":1074:1198   */\n            tag_35:\n                /* \"#utility.yul\":1223:1224   */\n              dup3\n                /* \"#utility.yul\":1220:1221   */\n              dup3\n                /* \"#utility.yul\":1216:1225   */\n              sub\n                /* \"#utility.yul\":1208:1225   */\n              swap1\n              pop\n                /* \"#utility.yul\":704:1231   */\n              swap3\n              swap2\n              pop\n              pop\n              jump\t// out\n                /* \"#utility.yul\":1237:1333   */\n            tag_20:\n                /* \"#utility.yul\":1274:1281   */\n              0x00\n                /* \"#utility.yul\":1303:1327   */\n              tag_38\n                /* \"#utility.yul\":1321:1326   */\n              dup3\n                /* \"#utility.yul\":1303:1327   */\n              tag_39\n              jump\t// in\n            tag_38:\n                /* \"#utility.yul\":1292:1327   */\n              swap1\n              pop\n                /* \"#utility.yul\":1237:1333   */\n              swap2\n              swap1\n              pop\n              jump\t// out\n                /* \"#utility.yul\":1339:1415   */\n            tag_24:\n                /* \"#utility.yul\":1375:1382   */\n              0x00\n                /* \"#utility.yul\":1404:1409   */\n              dup2\n                /* \"#utility.yul\":1393:1409   */\n              swap1\n              pop\n                /* \"#utility.yul\":1339:1415   */\n              swap2\n              swap1\n              pop\n              jump\t// out\n                /* \"#utility.yul\":1421:1547   */\n            tag_39:\n                /* \"#utility.yul\":1458:1465   */\n              0x00\n                /* \"#utility.yul\":1498:1540   */\n              0xffffffffffffffffffffffffffffffffffffffff\n                /* \"#utility.yul\":1491:1496   */\n              dup3\n                /* \"#utility.yul\":1487:1541   */\n              and\n                /* \"#utility.yul\":1476:1541   */\n              swap1\n              pop\n                /* \"#utility.yul\":1421:1547   */\n              swap2\n              swap1\n              pop\n              jump\t// out\n                /* \"#utility.yul\":1553:1733   */\n            tag_34:\n                /* \"#utility.yul\":1601:1678   */\n              0x4e487b7100000000000000000000000000000000000000000000000000000000\n                /* \"#utility.yul\":1598:1599   */\n              0x00\n                /* \"#utility.yul\":1591:1679   */\n              mstore\n                /* \"#utility.yul\":1698:1702   */\n              0x11\n                /* \"#utility.yul\":1695:1696   */\n              0x04\n                /* \"#utility.yul\":1688:1703   */\n              mstore\n                /* \"#utility.yul\":1722:1726   */\n              0x24\n                /* \"#utility.yul\":1719:1720   */\n              0x00\n                /* \"#utility.yul\":1712:1727   */\n              revert\n\n            auxdata: 0xa26469706673582212204a319c7366f9bc5cfea3865883613f392ba0113f6f7859e881bbd0b4f9ad8ffe64736f6c63430008070033\n        }\n    }\n\n    auxdata: 0xa264697066735822122042a9a497779e8bad0389b73577aa6458cf00ab9005168f233d8e3506968292e964736f6c63430008070033\n}\n",
				"bytecode": {
					"linkReferences": {},
					"object": "608060405234801561001057600080fd5b506106ad806100206000396000f3fe608060405234801561001057600080fd5b50600436106100365760003560e01c80631b03b2c91461003b578063c83dd2311461006b575b600080fd5b61005560048036038101906100509190610188565b610075565b60405161006291906101e2565b60405180910390f35b6100736100a8565b005b60006020528060005260406000206000915054906101000a900473ffffffffffffffffffffffffffffffffffffffff1681565b600033600e60056040516100bb90610166565b6100c7939291906101fd565b604051809103906000f0801580156100e3573d6000803e3d6000fd5b509050806000803373ffffffffffffffffffffffffffffffffffffffff1673ffffffffffffffffffffffffffffffffffffffff16815260200190815260200160002060006101000a81548173ffffffffffffffffffffffffffffffffffffffff021916908373ffffffffffffffffffffffffffffffffffffffff16021790555050565b6103c7806102b183390190565b60008135905061018281610299565b92915050565b60006020828403121561019e5761019d610294565b5b60006101ac84828501610173565b91505092915050565b6101be81610234565b82525050565b6101cd81610270565b82525050565b6101dc81610282565b82525050565b60006020820190506101f760008301846101b5565b92915050565b600060608201905061021260008301866101b5565b61021f60208301856101c4565b61022c60408301846101d3565b949350505050565b600061023f82610246565b9050919050565b600073ffffffffffffffffffffffffffffffffffffffff82169050919050565b6000819050919050565b600061027b82610266565b9050919050565b600061028d82610266565b9050919050565b600080fd5b6102a281610234565b81146102ad57600080fd5b5056fe608060405234801561001057600080fd5b506040516103c73803806103c7833981810160405281019061003291906100b2565b826000806101000a81548173ffffffffffffffffffffffffffffffffffffffff021916908373ffffffffffffffffffffffffffffffffffffffff1602179055508160018190555080600281905550505050610174565b60008151905061009781610146565b92915050565b6000815190506100ac8161015d565b92915050565b6000806000606084860312156100cb576100ca610141565b5b60006100d986828701610088565b93505060206100ea8682870161009d565b92505060406100fb8682870161009d565b9150509250925092565b600061011082610117565b9050919050565b600073ffffffffffffffffffffffffffffffffffffffff82169050919050565b6000819050919050565b600080fd5b61014f81610105565b811461015a57600080fd5b50565b61016681610137565b811461017157600080fd5b50565b610244806101836000396000f3fe608060405234801561001057600080fd5b50600436106100365760003560e01c80631d69ed171461003b5780637e7d8ec614610059575b600080fd5b610043610077565b60405161005091906100d9565b60405180910390f35b61006161009b565b60405161006e91906100f4565b60405180910390f35b60008054906101000a900473ffffffffffffffffffffffffffffffffffffffff1681565b60006002546001546100ad919061010f565b600381905550600354905090565b6100c4816101a3565b82525050565b6100d3816101b5565b82525050565b60006020820190506100ee60008301846100bb565b92915050565b600060208201905061010960008301846100ca565b92915050565b600061011a826101b5565b9150610125836101b5565b9250827f8000000000000000000000000000000000000000000000000000000000000000018212600084121516156101605761015f6101df565b5b827f7fffffffffffffffffffffffffffffffffffffffffffffffffffffffffffffff018213600084121615610198576101976101df565b5b828203905092915050565b60006101ae826101bf565b9050919050565b6000819050919050565b600073ffffffffffffffffffffffffffffffffffffffff82169050919050565b7f4e487b7100000000000000000000000000000000000000000000000000000000600052601160045260246000fdfea26469706673582212204a319c7366f9bc5cfea3865883613f392ba0113f6f7859e881bbd0b4f9ad8ffe64736f6c63430008070033a264697066735822122042a9a497779e8bad0389b73577aa6458cf00ab9005168f233d8e3506968292e964736f6c63430008070033",
					"opcodes": "PUSH1 0x80 PUSH1 0x40 MSTORE CALLVALUE DUP1 ISZERO PUSH2 0x10 JUMPI PUSH1 0x0 DUP1 REVERT JUMPDEST POP PUSH2 0x6AD DUP1 PUSH2 0x20 PUSH1 0x0 CODECOPY PUSH1 0x0 RETURN INVALID PUSH1 0x80 PUSH1 0x40 MSTORE CALLVALUE DUP1 ISZERO PUSH2 0x10 JUMPI PUSH1 0x0 DUP1 REVERT JUMPDEST POP PUSH1 0x4 CALLDATASIZE LT PUSH2 0x36 JUMPI PUSH1 0x0 CALLDATALOAD PUSH1 0xE0 SHR DUP1 PUSH4 0x1B03B2C9 EQ PUSH2 0x3B JUMPI DUP1 PUSH4 0xC83DD231 EQ PUSH2 0x6B JUMPI JUMPDEST PUSH1 0x0 DUP1 REVERT JUMPDEST PUSH2 0x55 PUSH1 0x4 DUP1 CALLDATASIZE SUB DUP2 ADD SWAP1 PUSH2 0x50 SWAP2 SWAP1 PUSH2 0x188 JUMP JUMPDEST PUSH2 0x75 JUMP JUMPDEST PUSH1 0x40 MLOAD PUSH2 0x62 SWAP2 SWAP1 PUSH2 0x1E2 JUMP JUMPDEST PUSH1 0x40 MLOAD DUP1 SWAP2 SUB SWAP1 RETURN JUMPDEST PUSH2 0x73 PUSH2 0xA8 JUMP JUMPDEST STOP JUMPDEST PUSH1 0x0 PUSH1 0x20 MSTORE DUP1 PUSH1 0x0 MSTORE PUSH1 0x40 PUSH1 0x0 KECCAK256 PUSH1 0x0 SWAP2 POP SLOAD SWAP1 PUSH2 0x100 EXP SWAP1 DIV PUSH20 0xFFFFFFFFFFFFFFFFFFFFFFFFFFFFFFFFFFFFFFFF AND DUP2 JUMP JUMPDEST PUSH1 0x0 CALLER PUSH1 0xE PUSH1 0x5 PUSH1 0x40 MLOAD PUSH2 0xBB SWAP1 PUSH2 0x166 JUMP JUMPDEST PUSH2 0xC7 SWAP4 SWAP3 SWAP2 SWAP1 PUSH2 0x1FD JUMP JUMPDEST PUSH1 0x40 MLOAD DUP1 SWAP2 SUB SWAP1 PUSH1 0x0 CREATE DUP1 ISZERO DUP1 ISZERO PUSH2 0xE3 JUMPI RETURNDATASIZE PUSH1 0x0 DUP1 RETURNDATACOPY RETURNDATASIZE PUSH1 0x0 REVERT JUMPDEST POP SWAP1 POP DUP1 PUSH1 0x0 DUP1 CALLER PUSH20 0xFFFFFFFFFFFFFFFFFFFFFFFFFFFFFFFFFFFFFFFF AND PUSH20 0xFFFFFFFFFFFFFFFFFFFFFFFFFFFFFFFFFFFFFFFF AND DUP2 MSTORE PUSH1 0x20 ADD SWAP1 DUP2 MSTORE PUSH1 0x20 ADD PUSH1 0x0 KECCAK256 PUSH1 0x0 PUSH2 0x100 EXP DUP2 SLOAD DUP2 PUSH20 0xFFFFFFFFFFFFFFFFFFFFFFFFFFFFFFFFFFFFFFFF MUL NOT AND SWAP1 DUP4 PUSH20 0xFFFFFFFFFFFFFFFFFFFFFFFFFFFFFFFFFFFFFFFF AND MUL OR SWAP1 SSTORE POP POP JUMP JUMPDEST PUSH2 0x3C7 DUP1 PUSH2 0x2B1 DUP4 CODECOPY ADD SWAP1 JUMP JUMPDEST PUSH1 0x0 DUP2 CALLDATALOAD SWAP1 POP PUSH2 0x182 DUP2 PUSH2 0x299 JUMP JUMPDEST SWAP3 SWAP2 POP POP JUMP JUMPDEST PUSH1 0x0 PUSH1 0x20 DUP3 DUP5 SUB SLT ISZERO PUSH2 0x19E JUMPI PUSH2 0x19D PUSH2 0x294 JUMP JUMPDEST JUMPDEST PUSH1 0x0 PUSH2 0x1AC DUP5 DUP3 DUP6 ADD PUSH2 0x173 JUMP JUMPDEST SWAP2 POP POP SWAP3 SWAP2 POP POP JUMP JUMPDEST PUSH2 0x1BE DUP2 PUSH2 0x234 JUMP JUMPDEST DUP3 MSTORE POP POP JUMP JUMPDEST PUSH2 0x1CD DUP2 PUSH2 0x270 JUMP JUMPDEST DUP3 MSTORE POP POP JUMP JUMPDEST PUSH2 0x1DC DUP2 PUSH2 0x282 JUMP JUMPDEST DUP3 MSTORE POP POP JUMP JUMPDEST PUSH1 0x0 PUSH1 0x20 DUP3 ADD SWAP1 POP PUSH2 0x1F7 PUSH1 0x0 DUP4 ADD DUP5 PUSH2 0x1B5 JUMP JUMPDEST SWAP3 SWAP2 POP POP JUMP JUMPDEST PUSH1 0x0 PUSH1 0x60 DUP3 ADD SWAP1 POP PUSH2 0x212 PUSH1 0x0 DUP4 ADD DUP7 PUSH2 0x1B5 JUMP JUMPDEST PUSH2 0x21F PUSH1 0x20 DUP4 ADD DUP6 PUSH2 0x1C4 JUMP JUMPDEST PUSH2 0x22C PUSH1 0x40 DUP4 ADD DUP5 PUSH2 0x1D3 JUMP JUMPDEST SWAP5 SWAP4 POP POP POP POP JUMP JUMPDEST PUSH1 0x0 PUSH2 0x23F DUP3 PUSH2 0x246 JUMP JUMPDEST SWAP1 POP SWAP2 SWAP1 POP JUMP JUMPDEST PUSH1 0x0 PUSH20 0xFFFFFFFFFFFFFFFFFFFFFFFFFFFFFFFFFFFFFFFF DUP3 AND SWAP1 POP SWAP2 SWAP1 POP JUMP JUMPDEST PUSH1 0x0 DUP2 SWAP1 POP SWAP2 SWAP1 POP JUMP JUMPDEST PUSH1 0x0 PUSH2 0x27B DUP3 PUSH2 0x266 JUMP JUMPDEST SWAP1 POP SWAP2 SWAP1 POP JUMP JUMPDEST PUSH1 0x0 PUSH2 0x28D DUP3 PUSH2 0x266 JUMP JUMPDEST SWAP1 POP SWAP2 SWAP1 POP JUMP JUMPDEST PUSH1 0x0 DUP1 REVERT JUMPDEST PUSH2 0x2A2 DUP2 PUSH2 0x234 JUMP JUMPDEST DUP2 EQ PUSH2 0x2AD JUMPI PUSH1 0x0 DUP1 REVERT JUMPDEST POP JUMP INVALID PUSH1 0x80 PUSH1 0x40 MSTORE CALLVALUE DUP1 ISZERO PUSH2 0x10 JUMPI PUSH1 0x0 DUP1 REVERT JUMPDEST POP PUSH1 0x40 MLOAD PUSH2 0x3C7 CODESIZE SUB DUP1 PUSH2 0x3C7 DUP4 CODECOPY DUP2 DUP2 ADD PUSH1 0x40 MSTORE DUP2 ADD SWAP1 PUSH2 0x32 SWAP2 SWAP1 PUSH2 0xB2 JUMP JUMPDEST DUP3 PUSH1 0x0 DUP1 PUSH2 0x100 EXP DUP2 SLOAD DUP2 PUSH20 0xFFFFFFFFFFFFFFFFFFFFFFFFFFFFFFFFFFFFFFFF MUL NOT AND SWAP1 DUP4 PUSH20 0xFFFFFFFFFFFFFFFFFFFFFFFFFFFFFFFFFFFFFFFF AND MUL OR SWAP1 SSTORE POP DUP2 PUSH1 0x1 DUP2 SWAP1 SSTORE POP DUP1 PUSH1 0x2 DUP2 SWAP1 SSTORE POP POP POP POP PUSH2 0x174 JUMP JUMPDEST PUSH1 0x0 DUP2 MLOAD SWAP1 POP PUSH2 0x97 DUP2 PUSH2 0x146 JUMP JUMPDEST SWAP3 SWAP2 POP POP JUMP JUMPDEST PUSH1 0x0 DUP2 MLOAD SWAP1 POP PUSH2 0xAC DUP2 PUSH2 0x15D JUMP JUMPDEST SWAP3 SWAP2 POP POP JUMP JUMPDEST PUSH1 0x0 DUP1 PUSH1 0x0 PUSH1 0x60 DUP5 DUP7 SUB SLT ISZERO PUSH2 0xCB JUMPI PUSH2 0xCA PUSH2 0x141 JUMP JUMPDEST JUMPDEST PUSH1 0x0 PUSH2 0xD9 DUP7 DUP3 DUP8 ADD PUSH2 0x88 JUMP JUMPDEST SWAP4 POP POP PUSH1 0x20 PUSH2 0xEA DUP7 DUP3 DUP8 ADD PUSH2 0x9D JUMP JUMPDEST SWAP3 POP POP PUSH1 0x40 PUSH2 0xFB DUP7 DUP3 DUP8 ADD PUSH2 0x9D JUMP JUMPDEST SWAP2 POP POP SWAP3 POP SWAP3 POP SWAP3 JUMP JUMPDEST PUSH1 0x0 PUSH2 0x110 DUP3 PUSH2 0x117 JUMP JUMPDEST SWAP1 POP SWAP2 SWAP1 POP JUMP JUMPDEST PUSH1 0x0 PUSH20 0xFFFFFFFFFFFFFFFFFFFFFFFFFFFFFFFFFFFFFFFF DUP3 AND SWAP1 POP SWAP2 SWAP1 POP JUMP JUMPDEST PUSH1 0x0 DUP2 SWAP1 POP SWAP2 SWAP1 POP JUMP JUMPDEST PUSH1 0x0 DUP1 REVERT JUMPDEST PUSH2 0x14F DUP2 PUSH2 0x105 JUMP JUMPDEST DUP2 EQ PUSH2 0x15A JUMPI PUSH1 0x0 DUP1 REVERT JUMPDEST POP JUMP JUMPDEST PUSH2 0x166 DUP2 PUSH2 0x137 JUMP JUMPDEST DUP2 EQ PUSH2 0x171 JUMPI PUSH1 0x0 DUP1 REVERT JUMPDEST POP JUMP JUMPDEST PUSH2 0x244 DUP1 PUSH2 0x183 PUSH1 0x0 CODECOPY PUSH1 0x0 RETURN INVALID PUSH1 0x80 PUSH1 0x40 MSTORE CALLVALUE DUP1 ISZERO PUSH2 0x10 JUMPI PUSH1 0x0 DUP1 REVERT JUMPDEST POP PUSH1 0x4 CALLDATASIZE LT PUSH2 0x36 JUMPI PUSH1 0x0 CALLDATALOAD PUSH1 0xE0 SHR DUP1 PUSH4 0x1D69ED17 EQ PUSH2 0x3B JUMPI DUP1 PUSH4 0x7E7D8EC6 EQ PUSH2 0x59 JUMPI JUMPDEST PUSH1 0x0 DUP1 REVERT JUMPDEST PUSH2 0x43 PUSH2 0x77 JUMP JUMPDEST PUSH1 0x40 MLOAD PUSH2 0x50 SWAP2 SWAP1 PUSH2 0xD9 JUMP JUMPDEST PUSH1 0x40 MLOAD DUP1 SWAP2 SUB SWAP1 RETURN JUMPDEST PUSH2 0x61 PUSH2 0x9B JUMP JUMPDEST PUSH1 0x40 MLOAD PUSH2 0x6E SWAP2 SWAP1 PUSH2 0xF4 JUMP JUMPDEST PUSH1 0x40 MLOAD DUP1 SWAP2 SUB SWAP1 RETURN JUMPDEST PUSH1 0x0 DUP1 SLOAD SWAP1 PUSH2 0x100 EXP SWAP1 DIV PUSH20 0xFFFFFFFFFFFFFFFFFFFFFFFFFFFFFFFFFFFFFFFF AND DUP2 JUMP JUMPDEST PUSH1 0x0 PUSH1 0x2 SLOAD PUSH1 0x1 SLOAD PUSH2 0xAD SWAP2 SWAP1 PUSH2 0x10F JUMP JUMPDEST PUSH1 0x3 DUP2 SWAP1 SSTORE POP PUSH1 0x3 SLOAD SWAP1 POP SWAP1 JUMP JUMPDEST PUSH2 0xC4 DUP2 PUSH2 0x1A3 JUMP JUMPDEST DUP3 MSTORE POP POP JUMP JUMPDEST PUSH2 0xD3 DUP2 PUSH2 0x1B5 JUMP JUMPDEST DUP3 MSTORE POP POP JUMP JUMPDEST PUSH1 0x0 PUSH1 0x20 DUP3 ADD SWAP1 POP PUSH2 0xEE PUSH1 0x0 DUP4 ADD DUP5 PUSH2 0xBB JUMP JUMPDEST SWAP3 SWAP2 POP POP JUMP JUMPDEST PUSH1 0x0 PUSH1 0x20 DUP3 ADD SWAP1 POP PUSH2 0x109 PUSH1 0x0 DUP4 ADD DUP5 PUSH2 0xCA JUMP JUMPDEST SWAP3 SWAP2 POP POP JUMP JUMPDEST PUSH1 0x0 PUSH2 0x11A DUP3 PUSH2 0x1B5 JUMP JUMPDEST SWAP2 POP PUSH2 0x125 DUP4 PUSH2 0x1B5 JUMP JUMPDEST SWAP3 POP DUP3 PUSH32 0x8000000000000000000000000000000000000000000000000000000000000000 ADD DUP3 SLT PUSH1 0x0 DUP5 SLT ISZERO AND ISZERO PUSH2 0x160 JUMPI PUSH2 0x15F PUSH2 0x1DF JUMP JUMPDEST JUMPDEST DUP3 PUSH32 0x7FFFFFFFFFFFFFFFFFFFFFFFFFFFFFFFFFFFFFFFFFFFFFFFFFFFFFFFFFFFFFFF ADD DUP3 SGT PUSH1 0x0 DUP5 SLT AND ISZERO PUSH2 0x198 JUMPI PUSH2 0x197 PUSH2 0x1DF JUMP JUMPDEST JUMPDEST DUP3 DUP3 SUB SWAP1 POP SWAP3 SWAP2 POP POP JUMP JUMPDEST PUSH1 0x0 PUSH2 0x1AE DUP3 PUSH2 0x1BF JUMP JUMPDEST SWAP1 POP SWAP2 SWAP1 POP JUMP JUMPDEST PUSH1 0x0 DUP2 SWAP1 POP SWAP2 SWAP1 POP JUMP JUMPDEST PUSH1 0x0 PUSH20 0xFFFFFFFFFFFFFFFFFFFFFFFFFFFFFFFFFFFFFFFF DUP3 AND SWAP1 POP SWAP2 SWAP1 POP JUMP JUMPDEST PUSH32 0x4E487B7100000000000000000000000000000000000000000000000000000000 PUSH1 0x0 MSTORE PUSH1 0x11 PUSH1 0x4 MSTORE PUSH1 0x24 PUSH1 0x0 REVERT INVALID LOG2 PUSH5 0x6970667358 0x22 SLT KECCAK256 0x4A BALANCE SWAP13 PUSH20 0x66F9BC5CFEA3865883613F392BA0113F6F7859E8 DUP2 0xBB 0xD0 0xB4 0xF9 0xAD DUP16 INVALID PUSH5 0x736F6C6343 STOP ADDMOD SMOD STOP CALLER LOG2 PUSH5 0x6970667358 0x22 SLT KECCAK256 TIMESTAMP 0xA9 LOG4 SWAP8 PUSH24 0x9E8BAD0389B73577AA6458CF00AB9005168F233D8E350696 DUP3 SWAP3 0xE9 PUSH5 0x736F6C6343 STOP ADDMOD SMOD STOP CALLER "
				},
				"gasEstimates": {
					"creation": {
						"codeDepositCost": "341800",
						"executionCost": "380",
						"totalCost": "342180"
					},
					"external": {
						"Factory()": "infinite",
						"MiContratoPersonal(address)": "infinite"
					}
				},
				"methodIdentifiers": {
					"Factory()": "c83dd231",
					"MiContratoPersonal(address)": "1b03b2c9"
				}
			},
			"storageLayout": {
				"storage": [
					{
						"astId": 6,
						"contract": "Pruebas y Primeros pasos/factory.sol:SmartContract1",
						"label": "MiContratoPersonal",
						"offset": 0,
						"slot": "0",
						"type": "t_mapping(t_address,t_address)"
					}
				],
				"types": {
					"t_address": {
						"encoding": "inplace",
						"label": "address",
						"numberOfBytes": "20"
					},
					"t_mapping(t_address,t_address)": {
						"encoding": "mapping",
						"key": "t_address",
						"label": "mapping(address => address)",
						"numberOfBytes": "32",
						"value": "t_address"
					}
				}
			},
			"userdoc": {
				"kind": "user",
				"methods": {},
				"version": 1
			}
		}
	}
}