{
	"Pruebas y Primeros pasos/factory.sol": {
		"SmartContract1": {
			"abi": [
				{
					"inputs": [],
					"name": "Factory",
					"outputs": [],
					"stateMutability": "nonpayable",
					"type": "function"
				},
				{
					"inputs": [
						{
							"internalType": "address",
							"name": "",
							"type": "address"
						}
					],
					"name": "MiContratoPersonal",
					"outputs": [
						{
							"internalType": "address",
							"name": "",
							"type": "address"
						}
					],
					"stateMutability": "view",
					"type": "function"
				}
			],
			"devdoc": {
				"kind": "dev",
				"methods": {},
				"version": 1
			},
			"evm": {
				"assembly": "    /* \"Pruebas y Primeros pasos/factory.sol\":98:444  contract SmartContract1 {... */\n  mstore(0x40, 0x80)\n  callvalue\n  dup1\n  iszero\n  tag_1\n  jumpi\n  0x00\n  dup1\n  revert\ntag_1:\n  pop\n  dataSize(sub_0)\n  dup1\n  dataOffset(sub_0)\n  0x00\n  codecopy\n  0x00\n  return\nstop\n\nsub_0: assembly {\n        /* \"Pruebas y Primeros pasos/factory.sol\":98:444  contract SmartContract1 {... */\n      mstore(0x40, 0x80)\n      callvalue\n      dup1\n      iszero\n      tag_1\n      jumpi\n      0x00\n      dup1\n      revert\n    tag_1:\n      pop\n      jumpi(tag_2, lt(calldatasize, 0x04))\n      shr(0xe0, calldataload(0x00))\n      dup1\n      0x1b03b2c9\n      eq\n      tag_3\n      jumpi\n      dup1\n      0xc83dd231\n      eq\n      tag_4\n      jumpi\n    tag_2:\n      0x00\n      dup1\n      revert\n        /* \"Pruebas y Primeros pasos/factory.sol\":185:239  mapping (address => address) public MiContratoPersonal */\n    tag_3:\n      tag_5\n      0x04\n      dup1\n      calldatasize\n      sub\n      dup2\n      add\n      swap1\n      tag_6\n      swap2\n      swap1\n      tag_7\n      jump\t// in\n    tag_6:\n      tag_8\n      jump\t// in\n    tag_5:\n      mload(0x40)\n      tag_9\n      swap2\n      swap1\n      tag_10\n      jump\t// in\n    tag_9:\n      mload(0x40)\n      dup1\n      swap2\n      sub\n      swap1\n      return\n        /* \"Pruebas y Primeros pasos/factory.sol\":250:442  function Factory() public {... */\n    tag_4:\n      tag_11\n      tag_12\n      jump\t// in\n    tag_11:\n      stop\n        /* \"Pruebas y Primeros pasos/factory.sol\":185:239  mapping (address => address) public MiContratoPersonal */\n    tag_8:\n      mstore(0x20, 0x00)\n      dup1\n      0x00\n      mstore\n      keccak256(0x00, 0x40)\n      0x00\n      swap2\n      pop\n      sload\n      swap1\n      0x0100\n      exp\n      swap1\n      div\n      0xffffffffffffffffffffffffffffffffffffffff\n      and\n      dup2\n      jump\t// out\n        /* \"Pruebas y Primeros pasos/factory.sol\":250:442  function Factory() public {... */\n    tag_12:\n        /* \"Pruebas y Primeros pasos/factory.sol\":286:318  address direccion_nuevo_contrato */\n      0x00\n        /* \"Pruebas y Primeros pasos/factory.sol\":349:359  msg.sender */\n      caller\n        /* \"Pruebas y Primeros pasos/factory.sol\":361:362  4 */\n      0x04\n        /* \"Pruebas y Primeros pasos/factory.sol\":364:365  5 */\n      0x05\n        /* \"Pruebas y Primeros pasos/factory.sol\":330:366  new SmartContract2(msg.sender, 4, 5) */\n      mload(0x40)\n      tag_14\n      swap1\n      tag_15\n      jump\t// in\n    tag_14:\n      tag_16\n      swap4\n      swap3\n      swap2\n      swap1\n      tag_17\n      jump\t// in\n    tag_16:\n      mload(0x40)\n      dup1\n      swap2\n      sub\n      swap1\n      0x00\n      create\n      dup1\n      iszero\n      dup1\n      iszero\n      tag_18\n      jumpi\n      returndatasize\n      0x00\n      dup1\n      returndatacopy\n      revert(0x00, returndatasize)\n    tag_18:\n      pop\n        /* \"Pruebas y Primeros pasos/factory.sol\":286:367  address direccion_nuevo_contrato = address (new SmartContract2(msg.sender, 4, 5)) */\n      swap1\n      pop\n        /* \"Pruebas y Primeros pasos/factory.sol\":411:435  direccion_nuevo_contrato */\n      dup1\n        /* \"Pruebas y Primeros pasos/factory.sol\":378:396  MiContratoPersonal */\n      0x00\n        /* \"Pruebas y Primeros pasos/factory.sol\":378:408  MiContratoPersonal[msg.sender] */\n      dup1\n        /* \"Pruebas y Primeros pasos/factory.sol\":397:407  msg.sender */\n      caller\n        /* \"Pruebas y Primeros pasos/factory.sol\":378:408  MiContratoPersonal[msg.sender] */\n      0xffffffffffffffffffffffffffffffffffffffff\n      and\n      0xffffffffffffffffffffffffffffffffffffffff\n      and\n      dup2\n      mstore\n      0x20\n      add\n      swap1\n      dup2\n      mstore\n      0x20\n      add\n      0x00\n      keccak256\n      0x00\n        /* \"Pruebas y Primeros pasos/factory.sol\":378:435  MiContratoPersonal[msg.sender] = direccion_nuevo_contrato */\n      0x0100\n      exp\n      dup2\n      sload\n      dup2\n      0xffffffffffffffffffffffffffffffffffffffff\n      mul\n      not\n      and\n      swap1\n      dup4\n      0xffffffffffffffffffffffffffffffffffffffff\n      and\n      mul\n      or\n      swap1\n      sstore\n      pop\n        /* \"Pruebas y Primeros pasos/factory.sol\":276:442  {... */\n      pop\n        /* \"Pruebas y Primeros pasos/factory.sol\":250:442  function Factory() public {... */\n      jump\t// out\n    tag_15:\n      dataSize(sub_0)\n      dup1\n      dataOffset(sub_0)\n      dup4\n      codecopy\n      add\n      swap1\n      jump\t// out\n        /* \"#utility.yul\":7:146   */\n    tag_20:\n        /* \"#utility.yul\":53:58   */\n      0x00\n        /* \"#utility.yul\":91:97   */\n      dup2\n        /* \"#utility.yul\":78:98   */\n      calldataload\n        /* \"#utility.yul\":69:98   */\n      swap1\n      pop\n        /* \"#utility.yul\":107:140   */\n      tag_22\n        /* \"#utility.yul\":134:139   */\n      dup2\n        /* \"#utility.yul\":107:140   */\n      tag_23\n      jump\t// in\n    tag_22:\n        /* \"#utility.yul\":7:146   */\n      swap3\n      swap2\n      pop\n      pop\n      jump\t// out\n        /* \"#utility.yul\":152:481   */\n    tag_7:\n        /* \"#utility.yul\":211:217   */\n      0x00\n        /* \"#utility.yul\":260:262   */\n      0x20\n        /* \"#utility.yul\":248:257   */\n      dup3\n        /* \"#utility.yul\":239:246   */\n      dup5\n        /* \"#utility.yul\":235:258   */\n      sub\n        /* \"#utility.yul\":231:263   */\n      slt\n        /* \"#utility.yul\":228:347   */\n      iszero\n      tag_25\n      jumpi\n        /* \"#utility.yul\":266:345   */\n      tag_26\n      tag_27\n      jump\t// in\n    tag_26:\n        /* \"#utility.yul\":228:347   */\n    tag_25:\n        /* \"#utility.yul\":386:387   */\n      0x00\n        /* \"#utility.yul\":411:464   */\n      tag_28\n        /* \"#utility.yul\":456:463   */\n      dup5\n        /* \"#utility.yul\":447:453   */\n      dup3\n        /* \"#utility.yul\":436:445   */\n      dup6\n        /* \"#utility.yul\":432:454   */\n      add\n        /* \"#utility.yul\":411:464   */\n      tag_20\n      jump\t// in\n    tag_28:\n        /* \"#utility.yul\":401:464   */\n      swap2\n      pop\n        /* \"#utility.yul\":357:474   */\n      pop\n        /* \"#utility.yul\":152:481   */\n      swap3\n      swap2\n      pop\n      pop\n      jump\t// out\n        /* \"#utility.yul\":487:605   */\n    tag_29:\n        /* \"#utility.yul\":574:598   */\n      tag_31\n        /* \"#utility.yul\":592:597   */\n      dup2\n        /* \"#utility.yul\":574:598   */\n      tag_32\n      jump\t// in\n    tag_31:\n        /* \"#utility.yul\":569:572   */\n      dup3\n        /* \"#utility.yul\":562:599   */\n      mstore\n        /* \"#utility.yul\":487:605   */\n      pop\n      pop\n      jump\t// out\n        /* \"#utility.yul\":611:758   */\n    tag_33:\n        /* \"#utility.yul\":706:751   */\n      tag_35\n        /* \"#utility.yul\":745:750   */\n      dup2\n        /* \"#utility.yul\":706:751   */\n      tag_36\n      jump\t// in\n    tag_35:\n        /* \"#utility.yul\":701:704   */\n      dup3\n        /* \"#utility.yul\":694:752   */\n      mstore\n        /* \"#utility.yul\":611:758   */\n      pop\n      pop\n      jump\t// out\n        /* \"#utility.yul\":764:911   */\n    tag_37:\n        /* \"#utility.yul\":859:904   */\n      tag_39\n        /* \"#utility.yul\":898:903   */\n      dup2\n        /* \"#utility.yul\":859:904   */\n      tag_40\n      jump\t// in\n    tag_39:\n        /* \"#utility.yul\":854:857   */\n      dup3\n        /* \"#utility.yul\":847:905   */\n      mstore\n        /* \"#utility.yul\":764:911   */\n      pop\n      pop\n      jump\t// out\n        /* \"#utility.yul\":917:1139   */\n    tag_10:\n        /* \"#utility.yul\":1010:1014   */\n      0x00\n        /* \"#utility.yul\":1048:1050   */\n      0x20\n        /* \"#utility.yul\":1037:1046   */\n      dup3\n        /* \"#utility.yul\":1033:1051   */\n      add\n        /* \"#utility.yul\":1025:1051   */\n      swap1\n      pop\n        /* \"#utility.yul\":1061:1132   */\n      tag_42\n        /* \"#utility.yul\":1129:1130   */\n      0x00\n        /* \"#utility.yul\":1118:1127   */\n      dup4\n        /* \"#utility.yul\":1114:1131   */\n      add\n        /* \"#utility.yul\":1105:1111   */\n      dup5\n        /* \"#utility.yul\":1061:1132   */\n      tag_29\n      jump\t// in\n    tag_42:\n        /* \"#utility.yul\":917:1139   */\n      swap3\n      swap2\n      pop\n      pop\n      jump\t// out\n        /* \"#utility.yul\":1145:1619   */\n    tag_17:\n        /* \"#utility.yul\":1310:1314   */\n      0x00\n        /* \"#utility.yul\":1348:1350   */\n      0x60\n        /* \"#utility.yul\":1337:1346   */\n      dup3\n        /* \"#utility.yul\":1333:1351   */\n      add\n        /* \"#utility.yul\":1325:1351   */\n      swap1\n      pop\n        /* \"#utility.yul\":1361:1432   */\n      tag_44\n        /* \"#utility.yul\":1429:1430   */\n      0x00\n        /* \"#utility.yul\":1418:1427   */\n      dup4\n        /* \"#utility.yul\":1414:1431   */\n      add\n        /* \"#utility.yul\":1405:1411   */\n      dup7\n        /* \"#utility.yul\":1361:1432   */\n      tag_29\n      jump\t// in\n    tag_44:\n        /* \"#utility.yul\":1442:1522   */\n      tag_45\n        /* \"#utility.yul\":1518:1520   */\n      0x20\n        /* \"#utility.yul\":1507:1516   */\n      dup4\n        /* \"#utility.yul\":1503:1521   */\n      add\n        /* \"#utility.yul\":1494:1500   */\n      dup6\n        /* \"#utility.yul\":1442:1522   */\n      tag_33\n      jump\t// in\n    tag_45:\n        /* \"#utility.yul\":1532:1612   */\n      tag_46\n        /* \"#utility.yul\":1608:1610   */\n      0x40\n        /* \"#utility.yul\":1597:1606   */\n      dup4\n        /* \"#utility.yul\":1593:1611   */\n      add\n        /* \"#utility.yul\":1584:1590   */\n      dup5\n        /* \"#utility.yul\":1532:1612   */\n      tag_37\n      jump\t// in\n    tag_46:\n        /* \"#utility.yul\":1145:1619   */\n      swap5\n      swap4\n      pop\n      pop\n      pop\n      pop\n      jump\t// out\n        /* \"#utility.yul\":1706:1802   */\n    tag_32:\n        /* \"#utility.yul\":1743:1750   */\n      0x00\n        /* \"#utility.yul\":1772:1796   */\n      tag_50\n        /* \"#utility.yul\":1790:1795   */\n      dup3\n        /* \"#utility.yul\":1772:1796   */\n      tag_51\n      jump\t// in\n    tag_50:\n        /* \"#utility.yul\":1761:1796   */\n      swap1\n      pop\n        /* \"#utility.yul\":1706:1802   */\n      swap2\n      swap1\n      pop\n      jump\t// out\n        /* \"#utility.yul\":1808:1934   */\n    tag_51:\n        /* \"#utility.yul\":1845:1852   */\n      0x00\n        /* \"#utility.yul\":1885:1927   */\n      0xffffffffffffffffffffffffffffffffffffffff\n        /* \"#utility.yul\":1878:1883   */\n      dup3\n        /* \"#utility.yul\":1874:1928   */\n      and\n        /* \"#utility.yul\":1863:1928   */\n      swap1\n      pop\n        /* \"#utility.yul\":1808:1934   */\n      swap2\n      swap1\n      pop\n      jump\t// out\n        /* \"#utility.yul\":1940:2017   */\n    tag_53:\n        /* \"#utility.yul\":1977:1984   */\n      0x00\n        /* \"#utility.yul\":2006:2011   */\n      dup2\n        /* \"#utility.yul\":1995:2011   */\n      swap1\n      pop\n        /* \"#utility.yul\":1940:2017   */\n      swap2\n      swap1\n      pop\n      jump\t// out\n        /* \"#utility.yul\":2023:2144   */\n    tag_36:\n        /* \"#utility.yul\":2081:2090   */\n      0x00\n        /* \"#utility.yul\":2114:2138   */\n      tag_56\n        /* \"#utility.yul\":2132:2137   */\n      dup3\n        /* \"#utility.yul\":2114:2138   */\n      tag_53\n      jump\t// in\n    tag_56:\n        /* \"#utility.yul\":2101:2138   */\n      swap1\n      pop\n        /* \"#utility.yul\":2023:2144   */\n      swap2\n      swap1\n      pop\n      jump\t// out\n        /* \"#utility.yul\":2150:2271   */\n    tag_40:\n        /* \"#utility.yul\":2208:2217   */\n      0x00\n        /* \"#utility.yul\":2241:2265   */\n      tag_58\n        /* \"#utility.yul\":2259:2264   */\n      dup3\n        /* \"#utility.yul\":2241:2265   */\n      tag_53\n      jump\t// in\n    tag_58:\n        /* \"#utility.yul\":2228:2265   */\n      swap1\n      pop\n        /* \"#utility.yul\":2150:2271   */\n      swap2\n      swap1\n      pop\n      jump\t// out\n        /* \"#utility.yul\":2400:2517   */\n    tag_27:\n        /* \"#utility.yul\":2509:2510   */\n      0x00\n        /* \"#utility.yul\":2506:2507   */\n      dup1\n        /* \"#utility.yul\":2499:2511   */\n      revert\n        /* \"#utility.yul\":2523:2645   */\n    tag_23:\n        /* \"#utility.yul\":2596:2620   */\n      tag_63\n        /* \"#utility.yul\":2614:2619   */\n      dup2\n        /* \"#utility.yul\":2596:2620   */\n      tag_32\n      jump\t// in\n    tag_63:\n        /* \"#utility.yul\":2589:2594   */\n      dup2\n        /* \"#utility.yul\":2586:2621   */\n      eq\n        /* \"#utility.yul\":2576:2639   */\n      tag_64\n      jumpi\n        /* \"#utility.yul\":2635:2636   */\n      0x00\n        /* \"#utility.yul\":2632:2633   */\n      dup1\n        /* \"#utility.yul\":2625:2637   */\n      revert\n        /* \"#utility.yul\":2576:2639   */\n    tag_64:\n        /* \"#utility.yul\":2523:2645   */\n      pop\n      jump\t// out\n    stop\n\n    sub_0: assembly {\n            /* \"Pruebas y Primeros pasos/factory.sol\":446:786  contract SmartContract2 {... */\n          mstore(0x40, 0x80)\n            /* \"Pruebas y Primeros pasos/factory.sol\":536:637  constructor (address _direccion, uint a, uint b) public {... */\n          callvalue\n          dup1\n          iszero\n          tag_1\n          jumpi\n          0x00\n          dup1\n          revert\n        tag_1:\n          pop\n          mload(0x40)\n          sub(codesize, bytecodeSize)\n          dup1\n          bytecodeSize\n          dup4\n          codecopy\n          dup2\n          dup2\n          add\n          0x40\n          mstore\n          dup2\n          add\n          swap1\n          tag_2\n          swap2\n          swap1\n          tag_3\n          jump\t// in\n        tag_2:\n            /* \"Pruebas y Primeros pasos/factory.sol\":611:621  _direccion */\n          dup3\n            /* \"Pruebas y Primeros pasos/factory.sol\":602:608  owneer */\n          0x00\n          dup1\n            /* \"Pruebas y Primeros pasos/factory.sol\":602:621  owneer = _direccion */\n          0x0100\n          exp\n          dup2\n          sload\n          dup2\n          0xffffffffffffffffffffffffffffffffffffffff\n          mul\n          not\n          and\n          swap1\n          dup4\n          0xffffffffffffffffffffffffffffffffffffffff\n          and\n          mul\n          or\n          swap1\n          sstore\n          pop\n            /* \"Pruebas y Primeros pasos/factory.sol\":536:637  constructor (address _direccion, uint a, uint b) public {... */\n          pop\n          pop\n          pop\n            /* \"Pruebas y Primeros pasos/factory.sol\":446:786  contract SmartContract2 {... */\n          jump(tag_6)\n            /* \"#utility.yul\":7:150   */\n        tag_8:\n            /* \"#utility.yul\":64:69   */\n          0x00\n            /* \"#utility.yul\":95:101   */\n          dup2\n            /* \"#utility.yul\":89:102   */\n          mload\n            /* \"#utility.yul\":80:102   */\n          swap1\n          pop\n            /* \"#utility.yul\":111:144   */\n          tag_10\n            /* \"#utility.yul\":138:143   */\n          dup2\n            /* \"#utility.yul\":111:144   */\n          tag_11\n          jump\t// in\n        tag_10:\n            /* \"#utility.yul\":7:150   */\n          swap3\n          swap2\n          pop\n          pop\n          jump\t// out\n            /* \"#utility.yul\":156:299   */\n        tag_12:\n            /* \"#utility.yul\":213:218   */\n          0x00\n            /* \"#utility.yul\":244:250   */\n          dup2\n            /* \"#utility.yul\":238:251   */\n          mload\n            /* \"#utility.yul\":229:251   */\n          swap1\n          pop\n            /* \"#utility.yul\":260:293   */\n          tag_14\n            /* \"#utility.yul\":287:292   */\n          dup2\n            /* \"#utility.yul\":260:293   */\n          tag_15\n          jump\t// in\n        tag_14:\n            /* \"#utility.yul\":156:299   */\n          swap3\n          swap2\n          pop\n          pop\n          jump\t// out\n            /* \"#utility.yul\":305:968   */\n        tag_3:\n            /* \"#utility.yul\":393:399   */\n          0x00\n            /* \"#utility.yul\":401:407   */\n          dup1\n            /* \"#utility.yul\":409:415   */\n          0x00\n            /* \"#utility.yul\":458:460   */\n          0x60\n            /* \"#utility.yul\":446:455   */\n          dup5\n            /* \"#utility.yul\":437:444   */\n          dup7\n            /* \"#utility.yul\":433:456   */\n          sub\n            /* \"#utility.yul\":429:461   */\n          slt\n            /* \"#utility.yul\":426:545   */\n          iszero\n          tag_17\n          jumpi\n            /* \"#utility.yul\":464:543   */\n          tag_18\n          tag_19\n          jump\t// in\n        tag_18:\n            /* \"#utility.yul\":426:545   */\n        tag_17:\n            /* \"#utility.yul\":584:585   */\n          0x00\n            /* \"#utility.yul\":609:673   */\n          tag_20\n            /* \"#utility.yul\":665:672   */\n          dup7\n            /* \"#utility.yul\":656:662   */\n          dup3\n            /* \"#utility.yul\":645:654   */\n          dup8\n            /* \"#utility.yul\":641:663   */\n          add\n            /* \"#utility.yul\":609:673   */\n          tag_8\n          jump\t// in\n        tag_20:\n            /* \"#utility.yul\":599:673   */\n          swap4\n          pop\n            /* \"#utility.yul\":555:683   */\n          pop\n            /* \"#utility.yul\":722:724   */\n          0x20\n            /* \"#utility.yul\":748:812   */\n          tag_21\n            /* \"#utility.yul\":804:811   */\n          dup7\n            /* \"#utility.yul\":795:801   */\n          dup3\n            /* \"#utility.yul\":784:793   */\n          dup8\n            /* \"#utility.yul\":780:802   */\n          add\n            /* \"#utility.yul\":748:812   */\n          tag_12\n          jump\t// in\n        tag_21:\n            /* \"#utility.yul\":738:812   */\n          swap3\n          pop\n            /* \"#utility.yul\":693:822   */\n          pop\n            /* \"#utility.yul\":861:863   */\n          0x40\n            /* \"#utility.yul\":887:951   */\n          tag_22\n            /* \"#utility.yul\":943:950   */\n          dup7\n            /* \"#utility.yul\":934:940   */\n          dup3\n            /* \"#utility.yul\":923:932   */\n          dup8\n            /* \"#utility.yul\":919:941   */\n          add\n            /* \"#utility.yul\":887:951   */\n          tag_12\n          jump\t// in\n        tag_22:\n            /* \"#utility.yul\":877:951   */\n          swap2\n          pop\n            /* \"#utility.yul\":832:961   */\n          pop\n            /* \"#utility.yul\":305:968   */\n          swap3\n          pop\n          swap3\n          pop\n          swap3\n          jump\t// out\n            /* \"#utility.yul\":1055:1151   */\n        tag_25:\n            /* \"#utility.yul\":1092:1099   */\n          0x00\n            /* \"#utility.yul\":1121:1145   */\n          tag_27\n            /* \"#utility.yul\":1139:1144   */\n          dup3\n            /* \"#utility.yul\":1121:1145   */\n          tag_28\n          jump\t// in\n        tag_27:\n            /* \"#utility.yul\":1110:1145   */\n          swap1\n          pop\n            /* \"#utility.yul\":1055:1151   */\n          swap2\n          swap1\n          pop\n          jump\t// out\n            /* \"#utility.yul\":1157:1283   */\n        tag_28:\n            /* \"#utility.yul\":1194:1201   */\n          0x00\n            /* \"#utility.yul\":1234:1276   */\n          0xffffffffffffffffffffffffffffffffffffffff\n            /* \"#utility.yul\":1227:1232   */\n          dup3\n            /* \"#utility.yul\":1223:1277   */\n          and\n            /* \"#utility.yul\":1212:1277   */\n          swap1\n          pop\n            /* \"#utility.yul\":1157:1283   */\n          swap2\n          swap1\n          pop\n          jump\t// out\n            /* \"#utility.yul\":1289:1366   */\n        tag_30:\n            /* \"#utility.yul\":1326:1333   */\n          0x00\n            /* \"#utility.yul\":1355:1360   */\n          dup2\n            /* \"#utility.yul\":1344:1360   */\n          swap1\n          pop\n            /* \"#utility.yul\":1289:1366   */\n          swap2\n          swap1\n          pop\n          jump\t// out\n            /* \"#utility.yul\":1495:1612   */\n        tag_19:\n            /* \"#utility.yul\":1604:1605   */\n          0x00\n            /* \"#utility.yul\":1601:1602   */\n          dup1\n            /* \"#utility.yul\":1594:1606   */\n          revert\n            /* \"#utility.yul\":1618:1740   */\n        tag_11:\n            /* \"#utility.yul\":1691:1715   */\n          tag_36\n            /* \"#utility.yul\":1709:1714   */\n          dup2\n            /* \"#utility.yul\":1691:1715   */\n          tag_25\n          jump\t// in\n        tag_36:\n            /* \"#utility.yul\":1684:1689   */\n          dup2\n            /* \"#utility.yul\":1681:1716   */\n          eq\n            /* \"#utility.yul\":1671:1734   */\n          tag_37\n          jumpi\n            /* \"#utility.yul\":1730:1731   */\n          0x00\n            /* \"#utility.yul\":1727:1728   */\n          dup1\n            /* \"#utility.yul\":1720:1732   */\n          revert\n            /* \"#utility.yul\":1671:1734   */\n        tag_37:\n            /* \"#utility.yul\":1618:1740   */\n          pop\n          jump\t// out\n            /* \"#utility.yul\":1746:1868   */\n        tag_15:\n            /* \"#utility.yul\":1819:1843   */\n          tag_39\n            /* \"#utility.yul\":1837:1842   */\n          dup2\n            /* \"#utility.yul\":1819:1843   */\n          tag_30\n          jump\t// in\n        tag_39:\n            /* \"#utility.yul\":1812:1817   */\n          dup2\n            /* \"#utility.yul\":1809:1844   */\n          eq\n            /* \"#utility.yul\":1799:1862   */\n          tag_40\n          jumpi\n            /* \"#utility.yul\":1858:1859   */\n          0x00\n            /* \"#utility.yul\":1855:1856   */\n          dup1\n            /* \"#utility.yul\":1848:1860   */\n          revert\n            /* \"#utility.yul\":1799:1862   */\n        tag_40:\n            /* \"#utility.yul\":1746:1868   */\n          pop\n          jump\t// out\n            /* \"Pruebas y Primeros pasos/factory.sol\":446:786  contract SmartContract2 {... */\n        tag_6:\n          dataSize(sub_0)\n          dup1\n          dataOffset(sub_0)\n          0x00\n          codecopy\n          0x00\n          return\n        stop\n\n        sub_0: assembly {\n                /* \"Pruebas y Primeros pasos/factory.sol\":446:786  contract SmartContract2 {... */\n              mstore(0x40, 0x80)\n              callvalue\n              dup1\n              iszero\n              tag_1\n              jumpi\n              0x00\n              dup1\n              revert\n            tag_1:\n              pop\n              jumpi(tag_2, lt(calldatasize, 0x04))\n              shr(0xe0, calldataload(0x00))\n              dup1\n              0x1d69ed17\n              eq\n              tag_3\n              jumpi\n              dup1\n              0xb1b45b1b\n              eq\n              tag_4\n              jumpi\n            tag_2:\n              0x00\n              dup1\n              revert\n                /* \"Pruebas y Primeros pasos/factory.sol\":481:502  address public owneer */\n            tag_3:\n              tag_5\n              tag_6\n              jump\t// in\n            tag_5:\n              mload(0x40)\n              tag_7\n              swap2\n              swap1\n              tag_8\n              jump\t// in\n            tag_7:\n              mload(0x40)\n              dup1\n              swap2\n              sub\n              swap1\n              return\n                /* \"Pruebas y Primeros pasos/factory.sol\":662:779  function suma(uint a, uint b) public returns(int){... */\n            tag_4:\n              tag_9\n              0x04\n              dup1\n              calldatasize\n              sub\n              dup2\n              add\n              swap1\n              tag_10\n              swap2\n              swap1\n              tag_11\n              jump\t// in\n            tag_10:\n              tag_12\n              jump\t// in\n            tag_9:\n              mload(0x40)\n              tag_13\n              swap2\n              swap1\n              tag_14\n              jump\t// in\n            tag_13:\n              mload(0x40)\n              dup1\n              swap2\n              sub\n              swap1\n              return\n                /* \"Pruebas y Primeros pasos/factory.sol\":481:502  address public owneer */\n            tag_6:\n              0x00\n              dup1\n              sload\n              swap1\n              0x0100\n              exp\n              swap1\n              div\n              0xffffffffffffffffffffffffffffffffffffffff\n              and\n              dup2\n              jump\t// out\n                /* \"Pruebas y Primeros pasos/factory.sol\":662:779  function suma(uint a, uint b) public returns(int){... */\n            tag_12:\n                /* \"Pruebas y Primeros pasos/factory.sol\":707:710  int */\n              0x00\n                /* \"Pruebas y Primeros pasos/factory.sol\":744:745  b */\n              dup2\n                /* \"Pruebas y Primeros pasos/factory.sol\":737:738  a */\n              dup4\n                /* \"Pruebas y Primeros pasos/factory.sol\":733:746  int(a)-int(b) */\n              tag_16\n              swap2\n              swap1\n              tag_17\n              jump\t// in\n            tag_16:\n                /* \"Pruebas y Primeros pasos/factory.sol\":721:730  resultado */\n              0x03\n                /* \"Pruebas y Primeros pasos/factory.sol\":721:746  resultado = int(a)-int(b) */\n              dup2\n              swap1\n              sstore\n              pop\n                /* \"Pruebas y Primeros pasos/factory.sol\":763:772  resultado */\n              sload(0x03)\n                /* \"Pruebas y Primeros pasos/factory.sol\":756:772  return resultado */\n              swap1\n              pop\n                /* \"Pruebas y Primeros pasos/factory.sol\":662:779  function suma(uint a, uint b) public returns(int){... */\n              swap3\n              swap2\n              pop\n              pop\n              jump\t// out\n                /* \"#utility.yul\":7:146   */\n            tag_19:\n                /* \"#utility.yul\":53:58   */\n              0x00\n                /* \"#utility.yul\":91:97   */\n              dup2\n                /* \"#utility.yul\":78:98   */\n              calldataload\n                /* \"#utility.yul\":69:98   */\n              swap1\n              pop\n                /* \"#utility.yul\":107:140   */\n              tag_21\n                /* \"#utility.yul\":134:139   */\n              dup2\n                /* \"#utility.yul\":107:140   */\n              tag_22\n              jump\t// in\n            tag_21:\n                /* \"#utility.yul\":7:146   */\n              swap3\n              swap2\n              pop\n              pop\n              jump\t// out\n                /* \"#utility.yul\":152:626   */\n            tag_11:\n                /* \"#utility.yul\":220:226   */\n              0x00\n                /* \"#utility.yul\":228:234   */\n              dup1\n                /* \"#utility.yul\":277:279   */\n              0x40\n                /* \"#utility.yul\":265:274   */\n              dup4\n                /* \"#utility.yul\":256:263   */\n              dup6\n                /* \"#utility.yul\":252:275   */\n              sub\n                /* \"#utility.yul\":248:280   */\n              slt\n                /* \"#utility.yul\":245:364   */\n              iszero\n              tag_24\n              jumpi\n                /* \"#utility.yul\":283:362   */\n              tag_25\n              tag_26\n              jump\t// in\n            tag_25:\n                /* \"#utility.yul\":245:364   */\n            tag_24:\n                /* \"#utility.yul\":403:404   */\n              0x00\n                /* \"#utility.yul\":428:481   */\n              tag_27\n                /* \"#utility.yul\":473:480   */\n              dup6\n                /* \"#utility.yul\":464:470   */\n              dup3\n                /* \"#utility.yul\":453:462   */\n              dup7\n                /* \"#utility.yul\":449:471   */\n              add\n                /* \"#utility.yul\":428:481   */\n              tag_19\n              jump\t// in\n            tag_27:\n                /* \"#utility.yul\":418:481   */\n              swap3\n              pop\n                /* \"#utility.yul\":374:491   */\n              pop\n                /* \"#utility.yul\":530:532   */\n              0x20\n                /* \"#utility.yul\":556:609   */\n              tag_28\n                /* \"#utility.yul\":601:608   */\n              dup6\n                /* \"#utility.yul\":592:598   */\n              dup3\n                /* \"#utility.yul\":581:590   */\n              dup7\n                /* \"#utility.yul\":577:599   */\n              add\n                /* \"#utility.yul\":556:609   */\n              tag_19\n              jump\t// in\n            tag_28:\n                /* \"#utility.yul\":546:609   */\n              swap2\n              pop\n                /* \"#utility.yul\":501:619   */\n              pop\n                /* \"#utility.yul\":152:626   */\n              swap3\n              pop\n              swap3\n              swap1\n              pop\n              jump\t// out\n                /* \"#utility.yul\":632:750   */\n            tag_29:\n                /* \"#utility.yul\":719:743   */\n              tag_31\n                /* \"#utility.yul\":737:742   */\n              dup2\n                /* \"#utility.yul\":719:743   */\n              tag_32\n              jump\t// in\n            tag_31:\n                /* \"#utility.yul\":714:717   */\n              dup3\n                /* \"#utility.yul\":707:744   */\n              mstore\n                /* \"#utility.yul\":632:750   */\n              pop\n              pop\n              jump\t// out\n                /* \"#utility.yul\":756:871   */\n            tag_33:\n                /* \"#utility.yul\":841:864   */\n              tag_35\n                /* \"#utility.yul\":858:863   */\n              dup2\n                /* \"#utility.yul\":841:864   */\n              tag_36\n              jump\t// in\n            tag_35:\n                /* \"#utility.yul\":836:839   */\n              dup3\n                /* \"#utility.yul\":829:865   */\n              mstore\n                /* \"#utility.yul\":756:871   */\n              pop\n              pop\n              jump\t// out\n                /* \"#utility.yul\":877:1099   */\n            tag_8:\n                /* \"#utility.yul\":970:974   */\n              0x00\n                /* \"#utility.yul\":1008:1010   */\n              0x20\n                /* \"#utility.yul\":997:1006   */\n              dup3\n                /* \"#utility.yul\":993:1011   */\n              add\n                /* \"#utility.yul\":985:1011   */\n              swap1\n              pop\n                /* \"#utility.yul\":1021:1092   */\n              tag_38\n                /* \"#utility.yul\":1089:1090   */\n              0x00\n                /* \"#utility.yul\":1078:1087   */\n              dup4\n                /* \"#utility.yul\":1074:1091   */\n              add\n                /* \"#utility.yul\":1065:1071   */\n              dup5\n                /* \"#utility.yul\":1021:1092   */\n              tag_29\n              jump\t// in\n            tag_38:\n                /* \"#utility.yul\":877:1099   */\n              swap3\n              swap2\n              pop\n              pop\n              jump\t// out\n                /* \"#utility.yul\":1105:1323   */\n            tag_14:\n                /* \"#utility.yul\":1196:1200   */\n              0x00\n                /* \"#utility.yul\":1234:1236   */\n              0x20\n                /* \"#utility.yul\":1223:1232   */\n              dup3\n                /* \"#utility.yul\":1219:1237   */\n              add\n                /* \"#utility.yul\":1211:1237   */\n              swap1\n              pop\n                /* \"#utility.yul\":1247:1316   */\n              tag_40\n                /* \"#utility.yul\":1313:1314   */\n              0x00\n                /* \"#utility.yul\":1302:1311   */\n              dup4\n                /* \"#utility.yul\":1298:1315   */\n              add\n                /* \"#utility.yul\":1289:1295   */\n              dup5\n                /* \"#utility.yul\":1247:1316   */\n              tag_33\n              jump\t// in\n            tag_40:\n                /* \"#utility.yul\":1105:1323   */\n              swap3\n              swap2\n              pop\n              pop\n              jump\t// out\n                /* \"#utility.yul\":1410:1937   */\n            tag_17:\n                /* \"#utility.yul\":1449:1453   */\n              0x00\n                /* \"#utility.yul\":1469:1488   */\n              tag_44\n                /* \"#utility.yul\":1486:1487   */\n              dup3\n                /* \"#utility.yul\":1469:1488   */\n              tag_36\n              jump\t// in\n            tag_44:\n                /* \"#utility.yul\":1464:1488   */\n              swap2\n              pop\n                /* \"#utility.yul\":1502:1521   */\n              tag_45\n                /* \"#utility.yul\":1519:1520   */\n              dup4\n                /* \"#utility.yul\":1502:1521   */\n              tag_36\n              jump\t// in\n            tag_45:\n                /* \"#utility.yul\":1497:1521   */\n              swap3\n              pop\n                /* \"#utility.yul\":1691:1692   */\n              dup3\n                /* \"#utility.yul\":1623:1689   */\n              0x8000000000000000000000000000000000000000000000000000000000000000\n                /* \"#utility.yul\":1619:1693   */\n              add\n                /* \"#utility.yul\":1616:1617   */\n              dup3\n                /* \"#utility.yul\":1612:1694   */\n              slt\n                /* \"#utility.yul\":1607:1608   */\n              0x00\n                /* \"#utility.yul\":1604:1605   */\n              dup5\n                /* \"#utility.yul\":1600:1609   */\n              slt\n                /* \"#utility.yul\":1593:1610   */\n              iszero\n                /* \"#utility.yul\":1589:1695   */\n              and\n                /* \"#utility.yul\":1586:1718   */\n              iszero\n              tag_46\n              jumpi\n                /* \"#utility.yul\":1698:1716   */\n              tag_47\n              tag_48\n              jump\t// in\n            tag_47:\n                /* \"#utility.yul\":1586:1718   */\n            tag_46:\n                /* \"#utility.yul\":1877:1878   */\n              dup3\n                /* \"#utility.yul\":1809:1875   */\n              0x7fffffffffffffffffffffffffffffffffffffffffffffffffffffffffffffff\n                /* \"#utility.yul\":1805:1879   */\n              add\n                /* \"#utility.yul\":1802:1803   */\n              dup3\n                /* \"#utility.yul\":1798:1880   */\n              sgt\n                /* \"#utility.yul\":1794:1795   */\n              0x00\n                /* \"#utility.yul\":1791:1792   */\n              dup5\n                /* \"#utility.yul\":1787:1796   */\n              slt\n                /* \"#utility.yul\":1783:1881   */\n              and\n                /* \"#utility.yul\":1780:1904   */\n              iszero\n              tag_49\n              jumpi\n                /* \"#utility.yul\":1884:1902   */\n              tag_50\n              tag_48\n              jump\t// in\n            tag_50:\n                /* \"#utility.yul\":1780:1904   */\n            tag_49:\n                /* \"#utility.yul\":1929:1930   */\n              dup3\n                /* \"#utility.yul\":1926:1927   */\n              dup3\n                /* \"#utility.yul\":1922:1931   */\n              sub\n                /* \"#utility.yul\":1914:1931   */\n              swap1\n              pop\n                /* \"#utility.yul\":1410:1937   */\n              swap3\n              swap2\n              pop\n              pop\n              jump\t// out\n                /* \"#utility.yul\":1943:2039   */\n            tag_32:\n                /* \"#utility.yul\":1980:1987   */\n              0x00\n                /* \"#utility.yul\":2009:2033   */\n              tag_52\n                /* \"#utility.yul\":2027:2032   */\n              dup3\n                /* \"#utility.yul\":2009:2033   */\n              tag_53\n              jump\t// in\n            tag_52:\n                /* \"#utility.yul\":1998:2033   */\n              swap1\n              pop\n                /* \"#utility.yul\":1943:2039   */\n              swap2\n              swap1\n              pop\n              jump\t// out\n                /* \"#utility.yul\":2045:2121   */\n            tag_36:\n                /* \"#utility.yul\":2081:2088   */\n              0x00\n                /* \"#utility.yul\":2110:2115   */\n              dup2\n                /* \"#utility.yul\":2099:2115   */\n              swap1\n              pop\n                /* \"#utility.yul\":2045:2121   */\n              swap2\n              swap1\n              pop\n              jump\t// out\n                /* \"#utility.yul\":2127:2253   */\n            tag_53:\n                /* \"#utility.yul\":2164:2171   */\n              0x00\n                /* \"#utility.yul\":2204:2246   */\n              0xffffffffffffffffffffffffffffffffffffffff\n                /* \"#utility.yul\":2197:2202   */\n              dup3\n                /* \"#utility.yul\":2193:2247   */\n              and\n                /* \"#utility.yul\":2182:2247   */\n              swap1\n              pop\n                /* \"#utility.yul\":2127:2253   */\n              swap2\n              swap1\n              pop\n              jump\t// out\n                /* \"#utility.yul\":2259:2336   */\n            tag_56:\n                /* \"#utility.yul\":2296:2303   */\n              0x00\n                /* \"#utility.yul\":2325:2330   */\n              dup2\n                /* \"#utility.yul\":2314:2330   */\n              swap1\n              pop\n                /* \"#utility.yul\":2259:2336   */\n              swap2\n              swap1\n              pop\n              jump\t// out\n                /* \"#utility.yul\":2342:2522   */\n            tag_48:\n                /* \"#utility.yul\":2390:2467   */\n              0x4e487b7100000000000000000000000000000000000000000000000000000000\n                /* \"#utility.yul\":2387:2388   */\n              0x00\n                /* \"#utility.yul\":2380:2468   */\n              mstore\n                /* \"#utility.yul\":2487:2491   */\n              0x11\n                /* \"#utility.yul\":2484:2485   */\n              0x04\n                /* \"#utility.yul\":2477:2492   */\n              mstore\n                /* \"#utility.yul\":2511:2515   */\n              0x24\n                /* \"#utility.yul\":2508:2509   */\n              0x00\n                /* \"#utility.yul\":2501:2516   */\n              revert\n                /* \"#utility.yul\":2651:2768   */\n            tag_26:\n                /* \"#utility.yul\":2760:2761   */\n              0x00\n                /* \"#utility.yul\":2757:2758   */\n              dup1\n                /* \"#utility.yul\":2750:2762   */\n              revert\n                /* \"#utility.yul\":2774:2896   */\n            tag_22:\n                /* \"#utility.yul\":2847:2871   */\n              tag_63\n                /* \"#utility.yul\":2865:2870   */\n              dup2\n                /* \"#utility.yul\":2847:2871   */\n              tag_56\n              jump\t// in\n            tag_63:\n                /* \"#utility.yul\":2840:2845   */\n              dup2\n                /* \"#utility.yul\":2837:2872   */\n              eq\n                /* \"#utility.yul\":2827:2890   */\n              tag_64\n              jumpi\n                /* \"#utility.yul\":2886:2887   */\n              0x00\n                /* \"#utility.yul\":2883:2884   */\n              dup1\n                /* \"#utility.yul\":2876:2888   */\n              revert\n                /* \"#utility.yul\":2827:2890   */\n            tag_64:\n                /* \"#utility.yul\":2774:2896   */\n              pop\n              jump\t// out\n\n            auxdata: 0xa2646970667358221220184bab17c709374de7c2a89adb2dce2ae557d34c288c18d6ea6b4dc21185e01064736f6c63430008070033\n        }\n    }\n\n    auxdata: 0xa26469706673582212206e20f88b5ca1d62ba7c379266517d41636fe0d69ff9eda86adfe22787d8de69064736f6c63430008070033\n}\n",
				"bytecode": {
					"linkReferences": {},
					"object": "608060405234801561001057600080fd5b5061072b806100206000396000f3fe608060405234801561001057600080fd5b50600436106100365760003560e01c80631b03b2c91461003b578063c83dd2311461006b575b600080fd5b61005560048036038101906100509190610188565b610075565b60405161006291906101e2565b60405180910390f35b6100736100a8565b005b60006020528060005260406000206000915054906101000a900473ffffffffffffffffffffffffffffffffffffffff1681565b600033600460056040516100bb90610166565b6100c7939291906101fd565b604051809103906000f0801580156100e3573d6000803e3d6000fd5b509050806000803373ffffffffffffffffffffffffffffffffffffffff1673ffffffffffffffffffffffffffffffffffffffff16815260200190815260200160002060006101000a81548173ffffffffffffffffffffffffffffffffffffffff021916908373ffffffffffffffffffffffffffffffffffffffff16021790555050565b610445806102b183390190565b60008135905061018281610299565b92915050565b60006020828403121561019e5761019d610294565b5b60006101ac84828501610173565b91505092915050565b6101be81610234565b82525050565b6101cd81610270565b82525050565b6101dc81610282565b82525050565b60006020820190506101f760008301846101b5565b92915050565b600060608201905061021260008301866101b5565b61021f60208301856101c4565b61022c60408301846101d3565b949350505050565b600061023f82610246565b9050919050565b600073ffffffffffffffffffffffffffffffffffffffff82169050919050565b6000819050919050565b600061027b82610266565b9050919050565b600061028d82610266565b9050919050565b600080fd5b6102a281610234565b81146102ad57600080fd5b5056fe608060405234801561001057600080fd5b50604051610445380380610445833981810160405281019061003291906100a4565b826000806101000a81548173ffffffffffffffffffffffffffffffffffffffff021916908373ffffffffffffffffffffffffffffffffffffffff160217905550505050610166565b60008151905061008981610138565b92915050565b60008151905061009e8161014f565b92915050565b6000806000606084860312156100bd576100bc610133565b5b60006100cb8682870161007a565b93505060206100dc8682870161008f565b92505060406100ed8682870161008f565b9150509250925092565b600061010282610109565b9050919050565b600073ffffffffffffffffffffffffffffffffffffffff82169050919050565b6000819050919050565b600080fd5b610141816100f7565b811461014c57600080fd5b50565b61015881610129565b811461016357600080fd5b50565b6102d0806101756000396000f3fe608060405234801561001057600080fd5b50600436106100365760003560e01c80631d69ed171461003b578063b1b45b1b14610059575b600080fd5b610043610089565b604051610050919061013f565b60405180910390f35b610073600480360381019061006e91906100e1565b6100ad565b604051610080919061015a565b60405180910390f35b60008054906101000a900473ffffffffffffffffffffffffffffffffffffffff1681565b600081836100bb9190610175565b600381905550600354905092915050565b6000813590506100db81610283565b92915050565b600080604083850312156100f8576100f761027e565b5b6000610106858286016100cc565b9250506020610117858286016100cc565b9150509250929050565b61012a81610209565b82525050565b6101398161021b565b82525050565b60006020820190506101546000830184610121565b92915050565b600060208201905061016f6000830184610130565b92915050565b60006101808261021b565b915061018b8361021b565b9250827f8000000000000000000000000000000000000000000000000000000000000000018212600084121516156101c6576101c561024f565b5b827f7fffffffffffffffffffffffffffffffffffffffffffffffffffffffffffffff0182136000841216156101fe576101fd61024f565b5b828203905092915050565b600061021482610225565b9050919050565b6000819050919050565b600073ffffffffffffffffffffffffffffffffffffffff82169050919050565b6000819050919050565b7f4e487b7100000000000000000000000000000000000000000000000000000000600052601160045260246000fd5b600080fd5b61028c81610245565b811461029757600080fd5b5056fea2646970667358221220184bab17c709374de7c2a89adb2dce2ae557d34c288c18d6ea6b4dc21185e01064736f6c63430008070033a26469706673582212206e20f88b5ca1d62ba7c379266517d41636fe0d69ff9eda86adfe22787d8de69064736f6c63430008070033",
					"opcodes": "PUSH1 0x80 PUSH1 0x40 MSTORE CALLVALUE DUP1 ISZERO PUSH2 0x10 JUMPI PUSH1 0x0 DUP1 REVERT JUMPDEST POP PUSH2 0x72B DUP1 PUSH2 0x20 PUSH1 0x0 CODECOPY PUSH1 0x0 RETURN INVALID PUSH1 0x80 PUSH1 0x40 MSTORE CALLVALUE DUP1 ISZERO PUSH2 0x10 JUMPI PUSH1 0x0 DUP1 REVERT JUMPDEST POP PUSH1 0x4 CALLDATASIZE LT PUSH2 0x36 JUMPI PUSH1 0x0 CALLDATALOAD PUSH1 0xE0 SHR DUP1 PUSH4 0x1B03B2C9 EQ PUSH2 0x3B JUMPI DUP1 PUSH4 0xC83DD231 EQ PUSH2 0x6B JUMPI JUMPDEST PUSH1 0x0 DUP1 REVERT JUMPDEST PUSH2 0x55 PUSH1 0x4 DUP1 CALLDATASIZE SUB DUP2 ADD SWAP1 PUSH2 0x50 SWAP2 SWAP1 PUSH2 0x188 JUMP JUMPDEST PUSH2 0x75 JUMP JUMPDEST PUSH1 0x40 MLOAD PUSH2 0x62 SWAP2 SWAP1 PUSH2 0x1E2 JUMP JUMPDEST PUSH1 0x40 MLOAD DUP1 SWAP2 SUB SWAP1 RETURN JUMPDEST PUSH2 0x73 PUSH2 0xA8 JUMP JUMPDEST STOP JUMPDEST PUSH1 0x0 PUSH1 0x20 MSTORE DUP1 PUSH1 0x0 MSTORE PUSH1 0x40 PUSH1 0x0 KECCAK256 PUSH1 0x0 SWAP2 POP SLOAD SWAP1 PUSH2 0x100 EXP SWAP1 DIV PUSH20 0xFFFFFFFFFFFFFFFFFFFFFFFFFFFFFFFFFFFFFFFF AND DUP2 JUMP JUMPDEST PUSH1 0x0 CALLER PUSH1 0x4 PUSH1 0x5 PUSH1 0x40 MLOAD PUSH2 0xBB SWAP1 PUSH2 0x166 JUMP JUMPDEST PUSH2 0xC7 SWAP4 SWAP3 SWAP2 SWAP1 PUSH2 0x1FD JUMP JUMPDEST PUSH1 0x40 MLOAD DUP1 SWAP2 SUB SWAP1 PUSH1 0x0 CREATE DUP1 ISZERO DUP1 ISZERO PUSH2 0xE3 JUMPI RETURNDATASIZE PUSH1 0x0 DUP1 RETURNDATACOPY RETURNDATASIZE PUSH1 0x0 REVERT JUMPDEST POP SWAP1 POP DUP1 PUSH1 0x0 DUP1 CALLER PUSH20 0xFFFFFFFFFFFFFFFFFFFFFFFFFFFFFFFFFFFFFFFF AND PUSH20 0xFFFFFFFFFFFFFFFFFFFFFFFFFFFFFFFFFFFFFFFF AND DUP2 MSTORE PUSH1 0x20 ADD SWAP1 DUP2 MSTORE PUSH1 0x20 ADD PUSH1 0x0 KECCAK256 PUSH1 0x0 PUSH2 0x100 EXP DUP2 SLOAD DUP2 PUSH20 0xFFFFFFFFFFFFFFFFFFFFFFFFFFFFFFFFFFFFFFFF MUL NOT AND SWAP1 DUP4 PUSH20 0xFFFFFFFFFFFFFFFFFFFFFFFFFFFFFFFFFFFFFFFF AND MUL OR SWAP1 SSTORE POP POP JUMP JUMPDEST PUSH2 0x445 DUP1 PUSH2 0x2B1 DUP4 CODECOPY ADD SWAP1 JUMP JUMPDEST PUSH1 0x0 DUP2 CALLDATALOAD SWAP1 POP PUSH2 0x182 DUP2 PUSH2 0x299 JUMP JUMPDEST SWAP3 SWAP2 POP POP JUMP JUMPDEST PUSH1 0x0 PUSH1 0x20 DUP3 DUP5 SUB SLT ISZERO PUSH2 0x19E JUMPI PUSH2 0x19D PUSH2 0x294 JUMP JUMPDEST JUMPDEST PUSH1 0x0 PUSH2 0x1AC DUP5 DUP3 DUP6 ADD PUSH2 0x173 JUMP JUMPDEST SWAP2 POP POP SWAP3 SWAP2 POP POP JUMP JUMPDEST PUSH2 0x1BE DUP2 PUSH2 0x234 JUMP JUMPDEST DUP3 MSTORE POP POP JUMP JUMPDEST PUSH2 0x1CD DUP2 PUSH2 0x270 JUMP JUMPDEST DUP3 MSTORE POP POP JUMP JUMPDEST PUSH2 0x1DC DUP2 PUSH2 0x282 JUMP JUMPDEST DUP3 MSTORE POP POP JUMP JUMPDEST PUSH1 0x0 PUSH1 0x20 DUP3 ADD SWAP1 POP PUSH2 0x1F7 PUSH1 0x0 DUP4 ADD DUP5 PUSH2 0x1B5 JUMP JUMPDEST SWAP3 SWAP2 POP POP JUMP JUMPDEST PUSH1 0x0 PUSH1 0x60 DUP3 ADD SWAP1 POP PUSH2 0x212 PUSH1 0x0 DUP4 ADD DUP7 PUSH2 0x1B5 JUMP JUMPDEST PUSH2 0x21F PUSH1 0x20 DUP4 ADD DUP6 PUSH2 0x1C4 JUMP JUMPDEST PUSH2 0x22C PUSH1 0x40 DUP4 ADD DUP5 PUSH2 0x1D3 JUMP JUMPDEST SWAP5 SWAP4 POP POP POP POP JUMP JUMPDEST PUSH1 0x0 PUSH2 0x23F DUP3 PUSH2 0x246 JUMP JUMPDEST SWAP1 POP SWAP2 SWAP1 POP JUMP JUMPDEST PUSH1 0x0 PUSH20 0xFFFFFFFFFFFFFFFFFFFFFFFFFFFFFFFFFFFFFFFF DUP3 AND SWAP1 POP SWAP2 SWAP1 POP JUMP JUMPDEST PUSH1 0x0 DUP2 SWAP1 POP SWAP2 SWAP1 POP JUMP JUMPDEST PUSH1 0x0 PUSH2 0x27B DUP3 PUSH2 0x266 JUMP JUMPDEST SWAP1 POP SWAP2 SWAP1 POP JUMP JUMPDEST PUSH1 0x0 PUSH2 0x28D DUP3 PUSH2 0x266 JUMP JUMPDEST SWAP1 POP SWAP2 SWAP1 POP JUMP JUMPDEST PUSH1 0x0 DUP1 REVERT JUMPDEST PUSH2 0x2A2 DUP2 PUSH2 0x234 JUMP JUMPDEST DUP2 EQ PUSH2 0x2AD JUMPI PUSH1 0x0 DUP1 REVERT JUMPDEST POP JUMP INVALID PUSH1 0x80 PUSH1 0x40 MSTORE CALLVALUE DUP1 ISZERO PUSH2 0x10 JUMPI PUSH1 0x0 DUP1 REVERT JUMPDEST POP PUSH1 0x40 MLOAD PUSH2 0x445 CODESIZE SUB DUP1 PUSH2 0x445 DUP4 CODECOPY DUP2 DUP2 ADD PUSH1 0x40 MSTORE DUP2 ADD SWAP1 PUSH2 0x32 SWAP2 SWAP1 PUSH2 0xA4 JUMP JUMPDEST DUP3 PUSH1 0x0 DUP1 PUSH2 0x100 EXP DUP2 SLOAD DUP2 PUSH20 0xFFFFFFFFFFFFFFFFFFFFFFFFFFFFFFFFFFFFFFFF MUL NOT AND SWAP1 DUP4 PUSH20 0xFFFFFFFFFFFFFFFFFFFFFFFFFFFFFFFFFFFFFFFF AND MUL OR SWAP1 SSTORE POP POP POP POP PUSH2 0x166 JUMP JUMPDEST PUSH1 0x0 DUP2 MLOAD SWAP1 POP PUSH2 0x89 DUP2 PUSH2 0x138 JUMP JUMPDEST SWAP3 SWAP2 POP POP JUMP JUMPDEST PUSH1 0x0 DUP2 MLOAD SWAP1 POP PUSH2 0x9E DUP2 PUSH2 0x14F JUMP JUMPDEST SWAP3 SWAP2 POP POP JUMP JUMPDEST PUSH1 0x0 DUP1 PUSH1 0x0 PUSH1 0x60 DUP5 DUP7 SUB SLT ISZERO PUSH2 0xBD JUMPI PUSH2 0xBC PUSH2 0x133 JUMP JUMPDEST JUMPDEST PUSH1 0x0 PUSH2 0xCB DUP7 DUP3 DUP8 ADD PUSH2 0x7A JUMP JUMPDEST SWAP4 POP POP PUSH1 0x20 PUSH2 0xDC DUP7 DUP3 DUP8 ADD PUSH2 0x8F JUMP JUMPDEST SWAP3 POP POP PUSH1 0x40 PUSH2 0xED DUP7 DUP3 DUP8 ADD PUSH2 0x8F JUMP JUMPDEST SWAP2 POP POP SWAP3 POP SWAP3 POP SWAP3 JUMP JUMPDEST PUSH1 0x0 PUSH2 0x102 DUP3 PUSH2 0x109 JUMP JUMPDEST SWAP1 POP SWAP2 SWAP1 POP JUMP JUMPDEST PUSH1 0x0 PUSH20 0xFFFFFFFFFFFFFFFFFFFFFFFFFFFFFFFFFFFFFFFF DUP3 AND SWAP1 POP SWAP2 SWAP1 POP JUMP JUMPDEST PUSH1 0x0 DUP2 SWAP1 POP SWAP2 SWAP1 POP JUMP JUMPDEST PUSH1 0x0 DUP1 REVERT JUMPDEST PUSH2 0x141 DUP2 PUSH2 0xF7 JUMP JUMPDEST DUP2 EQ PUSH2 0x14C JUMPI PUSH1 0x0 DUP1 REVERT JUMPDEST POP JUMP JUMPDEST PUSH2 0x158 DUP2 PUSH2 0x129 JUMP JUMPDEST DUP2 EQ PUSH2 0x163 JUMPI PUSH1 0x0 DUP1 REVERT JUMPDEST POP JUMP JUMPDEST PUSH2 0x2D0 DUP1 PUSH2 0x175 PUSH1 0x0 CODECOPY PUSH1 0x0 RETURN INVALID PUSH1 0x80 PUSH1 0x40 MSTORE CALLVALUE DUP1 ISZERO PUSH2 0x10 JUMPI PUSH1 0x0 DUP1 REVERT JUMPDEST POP PUSH1 0x4 CALLDATASIZE LT PUSH2 0x36 JUMPI PUSH1 0x0 CALLDATALOAD PUSH1 0xE0 SHR DUP1 PUSH4 0x1D69ED17 EQ PUSH2 0x3B JUMPI DUP1 PUSH4 0xB1B45B1B EQ PUSH2 0x59 JUMPI JUMPDEST PUSH1 0x0 DUP1 REVERT JUMPDEST PUSH2 0x43 PUSH2 0x89 JUMP JUMPDEST PUSH1 0x40 MLOAD PUSH2 0x50 SWAP2 SWAP1 PUSH2 0x13F JUMP JUMPDEST PUSH1 0x40 MLOAD DUP1 SWAP2 SUB SWAP1 RETURN JUMPDEST PUSH2 0x73 PUSH1 0x4 DUP1 CALLDATASIZE SUB DUP2 ADD SWAP1 PUSH2 0x6E SWAP2 SWAP1 PUSH2 0xE1 JUMP JUMPDEST PUSH2 0xAD JUMP JUMPDEST PUSH1 0x40 MLOAD PUSH2 0x80 SWAP2 SWAP1 PUSH2 0x15A JUMP JUMPDEST PUSH1 0x40 MLOAD DUP1 SWAP2 SUB SWAP1 RETURN JUMPDEST PUSH1 0x0 DUP1 SLOAD SWAP1 PUSH2 0x100 EXP SWAP1 DIV PUSH20 0xFFFFFFFFFFFFFFFFFFFFFFFFFFFFFFFFFFFFFFFF AND DUP2 JUMP JUMPDEST PUSH1 0x0 DUP2 DUP4 PUSH2 0xBB SWAP2 SWAP1 PUSH2 0x175 JUMP JUMPDEST PUSH1 0x3 DUP2 SWAP1 SSTORE POP PUSH1 0x3 SLOAD SWAP1 POP SWAP3 SWAP2 POP POP JUMP JUMPDEST PUSH1 0x0 DUP2 CALLDATALOAD SWAP1 POP PUSH2 0xDB DUP2 PUSH2 0x283 JUMP JUMPDEST SWAP3 SWAP2 POP POP JUMP JUMPDEST PUSH1 0x0 DUP1 PUSH1 0x40 DUP4 DUP6 SUB SLT ISZERO PUSH2 0xF8 JUMPI PUSH2 0xF7 PUSH2 0x27E JUMP JUMPDEST JUMPDEST PUSH1 0x0 PUSH2 0x106 DUP6 DUP3 DUP7 ADD PUSH2 0xCC JUMP JUMPDEST SWAP3 POP POP PUSH1 0x20 PUSH2 0x117 DUP6 DUP3 DUP7 ADD PUSH2 0xCC JUMP JUMPDEST SWAP2 POP POP SWAP3 POP SWAP3 SWAP1 POP JUMP JUMPDEST PUSH2 0x12A DUP2 PUSH2 0x209 JUMP JUMPDEST DUP3 MSTORE POP POP JUMP JUMPDEST PUSH2 0x139 DUP2 PUSH2 0x21B JUMP JUMPDEST DUP3 MSTORE POP POP JUMP JUMPDEST PUSH1 0x0 PUSH1 0x20 DUP3 ADD SWAP1 POP PUSH2 0x154 PUSH1 0x0 DUP4 ADD DUP5 PUSH2 0x121 JUMP JUMPDEST SWAP3 SWAP2 POP POP JUMP JUMPDEST PUSH1 0x0 PUSH1 0x20 DUP3 ADD SWAP1 POP PUSH2 0x16F PUSH1 0x0 DUP4 ADD DUP5 PUSH2 0x130 JUMP JUMPDEST SWAP3 SWAP2 POP POP JUMP JUMPDEST PUSH1 0x0 PUSH2 0x180 DUP3 PUSH2 0x21B JUMP JUMPDEST SWAP2 POP PUSH2 0x18B DUP4 PUSH2 0x21B JUMP JUMPDEST SWAP3 POP DUP3 PUSH32 0x8000000000000000000000000000000000000000000000000000000000000000 ADD DUP3 SLT PUSH1 0x0 DUP5 SLT ISZERO AND ISZERO PUSH2 0x1C6 JUMPI PUSH2 0x1C5 PUSH2 0x24F JUMP JUMPDEST JUMPDEST DUP3 PUSH32 0x7FFFFFFFFFFFFFFFFFFFFFFFFFFFFFFFFFFFFFFFFFFFFFFFFFFFFFFFFFFFFFFF ADD DUP3 SGT PUSH1 0x0 DUP5 SLT AND ISZERO PUSH2 0x1FE JUMPI PUSH2 0x1FD PUSH2 0x24F JUMP JUMPDEST JUMPDEST DUP3 DUP3 SUB SWAP1 POP SWAP3 SWAP2 POP POP JUMP JUMPDEST PUSH1 0x0 PUSH2 0x214 DUP3 PUSH2 0x225 JUMP JUMPDEST SWAP1 POP SWAP2 SWAP1 POP JUMP JUMPDEST PUSH1 0x0 DUP2 SWAP1 POP SWAP2 SWAP1 POP JUMP JUMPDEST PUSH1 0x0 PUSH20 0xFFFFFFFFFFFFFFFFFFFFFFFFFFFFFFFFFFFFFFFF DUP3 AND SWAP1 POP SWAP2 SWAP1 POP JUMP JUMPDEST PUSH1 0x0 DUP2 SWAP1 POP SWAP2 SWAP1 POP JUMP JUMPDEST PUSH32 0x4E487B7100000000000000000000000000000000000000000000000000000000 PUSH1 0x0 MSTORE PUSH1 0x11 PUSH1 0x4 MSTORE PUSH1 0x24 PUSH1 0x0 REVERT JUMPDEST PUSH1 0x0 DUP1 REVERT JUMPDEST PUSH2 0x28C DUP2 PUSH2 0x245 JUMP JUMPDEST DUP2 EQ PUSH2 0x297 JUMPI PUSH1 0x0 DUP1 REVERT JUMPDEST POP JUMP INVALID LOG2 PUSH5 0x6970667358 0x22 SLT KECCAK256 XOR 0x4B 0xAB OR 0xC7 MULMOD CALLDATACOPY 0x4D 0xE7 0xC2 0xA8 SWAP11 0xDB 0x2D 0xCE 0x2A 0xE5 JUMPI 0xD3 0x4C 0x28 DUP13 XOR 0xD6 0xEA PUSH12 0x4DC21185E01064736F6C6343 STOP ADDMOD SMOD STOP CALLER LOG2 PUSH5 0x6970667358 0x22 SLT KECCAK256 PUSH15 0x20F88B5CA1D62BA7C379266517D416 CALLDATASIZE INVALID 0xD PUSH10 0xFF9EDA86ADFE22787D8D 0xE6 SWAP1 PUSH5 0x736F6C6343 STOP ADDMOD SMOD STOP CALLER "
				},
				"gasEstimates": {
					"creation": {
						"codeDepositCost": "367000",
						"executionCost": "405",
						"totalCost": "367405"
					},
					"external": {
						"Factory()": "infinite",
						"MiContratoPersonal(address)": "infinite"
					}
				},
				"methodIdentifiers": {
					"Factory()": "c83dd231",
					"MiContratoPersonal(address)": "1b03b2c9"
				}
			},
			"storageLayout": {
				"storage": [
					{
						"astId": 6,
						"contract": "Pruebas y Primeros pasos/factory.sol:SmartContract1",
						"label": "MiContratoPersonal",
						"offset": 0,
						"slot": "0",
						"type": "t_mapping(t_address,t_address)"
					}
				],
				"types": {
					"t_address": {
						"encoding": "inplace",
						"label": "address",
						"numberOfBytes": "20"
					},
					"t_mapping(t_address,t_address)": {
						"encoding": "mapping",
						"key": "t_address",
						"label": "mapping(address => address)",
						"numberOfBytes": "32",
						"value": "t_address"
					}
				}
			},
			"userdoc": {
				"kind": "user",
				"methods": {},
				"version": 1
			}
		}
	}
}