{
	"Pruebas y Primeros pasos/Restaurante.sol": {
		"Restaurante": {
			"abi": [
				{
					"inputs": [],
					"name": "AlgunaMesaDisponible",
					"outputs": [
						{
							"internalType": "bool",
							"name": "",
							"type": "bool"
						}
					],
					"stateMutability": "view",
					"type": "function"
				},
				{
					"inputs": [
						{
							"internalType": "string",
							"name": "_cliente",
							"type": "string"
						},
						{
							"internalType": "uint256",
							"name": "_numeroMesa",
							"type": "uint256"
						}
					],
					"name": "NuevoClienteNuevaMesa",
					"outputs": [],
					"stateMutability": "nonpayable",
					"type": "function"
				},
				{
					"inputs": [
						{
							"internalType": "uint256",
							"name": "_numeroMesa",
							"type": "uint256"
						}
					],
					"name": "NuevoClienteViejaMesa",
					"outputs": [],
					"stateMutability": "nonpayable",
					"type": "function"
				},
				{
					"inputs": [],
					"name": "Owner",
					"outputs": [
						{
							"internalType": "address payable",
							"name": "",
							"type": "address"
						}
					],
					"stateMutability": "view",
					"type": "function"
				},
				{
					"inputs": [
						{
							"internalType": "uint256",
							"name": "",
							"type": "uint256"
						}
					],
					"name": "mesa",
					"outputs": [
						{
							"internalType": "uint256",
							"name": "numeroMesa",
							"type": "uint256"
						},
						{
							"internalType": "string",
							"name": "nombreCliente",
							"type": "string"
						},
						{
							"internalType": "uint256",
							"name": "totalClientes",
							"type": "uint256"
						}
					],
					"stateMutability": "view",
					"type": "function"
				},
				{
					"inputs": [
						{
							"internalType": "uint256",
							"name": "_numeroMesa",
							"type": "uint256"
						}
					],
					"name": "verMesa",
					"outputs": [
						{
							"internalType": "uint256",
							"name": "",
							"type": "uint256"
						}
					],
					"stateMutability": "view",
					"type": "function"
				}
			],
			"devdoc": {
				"kind": "dev",
				"methods": {},
				"version": 1
			},
			"evm": {
				"assembly": "    /* \"Pruebas y Primeros pasos/Restaurante.sol\":67:1671  contract Restaurante{\r... */\n  mstore(0x40, 0x80)\n    /* \"Pruebas y Primeros pasos/Restaurante.sol\":362:390  uint[4] numeroMesa=[1,2,3,4] */\n  mload(0x40)\n  dup1\n  0x80\n  add\n  0x40\n  mstore\n  dup1\n    /* \"Pruebas y Primeros pasos/Restaurante.sol\":382:383  1 */\n  0x01\n    /* \"Pruebas y Primeros pasos/Restaurante.sol\":362:390  uint[4] numeroMesa=[1,2,3,4] */\n  0xff\n  and\n  dup2\n  mstore\n  0x20\n  add\n    /* \"Pruebas y Primeros pasos/Restaurante.sol\":384:385  2 */\n  0x02\n    /* \"Pruebas y Primeros pasos/Restaurante.sol\":362:390  uint[4] numeroMesa=[1,2,3,4] */\n  0xff\n  and\n  dup2\n  mstore\n  0x20\n  add\n    /* \"Pruebas y Primeros pasos/Restaurante.sol\":386:387  3 */\n  0x03\n    /* \"Pruebas y Primeros pasos/Restaurante.sol\":362:390  uint[4] numeroMesa=[1,2,3,4] */\n  0xff\n  and\n  dup2\n  mstore\n  0x20\n  add\n    /* \"Pruebas y Primeros pasos/Restaurante.sol\":388:389  4 */\n  0x04\n    /* \"Pruebas y Primeros pasos/Restaurante.sol\":362:390  uint[4] numeroMesa=[1,2,3,4] */\n  0xff\n  and\n  dup2\n  mstore\n  pop\n  0x01\n  swap1\n  0x04\n  tag_1\n  swap3\n  swap2\n  swap1\n  tag_2\n  jump\t// in\ntag_1:\n  pop\n    /* \"Pruebas y Primeros pasos/Restaurante.sol\":67:1671  contract Restaurante{\r... */\n  callvalue\n  dup1\n  iszero\n  tag_3\n  jumpi\n  0x00\n  dup1\n  revert\ntag_3:\n  pop\n  jump(tag_4)\ntag_2:\n  dup3\n  0x04\n  dup2\n  add\n  swap3\n  dup3\n  iszero\n  tag_5\n  jumpi\n  swap2\n  0x20\n  mul\n  dup3\n  add\ntag_6:\n  dup3\n  dup2\n  gt\n  iszero\n  tag_7\n  jumpi\n  dup3\n  mload\n  dup3\n  swap1\n  0xff\n  and\n  swap1\n  sstore\n  swap2\n  0x20\n  add\n  swap2\n  swap1\n  0x01\n  add\n  swap1\n  jump(tag_6)\ntag_7:\ntag_5:\n  pop\n  swap1\n  pop\n  tag_8\n  swap2\n  swap1\n  tag_9\n  jump\t// in\ntag_8:\n  pop\n  swap1\n  jump\t// out\ntag_9:\ntag_10:\n  dup1\n  dup3\n  gt\n  iszero\n  tag_11\n  jumpi\n  0x00\n  dup2\n  0x00\n  swap1\n  sstore\n  pop\n  0x01\n  add\n  jump(tag_10)\ntag_11:\n  pop\n  swap1\n  jump\t// out\ntag_4:\n  dataSize(sub_0)\n  dup1\n  dataOffset(sub_0)\n  0x00\n  codecopy\n  0x00\n  return\nstop\n\nsub_0: assembly {\n        /* \"Pruebas y Primeros pasos/Restaurante.sol\":67:1671  contract Restaurante{\r... */\n      mstore(0x40, 0x80)\n      callvalue\n      dup1\n      iszero\n      tag_1\n      jumpi\n      0x00\n      dup1\n      revert\n    tag_1:\n      pop\n      jumpi(tag_2, lt(calldatasize, 0x04))\n      shr(0xe0, calldataload(0x00))\n      dup1\n      0x5baea0a7\n      eq\n      tag_3\n      jumpi\n      dup1\n      0x736266d0\n      eq\n      tag_4\n      jumpi\n      dup1\n      0x8ba5a84a\n      eq\n      tag_5\n      jumpi\n      dup1\n      0x9c627971\n      eq\n      tag_6\n      jumpi\n      dup1\n      0xb4a99a4e\n      eq\n      tag_7\n      jumpi\n      dup1\n      0xcd6307bb\n      eq\n      tag_8\n      jumpi\n    tag_2:\n      0x00\n      dup1\n      revert\n        /* \"Pruebas y Primeros pasos/Restaurante.sol\":398:432  mapping(uint => mesas) public mesa */\n    tag_3:\n      tag_9\n      0x04\n      dup1\n      calldatasize\n      sub\n      dup2\n      add\n      swap1\n      tag_10\n      swap2\n      swap1\n      tag_11\n      jump\t// in\n    tag_10:\n      tag_12\n      jump\t// in\n    tag_9:\n      mload(0x40)\n      tag_13\n      swap4\n      swap3\n      swap2\n      swap1\n      tag_14\n      jump\t// in\n    tag_13:\n      mload(0x40)\n      dup1\n      swap2\n      sub\n      swap1\n      return\n        /* \"Pruebas y Primeros pasos/Restaurante.sol\":1247:1397  function NuevoClienteViejaMesa(uint _numeroMesa) public NoExcedeAforo(_numeroMesa){\r... */\n    tag_4:\n      tag_15\n      0x04\n      dup1\n      calldatasize\n      sub\n      dup2\n      add\n      swap1\n      tag_16\n      swap2\n      swap1\n      tag_11\n      jump\t// in\n    tag_16:\n      tag_17\n      jump\t// in\n    tag_15:\n      stop\n        /* \"Pruebas y Primeros pasos/Restaurante.sol\":1077:1239  function NuevoClienteNuevaMesa(string memory _cliente, uint _numeroMesa) public {\r... */\n    tag_5:\n      tag_18\n      0x04\n      dup1\n      calldatasize\n      sub\n      dup2\n      add\n      swap1\n      tag_19\n      swap2\n      swap1\n      tag_20\n      jump\t// in\n    tag_19:\n      tag_21\n      jump\t// in\n    tag_18:\n      stop\n        /* \"Pruebas y Primeros pasos/Restaurante.sol\":1404:1534  function verMesa(uint _numeroMesa) public view returns(uint){\r... */\n    tag_6:\n      tag_22\n      0x04\n      dup1\n      calldatasize\n      sub\n      dup2\n      add\n      swap1\n      tag_23\n      swap2\n      swap1\n      tag_11\n      jump\t// in\n    tag_23:\n      tag_24\n      jump\t// in\n    tag_22:\n      mload(0x40)\n      tag_25\n      swap2\n      swap1\n      tag_26\n      jump\t// in\n    tag_25:\n      mload(0x40)\n      dup1\n      swap2\n      sub\n      swap1\n      return\n        /* \"Pruebas y Primeros pasos/Restaurante.sol\":91:119  address payable public Owner */\n    tag_7:\n      tag_27\n      tag_28\n      jump\t// in\n    tag_27:\n      mload(0x40)\n      tag_29\n      swap2\n      swap1\n      tag_30\n      jump\t// in\n    tag_29:\n      mload(0x40)\n      dup1\n      swap2\n      sub\n      swap1\n      return\n        /* \"Pruebas y Primeros pasos/Restaurante.sol\":542:815  function  AlgunaMesaDisponible () public view returns(bool){\r... */\n    tag_8:\n      tag_31\n      tag_32\n      jump\t// in\n    tag_31:\n      mload(0x40)\n      tag_33\n      swap2\n      swap1\n      tag_34\n      jump\t// in\n    tag_33:\n      mload(0x40)\n      dup1\n      swap2\n      sub\n      swap1\n      return\n        /* \"Pruebas y Primeros pasos/Restaurante.sol\":398:432  mapping(uint => mesas) public mesa */\n    tag_12:\n      mstore(0x20, 0x05)\n      dup1\n      0x00\n      mstore\n      keccak256(0x00, 0x40)\n      0x00\n      swap2\n      pop\n      swap1\n      pop\n      dup1\n      0x00\n      add\n      sload\n      swap1\n      dup1\n      0x01\n      add\n      dup1\n      sload\n      tag_35\n      swap1\n      tag_36\n      jump\t// in\n    tag_35:\n      dup1\n      0x1f\n      add\n      0x20\n      dup1\n      swap2\n      div\n      mul\n      0x20\n      add\n      mload(0x40)\n      swap1\n      dup2\n      add\n      0x40\n      mstore\n      dup1\n      swap3\n      swap2\n      swap1\n      dup2\n      dup2\n      mstore\n      0x20\n      add\n      dup3\n      dup1\n      sload\n      tag_37\n      swap1\n      tag_36\n      jump\t// in\n    tag_37:\n      dup1\n      iszero\n      tag_38\n      jumpi\n      dup1\n      0x1f\n      lt\n      tag_39\n      jumpi\n      0x0100\n      dup1\n      dup4\n      sload\n      div\n      mul\n      dup4\n      mstore\n      swap2\n      0x20\n      add\n      swap2\n      jump(tag_38)\n    tag_39:\n      dup3\n      add\n      swap2\n      swap1\n      0x00\n      mstore\n      keccak256(0x00, 0x20)\n      swap1\n    tag_40:\n      dup2\n      sload\n      dup2\n      mstore\n      swap1\n      0x01\n      add\n      swap1\n      0x20\n      add\n      dup1\n      dup4\n      gt\n      tag_40\n      jumpi\n      dup3\n      swap1\n      sub\n      0x1f\n      and\n      dup3\n      add\n      swap2\n    tag_38:\n      pop\n      pop\n      pop\n      pop\n      pop\n      swap1\n      dup1\n      0x02\n      add\n      sload\n      swap1\n      pop\n      dup4\n      jump\t// out\n        /* \"Pruebas y Primeros pasos/Restaurante.sol\":1247:1397  function NuevoClienteViejaMesa(uint _numeroMesa) public NoExcedeAforo(_numeroMesa){\r... */\n    tag_17:\n        /* \"Pruebas y Primeros pasos/Restaurante.sol\":1317:1328  _numeroMesa */\n      dup1\n        /* \"Pruebas y Primeros pasos/Restaurante.sol\":977:978  6 */\n      0x06\n        /* \"Pruebas y Primeros pasos/Restaurante.sol\":932:936  mesa */\n      0x05\n        /* \"Pruebas y Primeros pasos/Restaurante.sol\":932:961  mesa[numeroMesa[_numeroMesa]] */\n      0x00\n        /* \"Pruebas y Primeros pasos/Restaurante.sol\":937:947  numeroMesa */\n      0x01\n        /* \"Pruebas y Primeros pasos/Restaurante.sol\":948:959  _numeroMesa */\n      dup5\n        /* \"Pruebas y Primeros pasos/Restaurante.sol\":937:960  numeroMesa[_numeroMesa] */\n      0x04\n      dup2\n      lt\n      tag_42\n      jumpi\n      tag_43\n      tag_44\n      jump\t// in\n    tag_43:\n    tag_42:\n      add\n      sload\n        /* \"Pruebas y Primeros pasos/Restaurante.sol\":932:961  mesa[numeroMesa[_numeroMesa]] */\n      dup2\n      mstore\n      0x20\n      add\n      swap1\n      dup2\n      mstore\n      0x20\n      add\n      0x00\n      keccak256\n        /* \"Pruebas y Primeros pasos/Restaurante.sol\":932:975  mesa[numeroMesa[_numeroMesa]].totalClientes */\n      0x02\n      add\n      sload\n        /* \"Pruebas y Primeros pasos/Restaurante.sol\":932:978  mesa[numeroMesa[_numeroMesa]].totalClientes<=6 */\n      gt\n      iszero\n        /* \"Pruebas y Primeros pasos/Restaurante.sol\":924:1003  require(mesa[numeroMesa[_numeroMesa]].totalClientes<=6,\"La mesa esta completa\") */\n      tag_46\n      jumpi\n      mload(0x40)\n      0x08c379a000000000000000000000000000000000000000000000000000000000\n      dup2\n      mstore\n      0x04\n      add\n      tag_47\n      swap1\n      tag_48\n      jump\t// in\n    tag_47:\n      mload(0x40)\n      dup1\n      swap2\n      sub\n      swap1\n      revert\n    tag_46:\n        /* \"Pruebas y Primeros pasos/Restaurante.sol\":1342:1346  mesa */\n      0x05\n        /* \"Pruebas y Primeros pasos/Restaurante.sol\":1342:1371  mesa[numeroMesa[_numeroMesa]] */\n      0x00\n        /* \"Pruebas y Primeros pasos/Restaurante.sol\":1347:1357  numeroMesa */\n      0x01\n        /* \"Pruebas y Primeros pasos/Restaurante.sol\":1358:1369  _numeroMesa */\n      dup5\n        /* \"Pruebas y Primeros pasos/Restaurante.sol\":1347:1370  numeroMesa[_numeroMesa] */\n      0x04\n      dup2\n      lt\n      tag_50\n      jumpi\n      tag_51\n      tag_44\n      jump\t// in\n    tag_51:\n    tag_50:\n      add\n      sload\n        /* \"Pruebas y Primeros pasos/Restaurante.sol\":1342:1371  mesa[numeroMesa[_numeroMesa]] */\n      dup2\n      mstore\n      0x20\n      add\n      swap1\n      dup2\n      mstore\n      0x20\n      add\n      0x00\n      keccak256\n        /* \"Pruebas y Primeros pasos/Restaurante.sol\":1342:1385  mesa[numeroMesa[_numeroMesa]].totalClientes */\n      0x02\n      add\n      0x00\n        /* \"Pruebas y Primeros pasos/Restaurante.sol\":1342:1387  mesa[numeroMesa[_numeroMesa]].totalClientes++ */\n      dup2\n      sload\n      dup1\n      swap3\n      swap2\n      swap1\n      tag_53\n      swap1\n      tag_54\n      jump\t// in\n    tag_53:\n      swap2\n      swap1\n      pop\n      sstore\n      pop\n        /* \"Pruebas y Primeros pasos/Restaurante.sol\":1247:1397  function NuevoClienteViejaMesa(uint _numeroMesa) public NoExcedeAforo(_numeroMesa){\r... */\n      pop\n      pop\n      jump\t// out\n        /* \"Pruebas y Primeros pasos/Restaurante.sol\":1077:1239  function NuevoClienteNuevaMesa(string memory _cliente, uint _numeroMesa) public {\r... */\n    tag_21:\n        /* \"Pruebas y Primeros pasos/Restaurante.sol\":1200:1229  mesas(_numeroMesa,_cliente,1) */\n      mload(0x40)\n      dup1\n      0x60\n      add\n      0x40\n      mstore\n      dup1\n        /* \"Pruebas y Primeros pasos/Restaurante.sol\":1206:1217  _numeroMesa */\n      dup3\n        /* \"Pruebas y Primeros pasos/Restaurante.sol\":1200:1229  mesas(_numeroMesa,_cliente,1) */\n      dup2\n      mstore\n      0x20\n      add\n        /* \"Pruebas y Primeros pasos/Restaurante.sol\":1218:1226  _cliente */\n      dup4\n        /* \"Pruebas y Primeros pasos/Restaurante.sol\":1200:1229  mesas(_numeroMesa,_cliente,1) */\n      dup2\n      mstore\n      0x20\n      add\n        /* \"Pruebas y Primeros pasos/Restaurante.sol\":1227:1228  1 */\n      0x01\n        /* \"Pruebas y Primeros pasos/Restaurante.sol\":1200:1229  mesas(_numeroMesa,_cliente,1) */\n      dup2\n      mstore\n      pop\n        /* \"Pruebas y Primeros pasos/Restaurante.sol\":1170:1174  mesa */\n      0x05\n        /* \"Pruebas y Primeros pasos/Restaurante.sol\":1170:1199  mesa[numeroMesa[_numeroMesa]] */\n      0x00\n        /* \"Pruebas y Primeros pasos/Restaurante.sol\":1175:1185  numeroMesa */\n      0x01\n        /* \"Pruebas y Primeros pasos/Restaurante.sol\":1186:1197  _numeroMesa */\n      dup5\n        /* \"Pruebas y Primeros pasos/Restaurante.sol\":1175:1198  numeroMesa[_numeroMesa] */\n      0x04\n      dup2\n      lt\n      tag_56\n      jumpi\n      tag_57\n      tag_44\n      jump\t// in\n    tag_57:\n    tag_56:\n      add\n      sload\n        /* \"Pruebas y Primeros pasos/Restaurante.sol\":1170:1199  mesa[numeroMesa[_numeroMesa]] */\n      dup2\n      mstore\n      0x20\n      add\n      swap1\n      dup2\n      mstore\n      0x20\n      add\n      0x00\n      keccak256\n        /* \"Pruebas y Primeros pasos/Restaurante.sol\":1170:1229  mesa[numeroMesa[_numeroMesa]]=mesas(_numeroMesa,_cliente,1) */\n      0x00\n      dup3\n      add\n      mload\n      dup2\n      0x00\n      add\n      sstore\n      0x20\n      dup3\n      add\n      mload\n      dup2\n      0x01\n      add\n      swap1\n      dup1\n      mload\n      swap1\n      0x20\n      add\n      swap1\n      tag_59\n      swap3\n      swap2\n      swap1\n      tag_60\n      jump\t// in\n    tag_59:\n      pop\n      0x40\n      dup3\n      add\n      mload\n      dup2\n      0x02\n      add\n      sstore\n      swap1\n      pop\n      pop\n        /* \"Pruebas y Primeros pasos/Restaurante.sol\":1077:1239  function NuevoClienteNuevaMesa(string memory _cliente, uint _numeroMesa) public {\r... */\n      pop\n      pop\n      jump\t// out\n        /* \"Pruebas y Primeros pasos/Restaurante.sol\":1404:1534  function verMesa(uint _numeroMesa) public view returns(uint){\r... */\n    tag_24:\n        /* \"Pruebas y Primeros pasos/Restaurante.sol\":1459:1463  uint */\n      0x00\n        /* \"Pruebas y Primeros pasos/Restaurante.sol\":1483:1487  mesa */\n      0x05\n        /* \"Pruebas y Primeros pasos/Restaurante.sol\":1483:1512  mesa[numeroMesa[_numeroMesa]] */\n      0x00\n        /* \"Pruebas y Primeros pasos/Restaurante.sol\":1488:1498  numeroMesa */\n      0x01\n        /* \"Pruebas y Primeros pasos/Restaurante.sol\":1499:1510  _numeroMesa */\n      dup5\n        /* \"Pruebas y Primeros pasos/Restaurante.sol\":1488:1511  numeroMesa[_numeroMesa] */\n      0x04\n      dup2\n      lt\n      tag_62\n      jumpi\n      tag_63\n      tag_44\n      jump\t// in\n    tag_63:\n    tag_62:\n      add\n      sload\n        /* \"Pruebas y Primeros pasos/Restaurante.sol\":1483:1512  mesa[numeroMesa[_numeroMesa]] */\n      dup2\n      mstore\n      0x20\n      add\n      swap1\n      dup2\n      mstore\n      0x20\n      add\n      0x00\n      keccak256\n        /* \"Pruebas y Primeros pasos/Restaurante.sol\":1483:1526  mesa[numeroMesa[_numeroMesa]].totalClientes */\n      0x02\n      add\n      sload\n        /* \"Pruebas y Primeros pasos/Restaurante.sol\":1476:1526  return mesa[numeroMesa[_numeroMesa]].totalClientes */\n      swap1\n      pop\n        /* \"Pruebas y Primeros pasos/Restaurante.sol\":1404:1534  function verMesa(uint _numeroMesa) public view returns(uint){\r... */\n      swap2\n      swap1\n      pop\n      jump\t// out\n        /* \"Pruebas y Primeros pasos/Restaurante.sol\":91:119  address payable public Owner */\n    tag_28:\n      0x00\n      dup1\n      sload\n      swap1\n      0x0100\n      exp\n      swap1\n      div\n      0xffffffffffffffffffffffffffffffffffffffff\n      and\n      dup2\n      jump\t// out\n        /* \"Pruebas y Primeros pasos/Restaurante.sol\":542:815  function  AlgunaMesaDisponible () public view returns(bool){\r... */\n    tag_32:\n        /* \"Pruebas y Primeros pasos/Restaurante.sol\":596:600  bool */\n      0x00\n        /* \"Pruebas y Primeros pasos/Restaurante.sol\":612:627  bool disponible */\n      dup1\n        /* \"Pruebas y Primeros pasos/Restaurante.sol\":628:633  false */\n      0x00\n        /* \"Pruebas y Primeros pasos/Restaurante.sol\":612:633  bool disponible=false */\n      swap1\n      pop\n        /* \"Pruebas y Primeros pasos/Restaurante.sol\":646:652  uint i */\n      0x00\n        /* \"Pruebas y Primeros pasos/Restaurante.sol\":642:780  for(uint i=0; i<=5; i++){\r... */\n    tag_66:\n        /* \"Pruebas y Primeros pasos/Restaurante.sol\":659:660  5 */\n      0x05\n        /* \"Pruebas y Primeros pasos/Restaurante.sol\":656:657  i */\n      dup2\n        /* \"Pruebas y Primeros pasos/Restaurante.sol\":656:660  i<=5 */\n      gt\n        /* \"Pruebas y Primeros pasos/Restaurante.sol\":642:780  for(uint i=0; i<=5; i++){\r... */\n      tag_67\n      jumpi\n        /* \"Pruebas y Primeros pasos/Restaurante.sol\":719:720  0 */\n      0x00\n        /* \"Pruebas y Primeros pasos/Restaurante.sol\":684:688  mesa */\n      0x05\n        /* \"Pruebas y Primeros pasos/Restaurante.sol\":684:703  mesa[numeroMesa[i]] */\n      0x00\n        /* \"Pruebas y Primeros pasos/Restaurante.sol\":689:699  numeroMesa */\n      0x01\n        /* \"Pruebas y Primeros pasos/Restaurante.sol\":700:701  i */\n      dup5\n        /* \"Pruebas y Primeros pasos/Restaurante.sol\":689:702  numeroMesa[i] */\n      0x04\n      dup2\n      lt\n      tag_69\n      jumpi\n      tag_70\n      tag_44\n      jump\t// in\n    tag_70:\n    tag_69:\n      add\n      sload\n        /* \"Pruebas y Primeros pasos/Restaurante.sol\":684:703  mesa[numeroMesa[i]] */\n      dup2\n      mstore\n      0x20\n      add\n      swap1\n      dup2\n      mstore\n      0x20\n      add\n      0x00\n      keccak256\n        /* \"Pruebas y Primeros pasos/Restaurante.sol\":684:717  mesa[numeroMesa[i]].totalClientes */\n      0x02\n      add\n      sload\n        /* \"Pruebas y Primeros pasos/Restaurante.sol\":684:720  mesa[numeroMesa[i]].totalClientes==0 */\n      eq\n        /* \"Pruebas y Primeros pasos/Restaurante.sol\":681:770  if(mesa[numeroMesa[i]].totalClientes==0){\r... */\n      iszero\n      tag_72\n      jumpi\n        /* \"Pruebas y Primeros pasos/Restaurante.sol\":750:754  true */\n      0x01\n        /* \"Pruebas y Primeros pasos/Restaurante.sol\":739:754  disponible=true */\n      swap2\n      pop\n        /* \"Pruebas y Primeros pasos/Restaurante.sol\":681:770  if(mesa[numeroMesa[i]].totalClientes==0){\r... */\n    tag_72:\n        /* \"Pruebas y Primeros pasos/Restaurante.sol\":662:665  i++ */\n      dup1\n      dup1\n      tag_73\n      swap1\n      tag_54\n      jump\t// in\n    tag_73:\n      swap2\n      pop\n      pop\n        /* \"Pruebas y Primeros pasos/Restaurante.sol\":642:780  for(uint i=0; i<=5; i++){\r... */\n      jump(tag_66)\n    tag_67:\n      pop\n        /* \"Pruebas y Primeros pasos/Restaurante.sol\":797:807  disponible */\n      dup1\n        /* \"Pruebas y Primeros pasos/Restaurante.sol\":790:807  return disponible */\n      swap2\n      pop\n      pop\n        /* \"Pruebas y Primeros pasos/Restaurante.sol\":542:815  function  AlgunaMesaDisponible () public view returns(bool){\r... */\n      swap1\n      jump\t// out\n    tag_60:\n      dup3\n      dup1\n      sload\n      tag_74\n      swap1\n      tag_36\n      jump\t// in\n    tag_74:\n      swap1\n      0x00\n      mstore\n      keccak256(0x00, 0x20)\n      swap1\n      0x1f\n      add\n      0x20\n      swap1\n      div\n      dup2\n      add\n      swap3\n      dup3\n      tag_76\n      jumpi\n      0x00\n      dup6\n      sstore\n      jump(tag_75)\n    tag_76:\n      dup3\n      0x1f\n      lt\n      tag_77\n      jumpi\n      dup1\n      mload\n      not(0xff)\n      and\n      dup4\n      dup1\n      add\n      or\n      dup6\n      sstore\n      jump(tag_75)\n    tag_77:\n      dup3\n      dup1\n      add\n      0x01\n      add\n      dup6\n      sstore\n      dup3\n      iszero\n      tag_75\n      jumpi\n      swap2\n      dup3\n      add\n    tag_78:\n      dup3\n      dup2\n      gt\n      iszero\n      tag_79\n      jumpi\n      dup3\n      mload\n      dup3\n      sstore\n      swap2\n      0x20\n      add\n      swap2\n      swap1\n      0x01\n      add\n      swap1\n      jump(tag_78)\n    tag_79:\n    tag_75:\n      pop\n      swap1\n      pop\n      tag_80\n      swap2\n      swap1\n      tag_81\n      jump\t// in\n    tag_80:\n      pop\n      swap1\n      jump\t// out\n    tag_81:\n    tag_82:\n      dup1\n      dup3\n      gt\n      iszero\n      tag_83\n      jumpi\n      0x00\n      dup2\n      0x00\n      swap1\n      sstore\n      pop\n      0x01\n      add\n      jump(tag_82)\n    tag_83:\n      pop\n      swap1\n      jump\t// out\n        /* \"#utility.yul\":7:419   */\n    tag_85:\n        /* \"#utility.yul\":85:90   */\n      0x00\n        /* \"#utility.yul\":110:176   */\n      tag_87\n        /* \"#utility.yul\":126:175   */\n      tag_88\n        /* \"#utility.yul\":168:174   */\n      dup5\n        /* \"#utility.yul\":126:175   */\n      tag_89\n      jump\t// in\n    tag_88:\n        /* \"#utility.yul\":110:176   */\n      tag_90\n      jump\t// in\n    tag_87:\n        /* \"#utility.yul\":101:176   */\n      swap1\n      pop\n        /* \"#utility.yul\":199:205   */\n      dup3\n        /* \"#utility.yul\":192:197   */\n      dup2\n        /* \"#utility.yul\":185:206   */\n      mstore\n        /* \"#utility.yul\":237:241   */\n      0x20\n        /* \"#utility.yul\":230:235   */\n      dup2\n        /* \"#utility.yul\":226:242   */\n      add\n        /* \"#utility.yul\":275:278   */\n      dup5\n        /* \"#utility.yul\":266:272   */\n      dup5\n        /* \"#utility.yul\":261:264   */\n      dup5\n        /* \"#utility.yul\":257:273   */\n      add\n        /* \"#utility.yul\":254:279   */\n      gt\n        /* \"#utility.yul\":251:363   */\n      iszero\n      tag_91\n      jumpi\n        /* \"#utility.yul\":282:361   */\n      tag_92\n      tag_93\n      jump\t// in\n    tag_92:\n        /* \"#utility.yul\":251:363   */\n    tag_91:\n        /* \"#utility.yul\":372:413   */\n      tag_94\n        /* \"#utility.yul\":406:412   */\n      dup5\n        /* \"#utility.yul\":401:404   */\n      dup3\n        /* \"#utility.yul\":396:399   */\n      dup6\n        /* \"#utility.yul\":372:413   */\n      tag_95\n      jump\t// in\n    tag_94:\n        /* \"#utility.yul\":91:419   */\n      pop\n        /* \"#utility.yul\":7:419   */\n      swap4\n      swap3\n      pop\n      pop\n      pop\n      jump\t// out\n        /* \"#utility.yul\":439:779   */\n    tag_96:\n        /* \"#utility.yul\":495:500   */\n      0x00\n        /* \"#utility.yul\":544:547   */\n      dup3\n        /* \"#utility.yul\":537:541   */\n      0x1f\n        /* \"#utility.yul\":529:535   */\n      dup4\n        /* \"#utility.yul\":525:542   */\n      add\n        /* \"#utility.yul\":521:548   */\n      slt\n        /* \"#utility.yul\":511:633   */\n      tag_98\n      jumpi\n        /* \"#utility.yul\":552:631   */\n      tag_99\n      tag_100\n      jump\t// in\n    tag_99:\n        /* \"#utility.yul\":511:633   */\n    tag_98:\n        /* \"#utility.yul\":669:675   */\n      dup2\n        /* \"#utility.yul\":656:676   */\n      calldataload\n        /* \"#utility.yul\":694:773   */\n      tag_101\n        /* \"#utility.yul\":769:772   */\n      dup5\n        /* \"#utility.yul\":761:767   */\n      dup3\n        /* \"#utility.yul\":754:758   */\n      0x20\n        /* \"#utility.yul\":746:752   */\n      dup7\n        /* \"#utility.yul\":742:759   */\n      add\n        /* \"#utility.yul\":694:773   */\n      tag_85\n      jump\t// in\n    tag_101:\n        /* \"#utility.yul\":685:773   */\n      swap2\n      pop\n        /* \"#utility.yul\":501:779   */\n      pop\n        /* \"#utility.yul\":439:779   */\n      swap3\n      swap2\n      pop\n      pop\n      jump\t// out\n        /* \"#utility.yul\":785:924   */\n    tag_102:\n        /* \"#utility.yul\":831:836   */\n      0x00\n        /* \"#utility.yul\":869:875   */\n      dup2\n        /* \"#utility.yul\":856:876   */\n      calldataload\n        /* \"#utility.yul\":847:876   */\n      swap1\n      pop\n        /* \"#utility.yul\":885:918   */\n      tag_104\n        /* \"#utility.yul\":912:917   */\n      dup2\n        /* \"#utility.yul\":885:918   */\n      tag_105\n      jump\t// in\n    tag_104:\n        /* \"#utility.yul\":785:924   */\n      swap3\n      swap2\n      pop\n      pop\n      jump\t// out\n        /* \"#utility.yul\":930:1584   */\n    tag_20:\n        /* \"#utility.yul\":1008:1014   */\n      0x00\n        /* \"#utility.yul\":1016:1022   */\n      dup1\n        /* \"#utility.yul\":1065:1067   */\n      0x40\n        /* \"#utility.yul\":1053:1062   */\n      dup4\n        /* \"#utility.yul\":1044:1051   */\n      dup6\n        /* \"#utility.yul\":1040:1063   */\n      sub\n        /* \"#utility.yul\":1036:1068   */\n      slt\n        /* \"#utility.yul\":1033:1152   */\n      iszero\n      tag_107\n      jumpi\n        /* \"#utility.yul\":1071:1150   */\n      tag_108\n      tag_109\n      jump\t// in\n    tag_108:\n        /* \"#utility.yul\":1033:1152   */\n    tag_107:\n        /* \"#utility.yul\":1219:1220   */\n      0x00\n        /* \"#utility.yul\":1208:1217   */\n      dup4\n        /* \"#utility.yul\":1204:1221   */\n      add\n        /* \"#utility.yul\":1191:1222   */\n      calldataload\n        /* \"#utility.yul\":1249:1267   */\n      0xffffffffffffffff\n        /* \"#utility.yul\":1241:1247   */\n      dup2\n        /* \"#utility.yul\":1238:1268   */\n      gt\n        /* \"#utility.yul\":1235:1352   */\n      iszero\n      tag_110\n      jumpi\n        /* \"#utility.yul\":1271:1350   */\n      tag_111\n      tag_112\n      jump\t// in\n    tag_111:\n        /* \"#utility.yul\":1235:1352   */\n    tag_110:\n        /* \"#utility.yul\":1376:1439   */\n      tag_113\n        /* \"#utility.yul\":1431:1438   */\n      dup6\n        /* \"#utility.yul\":1422:1428   */\n      dup3\n        /* \"#utility.yul\":1411:1420   */\n      dup7\n        /* \"#utility.yul\":1407:1429   */\n      add\n        /* \"#utility.yul\":1376:1439   */\n      tag_96\n      jump\t// in\n    tag_113:\n        /* \"#utility.yul\":1366:1439   */\n      swap3\n      pop\n        /* \"#utility.yul\":1162:1449   */\n      pop\n        /* \"#utility.yul\":1488:1490   */\n      0x20\n        /* \"#utility.yul\":1514:1567   */\n      tag_114\n        /* \"#utility.yul\":1559:1566   */\n      dup6\n        /* \"#utility.yul\":1550:1556   */\n      dup3\n        /* \"#utility.yul\":1539:1548   */\n      dup7\n        /* \"#utility.yul\":1535:1557   */\n      add\n        /* \"#utility.yul\":1514:1567   */\n      tag_102\n      jump\t// in\n    tag_114:\n        /* \"#utility.yul\":1504:1567   */\n      swap2\n      pop\n        /* \"#utility.yul\":1459:1577   */\n      pop\n        /* \"#utility.yul\":930:1584   */\n      swap3\n      pop\n      swap3\n      swap1\n      pop\n      jump\t// out\n        /* \"#utility.yul\":1590:1919   */\n    tag_11:\n        /* \"#utility.yul\":1649:1655   */\n      0x00\n        /* \"#utility.yul\":1698:1700   */\n      0x20\n        /* \"#utility.yul\":1686:1695   */\n      dup3\n        /* \"#utility.yul\":1677:1684   */\n      dup5\n        /* \"#utility.yul\":1673:1696   */\n      sub\n        /* \"#utility.yul\":1669:1701   */\n      slt\n        /* \"#utility.yul\":1666:1785   */\n      iszero\n      tag_116\n      jumpi\n        /* \"#utility.yul\":1704:1783   */\n      tag_117\n      tag_109\n      jump\t// in\n    tag_117:\n        /* \"#utility.yul\":1666:1785   */\n    tag_116:\n        /* \"#utility.yul\":1824:1825   */\n      0x00\n        /* \"#utility.yul\":1849:1902   */\n      tag_118\n        /* \"#utility.yul\":1894:1901   */\n      dup5\n        /* \"#utility.yul\":1885:1891   */\n      dup3\n        /* \"#utility.yul\":1874:1883   */\n      dup6\n        /* \"#utility.yul\":1870:1892   */\n      add\n        /* \"#utility.yul\":1849:1902   */\n      tag_102\n      jump\t// in\n    tag_118:\n        /* \"#utility.yul\":1839:1902   */\n      swap2\n      pop\n        /* \"#utility.yul\":1795:1912   */\n      pop\n        /* \"#utility.yul\":1590:1919   */\n      swap3\n      swap2\n      pop\n      pop\n      jump\t// out\n        /* \"#utility.yul\":1925:2067   */\n    tag_119:\n        /* \"#utility.yul\":2028:2060   */\n      tag_121\n        /* \"#utility.yul\":2054:2059   */\n      dup2\n        /* \"#utility.yul\":2028:2060   */\n      tag_122\n      jump\t// in\n    tag_121:\n        /* \"#utility.yul\":2023:2026   */\n      dup3\n        /* \"#utility.yul\":2016:2061   */\n      mstore\n        /* \"#utility.yul\":1925:2067   */\n      pop\n      pop\n      jump\t// out\n        /* \"#utility.yul\":2073:2182   */\n    tag_123:\n        /* \"#utility.yul\":2154:2175   */\n      tag_125\n        /* \"#utility.yul\":2169:2174   */\n      dup2\n        /* \"#utility.yul\":2154:2175   */\n      tag_126\n      jump\t// in\n    tag_125:\n        /* \"#utility.yul\":2149:2152   */\n      dup3\n        /* \"#utility.yul\":2142:2176   */\n      mstore\n        /* \"#utility.yul\":2073:2182   */\n      pop\n      pop\n      jump\t// out\n        /* \"#utility.yul\":2188:2552   */\n    tag_127:\n        /* \"#utility.yul\":2276:2279   */\n      0x00\n        /* \"#utility.yul\":2304:2343   */\n      tag_129\n        /* \"#utility.yul\":2337:2342   */\n      dup3\n        /* \"#utility.yul\":2304:2343   */\n      tag_130\n      jump\t// in\n    tag_129:\n        /* \"#utility.yul\":2359:2430   */\n      tag_131\n        /* \"#utility.yul\":2423:2429   */\n      dup2\n        /* \"#utility.yul\":2418:2421   */\n      dup6\n        /* \"#utility.yul\":2359:2430   */\n      tag_132\n      jump\t// in\n    tag_131:\n        /* \"#utility.yul\":2352:2430   */\n      swap4\n      pop\n        /* \"#utility.yul\":2439:2491   */\n      tag_133\n        /* \"#utility.yul\":2484:2490   */\n      dup2\n        /* \"#utility.yul\":2479:2482   */\n      dup6\n        /* \"#utility.yul\":2472:2476   */\n      0x20\n        /* \"#utility.yul\":2465:2470   */\n      dup7\n        /* \"#utility.yul\":2461:2477   */\n      add\n        /* \"#utility.yul\":2439:2491   */\n      tag_134\n      jump\t// in\n    tag_133:\n        /* \"#utility.yul\":2516:2545   */\n      tag_135\n        /* \"#utility.yul\":2538:2544   */\n      dup2\n        /* \"#utility.yul\":2516:2545   */\n      tag_136\n      jump\t// in\n    tag_135:\n        /* \"#utility.yul\":2511:2514   */\n      dup5\n        /* \"#utility.yul\":2507:2546   */\n      add\n        /* \"#utility.yul\":2500:2546   */\n      swap2\n      pop\n        /* \"#utility.yul\":2280:2552   */\n      pop\n        /* \"#utility.yul\":2188:2552   */\n      swap3\n      swap2\n      pop\n      pop\n      jump\t// out\n        /* \"#utility.yul\":2558:2924   */\n    tag_137:\n        /* \"#utility.yul\":2700:2703   */\n      0x00\n        /* \"#utility.yul\":2721:2788   */\n      tag_139\n        /* \"#utility.yul\":2785:2787   */\n      0x15\n        /* \"#utility.yul\":2780:2783   */\n      dup4\n        /* \"#utility.yul\":2721:2788   */\n      tag_132\n      jump\t// in\n    tag_139:\n        /* \"#utility.yul\":2714:2788   */\n      swap2\n      pop\n        /* \"#utility.yul\":2797:2890   */\n      tag_140\n        /* \"#utility.yul\":2886:2889   */\n      dup3\n        /* \"#utility.yul\":2797:2890   */\n      tag_141\n      jump\t// in\n    tag_140:\n        /* \"#utility.yul\":2915:2917   */\n      0x20\n        /* \"#utility.yul\":2910:2913   */\n      dup3\n        /* \"#utility.yul\":2906:2918   */\n      add\n        /* \"#utility.yul\":2899:2918   */\n      swap1\n      pop\n        /* \"#utility.yul\":2558:2924   */\n      swap2\n      swap1\n      pop\n      jump\t// out\n        /* \"#utility.yul\":2930:3048   */\n    tag_142:\n        /* \"#utility.yul\":3017:3041   */\n      tag_144\n        /* \"#utility.yul\":3035:3040   */\n      dup2\n        /* \"#utility.yul\":3017:3041   */\n      tag_145\n      jump\t// in\n    tag_144:\n        /* \"#utility.yul\":3012:3015   */\n      dup3\n        /* \"#utility.yul\":3005:3042   */\n      mstore\n        /* \"#utility.yul\":2930:3048   */\n      pop\n      pop\n      jump\t// out\n        /* \"#utility.yul\":3054:3308   */\n    tag_30:\n        /* \"#utility.yul\":3163:3167   */\n      0x00\n        /* \"#utility.yul\":3201:3203   */\n      0x20\n        /* \"#utility.yul\":3190:3199   */\n      dup3\n        /* \"#utility.yul\":3186:3204   */\n      add\n        /* \"#utility.yul\":3178:3204   */\n      swap1\n      pop\n        /* \"#utility.yul\":3214:3301   */\n      tag_147\n        /* \"#utility.yul\":3298:3299   */\n      0x00\n        /* \"#utility.yul\":3287:3296   */\n      dup4\n        /* \"#utility.yul\":3283:3300   */\n      add\n        /* \"#utility.yul\":3274:3280   */\n      dup5\n        /* \"#utility.yul\":3214:3301   */\n      tag_119\n      jump\t// in\n    tag_147:\n        /* \"#utility.yul\":3054:3308   */\n      swap3\n      swap2\n      pop\n      pop\n      jump\t// out\n        /* \"#utility.yul\":3314:3524   */\n    tag_34:\n        /* \"#utility.yul\":3401:3405   */\n      0x00\n        /* \"#utility.yul\":3439:3441   */\n      0x20\n        /* \"#utility.yul\":3428:3437   */\n      dup3\n        /* \"#utility.yul\":3424:3442   */\n      add\n        /* \"#utility.yul\":3416:3442   */\n      swap1\n      pop\n        /* \"#utility.yul\":3452:3517   */\n      tag_149\n        /* \"#utility.yul\":3514:3515   */\n      0x00\n        /* \"#utility.yul\":3503:3512   */\n      dup4\n        /* \"#utility.yul\":3499:3516   */\n      add\n        /* \"#utility.yul\":3490:3496   */\n      dup5\n        /* \"#utility.yul\":3452:3517   */\n      tag_123\n      jump\t// in\n    tag_149:\n        /* \"#utility.yul\":3314:3524   */\n      swap3\n      swap2\n      pop\n      pop\n      jump\t// out\n        /* \"#utility.yul\":3530:3949   */\n    tag_48:\n        /* \"#utility.yul\":3696:3700   */\n      0x00\n        /* \"#utility.yul\":3734:3736   */\n      0x20\n        /* \"#utility.yul\":3723:3732   */\n      dup3\n        /* \"#utility.yul\":3719:3737   */\n      add\n        /* \"#utility.yul\":3711:3737   */\n      swap1\n      pop\n        /* \"#utility.yul\":3783:3792   */\n      dup2\n        /* \"#utility.yul\":3777:3781   */\n      dup2\n        /* \"#utility.yul\":3773:3793   */\n      sub\n        /* \"#utility.yul\":3769:3770   */\n      0x00\n        /* \"#utility.yul\":3758:3767   */\n      dup4\n        /* \"#utility.yul\":3754:3771   */\n      add\n        /* \"#utility.yul\":3747:3794   */\n      mstore\n        /* \"#utility.yul\":3811:3942   */\n      tag_151\n        /* \"#utility.yul\":3937:3941   */\n      dup2\n        /* \"#utility.yul\":3811:3942   */\n      tag_137\n      jump\t// in\n    tag_151:\n        /* \"#utility.yul\":3803:3942   */\n      swap1\n      pop\n        /* \"#utility.yul\":3530:3949   */\n      swap2\n      swap1\n      pop\n      jump\t// out\n        /* \"#utility.yul\":3955:4177   */\n    tag_26:\n        /* \"#utility.yul\":4048:4052   */\n      0x00\n        /* \"#utility.yul\":4086:4088   */\n      0x20\n        /* \"#utility.yul\":4075:4084   */\n      dup3\n        /* \"#utility.yul\":4071:4089   */\n      add\n        /* \"#utility.yul\":4063:4089   */\n      swap1\n      pop\n        /* \"#utility.yul\":4099:4170   */\n      tag_153\n        /* \"#utility.yul\":4167:4168   */\n      0x00\n        /* \"#utility.yul\":4156:4165   */\n      dup4\n        /* \"#utility.yul\":4152:4169   */\n      add\n        /* \"#utility.yul\":4143:4149   */\n      dup5\n        /* \"#utility.yul\":4099:4170   */\n      tag_142\n      jump\t// in\n    tag_153:\n        /* \"#utility.yul\":3955:4177   */\n      swap3\n      swap2\n      pop\n      pop\n      jump\t// out\n        /* \"#utility.yul\":4183:4716   */\n    tag_14:\n        /* \"#utility.yul\":4352:4356   */\n      0x00\n        /* \"#utility.yul\":4390:4392   */\n      0x60\n        /* \"#utility.yul\":4379:4388   */\n      dup3\n        /* \"#utility.yul\":4375:4393   */\n      add\n        /* \"#utility.yul\":4367:4393   */\n      swap1\n      pop\n        /* \"#utility.yul\":4403:4474   */\n      tag_155\n        /* \"#utility.yul\":4471:4472   */\n      0x00\n        /* \"#utility.yul\":4460:4469   */\n      dup4\n        /* \"#utility.yul\":4456:4473   */\n      add\n        /* \"#utility.yul\":4447:4453   */\n      dup7\n        /* \"#utility.yul\":4403:4474   */\n      tag_142\n      jump\t// in\n    tag_155:\n        /* \"#utility.yul\":4521:4530   */\n      dup2\n        /* \"#utility.yul\":4515:4519   */\n      dup2\n        /* \"#utility.yul\":4511:4531   */\n      sub\n        /* \"#utility.yul\":4506:4508   */\n      0x20\n        /* \"#utility.yul\":4495:4504   */\n      dup4\n        /* \"#utility.yul\":4491:4509   */\n      add\n        /* \"#utility.yul\":4484:4532   */\n      mstore\n        /* \"#utility.yul\":4549:4627   */\n      tag_156\n        /* \"#utility.yul\":4622:4626   */\n      dup2\n        /* \"#utility.yul\":4613:4619   */\n      dup6\n        /* \"#utility.yul\":4549:4627   */\n      tag_127\n      jump\t// in\n    tag_156:\n        /* \"#utility.yul\":4541:4627   */\n      swap1\n      pop\n        /* \"#utility.yul\":4637:4709   */\n      tag_157\n        /* \"#utility.yul\":4705:4707   */\n      0x40\n        /* \"#utility.yul\":4694:4703   */\n      dup4\n        /* \"#utility.yul\":4690:4708   */\n      add\n        /* \"#utility.yul\":4681:4687   */\n      dup5\n        /* \"#utility.yul\":4637:4709   */\n      tag_142\n      jump\t// in\n    tag_157:\n        /* \"#utility.yul\":4183:4716   */\n      swap5\n      swap4\n      pop\n      pop\n      pop\n      pop\n      jump\t// out\n        /* \"#utility.yul\":4722:4851   */\n    tag_90:\n        /* \"#utility.yul\":4756:4762   */\n      0x00\n        /* \"#utility.yul\":4783:4803   */\n      tag_159\n      tag_160\n      jump\t// in\n    tag_159:\n        /* \"#utility.yul\":4773:4803   */\n      swap1\n      pop\n        /* \"#utility.yul\":4812:4845   */\n      tag_161\n        /* \"#utility.yul\":4840:4844   */\n      dup3\n        /* \"#utility.yul\":4832:4838   */\n      dup3\n        /* \"#utility.yul\":4812:4845   */\n      tag_162\n      jump\t// in\n    tag_161:\n        /* \"#utility.yul\":4722:4851   */\n      swap2\n      swap1\n      pop\n      jump\t// out\n        /* \"#utility.yul\":4857:4932   */\n    tag_160:\n        /* \"#utility.yul\":4890:4896   */\n      0x00\n        /* \"#utility.yul\":4923:4925   */\n      0x40\n        /* \"#utility.yul\":4917:4926   */\n      mload\n        /* \"#utility.yul\":4907:4926   */\n      swap1\n      pop\n        /* \"#utility.yul\":4857:4932   */\n      swap1\n      jump\t// out\n        /* \"#utility.yul\":4938:5246   */\n    tag_89:\n        /* \"#utility.yul\":5000:5004   */\n      0x00\n        /* \"#utility.yul\":5090:5108   */\n      0xffffffffffffffff\n        /* \"#utility.yul\":5082:5088   */\n      dup3\n        /* \"#utility.yul\":5079:5109   */\n      gt\n        /* \"#utility.yul\":5076:5132   */\n      iszero\n      tag_165\n      jumpi\n        /* \"#utility.yul\":5112:5130   */\n      tag_166\n      tag_167\n      jump\t// in\n    tag_166:\n        /* \"#utility.yul\":5076:5132   */\n    tag_165:\n        /* \"#utility.yul\":5150:5179   */\n      tag_168\n        /* \"#utility.yul\":5172:5178   */\n      dup3\n        /* \"#utility.yul\":5150:5179   */\n      tag_136\n      jump\t// in\n    tag_168:\n        /* \"#utility.yul\":5142:5179   */\n      swap1\n      pop\n        /* \"#utility.yul\":5234:5238   */\n      0x20\n        /* \"#utility.yul\":5228:5232   */\n      dup2\n        /* \"#utility.yul\":5224:5239   */\n      add\n        /* \"#utility.yul\":5216:5239   */\n      swap1\n      pop\n        /* \"#utility.yul\":4938:5246   */\n      swap2\n      swap1\n      pop\n      jump\t// out\n        /* \"#utility.yul\":5252:5351   */\n    tag_130:\n        /* \"#utility.yul\":5304:5310   */\n      0x00\n        /* \"#utility.yul\":5338:5343   */\n      dup2\n        /* \"#utility.yul\":5332:5344   */\n      mload\n        /* \"#utility.yul\":5322:5344   */\n      swap1\n      pop\n        /* \"#utility.yul\":5252:5351   */\n      swap2\n      swap1\n      pop\n      jump\t// out\n        /* \"#utility.yul\":5357:5526   */\n    tag_132:\n        /* \"#utility.yul\":5441:5452   */\n      0x00\n        /* \"#utility.yul\":5475:5481   */\n      dup3\n        /* \"#utility.yul\":5470:5473   */\n      dup3\n        /* \"#utility.yul\":5463:5482   */\n      mstore\n        /* \"#utility.yul\":5515:5519   */\n      0x20\n        /* \"#utility.yul\":5510:5513   */\n      dup3\n        /* \"#utility.yul\":5506:5520   */\n      add\n        /* \"#utility.yul\":5491:5520   */\n      swap1\n      pop\n        /* \"#utility.yul\":5357:5526   */\n      swap3\n      swap2\n      pop\n      pop\n      jump\t// out\n        /* \"#utility.yul\":5532:5636   */\n    tag_122:\n        /* \"#utility.yul\":5577:5584   */\n      0x00\n        /* \"#utility.yul\":5606:5630   */\n      tag_172\n        /* \"#utility.yul\":5624:5629   */\n      dup3\n        /* \"#utility.yul\":5606:5630   */\n      tag_173\n      jump\t// in\n    tag_172:\n        /* \"#utility.yul\":5595:5630   */\n      swap1\n      pop\n        /* \"#utility.yul\":5532:5636   */\n      swap2\n      swap1\n      pop\n      jump\t// out\n        /* \"#utility.yul\":5642:5732   */\n    tag_126:\n        /* \"#utility.yul\":5676:5683   */\n      0x00\n        /* \"#utility.yul\":5719:5724   */\n      dup2\n        /* \"#utility.yul\":5712:5725   */\n      iszero\n        /* \"#utility.yul\":5705:5726   */\n      iszero\n        /* \"#utility.yul\":5694:5726   */\n      swap1\n      pop\n        /* \"#utility.yul\":5642:5732   */\n      swap2\n      swap1\n      pop\n      jump\t// out\n        /* \"#utility.yul\":5738:5864   */\n    tag_173:\n        /* \"#utility.yul\":5775:5782   */\n      0x00\n        /* \"#utility.yul\":5815:5857   */\n      0xffffffffffffffffffffffffffffffffffffffff\n        /* \"#utility.yul\":5808:5813   */\n      dup3\n        /* \"#utility.yul\":5804:5858   */\n      and\n        /* \"#utility.yul\":5793:5858   */\n      swap1\n      pop\n        /* \"#utility.yul\":5738:5864   */\n      swap2\n      swap1\n      pop\n      jump\t// out\n        /* \"#utility.yul\":5870:5947   */\n    tag_145:\n        /* \"#utility.yul\":5907:5914   */\n      0x00\n        /* \"#utility.yul\":5936:5941   */\n      dup2\n        /* \"#utility.yul\":5925:5941   */\n      swap1\n      pop\n        /* \"#utility.yul\":5870:5947   */\n      swap2\n      swap1\n      pop\n      jump\t// out\n        /* \"#utility.yul\":5953:6107   */\n    tag_95:\n        /* \"#utility.yul\":6037:6043   */\n      dup3\n        /* \"#utility.yul\":6032:6035   */\n      dup2\n        /* \"#utility.yul\":6027:6030   */\n      dup4\n        /* \"#utility.yul\":6014:6044   */\n      calldatacopy\n        /* \"#utility.yul\":6099:6100   */\n      0x00\n        /* \"#utility.yul\":6090:6096   */\n      dup4\n        /* \"#utility.yul\":6085:6088   */\n      dup4\n        /* \"#utility.yul\":6081:6097   */\n      add\n        /* \"#utility.yul\":6074:6101   */\n      mstore\n        /* \"#utility.yul\":5953:6107   */\n      pop\n      pop\n      pop\n      jump\t// out\n        /* \"#utility.yul\":6113:6420   */\n    tag_134:\n        /* \"#utility.yul\":6181:6182   */\n      0x00\n        /* \"#utility.yul\":6191:6304   */\n    tag_179:\n        /* \"#utility.yul\":6205:6211   */\n      dup4\n        /* \"#utility.yul\":6202:6203   */\n      dup2\n        /* \"#utility.yul\":6199:6212   */\n      lt\n        /* \"#utility.yul\":6191:6304   */\n      iszero\n      tag_181\n      jumpi\n        /* \"#utility.yul\":6290:6291   */\n      dup1\n        /* \"#utility.yul\":6285:6288   */\n      dup3\n        /* \"#utility.yul\":6281:6292   */\n      add\n        /* \"#utility.yul\":6275:6293   */\n      mload\n        /* \"#utility.yul\":6271:6272   */\n      dup2\n        /* \"#utility.yul\":6266:6269   */\n      dup5\n        /* \"#utility.yul\":6262:6273   */\n      add\n        /* \"#utility.yul\":6255:6294   */\n      mstore\n        /* \"#utility.yul\":6227:6229   */\n      0x20\n        /* \"#utility.yul\":6224:6225   */\n      dup2\n        /* \"#utility.yul\":6220:6230   */\n      add\n        /* \"#utility.yul\":6215:6230   */\n      swap1\n      pop\n        /* \"#utility.yul\":6191:6304   */\n      jump(tag_179)\n    tag_181:\n        /* \"#utility.yul\":6322:6328   */\n      dup4\n        /* \"#utility.yul\":6319:6320   */\n      dup2\n        /* \"#utility.yul\":6316:6329   */\n      gt\n        /* \"#utility.yul\":6313:6414   */\n      iszero\n      tag_182\n      jumpi\n        /* \"#utility.yul\":6402:6403   */\n      0x00\n        /* \"#utility.yul\":6393:6399   */\n      dup5\n        /* \"#utility.yul\":6388:6391   */\n      dup5\n        /* \"#utility.yul\":6384:6400   */\n      add\n        /* \"#utility.yul\":6377:6404   */\n      mstore\n        /* \"#utility.yul\":6313:6414   */\n    tag_182:\n        /* \"#utility.yul\":6162:6420   */\n      pop\n        /* \"#utility.yul\":6113:6420   */\n      pop\n      pop\n      pop\n      jump\t// out\n        /* \"#utility.yul\":6426:6746   */\n    tag_36:\n        /* \"#utility.yul\":6470:6476   */\n      0x00\n        /* \"#utility.yul\":6507:6508   */\n      0x02\n        /* \"#utility.yul\":6501:6505   */\n      dup3\n        /* \"#utility.yul\":6497:6509   */\n      div\n        /* \"#utility.yul\":6487:6509   */\n      swap1\n      pop\n        /* \"#utility.yul\":6554:6555   */\n      0x01\n        /* \"#utility.yul\":6548:6552   */\n      dup3\n        /* \"#utility.yul\":6544:6556   */\n      and\n        /* \"#utility.yul\":6575:6593   */\n      dup1\n        /* \"#utility.yul\":6565:6646   */\n      tag_184\n      jumpi\n        /* \"#utility.yul\":6631:6635   */\n      0x7f\n        /* \"#utility.yul\":6623:6629   */\n      dup3\n        /* \"#utility.yul\":6619:6636   */\n      and\n        /* \"#utility.yul\":6609:6636   */\n      swap2\n      pop\n        /* \"#utility.yul\":6565:6646   */\n    tag_184:\n        /* \"#utility.yul\":6693:6695   */\n      0x20\n        /* \"#utility.yul\":6685:6691   */\n      dup3\n        /* \"#utility.yul\":6682:6696   */\n      lt\n        /* \"#utility.yul\":6662:6680   */\n      dup2\n        /* \"#utility.yul\":6659:6697   */\n      eq\n        /* \"#utility.yul\":6656:6740   */\n      iszero\n      tag_185\n      jumpi\n        /* \"#utility.yul\":6712:6730   */\n      tag_186\n      tag_187\n      jump\t// in\n    tag_186:\n        /* \"#utility.yul\":6656:6740   */\n    tag_185:\n        /* \"#utility.yul\":6477:6746   */\n      pop\n        /* \"#utility.yul\":6426:6746   */\n      swap2\n      swap1\n      pop\n      jump\t// out\n        /* \"#utility.yul\":6752:7033   */\n    tag_162:\n        /* \"#utility.yul\":6835:6862   */\n      tag_189\n        /* \"#utility.yul\":6857:6861   */\n      dup3\n        /* \"#utility.yul\":6835:6862   */\n      tag_136\n      jump\t// in\n    tag_189:\n        /* \"#utility.yul\":6827:6833   */\n      dup2\n        /* \"#utility.yul\":6823:6863   */\n      add\n        /* \"#utility.yul\":6965:6971   */\n      dup2\n        /* \"#utility.yul\":6953:6963   */\n      dup2\n        /* \"#utility.yul\":6950:6972   */\n      lt\n        /* \"#utility.yul\":6929:6947   */\n      0xffffffffffffffff\n        /* \"#utility.yul\":6917:6927   */\n      dup3\n        /* \"#utility.yul\":6914:6948   */\n      gt\n        /* \"#utility.yul\":6911:6973   */\n      or\n        /* \"#utility.yul\":6908:6996   */\n      iszero\n      tag_190\n      jumpi\n        /* \"#utility.yul\":6976:6994   */\n      tag_191\n      tag_167\n      jump\t// in\n    tag_191:\n        /* \"#utility.yul\":6908:6996   */\n    tag_190:\n        /* \"#utility.yul\":7016:7026   */\n      dup1\n        /* \"#utility.yul\":7012:7014   */\n      0x40\n        /* \"#utility.yul\":7005:7027   */\n      mstore\n        /* \"#utility.yul\":6795:7033   */\n      pop\n        /* \"#utility.yul\":6752:7033   */\n      pop\n      pop\n      jump\t// out\n        /* \"#utility.yul\":7039:7272   */\n    tag_54:\n        /* \"#utility.yul\":7078:7081   */\n      0x00\n        /* \"#utility.yul\":7101:7125   */\n      tag_193\n        /* \"#utility.yul\":7119:7124   */\n      dup3\n        /* \"#utility.yul\":7101:7125   */\n      tag_145\n      jump\t// in\n    tag_193:\n        /* \"#utility.yul\":7092:7125   */\n      swap2\n      pop\n        /* \"#utility.yul\":7147:7213   */\n      0xffffffffffffffffffffffffffffffffffffffffffffffffffffffffffffffff\n        /* \"#utility.yul\":7140:7145   */\n      dup3\n        /* \"#utility.yul\":7137:7214   */\n      eq\n        /* \"#utility.yul\":7134:7237   */\n      iszero\n      tag_194\n      jumpi\n        /* \"#utility.yul\":7217:7235   */\n      tag_195\n      tag_196\n      jump\t// in\n    tag_195:\n        /* \"#utility.yul\":7134:7237   */\n    tag_194:\n        /* \"#utility.yul\":7264:7265   */\n      0x01\n        /* \"#utility.yul\":7257:7262   */\n      dup3\n        /* \"#utility.yul\":7253:7266   */\n      add\n        /* \"#utility.yul\":7246:7266   */\n      swap1\n      pop\n        /* \"#utility.yul\":7039:7272   */\n      swap2\n      swap1\n      pop\n      jump\t// out\n        /* \"#utility.yul\":7278:7458   */\n    tag_196:\n        /* \"#utility.yul\":7326:7403   */\n      0x4e487b7100000000000000000000000000000000000000000000000000000000\n        /* \"#utility.yul\":7323:7324   */\n      0x00\n        /* \"#utility.yul\":7316:7404   */\n      mstore\n        /* \"#utility.yul\":7423:7427   */\n      0x11\n        /* \"#utility.yul\":7420:7421   */\n      0x04\n        /* \"#utility.yul\":7413:7428   */\n      mstore\n        /* \"#utility.yul\":7447:7451   */\n      0x24\n        /* \"#utility.yul\":7444:7445   */\n      0x00\n        /* \"#utility.yul\":7437:7452   */\n      revert\n        /* \"#utility.yul\":7464:7644   */\n    tag_187:\n        /* \"#utility.yul\":7512:7589   */\n      0x4e487b7100000000000000000000000000000000000000000000000000000000\n        /* \"#utility.yul\":7509:7510   */\n      0x00\n        /* \"#utility.yul\":7502:7590   */\n      mstore\n        /* \"#utility.yul\":7609:7613   */\n      0x22\n        /* \"#utility.yul\":7606:7607   */\n      0x04\n        /* \"#utility.yul\":7599:7614   */\n      mstore\n        /* \"#utility.yul\":7633:7637   */\n      0x24\n        /* \"#utility.yul\":7630:7631   */\n      0x00\n        /* \"#utility.yul\":7623:7638   */\n      revert\n        /* \"#utility.yul\":7650:7830   */\n    tag_44:\n        /* \"#utility.yul\":7698:7775   */\n      0x4e487b7100000000000000000000000000000000000000000000000000000000\n        /* \"#utility.yul\":7695:7696   */\n      0x00\n        /* \"#utility.yul\":7688:7776   */\n      mstore\n        /* \"#utility.yul\":7795:7799   */\n      0x32\n        /* \"#utility.yul\":7792:7793   */\n      0x04\n        /* \"#utility.yul\":7785:7800   */\n      mstore\n        /* \"#utility.yul\":7819:7823   */\n      0x24\n        /* \"#utility.yul\":7816:7817   */\n      0x00\n        /* \"#utility.yul\":7809:7824   */\n      revert\n        /* \"#utility.yul\":7836:8016   */\n    tag_167:\n        /* \"#utility.yul\":7884:7961   */\n      0x4e487b7100000000000000000000000000000000000000000000000000000000\n        /* \"#utility.yul\":7881:7882   */\n      0x00\n        /* \"#utility.yul\":7874:7962   */\n      mstore\n        /* \"#utility.yul\":7981:7985   */\n      0x41\n        /* \"#utility.yul\":7978:7979   */\n      0x04\n        /* \"#utility.yul\":7971:7986   */\n      mstore\n        /* \"#utility.yul\":8005:8009   */\n      0x24\n        /* \"#utility.yul\":8002:8003   */\n      0x00\n        /* \"#utility.yul\":7995:8010   */\n      revert\n        /* \"#utility.yul\":8022:8139   */\n    tag_100:\n        /* \"#utility.yul\":8131:8132   */\n      0x00\n        /* \"#utility.yul\":8128:8129   */\n      dup1\n        /* \"#utility.yul\":8121:8133   */\n      revert\n        /* \"#utility.yul\":8145:8262   */\n    tag_93:\n        /* \"#utility.yul\":8254:8255   */\n      0x00\n        /* \"#utility.yul\":8251:8252   */\n      dup1\n        /* \"#utility.yul\":8244:8256   */\n      revert\n        /* \"#utility.yul\":8268:8385   */\n    tag_112:\n        /* \"#utility.yul\":8377:8378   */\n      0x00\n        /* \"#utility.yul\":8374:8375   */\n      dup1\n        /* \"#utility.yul\":8367:8379   */\n      revert\n        /* \"#utility.yul\":8391:8508   */\n    tag_109:\n        /* \"#utility.yul\":8500:8501   */\n      0x00\n        /* \"#utility.yul\":8497:8498   */\n      dup1\n        /* \"#utility.yul\":8490:8502   */\n      revert\n        /* \"#utility.yul\":8514:8616   */\n    tag_136:\n        /* \"#utility.yul\":8555:8561   */\n      0x00\n        /* \"#utility.yul\":8606:8608   */\n      0x1f\n        /* \"#utility.yul\":8602:8609   */\n      not\n        /* \"#utility.yul\":8597:8599   */\n      0x1f\n        /* \"#utility.yul\":8590:8595   */\n      dup4\n        /* \"#utility.yul\":8586:8600   */\n      add\n        /* \"#utility.yul\":8582:8610   */\n      and\n        /* \"#utility.yul\":8572:8610   */\n      swap1\n      pop\n        /* \"#utility.yul\":8514:8616   */\n      swap2\n      swap1\n      pop\n      jump\t// out\n        /* \"#utility.yul\":8622:8793   */\n    tag_141:\n        /* \"#utility.yul\":8762:8785   */\n      0x4c61206d657361206573746120636f6d706c6574610000000000000000000000\n        /* \"#utility.yul\":8758:8759   */\n      0x00\n        /* \"#utility.yul\":8750:8756   */\n      dup3\n        /* \"#utility.yul\":8746:8760   */\n      add\n        /* \"#utility.yul\":8739:8786   */\n      mstore\n        /* \"#utility.yul\":8622:8793   */\n      pop\n      jump\t// out\n        /* \"#utility.yul\":8799:8921   */\n    tag_105:\n        /* \"#utility.yul\":8872:8896   */\n      tag_208\n        /* \"#utility.yul\":8890:8895   */\n      dup2\n        /* \"#utility.yul\":8872:8896   */\n      tag_145\n      jump\t// in\n    tag_208:\n        /* \"#utility.yul\":8865:8870   */\n      dup2\n        /* \"#utility.yul\":8862:8897   */\n      eq\n        /* \"#utility.yul\":8852:8915   */\n      tag_209\n      jumpi\n        /* \"#utility.yul\":8911:8912   */\n      0x00\n        /* \"#utility.yul\":8908:8909   */\n      dup1\n        /* \"#utility.yul\":8901:8913   */\n      revert\n        /* \"#utility.yul\":8852:8915   */\n    tag_209:\n        /* \"#utility.yul\":8799:8921   */\n      pop\n      jump\t// out\n\n    auxdata: 0xa264697066735822122084fec5317bd6c15ca828353772abe23ac6e10037e55b533a8d50518b0caa686464736f6c63430008070033\n}\n",
				"bytecode": {
					"linkReferences": {},
					"object": "60806040526040518060800160405280600160ff168152602001600260ff168152602001600360ff168152602001600460ff168152506001906004610045929190610058565b5034801561005257600080fd5b506100ba565b826004810192821561008c579160200282015b8281111561008b578251829060ff1690559160200191906001019061006b565b5b509050610099919061009d565b5090565b5b808211156100b657600081600090555060010161009e565b5090565b6109c7806100c96000396000f3fe608060405234801561001057600080fd5b50600436106100625760003560e01c80635baea0a714610067578063736266d0146100995780638ba5a84a146100b55780639c627971146100d1578063b4a99a4e14610101578063cd6307bb1461011f575b600080fd5b610081600480360381019061007c9190610563565b61013d565b6040516100909392919061068a565b60405180910390f35b6100b360048036038101906100ae9190610563565b6101ef565b005b6100cf60048036038101906100ca9190610507565b6102a4565b005b6100eb60048036038101906100e69190610563565b610320565b6040516100f8919061066f565b60405180910390f35b610109610355565b6040516101169190610619565b60405180910390f35b610127610379565b6040516101349190610634565b60405180910390f35b6005602052806000526040600020600091509050806000015490806001018054610166906107c4565b80601f0160208091040260200160405190810160405280929190818152602001828054610192906107c4565b80156101df5780601f106101b4576101008083540402835291602001916101df565b820191906000526020600020905b8154815290600101906020018083116101c257829003601f168201915b5050505050908060020154905083565b806006600560006001846004811061020a576102096108ce565b5b0154815260200190815260200160002060020154111561025f576040517f08c379a00000000000000000000000000000000000000000000000000000000081526004016102569061064f565b60405180910390fd5b6005600060018460048110610277576102766108ce565b5b01548152602001908152602001600020600201600081548092919061029b90610827565b91905055505050565b6040518060600160405280828152602001838152602001600181525060056000600184600481106102d8576102d76108ce565b5b0154815260200190815260200160002060008201518160000155602082015181600101908051906020019061030e9291906103df565b50604082015181600201559050505050565b6000600560006001846004811061033a576103396108ce565b5b01548152602001908152602001600020600201549050919050565b60008054906101000a900473ffffffffffffffffffffffffffffffffffffffff1681565b6000806000905060005b600581116103d757600060056000600184600481106103a5576103a46108ce565b5b015481526020019081526020016000206002015414156103c457600191505b80806103cf90610827565b915050610383565b508091505090565b8280546103eb906107c4565b90600052602060002090601f01602090048101928261040d5760008555610454565b82601f1061042657805160ff1916838001178555610454565b82800160010185558215610454579182015b82811115610453578251825591602001919060010190610438565b5b5090506104619190610465565b5090565b5b8082111561047e576000816000905550600101610466565b5090565b6000610495610490846106ed565b6106c8565b9050828152602081018484840111156104b1576104b0610931565b5b6104bc848285610782565b509392505050565b600082601f8301126104d9576104d861092c565b5b81356104e9848260208601610482565b91505092915050565b6000813590506105018161097a565b92915050565b6000806040838503121561051e5761051d61093b565b5b600083013567ffffffffffffffff81111561053c5761053b610936565b5b610548858286016104c4565b9250506020610559858286016104f2565b9150509250929050565b6000602082840312156105795761057861093b565b5b6000610587848285016104f2565b91505092915050565b6105998161073a565b82525050565b6105a88161074c565b82525050565b60006105b98261071e565b6105c38185610729565b93506105d3818560208601610791565b6105dc81610940565b840191505092915050565b60006105f4601583610729565b91506105ff82610951565b602082019050919050565b61061381610778565b82525050565b600060208201905061062e6000830184610590565b92915050565b6000602082019050610649600083018461059f565b92915050565b60006020820190508181036000830152610668816105e7565b9050919050565b6000602082019050610684600083018461060a565b92915050565b600060608201905061069f600083018661060a565b81810360208301526106b181856105ae565b90506106c0604083018461060a565b949350505050565b60006106d26106e3565b90506106de82826107f6565b919050565b6000604051905090565b600067ffffffffffffffff821115610708576107076108fd565b5b61071182610940565b9050602081019050919050565b600081519050919050565b600082825260208201905092915050565b600061074582610758565b9050919050565b60008115159050919050565b600073ffffffffffffffffffffffffffffffffffffffff82169050919050565b6000819050919050565b82818337600083830152505050565b60005b838110156107af578082015181840152602081019050610794565b838111156107be576000848401525b50505050565b600060028204905060018216806107dc57607f821691505b602082108114156107f0576107ef61089f565b5b50919050565b6107ff82610940565b810181811067ffffffffffffffff8211171561081e5761081d6108fd565b5b80604052505050565b600061083282610778565b91507fffffffffffffffffffffffffffffffffffffffffffffffffffffffffffffffff82141561086557610864610870565b5b600182019050919050565b7f4e487b7100000000000000000000000000000000000000000000000000000000600052601160045260246000fd5b7f4e487b7100000000000000000000000000000000000000000000000000000000600052602260045260246000fd5b7f4e487b7100000000000000000000000000000000000000000000000000000000600052603260045260246000fd5b7f4e487b7100000000000000000000000000000000000000000000000000000000600052604160045260246000fd5b600080fd5b600080fd5b600080fd5b600080fd5b6000601f19601f8301169050919050565b7f4c61206d657361206573746120636f6d706c6574610000000000000000000000600082015250565b61098381610778565b811461098e57600080fd5b5056fea264697066735822122084fec5317bd6c15ca828353772abe23ac6e10037e55b533a8d50518b0caa686464736f6c63430008070033",
					"opcodes": "PUSH1 0x80 PUSH1 0x40 MSTORE PUSH1 0x40 MLOAD DUP1 PUSH1 0x80 ADD PUSH1 0x40 MSTORE DUP1 PUSH1 0x1 PUSH1 0xFF AND DUP2 MSTORE PUSH1 0x20 ADD PUSH1 0x2 PUSH1 0xFF AND DUP2 MSTORE PUSH1 0x20 ADD PUSH1 0x3 PUSH1 0xFF AND DUP2 MSTORE PUSH1 0x20 ADD PUSH1 0x4 PUSH1 0xFF AND DUP2 MSTORE POP PUSH1 0x1 SWAP1 PUSH1 0x4 PUSH2 0x45 SWAP3 SWAP2 SWAP1 PUSH2 0x58 JUMP JUMPDEST POP CALLVALUE DUP1 ISZERO PUSH2 0x52 JUMPI PUSH1 0x0 DUP1 REVERT JUMPDEST POP PUSH2 0xBA JUMP JUMPDEST DUP3 PUSH1 0x4 DUP2 ADD SWAP3 DUP3 ISZERO PUSH2 0x8C JUMPI SWAP2 PUSH1 0x20 MUL DUP3 ADD JUMPDEST DUP3 DUP2 GT ISZERO PUSH2 0x8B JUMPI DUP3 MLOAD DUP3 SWAP1 PUSH1 0xFF AND SWAP1 SSTORE SWAP2 PUSH1 0x20 ADD SWAP2 SWAP1 PUSH1 0x1 ADD SWAP1 PUSH2 0x6B JUMP JUMPDEST JUMPDEST POP SWAP1 POP PUSH2 0x99 SWAP2 SWAP1 PUSH2 0x9D JUMP JUMPDEST POP SWAP1 JUMP JUMPDEST JUMPDEST DUP1 DUP3 GT ISZERO PUSH2 0xB6 JUMPI PUSH1 0x0 DUP2 PUSH1 0x0 SWAP1 SSTORE POP PUSH1 0x1 ADD PUSH2 0x9E JUMP JUMPDEST POP SWAP1 JUMP JUMPDEST PUSH2 0x9C7 DUP1 PUSH2 0xC9 PUSH1 0x0 CODECOPY PUSH1 0x0 RETURN INVALID PUSH1 0x80 PUSH1 0x40 MSTORE CALLVALUE DUP1 ISZERO PUSH2 0x10 JUMPI PUSH1 0x0 DUP1 REVERT JUMPDEST POP PUSH1 0x4 CALLDATASIZE LT PUSH2 0x62 JUMPI PUSH1 0x0 CALLDATALOAD PUSH1 0xE0 SHR DUP1 PUSH4 0x5BAEA0A7 EQ PUSH2 0x67 JUMPI DUP1 PUSH4 0x736266D0 EQ PUSH2 0x99 JUMPI DUP1 PUSH4 0x8BA5A84A EQ PUSH2 0xB5 JUMPI DUP1 PUSH4 0x9C627971 EQ PUSH2 0xD1 JUMPI DUP1 PUSH4 0xB4A99A4E EQ PUSH2 0x101 JUMPI DUP1 PUSH4 0xCD6307BB EQ PUSH2 0x11F JUMPI JUMPDEST PUSH1 0x0 DUP1 REVERT JUMPDEST PUSH2 0x81 PUSH1 0x4 DUP1 CALLDATASIZE SUB DUP2 ADD SWAP1 PUSH2 0x7C SWAP2 SWAP1 PUSH2 0x563 JUMP JUMPDEST PUSH2 0x13D JUMP JUMPDEST PUSH1 0x40 MLOAD PUSH2 0x90 SWAP4 SWAP3 SWAP2 SWAP1 PUSH2 0x68A JUMP JUMPDEST PUSH1 0x40 MLOAD DUP1 SWAP2 SUB SWAP1 RETURN JUMPDEST PUSH2 0xB3 PUSH1 0x4 DUP1 CALLDATASIZE SUB DUP2 ADD SWAP1 PUSH2 0xAE SWAP2 SWAP1 PUSH2 0x563 JUMP JUMPDEST PUSH2 0x1EF JUMP JUMPDEST STOP JUMPDEST PUSH2 0xCF PUSH1 0x4 DUP1 CALLDATASIZE SUB DUP2 ADD SWAP1 PUSH2 0xCA SWAP2 SWAP1 PUSH2 0x507 JUMP JUMPDEST PUSH2 0x2A4 JUMP JUMPDEST STOP JUMPDEST PUSH2 0xEB PUSH1 0x4 DUP1 CALLDATASIZE SUB DUP2 ADD SWAP1 PUSH2 0xE6 SWAP2 SWAP1 PUSH2 0x563 JUMP JUMPDEST PUSH2 0x320 JUMP JUMPDEST PUSH1 0x40 MLOAD PUSH2 0xF8 SWAP2 SWAP1 PUSH2 0x66F JUMP JUMPDEST PUSH1 0x40 MLOAD DUP1 SWAP2 SUB SWAP1 RETURN JUMPDEST PUSH2 0x109 PUSH2 0x355 JUMP JUMPDEST PUSH1 0x40 MLOAD PUSH2 0x116 SWAP2 SWAP1 PUSH2 0x619 JUMP JUMPDEST PUSH1 0x40 MLOAD DUP1 SWAP2 SUB SWAP1 RETURN JUMPDEST PUSH2 0x127 PUSH2 0x379 JUMP JUMPDEST PUSH1 0x40 MLOAD PUSH2 0x134 SWAP2 SWAP1 PUSH2 0x634 JUMP JUMPDEST PUSH1 0x40 MLOAD DUP1 SWAP2 SUB SWAP1 RETURN JUMPDEST PUSH1 0x5 PUSH1 0x20 MSTORE DUP1 PUSH1 0x0 MSTORE PUSH1 0x40 PUSH1 0x0 KECCAK256 PUSH1 0x0 SWAP2 POP SWAP1 POP DUP1 PUSH1 0x0 ADD SLOAD SWAP1 DUP1 PUSH1 0x1 ADD DUP1 SLOAD PUSH2 0x166 SWAP1 PUSH2 0x7C4 JUMP JUMPDEST DUP1 PUSH1 0x1F ADD PUSH1 0x20 DUP1 SWAP2 DIV MUL PUSH1 0x20 ADD PUSH1 0x40 MLOAD SWAP1 DUP2 ADD PUSH1 0x40 MSTORE DUP1 SWAP3 SWAP2 SWAP1 DUP2 DUP2 MSTORE PUSH1 0x20 ADD DUP3 DUP1 SLOAD PUSH2 0x192 SWAP1 PUSH2 0x7C4 JUMP JUMPDEST DUP1 ISZERO PUSH2 0x1DF JUMPI DUP1 PUSH1 0x1F LT PUSH2 0x1B4 JUMPI PUSH2 0x100 DUP1 DUP4 SLOAD DIV MUL DUP4 MSTORE SWAP2 PUSH1 0x20 ADD SWAP2 PUSH2 0x1DF JUMP JUMPDEST DUP3 ADD SWAP2 SWAP1 PUSH1 0x0 MSTORE PUSH1 0x20 PUSH1 0x0 KECCAK256 SWAP1 JUMPDEST DUP2 SLOAD DUP2 MSTORE SWAP1 PUSH1 0x1 ADD SWAP1 PUSH1 0x20 ADD DUP1 DUP4 GT PUSH2 0x1C2 JUMPI DUP3 SWAP1 SUB PUSH1 0x1F AND DUP3 ADD SWAP2 JUMPDEST POP POP POP POP POP SWAP1 DUP1 PUSH1 0x2 ADD SLOAD SWAP1 POP DUP4 JUMP JUMPDEST DUP1 PUSH1 0x6 PUSH1 0x5 PUSH1 0x0 PUSH1 0x1 DUP5 PUSH1 0x4 DUP2 LT PUSH2 0x20A JUMPI PUSH2 0x209 PUSH2 0x8CE JUMP JUMPDEST JUMPDEST ADD SLOAD DUP2 MSTORE PUSH1 0x20 ADD SWAP1 DUP2 MSTORE PUSH1 0x20 ADD PUSH1 0x0 KECCAK256 PUSH1 0x2 ADD SLOAD GT ISZERO PUSH2 0x25F JUMPI PUSH1 0x40 MLOAD PUSH32 0x8C379A000000000000000000000000000000000000000000000000000000000 DUP2 MSTORE PUSH1 0x4 ADD PUSH2 0x256 SWAP1 PUSH2 0x64F JUMP JUMPDEST PUSH1 0x40 MLOAD DUP1 SWAP2 SUB SWAP1 REVERT JUMPDEST PUSH1 0x5 PUSH1 0x0 PUSH1 0x1 DUP5 PUSH1 0x4 DUP2 LT PUSH2 0x277 JUMPI PUSH2 0x276 PUSH2 0x8CE JUMP JUMPDEST JUMPDEST ADD SLOAD DUP2 MSTORE PUSH1 0x20 ADD SWAP1 DUP2 MSTORE PUSH1 0x20 ADD PUSH1 0x0 KECCAK256 PUSH1 0x2 ADD PUSH1 0x0 DUP2 SLOAD DUP1 SWAP3 SWAP2 SWAP1 PUSH2 0x29B SWAP1 PUSH2 0x827 JUMP JUMPDEST SWAP2 SWAP1 POP SSTORE POP POP POP JUMP JUMPDEST PUSH1 0x40 MLOAD DUP1 PUSH1 0x60 ADD PUSH1 0x40 MSTORE DUP1 DUP3 DUP2 MSTORE PUSH1 0x20 ADD DUP4 DUP2 MSTORE PUSH1 0x20 ADD PUSH1 0x1 DUP2 MSTORE POP PUSH1 0x5 PUSH1 0x0 PUSH1 0x1 DUP5 PUSH1 0x4 DUP2 LT PUSH2 0x2D8 JUMPI PUSH2 0x2D7 PUSH2 0x8CE JUMP JUMPDEST JUMPDEST ADD SLOAD DUP2 MSTORE PUSH1 0x20 ADD SWAP1 DUP2 MSTORE PUSH1 0x20 ADD PUSH1 0x0 KECCAK256 PUSH1 0x0 DUP3 ADD MLOAD DUP2 PUSH1 0x0 ADD SSTORE PUSH1 0x20 DUP3 ADD MLOAD DUP2 PUSH1 0x1 ADD SWAP1 DUP1 MLOAD SWAP1 PUSH1 0x20 ADD SWAP1 PUSH2 0x30E SWAP3 SWAP2 SWAP1 PUSH2 0x3DF JUMP JUMPDEST POP PUSH1 0x40 DUP3 ADD MLOAD DUP2 PUSH1 0x2 ADD SSTORE SWAP1 POP POP POP POP JUMP JUMPDEST PUSH1 0x0 PUSH1 0x5 PUSH1 0x0 PUSH1 0x1 DUP5 PUSH1 0x4 DUP2 LT PUSH2 0x33A JUMPI PUSH2 0x339 PUSH2 0x8CE JUMP JUMPDEST JUMPDEST ADD SLOAD DUP2 MSTORE PUSH1 0x20 ADD SWAP1 DUP2 MSTORE PUSH1 0x20 ADD PUSH1 0x0 KECCAK256 PUSH1 0x2 ADD SLOAD SWAP1 POP SWAP2 SWAP1 POP JUMP JUMPDEST PUSH1 0x0 DUP1 SLOAD SWAP1 PUSH2 0x100 EXP SWAP1 DIV PUSH20 0xFFFFFFFFFFFFFFFFFFFFFFFFFFFFFFFFFFFFFFFF AND DUP2 JUMP JUMPDEST PUSH1 0x0 DUP1 PUSH1 0x0 SWAP1 POP PUSH1 0x0 JUMPDEST PUSH1 0x5 DUP2 GT PUSH2 0x3D7 JUMPI PUSH1 0x0 PUSH1 0x5 PUSH1 0x0 PUSH1 0x1 DUP5 PUSH1 0x4 DUP2 LT PUSH2 0x3A5 JUMPI PUSH2 0x3A4 PUSH2 0x8CE JUMP JUMPDEST JUMPDEST ADD SLOAD DUP2 MSTORE PUSH1 0x20 ADD SWAP1 DUP2 MSTORE PUSH1 0x20 ADD PUSH1 0x0 KECCAK256 PUSH1 0x2 ADD SLOAD EQ ISZERO PUSH2 0x3C4 JUMPI PUSH1 0x1 SWAP2 POP JUMPDEST DUP1 DUP1 PUSH2 0x3CF SWAP1 PUSH2 0x827 JUMP JUMPDEST SWAP2 POP POP PUSH2 0x383 JUMP JUMPDEST POP DUP1 SWAP2 POP POP SWAP1 JUMP JUMPDEST DUP3 DUP1 SLOAD PUSH2 0x3EB SWAP1 PUSH2 0x7C4 JUMP JUMPDEST SWAP1 PUSH1 0x0 MSTORE PUSH1 0x20 PUSH1 0x0 KECCAK256 SWAP1 PUSH1 0x1F ADD PUSH1 0x20 SWAP1 DIV DUP2 ADD SWAP3 DUP3 PUSH2 0x40D JUMPI PUSH1 0x0 DUP6 SSTORE PUSH2 0x454 JUMP JUMPDEST DUP3 PUSH1 0x1F LT PUSH2 0x426 JUMPI DUP1 MLOAD PUSH1 0xFF NOT AND DUP4 DUP1 ADD OR DUP6 SSTORE PUSH2 0x454 JUMP JUMPDEST DUP3 DUP1 ADD PUSH1 0x1 ADD DUP6 SSTORE DUP3 ISZERO PUSH2 0x454 JUMPI SWAP2 DUP3 ADD JUMPDEST DUP3 DUP2 GT ISZERO PUSH2 0x453 JUMPI DUP3 MLOAD DUP3 SSTORE SWAP2 PUSH1 0x20 ADD SWAP2 SWAP1 PUSH1 0x1 ADD SWAP1 PUSH2 0x438 JUMP JUMPDEST JUMPDEST POP SWAP1 POP PUSH2 0x461 SWAP2 SWAP1 PUSH2 0x465 JUMP JUMPDEST POP SWAP1 JUMP JUMPDEST JUMPDEST DUP1 DUP3 GT ISZERO PUSH2 0x47E JUMPI PUSH1 0x0 DUP2 PUSH1 0x0 SWAP1 SSTORE POP PUSH1 0x1 ADD PUSH2 0x466 JUMP JUMPDEST POP SWAP1 JUMP JUMPDEST PUSH1 0x0 PUSH2 0x495 PUSH2 0x490 DUP5 PUSH2 0x6ED JUMP JUMPDEST PUSH2 0x6C8 JUMP JUMPDEST SWAP1 POP DUP3 DUP2 MSTORE PUSH1 0x20 DUP2 ADD DUP5 DUP5 DUP5 ADD GT ISZERO PUSH2 0x4B1 JUMPI PUSH2 0x4B0 PUSH2 0x931 JUMP JUMPDEST JUMPDEST PUSH2 0x4BC DUP5 DUP3 DUP6 PUSH2 0x782 JUMP JUMPDEST POP SWAP4 SWAP3 POP POP POP JUMP JUMPDEST PUSH1 0x0 DUP3 PUSH1 0x1F DUP4 ADD SLT PUSH2 0x4D9 JUMPI PUSH2 0x4D8 PUSH2 0x92C JUMP JUMPDEST JUMPDEST DUP2 CALLDATALOAD PUSH2 0x4E9 DUP5 DUP3 PUSH1 0x20 DUP7 ADD PUSH2 0x482 JUMP JUMPDEST SWAP2 POP POP SWAP3 SWAP2 POP POP JUMP JUMPDEST PUSH1 0x0 DUP2 CALLDATALOAD SWAP1 POP PUSH2 0x501 DUP2 PUSH2 0x97A JUMP JUMPDEST SWAP3 SWAP2 POP POP JUMP JUMPDEST PUSH1 0x0 DUP1 PUSH1 0x40 DUP4 DUP6 SUB SLT ISZERO PUSH2 0x51E JUMPI PUSH2 0x51D PUSH2 0x93B JUMP JUMPDEST JUMPDEST PUSH1 0x0 DUP4 ADD CALLDATALOAD PUSH8 0xFFFFFFFFFFFFFFFF DUP2 GT ISZERO PUSH2 0x53C JUMPI PUSH2 0x53B PUSH2 0x936 JUMP JUMPDEST JUMPDEST PUSH2 0x548 DUP6 DUP3 DUP7 ADD PUSH2 0x4C4 JUMP JUMPDEST SWAP3 POP POP PUSH1 0x20 PUSH2 0x559 DUP6 DUP3 DUP7 ADD PUSH2 0x4F2 JUMP JUMPDEST SWAP2 POP POP SWAP3 POP SWAP3 SWAP1 POP JUMP JUMPDEST PUSH1 0x0 PUSH1 0x20 DUP3 DUP5 SUB SLT ISZERO PUSH2 0x579 JUMPI PUSH2 0x578 PUSH2 0x93B JUMP JUMPDEST JUMPDEST PUSH1 0x0 PUSH2 0x587 DUP5 DUP3 DUP6 ADD PUSH2 0x4F2 JUMP JUMPDEST SWAP2 POP POP SWAP3 SWAP2 POP POP JUMP JUMPDEST PUSH2 0x599 DUP2 PUSH2 0x73A JUMP JUMPDEST DUP3 MSTORE POP POP JUMP JUMPDEST PUSH2 0x5A8 DUP2 PUSH2 0x74C JUMP JUMPDEST DUP3 MSTORE POP POP JUMP JUMPDEST PUSH1 0x0 PUSH2 0x5B9 DUP3 PUSH2 0x71E JUMP JUMPDEST PUSH2 0x5C3 DUP2 DUP6 PUSH2 0x729 JUMP JUMPDEST SWAP4 POP PUSH2 0x5D3 DUP2 DUP6 PUSH1 0x20 DUP7 ADD PUSH2 0x791 JUMP JUMPDEST PUSH2 0x5DC DUP2 PUSH2 0x940 JUMP JUMPDEST DUP5 ADD SWAP2 POP POP SWAP3 SWAP2 POP POP JUMP JUMPDEST PUSH1 0x0 PUSH2 0x5F4 PUSH1 0x15 DUP4 PUSH2 0x729 JUMP JUMPDEST SWAP2 POP PUSH2 0x5FF DUP3 PUSH2 0x951 JUMP JUMPDEST PUSH1 0x20 DUP3 ADD SWAP1 POP SWAP2 SWAP1 POP JUMP JUMPDEST PUSH2 0x613 DUP2 PUSH2 0x778 JUMP JUMPDEST DUP3 MSTORE POP POP JUMP JUMPDEST PUSH1 0x0 PUSH1 0x20 DUP3 ADD SWAP1 POP PUSH2 0x62E PUSH1 0x0 DUP4 ADD DUP5 PUSH2 0x590 JUMP JUMPDEST SWAP3 SWAP2 POP POP JUMP JUMPDEST PUSH1 0x0 PUSH1 0x20 DUP3 ADD SWAP1 POP PUSH2 0x649 PUSH1 0x0 DUP4 ADD DUP5 PUSH2 0x59F JUMP JUMPDEST SWAP3 SWAP2 POP POP JUMP JUMPDEST PUSH1 0x0 PUSH1 0x20 DUP3 ADD SWAP1 POP DUP2 DUP2 SUB PUSH1 0x0 DUP4 ADD MSTORE PUSH2 0x668 DUP2 PUSH2 0x5E7 JUMP JUMPDEST SWAP1 POP SWAP2 SWAP1 POP JUMP JUMPDEST PUSH1 0x0 PUSH1 0x20 DUP3 ADD SWAP1 POP PUSH2 0x684 PUSH1 0x0 DUP4 ADD DUP5 PUSH2 0x60A JUMP JUMPDEST SWAP3 SWAP2 POP POP JUMP JUMPDEST PUSH1 0x0 PUSH1 0x60 DUP3 ADD SWAP1 POP PUSH2 0x69F PUSH1 0x0 DUP4 ADD DUP7 PUSH2 0x60A JUMP JUMPDEST DUP2 DUP2 SUB PUSH1 0x20 DUP4 ADD MSTORE PUSH2 0x6B1 DUP2 DUP6 PUSH2 0x5AE JUMP JUMPDEST SWAP1 POP PUSH2 0x6C0 PUSH1 0x40 DUP4 ADD DUP5 PUSH2 0x60A JUMP JUMPDEST SWAP5 SWAP4 POP POP POP POP JUMP JUMPDEST PUSH1 0x0 PUSH2 0x6D2 PUSH2 0x6E3 JUMP JUMPDEST SWAP1 POP PUSH2 0x6DE DUP3 DUP3 PUSH2 0x7F6 JUMP JUMPDEST SWAP2 SWAP1 POP JUMP JUMPDEST PUSH1 0x0 PUSH1 0x40 MLOAD SWAP1 POP SWAP1 JUMP JUMPDEST PUSH1 0x0 PUSH8 0xFFFFFFFFFFFFFFFF DUP3 GT ISZERO PUSH2 0x708 JUMPI PUSH2 0x707 PUSH2 0x8FD JUMP JUMPDEST JUMPDEST PUSH2 0x711 DUP3 PUSH2 0x940 JUMP JUMPDEST SWAP1 POP PUSH1 0x20 DUP2 ADD SWAP1 POP SWAP2 SWAP1 POP JUMP JUMPDEST PUSH1 0x0 DUP2 MLOAD SWAP1 POP SWAP2 SWAP1 POP JUMP JUMPDEST PUSH1 0x0 DUP3 DUP3 MSTORE PUSH1 0x20 DUP3 ADD SWAP1 POP SWAP3 SWAP2 POP POP JUMP JUMPDEST PUSH1 0x0 PUSH2 0x745 DUP3 PUSH2 0x758 JUMP JUMPDEST SWAP1 POP SWAP2 SWAP1 POP JUMP JUMPDEST PUSH1 0x0 DUP2 ISZERO ISZERO SWAP1 POP SWAP2 SWAP1 POP JUMP JUMPDEST PUSH1 0x0 PUSH20 0xFFFFFFFFFFFFFFFFFFFFFFFFFFFFFFFFFFFFFFFF DUP3 AND SWAP1 POP SWAP2 SWAP1 POP JUMP JUMPDEST PUSH1 0x0 DUP2 SWAP1 POP SWAP2 SWAP1 POP JUMP JUMPDEST DUP3 DUP2 DUP4 CALLDATACOPY PUSH1 0x0 DUP4 DUP4 ADD MSTORE POP POP POP JUMP JUMPDEST PUSH1 0x0 JUMPDEST DUP4 DUP2 LT ISZERO PUSH2 0x7AF JUMPI DUP1 DUP3 ADD MLOAD DUP2 DUP5 ADD MSTORE PUSH1 0x20 DUP2 ADD SWAP1 POP PUSH2 0x794 JUMP JUMPDEST DUP4 DUP2 GT ISZERO PUSH2 0x7BE JUMPI PUSH1 0x0 DUP5 DUP5 ADD MSTORE JUMPDEST POP POP POP POP JUMP JUMPDEST PUSH1 0x0 PUSH1 0x2 DUP3 DIV SWAP1 POP PUSH1 0x1 DUP3 AND DUP1 PUSH2 0x7DC JUMPI PUSH1 0x7F DUP3 AND SWAP2 POP JUMPDEST PUSH1 0x20 DUP3 LT DUP2 EQ ISZERO PUSH2 0x7F0 JUMPI PUSH2 0x7EF PUSH2 0x89F JUMP JUMPDEST JUMPDEST POP SWAP2 SWAP1 POP JUMP JUMPDEST PUSH2 0x7FF DUP3 PUSH2 0x940 JUMP JUMPDEST DUP2 ADD DUP2 DUP2 LT PUSH8 0xFFFFFFFFFFFFFFFF DUP3 GT OR ISZERO PUSH2 0x81E JUMPI PUSH2 0x81D PUSH2 0x8FD JUMP JUMPDEST JUMPDEST DUP1 PUSH1 0x40 MSTORE POP POP POP JUMP JUMPDEST PUSH1 0x0 PUSH2 0x832 DUP3 PUSH2 0x778 JUMP JUMPDEST SWAP2 POP PUSH32 0xFFFFFFFFFFFFFFFFFFFFFFFFFFFFFFFFFFFFFFFFFFFFFFFFFFFFFFFFFFFFFFFF DUP3 EQ ISZERO PUSH2 0x865 JUMPI PUSH2 0x864 PUSH2 0x870 JUMP JUMPDEST JUMPDEST PUSH1 0x1 DUP3 ADD SWAP1 POP SWAP2 SWAP1 POP JUMP JUMPDEST PUSH32 0x4E487B7100000000000000000000000000000000000000000000000000000000 PUSH1 0x0 MSTORE PUSH1 0x11 PUSH1 0x4 MSTORE PUSH1 0x24 PUSH1 0x0 REVERT JUMPDEST PUSH32 0x4E487B7100000000000000000000000000000000000000000000000000000000 PUSH1 0x0 MSTORE PUSH1 0x22 PUSH1 0x4 MSTORE PUSH1 0x24 PUSH1 0x0 REVERT JUMPDEST PUSH32 0x4E487B7100000000000000000000000000000000000000000000000000000000 PUSH1 0x0 MSTORE PUSH1 0x32 PUSH1 0x4 MSTORE PUSH1 0x24 PUSH1 0x0 REVERT JUMPDEST PUSH32 0x4E487B7100000000000000000000000000000000000000000000000000000000 PUSH1 0x0 MSTORE PUSH1 0x41 PUSH1 0x4 MSTORE PUSH1 0x24 PUSH1 0x0 REVERT JUMPDEST PUSH1 0x0 DUP1 REVERT JUMPDEST PUSH1 0x0 DUP1 REVERT JUMPDEST PUSH1 0x0 DUP1 REVERT JUMPDEST PUSH1 0x0 DUP1 REVERT JUMPDEST PUSH1 0x0 PUSH1 0x1F NOT PUSH1 0x1F DUP4 ADD AND SWAP1 POP SWAP2 SWAP1 POP JUMP JUMPDEST PUSH32 0x4C61206D657361206573746120636F6D706C6574610000000000000000000000 PUSH1 0x0 DUP3 ADD MSTORE POP JUMP JUMPDEST PUSH2 0x983 DUP2 PUSH2 0x778 JUMP JUMPDEST DUP2 EQ PUSH2 0x98E JUMPI PUSH1 0x0 DUP1 REVERT JUMPDEST POP JUMP INVALID LOG2 PUSH5 0x6970667358 0x22 SLT KECCAK256 DUP5 INVALID 0xC5 BALANCE PUSH28 0xD6C15CA828353772ABE23AC6E10037E55B533A8D50518B0CAA686464 PUSH20 0x6F6C634300080700330000000000000000000000 "
				},
				"gasEstimates": {
					"creation": {
						"codeDepositCost": "500600",
						"executionCost": "infinite",
						"totalCost": "infinite"
					},
					"external": {
						"AlgunaMesaDisponible()": "infinite",
						"NuevoClienteNuevaMesa(string,uint256)": "infinite",
						"NuevoClienteViejaMesa(uint256)": "infinite",
						"Owner()": "2577",
						"mesa(uint256)": "infinite",
						"verMesa(uint256)": "infinite"
					},
					"internal": {
						"vaciarMesa(uint256)": "infinite"
					}
				},
				"methodIdentifiers": {
					"AlgunaMesaDisponible()": "cd6307bb",
					"NuevoClienteNuevaMesa(string,uint256)": "8ba5a84a",
					"NuevoClienteViejaMesa(uint256)": "736266d0",
					"Owner()": "b4a99a4e",
					"mesa(uint256)": "5baea0a7",
					"verMesa(uint256)": "9c627971"
				}
			},
			"storageLayout": {
				"storage": [
					{
						"astId": 3,
						"contract": "Pruebas y Primeros pasos/Restaurante.sol:Restaurante",
						"label": "Owner",
						"offset": 0,
						"slot": "0",
						"type": "t_address_payable"
					},
					{
						"astId": 19,
						"contract": "Pruebas y Primeros pasos/Restaurante.sol:Restaurante",
						"label": "numeroMesa",
						"offset": 0,
						"slot": "1",
						"type": "t_array(t_uint256)4_storage"
					},
					{
						"astId": 24,
						"contract": "Pruebas y Primeros pasos/Restaurante.sol:Restaurante",
						"label": "mesa",
						"offset": 0,
						"slot": "5",
						"type": "t_mapping(t_uint256,t_struct(mesas)10_storage)"
					}
				],
				"types": {
					"t_address_payable": {
						"encoding": "inplace",
						"label": "address payable",
						"numberOfBytes": "20"
					},
					"t_array(t_uint256)4_storage": {
						"base": "t_uint256",
						"encoding": "inplace",
						"label": "uint256[4]",
						"numberOfBytes": "128"
					},
					"t_mapping(t_uint256,t_struct(mesas)10_storage)": {
						"encoding": "mapping",
						"key": "t_uint256",
						"label": "mapping(uint256 => struct Restaurante.mesas)",
						"numberOfBytes": "32",
						"value": "t_struct(mesas)10_storage"
					},
					"t_string_storage": {
						"encoding": "bytes",
						"label": "string",
						"numberOfBytes": "32"
					},
					"t_struct(mesas)10_storage": {
						"encoding": "inplace",
						"label": "struct Restaurante.mesas",
						"members": [
							{
								"astId": 5,
								"contract": "Pruebas y Primeros pasos/Restaurante.sol:Restaurante",
								"label": "numeroMesa",
								"offset": 0,
								"slot": "0",
								"type": "t_uint256"
							},
							{
								"astId": 7,
								"contract": "Pruebas y Primeros pasos/Restaurante.sol:Restaurante",
								"label": "nombreCliente",
								"offset": 0,
								"slot": "1",
								"type": "t_string_storage"
							},
							{
								"astId": 9,
								"contract": "Pruebas y Primeros pasos/Restaurante.sol:Restaurante",
								"label": "totalClientes",
								"offset": 0,
								"slot": "2",
								"type": "t_uint256"
							}
						],
						"numberOfBytes": "96"
					},
					"t_uint256": {
						"encoding": "inplace",
						"label": "uint256",
						"numberOfBytes": "32"
					}
				}
			},
			"userdoc": {
				"kind": "user",
				"methods": {},
				"version": 1
			}
		}
	}
}